:020000040800F2
:10000000A8830120AD010008D9AD0008F1790008EE
:10001000E5A90008DD1C0008E1D40008000000008C
:10002000000000000000000000000000A1BA00086D
:10003000813E000800000000BDAF0008E1C30008D9
:10004000C7010008C7010008C7010008C701000870
:10005000C7010008C7010008BD400008D1400008E2
:10006000C7010008E5400008C7010008C7010008F3
:10007000C7010008C7010008C7010008C701000840
:10008000C7010008C93C0008B90C000800000000C6
:10009000000000000000000000000000F94000081F
:1000A000C7010008C7010008C7010008C701000810
:1000B000C7010008C701000801C70008C701000800
:1000C000C7010008C7010008C7010008C7010008F0
:1000D000C70100087DD400088DD40008000000008E
:1000E000C7010008C7010008C701000800000000A0
:1000F000000000000000000000000000C701000830
:1001000000000000C7010008C7010008C70100087F
:1001100000000000000000000000000000000000DF
:10012000E13C0008C7010008C7010008C70100083A
:10013000C7010008000000000000000000000000EF
:10014000000000000000000000000000C7010008DF
:10015000C7010008F13C0008013D00089DD40008DB
:10016000C7010008C70100080000000000000000EF
:10017000000000000000000000000000000000007F
:1001800000000000C701000800000000000000009F
:10019000C7010008C7010008DFF80CD000F04AFCD6
:1001A00000480047C9020108A8830120064880478B
:1001B00006480047FEE7FEE7FEE7FEE7FEE7FEE74C
:1001C000FEE7FEE7FEE7FEE7C9C500089901000863
:1001D0002DE9F05F0546002092469B46884606467C
:1001E000814640241BE0284641464746224600F00F
:1001F00020F853465A46C01A914110D3114618466A
:10020000224600F086FA2D1A67EB01084F46224677
:100210000120002100F07DFA17EB00094E41201E5D
:10022000A4F10104DFDC484631462A464346BDE8D6
:10023000F09F202A04DB203A21FA02F000217047C7
:1002400021FA02F3D040C2F120029140084319463E
:1002500070472DE9FE43994615468846074601AC8E
:10026000022942D3002D40D000200290A8F10100C5
:100270004FF0FF36009022E000FB057201FB057095
:1002800011464A469047002805DC54F826003044C1
:1002900044F8260013E060682A4600FB057154F814
:1002A000040C00FB057007E00B7890F800C001F823
:1002B00001CB00F8013B521E002AF5D1764254F8DA
:1002C000040C61688842D7DC4B462A463846FFF763
:1002D000C0FF54F8040C4B46A8EB0001401C00FB87
:1002E00005702A46491EFFF7B4FFBDE8FE83D2B26F
:1002F00001E000F8012B491EFBD270470022F6E70F
:1003000010B513460A4604461946FFF7F0FF20468B
:1003100010BD421C10F8011B0029FBD1801A704748
:1003200010B5002200E0521C835C8C5CA34201D11A
:10033000002BF8D1D8B2E1B2401A10BD70B5064614
:100340000DF04CF9046805460A220021304600F001
:1003500001FA2C6070BD2DE9FE4F804681EA030052
:10036000C00F0C46009021F0004123F00045B8EB8F
:100370000200A94105D24046214690461C460B4644
:10038000024623F00040104347D0270DC7F30A0070
:10039000C3F30A510290401A019040286BDAC3F36C
:1003A000130040F4801B0098924620B10023D2EB4A
:1003B000030A63EB0B0B01985946C0F1400250460B
:1003C00000F0A7F906460D4650465946019A00F03E
:1003D000AFF910EB08006141002487EA115284EA6A
:1003E000E7731A4340D0009A62B3019A012A4FEA98
:1003F000075215DC001B61EB02014FF0004202EADC
:100400000752CDE90042001C41F5801132462B46CF
:1004100000F01EFA03B0BDE8F08F40462146F9E730
:10042000001B61EB0201001C41F5801300185B41C9
:100430002018A2F5001747EB030140EAD570B61962
:100440006D4111E06D084FEA360645EAC0754FEA86
:100450000752001B61EB0201001C41F580114908A5
:100460004FEA30000019514132462B4603B0BDE837
:10047000F04F00F0DEB90098012240000023D0EBDD
:10048000020263EBE073009821464FEAE074B8EB98
:10049000000061EB0401E9E783F000435BE781F0D2
:1004A000004158E72DE9FE4F81EA030404F00044BF
:1004B00021F0004100944FF0000B23F0004350EA7C
:1004C00001045ED052EA03045BD0C3F30A54C1F3C3
:1004D0000A552C44A4F2F3340194A0FB0254C1F356
:1004E000130141F48011C3F3130343F4801301FBA0
:1004F000024400FB034E840A970A44EA815447EA07
:100500008357A4FB076802958D0A05FB07854FEA10
:10051000932C04FB0C542705029D4FEA065847EA2A
:100520001637B5EB08056EEB070C870E920E47EAFF
:10053000811742EA8312A7FB0201B6EB0B0164EBC1
:1005400000042B0D43EA0C335E1844EB1C50DA46D2
:100550005146E7FB0201C5F313044FEA0B3343EAAC
:1005600014534FEA0432019C43EA0603A4F10C043D
:100570000294009CCDE900B400F06AF903B0BDE834
:10058000F08F00200146F9E72DE9F04D81EA0304E0
:1005900004F0004B21F0004514464FF0000A23F010
:1005A000004150EA050220D054EA01021DD0C5F3F3
:1005B0000A570246C5F31303C1F31300C1F30A56E9
:1005C00040F4801543F48013A7EB0608101BD646B1
:1005D00008F2FD3873EB050002D308F1010801E0D1
:1005E00092185B41B8F1000F03DA00200146BDE824
:1005F000F08D00204FF48011064684460EE0171B54
:1006000073EB050705D3121B63EB050306434CEAA6
:10061000010C49084FEA300092185B4150EA01078B
:10062000EDD152EA030012D082EA040083EA050108
:10063000084305D0101BAB4106D20122002306E07F
:1006400000224FF0004302E06FF0010253101AEB5A
:1006500006004CEB085110EB0A0041EB0B01BDE822
:10066000F04D00F0E6B80EB5C10F80EAE070084426
:10067000CA07002140F233438DE80E000A460B46BC
:1006800000F0E6F803B000BD00F0004230F000409A
:100690000AD0C10D01F56071C0F3160042EA0151A4
:1006A000C20840071143704700200146704701F01F
:1006B000004330B421F0004150EA010206D00A0D97
:1006C000A2F56072C1F31301002A02DC30BC0020E5
:1006D0007047440F44EAC104C100E01830BC00EB8D
:1006E000C25000F06FB830B50B4601460020202202
:1006F000012409E021FA02F59D4205D303FA02F52F
:10070000491B04FA02F52844151EA2F10102F1DC8E
:1007100030BD202A04DB203A00FA02F100207047A5
:100720009140C2F1200320FA03F31943904070472F
:10073000202A06DBCB17203A41FA02F043EAE073A5
:1007400006E041FA02F3D040C2F120029140084392
:10075000194670472DE9F04791460F4680460446FA
:10076000002614F8015B2DB100F076F90068405DB9
:10077000C007F6D12B2D02D02D2D18D0641E4A466D
:100780003946204600F06CF927B13968A14201D101
:10079000C7F8008071054FF002040BD540420028D5
:1007A00003DD0CF01BFF0460A007BDE8F08746F4F2
:1007B0008066E4E70028F8DA0CF010FF04606FF0C0
:1007C0000040F2E70029A8BF7047401C490008BF5D
:1007D00020F00100704710B4B0FA80FC00FA0CF071
:1007E00050EA010404BF10BC704749B1CCF12004A9
:1007F00021FA04F411FA0CF118BF01212143084336
:10080000A3EB0C01CB1D4FEA00614FEA102042BF61
:10081000002010BC704700EBC35010440029A4BF57
:1008200010BC7047401C490008BF20F0010010BCFC
:10083000704710B5141E73F1000408DA401C41F132
:10084000000192185B411A4301D120F0010010BD54
:100850002DE9F04D92469B4611B1B1FA81F202E0CA
:10086000B0FA80F220329046FFF753FF04460F465D
:1008700040EA0A0041EA0B0153465A46084313D0A6
:10088000114653EA010019D0C8F140025046FFF763
:10089000D0FC05460E46504659464246FFF739FF02
:1008A000084305D0012004E020463946BDE8F08D1C
:1008B0000020054346EAE0762C4337430A98630557
:1008C000E40AA0EB08000022FD0A44EA47540A307B
:1008D00002D500200146E9E7010510196941DDE96B
:1008E000084500196941BDE8F04DA2E770B521F057
:1008F000004303430CD0C1F30A550024D5EB040593
:1009000064EB0403D617AD1AB34102DB00200146A5
:1009100070BD201841EB025170BD00002DE9F0417F
:10092000054621F000400C46284309D0C4F30A5084
:1009300040F23341884205DD28462146BDE8F0817A
:100940002846FBE740F2FE31884210DC0CDB4FEA20
:10095000043040EA155050EA053105D0104804F043
:10096000004101430020E9E700200146E6E7A0F24C
:1009700033404642C6F1400228462146FFF7C9FEF1
:1009800007468846284621463246FFF752FC434632
:100990003A46FFF74EFF3246BDE8F041FFF7B9BED9
:1009A0000000F03FC1F30A52C1F3130140F2FF33DC
:1009B00041F480119A4202DA00200146704740F269
:1009C00033439A42A2F2334202DC5242FFF731BC77
:1009D000FFF79FBE30B5041E71F1000404DB4FF039
:1009E0000044404264EB0101141E73F1000405DB76
:1009F0001C464FF00043524263EB04038B4208BF96
:100A0000824230BD30B5041E71F1000404DB4FF0AA
:100A10000044404264EB0101141E73F1000405DB45
:100A20001C464FF00043524263EB0403994208BF57
:100A3000904230BD064C074D06E0E06840F00103EF
:100A400094E8070098471034AC42F6D3FFF7A8FBB0
:100A50004C1C01086C1C010800487047C4190108AF
:100A60002DE9F05F82460078002715468B460AF193
:100A70000104B946302801D09DB113E014F8010BF0
:100A80000127782803D0582801D045B10AE00DB1DC
:100A9000102D07D10027102514F8010B02E00825BE
:100AA00000E00A250026B0460EE005FB080005FB25
:100AB00006F1012701EB10461FFA80F8B6F5803FDA
:100AC00000D3B94614F8010B294600F069F8002854
:100AD000EBDABBF1000F05D00FB1641E00E0544605
:100AE000CBF80040B9F1000F06D00CF077FD0221E1
:100AF0000160C81EBDE8F09F48EA0640FAE72DE90C
:100B0000F04D00231A461B1A8A4103DB00200146E0
:100B1000BDE8F08DC1F30A52C1F3130141F4801511
:100B20004FF0000BD10702D100186D41521E002773
:100B3000044640F2FF11384601EB620A3E46804609
:100B4000024600204FF48011FFF773FBC219714178
:100B5000BB1846EB0100B4EB030C75EB000C04D39F
:100B6000E41A65EB000517460E46241908F101004A
:100B70006D4180463428E3DDF91946EB0600091B78
:100B8000A84103D24FF0FF32134601E00022134682
:100B90001BEB070046EB0A51BDE8F04DFFF749BEDD
:100BA0003A2800D2303820F02002412A01D3A2F1A5
:100BB0003700884201D34FF0FF30704770B58C1872
:100BC00010F8015B15F0070301D110F8013B2A1161
:100BD00006D110F8012B03E010F8016B01F8016B4E
:100BE0005B1EF9D12B0705D40023521E0DD401F84A
:100BF000013BFAE710F8013BCB1A921C03E013F813
:100C0000015B01F8015B521EF9D5A142D8D3002047
:100C100070BD70B50546AC6B206C00F0500050BB49
:100C2000206C40F4007020642068806800F0405020
:100C3000E8B9207ED8B92068C06A00F4700020B1FD
:100C40002068806800F4806088B92068406820F0DF
:100C5000200021684860206C20F480702064206CA3
:100C600000F4805018B9206C40F001002064204648
:100C700004F068F80BE0206C00F0100018B120467A
:100C800004F069F803E0A06BC16C2846884770BD8A
:100C900070B50546AC6B40202064606C40F00400E9
:100CA0006064204604F057F870BD70B50446A56B2B
:100CB000284604F04FF870BD10B5034804F04CF816
:100CC00001200249087010BD10030020C800002058
:100CD00055494A6822F440324A604A6843681A43D8
:100CE0004A600268526822F4807203685A6002689F
:100CF0005368026943EA022203685A600268526834
:100D000022F0407203685A600268526883681A438E
:100D100003685A600268926822F4006203689A606D
:100D200002689268C3681A4303689A603F4B826AFC
:100D30009A4218D00268926822F0706203689A6042
:100D400002689268836A1A4303689A60026892682C
:100D500022F0405203689A6002689268C36A1A439C
:100D600003689A600BE00268926822F07062036880
:100D70009A600268926822F0405203689A600268A2
:100D8000926822F0020203689A6002689368027E09
:100D900043EA420203689A602022125CA2B1026810
:100DA000526842F4006203685A600268526822F492
:100DB000604203685A6002685368426A521E43EAFE
:100DC000423203685A6005E00268526822F4006209
:100DD00003685A600268D26A22F470020368DA6219
:100DE0000268D36A828B521E43EA02520368DA62B7
:100DF0000268926822F4007203689A60026893683D
:100E000090F8302043EA422203689A6002689268B0
:100E100022F4806203689A6002689368426943EA38
:100E2000822203689A607047002301400100000F8E
:100E300010B52DED088BB0EE408AF0EE608A9FED84
:100E4000100B53EC102B51EC180BFFF725FB41EC6A
:100E50001B0B9FED0D0B53EC102BFFF795FB41EC9B
:100E60001A0B9FED0B0B53EC102BFFF774FA41ECB0
:100E7000190BB0EE490AF0EE690ABDEC088B10BD03
:100E800052B81E85EB51E83F7B14AE47E17A643FD0
:100E9000000000000000394010B52DED088B002047
:100EA000934908609348008800EE100AB8EE400AA3
:100EB00010EE101A0846FFF7E7FB41EC1B0B9FED05
:100EC0008E0B53EC102BFFF7EDFA41EC1A0B9FED54
:100ED0008C0B53EC102BFFF757FB41EC190B9FEDDC
:100EE0008A0B53EC102BFFF7DDFA41EC180BFFF7E0
:100EF000DEFB874908607F48408800EE100AB8EEA4
:100F0000400A10EE101A0846FFF7BEFB41EC1B0B1F
:100F10009FED790B53EC102BFFF7C4FA41EC1A0B41
:100F20009FED770B53EC102BFFF72EFB41EC190BC9
:100F30009FED750B53EC102BFFF7B4FA41EC180B37
:100F4000FFF7B5FB724948606A48808800EE100AD6
:100F5000B8EE400A10EE101A0846FFF795FB41EC78
:100F60001B0B9FED650B53EC102BFFF79BFA41EC2D
:100F70001A0B9FED680B53EC102BFFF793FA41EC23
:100F8000190B9FED5F0B53EC102BFFF7FDFA41ECB3
:100F9000180BFFF78CFB5E4988605648C08800EE4E
:100FA000100AB8EE400A10EE101A0846FFF76CFB64
:100FB00041EC1B0B9FED500B53EC102BFFF772FA1B
:100FC00041EC1A0B9FED4E0B53EC102BFFF7DCFAA4
:100FD00041EC190B9FED4C0B53EC102BFFF762FA11
:100FE00041EC180BFFF763FB4949C8604148008991
:100FF00000EE100AB8EE400A10EE101A0846FFF78D
:1010000043FB41EC1A0B9FED3C0B53EC102BFFF70D
:1010100049FA41EC190B9FED3A0B53EC102BFFF7FB
:10102000B3FA41EC180BFFF742FB394908613BA0CA
:101030000BF060FE3648D0ED000AB0EE600A3BA02F
:101040000EF054FA3248D0ED010AB0EE600A3BA02F
:101050000EF04CFA2E48D0ED020AB0EE600A3BA02A
:101060000EF044FA2A48D0ED030AB0EE600A3BA025
:101070000EF03CFA264890ED040A10EE101A0846CD
:10108000FFF702FB41EC1A0BB0EE4A0AF0EE6A0AD7
:10109000FFF7CEFEB0EE409AF0EE609A51EC190BDD
:1010A000FFF705FB08EE100AB0EE480A2FA00EF07D
:1010B0001DFA32A00BF01EFE0E4801881BA010F096
:1010C0005BF90C4841881DA010F056F90948818849
:1010D0001EA010F051F90748C18820A010F04CF96B
:1010E0000448018921A010F047F9BDEC088B10BD20
:1010F00048020020B80700206666666666660A40F9
:10110000000000000000B0400000000000000040AF
:10111000C40700205DBF60376CDB16400D0A2D2D23
:101120002D2D2D2D2D2D2D0D0A0000006164633015
:101130005F352E305620202020203A006164633134
:101140005F332E335620202020203A006164633222
:101150005F3132562020202020203A006164633322
:101160005F332E335620202020203A0074656D70A6
:101170005F73656E7328D12920203A000D0D0D0094
:1011800030B503460C460020002130BD2DE9DE417C
:10119000064688460027134804681348007A012849
:1011A0001ED100F077FC00200F4908720F4908702B
:1011B00048700D48007888700B480079C8700C485A
:1011C00000680422CDE90021029040F233406043E0
:1011D000084A02EB00119E23002230460AF050FD1F
:1011E000BDE8DE8130020020E0F60020080100208A
:1011F000D0000020B03D002000205C4A128864230B
:1012000092FBF3F15A4A1268594BDB699A4201D9B1
:1012100040F00100564AD2F81431D2F830219342FE
:1012200001D940F00200524AD2F82832D2F84422C2
:10123000934201D940F004004D4AD2F83C33D2F831
:101240005823934201D940F00800494AD2F850345B
:10125000D2F86C24934201D940F01000444AD2F8ED
:101260006435D2F88025934201D940F02000404AED
:10127000D2F87836D2F89426934201D940F0400053
:101280003B4AD2F88C37D2F8A827934201D940F0D4
:101290008000384A12688A4207DD364A12684FF6E3
:1012A000FF739A4201D040F48070324A12698A4238
:1012B00007DD304A12684FF6FF739A4201D040F4BE
:1012C00000702C4A126A8A4207DD2A4A12684FF6D9
:1012D000FF739A4201D040F48060264A126B8A4222
:1012E00007DD244A12684FF6FF739A4201D040F49A
:1012F0000060204A126C8A4207DD1E4A12684FF6CF
:10130000FF739A4201D040F480501A4A126D8A420B
:1013100007DD184A12684FF6FF739A4201D040F475
:101320000050144A126E8A4207DD124A12684FF6C4
:10133000FF739A4201D040F480400E4A126F8A42F5
:1013400007DD0C4A12684FF6FF739A4201D040F451
:10135000004010B9084A12781AB90222074B1A70D5
:1013600002E00122054B1A70704700002A0200209B
:1013700098300020303B002014020020F8000020AC
:10138000010E044A1170010C5170010A9170D07065
:10139000704700000801002030B500200022002125
:1013A000434B1D780446401C424B1D5500BF7CE05A
:1013B000414B03EB01131B88C3F307250346441C71
:1013C000A0B23C4CE5543C4B03EB01131D780346A3
:1013D000441CA0B2374CE554374B03EB01131D7985
:1013E0000346441CA0B2334CE554334B03EB0113CA
:1013F0005D790346441CA0B22E4CE5542E4B03EB02
:1014000001139D790346441CA0B22A4CE5542A4B93
:1014100003EB0113DD790346441CA0B2254CE554CF
:10142000254B03EB01131D7A0346441CA0B2214C4B
:10143000E554214B03EB01135D7A0346441CA0B233
:101440001C4CE5541C4B03EB01139D7A0346441CD2
:10145000A0B2184CE554184B03EB0113DD7A034698
:10146000441CA0B2134CE554134B03EB0113DB688F
:10147000C3F307450346441CA0B20E4CE5540E4B83
:1014800003EB01139B89C3F307250346441CA0B259
:10149000084CE554084B03EB01131D7B0346441C29
:1014A000A0B2044CE5544B1C99B2082980DB30BD36
:1014B00014020020B03B0020303B002070B500201B
:1014C00000220023002100BF8DE101EB810404EB29
:1014D0008114C74D55F82440260E0446451CA8B279
:1014E000C44D2E5501EB810404EB8114C04D55F819
:1014F0002440C4F307460446451CA8B2BD4D2E55F2
:1015000001EB810404EB8114B94D35F82440C4F398
:1015100007260446451CA8B2B64D2E5501EB8104A2
:1015200004EB8114B24D15F824600446451CA8B2A2
:10153000B04D2E5501EB810404EB8114AC4D05EB4D
:1015400084046468260E0446451CA8B2A94D2E5595
:1015500001EB810404EB8114A54D05EB8404646860
:10156000C4F307460446451CA8B2A24D2E5501EB14
:10157000810404EB81149E4D05EB8404A488C4F31C
:1015800007260446451CA8B29A4D2E5501EB81044E
:1015900004EB8114964D05EB840426790446451C22
:1015A000A8B2944D2E5501EB810404EB8114904DAB
:1015B00005EB8404A468260E0446451CA8B28D4D94
:1015C0002E5501EB810404EB8114894D05EB840455
:1015D000A468C4F307460446451CA8B2854D2E55A1
:1015E00001EB810404EB8114814D05EB8404248913
:1015F000C4F307260446451CA8B27E4D2E5501EBC8
:10160000810404EB81147A4D05EB8404267A0446A8
:10161000451CA8B2774D2E5501EB810404EB8114D3
:10162000734D05EB8404E468260E0446451CA8B2FD
:10163000704D2E5501EB810404EB81146C4D05EBCC
:101640008404E468C4F307460446451CA8B2694D07
:101650002E5501EB810404EB8114654D05EB8404E8
:10166000A489C4F307260446451CA8B2614D2E5533
:1016700001EB810404EB81145D4D05EB8404267BB2
:101680000446451CA8B25B4D2E5501EB810404EBCA
:101690008114574D05EB8404A469260E0446451CAD
:1016A000A8B2544D2E5501EB810404EB8114504D2A
:1016B00005EB8404A469C4F307460446451CA8B29C
:1016C0004C4D2E5501EB810404EB8114484D05EB84
:1016D0008404248BC4F307260446451CA8B2454D58
:1016E0002E5501EB810404EB8114414D05EB84047C
:1016F000267E0446451CA8B23E4D2E5501EB8104C2
:1017000004EB81143A4D05EB8404E469260E04468B
:10171000451CA8B2374D2E5501EB810404EB811412
:10172000334D05EB8404E469C4F307460446451CC5
:10173000A8B2304D2E5501EB810404EB81142C4DE1
:1017400005EB8404A48BC4F307260446451CA8B209
:10175000284D2E5501EB810404EB8114244D05EB3B
:101760008404267F0446451CA8B2224D2E5501EB69
:10177000810404EB81141E4D05EB8404246A260EBB
:101780000446451CA8B21B4D2E5501EB810404EB09
:101790008114174D05EB8404246AC4F307460446FC
:1017A000451CA8B2134D2E5501EB810404EB8114A6
:1017B0000F4D05EB8404248CC4F307260446451C16
:1017C000A8B20C4D2E5501EB810404EB8114084D99
:1017D00005EB840494F820600446451CA8B2054D2E
:1017E0002E554C1CA1B20829FFF66FAE70BD00004B
:1017F00098300020B03B002010B500200021A34A03
:1018000092F848400346401CA14AD4549F4AB2F87B
:101810004A2014120346401C9D4AD4549B4A92F815
:101820004A400346401C9A4AD454984AD26C140E3B
:101830000346401C964AD454944AD26CC2F30744DF
:101840000346401C924AD454904AB2F84C20C2F34A
:1018500007240346401C8E4AD4548C4A92F84C40CC
:101860000346401C8A4AD454884A126D140E02461C
:10187000431CD8B2864B9C54844A126DC2F3074471
:101880000246431CD8B2824B9C54804AB2F8502086
:10189000C2F307240246431CD8B27D4B9C547B4ABA
:1018A00092F850400246431CD8B2794B9C54774A78
:1018B000526D140E0246431CD8B2754B9C54734AA9
:1018C000526DC2F307440246431CD8B2704B9C547D
:1018D0006E4AB2F85420C2F307240246431CD8B221
:1018E0006B4B9C54694A92F854400246431CD8B250
:1018F000674B9C54654A926D140E0246431CD8B245
:10190000634B9C54614A926DC2F307440246431CE8
:10191000D8B25F4B9C545D4AB2F85820C2F30724FA
:101920000246431CD8B25A4B9C54584A92F858402D
:101930000246431CD8B2564B9C54544A92F85C4021
:101940000246431CD8B2524B9C54504A126E140E9D
:101950000246431CD8B24E4B9C544C4A126EC2F302
:1019600007440246431CD8B2494B9C54474AB2F83C
:101970006020C2F307240246431CD8B2444B9C5457
:10198000424A92F860400246431CD8B2404B9C54F5
:101990003E4AD26E140E0246431CD8B23C4B9C54B5
:1019A0003A4AD26EC2F307440246431CD8B2384BBF
:1019B0009C54364AB2F86C20C2F307240246431CFA
:1019C000D8B2334B9C54314A92F86C400246431CC7
:1019D000D8B22F4B9C542D4B9A6E93F86C30120E4C
:1019E00042EA0322D4B20246431CD8B2284B9C548C
:1019F000264B9A6E93F86C30120C42EA0342D4B232
:101A00000246431CD8B2224B9C54204B68331A88A0
:101A10001B79120A42EA0362D4B20246431CD8B2CE
:101A20001B4B9C54194A92F868400246431CD8B29A
:101A3000174B9C54154A126F140E0246431CD8B221
:101A4000134B9C54114A126FC2F307440246431CC5
:101A5000D8B20F4B9C540D4AB2F87020C2F3072441
:101A60000246431CD8B20A4B9C54084A92F8704074
:101A70000246431CD8B2064B9C54044A92F8744068
:101A80000246431CD8B2024B9C5410BD383900208A
:101A9000B03B002010B5FF2009F0FAF90020014901
:101AA000087010BD3C0200202DE9FF4106460D469E
:101AB0002C46082C00D10024204609F08FFE82B26B
:101AC00000920C0EC4F340128DF80420C4F30012EF
:101AD0008DF8052004F001028DF80620C4F34002C1
:101AE0008DF80720C4F380028DF80820C4F3C002EB
:101AF0008DF80920C1F30742D2B28DF80A20C1F354
:101B00000722D2B28DF80B20020C42EA01426FF09C
:101B10007F431A4003929DE88C1086E88C10BDE844
:101B2000FF81000070B505460C46FDB90020214933
:101B300081F84800FF2009F0ABF9012211031E488B
:101B400003F0A0FE4FF47A701C49086000220121C6
:101B50001B4803F097FE1B480078002829D11AA0E3
:101B60000BF0C8F801201749087022E013480068FC
:101B7000F8B91448007801281BD10E4981F84800B3
:101B800000201049087000224FF480510A4803F0E9
:101B900079FE13A00BF0AEF8204609F079F9012286
:101BA0009103054803F06EFE40F6B831114802F08B
:101BB000B7FF70BD38390020000C02402000002023
:101BC0000004024054020020C2FBEAEBFEF7E0E50D
:101BD000EC20CFC8D2C0CDC8C5210D0A000000003E
:101BE000C2EAEBFEF7E0E5EC20CFC8D2C0CDC8C515
:101BF000210D0A000402002030B585B005460024FE
:101C000020222046641C0DF800207E222046641C01
:101C10000DF8002005F13000C2B22046641C0DF81A
:101C2000002020222046641C0DF80020722220464D
:101C3000641C0DF8002073222046641C0DF800205F
:101C400034222046641C0DF8002038222046641CF3
:101C50000DF8002035222046641C0DF800205F227C
:101C60002046641C0DF8002074222046641C0DF8E8
:101C7000002065222046641C0DF8002073222046B7
:101C8000641C0DF8002074222046641C0DF800200E
:101C90003B222046641C0DF8002000222046641CD4
:101CA0000DF800202046641C0DF8002068460BF05B
:101CB00051F805A00BF01EF868460BF01BF806A0C3
:101CC0000BF018F805B030BDCFEEF1EBE0ED20EAF7
:101CD000EEE43A20000000000D0A000000BFFEE71D
:101CE00010B502A00BF036F810BD00007E30206564
:101CF00074685F636F6E6669673B00002DE9F04FA3
:101D00008DB005460E460024A046A1460027A246F7
:101D100000200B900A900990089000BF8346059020
:101D20000490039000BFFCE305F5007000EBC400D5
:101D3000D0E9001001225140014373D1F6A00AF00E
:101D4000D9FFF8A00AF0D6FF0120FE49087055F827
:101D5000240000210DF086FD804655F82400012165
:101D60000DF080FD814655F8240002210DF07AFD2A
:101D7000074655F8240003210DF074FD824655F8FE
:101D8000240004210DF06EFD0B9055F82400052170
:101D90000DF068FD0A9055F8240006210DF062FD53
:101DA000099055F8240007210DF05CFD089016F805
:101DB00008000206002116F80900094342EA004023
:101DC000F25D4FEA022C40EA0C0316F80A000343C6
:101DD0000B98325C0020000640EA122041EA0261C2
:101DE00018430A9AB35C0022120442EA13424FEAF3
:101DF000034C034641EA0C001A430999735C002125
:101E0000090241EA136140EA03201143089AB25CD7
:101E10001043CD4A03C20AF07BFCBFA00AF06AFF60
:101E200059E2FFE705F5007000EBC400D0E90010AF
:101E300064235940014318D10120C249087005F5B7
:101E4000206000EBC40105C9CDE90002BF4A019939
:101E5000FFF796F90021CDE90601BD4ADDE906014B
:101E600003C20120BB490870DAE705F5007000EBFA
:101E7000C400D0E90010C822514001432CD10120F8
:101E8000B049087055F8240000210DF0EBFC8046A5
:101E900055F8240001210DF0E5FC814655F8240099
:101EA00002210DF0DFFC074655F8240003210DF058
:101EB000D9FC824616F80800000616F8091040EA18
:101EC0000140F15D40EA012016F80A1040EA010BDA
:101ED00058460AF0D7FBA3E705F5007000EBC400F5
:101EE000D0E90010CE23594001432DD1012095495E
:101EF000087055F8240000210DF0B4FC804655F818
:101F0000240001210DF0AEFC814655F82400022189
:101F10000DF0A8FC074655F8240003210DF0A2FCA3
:101F2000824616F80800000616F8091040EA01403B
:101F3000F15D40EA012016F80A1040EA010B0A217F
:101F4000854802F0EDFD6BE705F5007000EBC4007D
:101F5000D0E90010CC235940014330D10120794908
:101F6000087055F8240000210DF07CFC804655F8DF
:101F7000240001210DF076FC814655F82400022151
:101F80000DF070FC074655F8240003210DF06AFCA3
:101F9000824616F80800000616F8091040EA0140CB
:101FA000F15D40EA012016F80A1040EA010B58469C
:101FB00009F036FA09F012FA6849086630E705F5C3
:101FC000007000EBC40103C903235840084334D117
:101FD00001205C49087055F8240000210DF042FCF6
:101FE000804655F8240001210DF03CFC814655F84F
:101FF000240002210DF036FC074655F82400032189
:102000000DF030FC824616F80800000616F809109C
:1020100040EA0140F15D40EA012016F80A1040EA6A
:10202000010BF05D05904E4981F800B04D490598CF
:10203000087001204C490870F2E605F5007000EBCD
:10204000C400D0E9001004235940014331D10120DC
:102050003C49087055F8240000210DF003FC80462F
:1020600055F8240001210DF0FDFB814655F82400B0
:1020700002210DF0F7FB074655F8240003210DF06F
:10208000F1FB824616F80800000616F8091040EA2F
:102090000140F15D40EA012016F80A1040EA010B08
:1020A000594632A00FF04AFA0BF0FF0008F0F0FE9C
:1020B000B6E605F5007000EBC400D0E9001005237A
:1020C0005940014370D101201E49087055F8240081
:1020D00000210DF0C7FB804655F8240001210DF0CA
:1020E000C1FB814655F8240002210DF0BBFB0746D9
:1020F00055F8240003210DF0B5FB824655F8240065
:1021000004210DF0AFFB0B9016F809000006F15DFD
:1021100040EA01402CE000000D0A2D2D2D2D2D2D23
:102120000D0A0000CAEEECE0EDE4E03AF3F1F2E073
:10213000EDEEE2EAE020E2F0E5ECE5EDE8210D0A63
:102140000000000028020020D0000020D0F600206F
:102150003002002039020020E4010020383900203C
:102160003C0200203D0200203802002043483A0093
:1021700016F80A1040EA01200B99715C40EA010B45
:1021800016F8080003905946039809F0DDFAF8A004
:102190000AF0B0FD5946FAA00FF0D0F9FEA003995D
:1021A0000FF0EAF8D5E3FFE705F5007000EBC40097
:1021B000D0E9001006235940014341D10120FA49DA
:1021C000087055F8240000210DF04CFB804655F8AE
:1021D000240001210DF046FB814655F82400022120
:1021E0000DF040FB074655F8240003210DF03AFBA3
:1021F000824655F8240004210DF034FB0B9016F8AC
:1022000009000006F15D40EA014016F80A1040EAB4
:1022100001200B99715C40EA010B16F8080003904D
:102220005946039809F09DFAE0A00AF063FD59466B
:10223000D3A00FF083F9D8A003990FF09DF888E39D
:1022400005F5007000EBC400D0E9001007225140F2
:10225000014341D10120D449087055F824000021E0
:102260000DF000FB804655F8240001210DF0FAFA2C
:10227000814655F8240002210DF0F4FA074655F87E
:10228000240003210DF0EEFA824655F824000421C3
:102290000DF0E8FA0B9016F809000006F15D40EA2F
:1022A000014016F80A1040EA01200B99715C40EADF
:1022B000010B16F8080003905946039809F02AFA12
:1022C000BEA00AF017FD5946ADA00FF037F9B2A035
:1022D00003990FF051F83CE305F5007000EBC401E1
:1022E00003C908235840084341D10120AE49087072
:1022F00055F8240000210DF0B5FA804655F8240069
:1023000001210DF0AFFA814655F8240002210DF0AD
:10231000A9FA074655F8240003210DF0A3FA8246D6
:1023200055F8240004210DF09DFA0B9016F80900D1
:102330000006F15D40EA014016F80A1040EA01206B
:102340000B99715C40EA010B16F80800039059469E
:10235000039809F0ECF99EA00AF0CCFC594688A03D
:102360000FF0ECF88CA003990FF006F8F1E205F5F8
:10237000007000EBC400D0E900100A23594001436B
:102380000BD101208849087096A00AF0B3FC4FF4E5
:102390007A71A24802F0C4FBDBE205F5007000EBA5
:1023A000C400D0E90010D0235940014337D10120A7
:1023B0007D49087055F8240000210DF053FA80463D
:1023C00055F8240001210DF04DFA814655F82400FE
:1023D00002210DF047FA074655F8240003210DF0BD
:1023E00041FA824616F80800000616F8091040EA7D
:1023F0000140F15D40EA012016F80A1040EA010BA5
:10240000874981F800B008460078012803D185A0EB
:102410000AF070FC9DE28DA00AF06CFC99E205F5D3
:10242000007000EBC400D0E900100B2359400143B9
:102430000FD101205C4908708EA00AF05BFC0020DF
:1024400095490870954908700A21954802F068FB83
:102450007FE205F5007000EBC400D0E900100C220B
:10246000514001430DD101204F4908708DA00AF061
:1024700041FC0020944908700A21944802F050FB66
:1024800067E205F5007000EBC400D0E900100D23F1
:10249000594001430DD10120434908708CA00AF036
:1024A00029FC0020934908700A21934802F038FB68
:1024B0004FE205F5007000EBC400D0E90010C9231D
:1024C0005940014352D101203749087055F8240082
:1024D00000210DF0C7F9804655F8240001210DF0C8
:1024E000C1F9814655F8240002210DF0BBF90746D9
:1024F00055F8240003210DF0B5F9824655F8240063
:1025000004210DF0AFF90B9016F809000006F15DFB
:1025100040EA014016F80A1040EA01200B99715C6C
:1025200000E022E240EA010B16F808007349086057
:10253000594673A00EF020FF704801687CA00EF091
:102540001BFF00EE10BAB8EE400A7C4880ED000A8E
:1025500090ED000ADFED7A0A80EE201A794867498B
:10256000096800EB810080ED001AEDE0EFE000006B
:10257000CFF0E8F8B8EB204950300D0A0000000019
:10258000EEF2EFF0E0E2EBFFE5EC20495020E0E472
:10259000F0E5F13A00000000C220E1EBEEEA203065
:1025A000373220B90000000028020020CFF0E8F800
:1025B000B8EB204950310D0A00000000CFF0E8F8D8
:1025C000B8EB20646573745F4950300D0A00000059
:1025D000CFF0E8F8B8EB20646573745F4950310DB3
:1025E0000A000000C7E0EFF0E0F8E8E2E0E5EC20E8
:1025F000EAE0F1F1E5F2FB2030373220E220C0D6EC
:1026000020EDE020EFF0E5E4ECE5F220E8F520E055
:10261000E4F0E5F1EEE2210D0A0000007401002073
:102620003A020020C2EAEBFEF7E5EDE8E520F0E52E
:10263000E6E8ECE020EEF1EDEEE2EDFBF520EFE078
:10264000F0ECE5F2F0EEE2210D0A0000C2FBEAEB4D
:10265000FEF7E5EDE8E520F0E5E6E8ECE020EEF158
:10266000EDEEE2EDFBF520EFE0F0ECE5F2F0EEE26E
:10267000210D0A00EDE0F7E8EDE0E5EC20F2E5F1F0
:10268000F220EFF0EEE2E5F0EAF320F8E8EDFB20CF
:10269000343835210D0A00003C0100201D020020C5
:1026A0004C010020EDE0F7E8EDE0E5EC20F2E5F18B
:1026B000F220EFF0EEE2E5F0EAF320F8E8EDFB209F
:1026C000535049210D0A00003E0100205C0100200A
:1026D000EDE0F7E8EDE0E5EC20F2E5F1F220EFF0D7
:1026E000EEE2E5F0EAF320F8E8EDFB204A5441473A
:1026F000210D0A003D0100206C0100202002002075
:10270000CFF0E8EDFFF220EAEEFDF4F4E8F6E8E5BC
:10271000EDF220EAEEF0F0E5EAF6E8E820E8E7EC92
:10272000E5F0E5EDE8FF20F2EEEAE03A0000000017
:10273000E220EAE0EDE0EBE53A00000024020020B0
:1027400000007A443839002000F04CFD01E105F525
:10275000007000EBC40103C9CA225040084353D1A2
:1027600001208549087055F8240000210DF07AF801
:10277000804655F8240001210DF074F8814655F883
:10278000240002210DF06EF8074655F824000321BD
:102790000DF068F8824655F8240004210DF062F827
:1027A0000B9016F809000006F15D40EA014016F8AA
:1027B0000A1040EA01210B98305C41EA000B16F840
:1027C00008006E49086059466DA00EF0D5FD6B48B3
:1027D0000168AFF2A4000EF0CFFD00EE10BAB8EE23
:1027E000400A744880ED000A90ED000A5FED2C0A63
:1027F00080EE201A70486149096800EB810080ED85
:10280000001A00F049FDA4E005F5007000EBC400DB
:10281000D0E90010CB22514001432AD10120564972
:10282000087009F075FF65A00AF064FA00F058FC22
:1028300000F048FD05F5206000EBC40103C96E4AB5
:10284000CDE90001FEF79CFC06906C4800686C49DD
:102850004022CDE90021029040F2334206985043D5
:10286000684A02EB00119A232246284609F008FA2A
:102870006FE005F5007000EBC400D0E90010CF2335
:102880005940014315D101203B49087009F040FF30
:102890005DA00AF02FFA66A00AF05CFA05F5206048
:1028A00000EBC40103C9544ACDE90001FEF768FCFE
:1028B0004FE005F5007000EBC400D0E90010CD2317
:1028C0005940014345D101202B49087009F020FFF0
:1028D0005CA00AF00FFA55F8240000210CF0C2FFAA
:1028E000804655F8240001210CF0BCFF814655F8C4
:1028F000240002210CF0B6FF074655F824000321FE
:102900000CF0B0FF824616F80800000616F8091011
:1029100040EA0140F15D40EA012016F80A1040EA61
:10292000010BBBF1030F09D10020534908700120AE
:10293000524908700221524802F0F2F8BBF1010F2F
:1029400007D102214E4802F0EBF864214D4802F015
:10295000E7F809480078012806D1002006490870E8
:102960002146284608F094FD641C802CFFF4DCA965
:102970000DB0BDE8F08F00002802002020020020EA
:10298000CFF0E8EDFFF220EAEEFDF4F4E8F6E8E53A
:10299000EDF220EAEEF0F0E5EAF6E8E820E8E7EC10
:1029A000E5F0E5EDE8FF20EDE0EFF0FFE6E5EDE82E
:1029B000FF3A000024020020583900200D0ACFF011
:1029C000E8EDFFF220E7E0EFF0EEF120EDE020F19E
:1029D000EFE8F1EEEA20EAEEF0F0E5EAF2E8F0FEE8
:1029E000F9E8F520EAEEFDF4F4E8F6E8E5EDF2EEBC
:1029F000E22E0D0A00000000D0F60020D0000020DA
:102A0000303A0020B03D00200D0ACFF0E8EDFFF293
:102A100020EFF0E8EAE0E720EDE020E7E0EFF3F177
:102A2000EA20FFF7E5E5EA20C13037320D0A000061
:102A30007E3020623037325F73746172743A313B9A
:102A4000000000000D0ACFF0E8EDFFF220E7E0EF14
:102A5000F0EEF120EDE020EFF0EEE2E5F0EAF32019
:102A6000F1E8E3EDE0EBE020524553455420E4EB80
:102A7000FF203037320D0A003F01002040010020C6
:102A8000CC0100207401002010B54FF400710C48F7
:102A900002F0F0FE0B490978884210D04FF4007123
:102AA000074802F0E7FE074908704FF40071044838
:102AB00002F0E0FE0446214603A00EF05DFC10BDCE
:102AC000000C02405C020020504F4B5F4844535FB3
:102AD0004F55543A000000002DE9F0410024002732
:102AE0000025FE48007801287AD1FD480068FA28C0
:102AF00076D90120FB4908700020F94908600120BF
:102B000007F05AF9022007F057F9032007F054F9AB
:102B1000042007F051F9052007F04EF9062007F0D0
:102B20004BF9072007F048F9082007F045F9EE486F
:102B300090F84000012804D107F094FAEB490860AE
:102B400002E01420E9490860E74890F841000128B4
:102B500006D1022007F086FAE449C1F8140103E027
:102B60001420E249C1F81401DF4890F8420001281E
:102B700006D1032007F076FADC49C1F8280203E009
:102B80001420DA49C1F82802D74890F843000128F8
:102B900006D1042007F066FAD449C1F83C0303E0EB
:102BA0001420D249C1F83C03CF4890F844000128D2
:102BB00006D1052007F056FACC49C1F8500403E0CD
:102BC0001420CA49C1F85004C74890F845000128AC
:102BD00007D1062007F046FAC449C1F8640504E0AD
:102BE000B4E11420C149C1F86405BF4890F846001B
:102BF000012806D1072007F035FABC49C1F878064C
:102C000003E01420B949C1F87806B74890F84700A6
:102C1000012806D1082007F025FAB449C1F88C072D
:102C200003E01420B149C1F88C07B0480068A842FD
:102C300006D9AD4890F84000012801D1AB4805689D
:102C4000AA48D0F81401A84207D9A74890F8410033
:102C5000012802D1A548D0F81451A448D0F8280280
:102C6000A84207D9A04890F84200012802D19F4805
:102C7000D0F828529D48D0F83C03A84207D99A487A
:102C800090F84300012802D19848D0F83C53974867
:102C9000D0F85004A84207D9934890F8440001287E
:102CA00002D19248D0F850549048D0F86405A84218
:102CB00007D98D4890F84500012802D18B48D0F8FB
:102CC00064558A48D0F87806A84207D9864890F813
:102CD0004600012802D18548D0F878568348D0F8BC
:102CE0008C07A84207D9804890F84700012802D1F4
:102CF0007E48D0F88C577C49A1F84A500025002422
:102D00004CE0611CC8B207F039FA804604EB84003D
:102D100000EB8410754A02EB800000F124010C22C4
:102D2000404601F00FFA04EB840101EB84116F4A75
:102D300002EB8101886004EB840000EB84101146F3
:102D400001EB80008068401C38B9002004EB84014E
:102D500001EB841102EB8101886004EB840000EB3D
:102D60008410624901EB8000806804EB840101EB70
:102D700084115E4A02EB8101496988420DD9012024
:102D80005B490872084604600120486004EB840136
:102D900001EB841102EB8101C874641C082CB0DBC8
:102DA000002416E004EB840000EB84104F4901EB93
:102DB00080008068A8420BD94B484030005D012854
:102DC00006D104EB840000EB841001EB80008568E1
:102DD000641C082CE6DB4448C564002500242CE074
:102DE000611CC8B207F07CFA804604EB840000EB5B
:102DF00084103E4A02EB800000F174010C22404630
:102E000001F0A0F904EB840101EB8411374A02EBD5
:102E10008101C86004EB840000EB8410114601EBD3
:102E20008000C068401C38B9002004EB840101EB2D
:102E3000841102EB8101C860641C082CD0DB0024E3
:102E400027E004EB840202EB8412284B03EB82029E
:102E5000D16804EB840202EB841203EB82029068D7
:102E60000CF014FB804604EB840000EB84101F4A36
:102E700002EB800000F1C4010C22404601F062F92F
:102E800004EB840101EB8411184A02EB81014860D4
:102E9000641C082CD5DB002409E004EB840000EB63
:102EA0008410124901EB800040680744641C082C20
:102EB000F3DB0D488765002424E004EB840000EB7D
:102EC00084100A4901EB8000C068A84219D906485D
:102ED0004030005D012814D10CE000003C020020CD
:102EE000180000205D0200203839002098300020B2
:102EF000E0F6002004EB840000EB841001EB80007E
:102F0000C568641C082CD8DB52484565524D002426
:102F100016E004EB840000EB8410504901EB8000C4
:102F2000C068A8420BD24B484030005D012806D152
:102F300004EB840000EB841001EB8000C568641C86
:102F4000082CE6DB4348056500252DE04448007861
:102F500050BB44480078012826D100204149087020
:102F600000241FE04FF0FF3004EB840101EB8411DB
:102F70003A4A42F82100002004EB840101EB84115D
:102F800002EB8101C86004EB840101EB841102EBC8
:102F90008101886004EB840101EB841102EB810163
:102FA0004860641C082CDDDB00262A48B0F84A0083
:102FB0002D490988884201DD701CC6B22548C06CC5
:102FC00040F6C411884208D92248C06C002149400B
:102FD00071EA000001D0701CC6B21E48006D40F2BC
:102FE0004C41884201D2701CC6B21A48406D40F272
:102FF000E241884208D91748406D0021494071EAF2
:10300000000001D0701CC6B21248806D47F23051EA
:10301000884201D9701CC6B20E4890F85C0008B90D
:10302000701CC6B226B100200A4981F8740003E082
:103030000120084981F87400064890F874000128BE
:1030400002D10A49087002E0022008490870BDE870
:10305000F081000038390020A0860100983000205F
:103060003C0200205D0200202A020020F600002021
:1030700010B500240F48006840F21A41884209D96F
:103080000D480068012805D100200B4908600BA0FD
:1030900009F030FE084800780F4981F85C000648C6
:1030A0000068012802D10D49087002E002200B4996
:1030B000087010BDE4000020E0000020CFD0CECF8B
:1030C000C0CB20D1C8C3CDC0CB205431485A5F4DAE
:1030D0004B2121210D0A000038390020F400002086
:1030E00010B5002416A009F005FE00BF0EE0214631
:1030F00016A00EF07DF9164800EB8400D0ED000A12
:10310000B0EE600A13A00CF0F1F9641C082CEEDBA1
:103110000BA009F0EFFD00240FE021460EA00EF0F9
:1031200067F90B48203000EB8400D0ED000AB0EEC8
:10313000600A08A00CF0DAF9641C082CEDDB10BD65
:103140000D0A2D2D2D2D2D2D2D0D0A004B495B0027
:10315000383900205D3D00004B555B0030B52DED4A
:10316000028B91B020250024002008EE100A9FED6C
:103170001A0AF0EE408A2A4601A9680300F0D0FE40
:1031800000BF22E001A911F824000106A000401CA4
:1031900001AA105C01EB0041A000801C105C01EB57
:1031A0000021A000C01C105C084408EE100AB8EE14
:1031B000C80AF0EE408A9FED090AC8EE800A084866
:1031C00000EB8400C0ED000A641C082CDADB11B0AF
:1031D000BDEC028B30BD00000000000000007A440E
:1031E0003839002010B588B04FF4802000F07CFE04
:1031F00008226946054807F0F1FD20242246694669
:10320000600300F0A1FE08B010BD000038390020B6
:1032100030B52DED028B91B020250024002008EE62
:10322000100A9FED1A0AF0EE408A2A4601A9A80367
:1032300000F076FE00BF22E001A911F8240001068B
:10324000A000401C01AA105C01EB0041A000801C02
:10325000105C01EB0021A000C01C105C084408EECB
:10326000100AB8EEC80AF0EE408A9FED090AC8EECF
:10327000800A084800EB8400C0ED000A641C082C9A
:10328000DADB11B0BDEC028B30BD000000000000A5
:1032900000007A445839002010B588B04FF400205F
:1032A00000F022FE08226946054807F097FD202419
:1032B00022466946A00300F047FE08B010BD00009A
:1032C0005839002030B500210022002000BF1CE04A
:1032D000204B03EB820393ED000ADFED1F0A20EE83
:1032E000200ABCEEC00A10EE101A0B0E1B4C235421
:1032F000C1F30744194D431CEC54C1F30724831C4C
:10330000EC54C31CE954001D521C082AE0D30022CF
:103310001DE0104B203303EB820393ED000ADFED39
:103320000E0A20EE200ABCEEC00A10EE101A0B0E98
:103330000A4C2354C1F30744084D431CEC54C1F319
:103340000724831CEC54C31CE954001D521C082A9A
:10335000DFD330BD3839002000007A44303A0020F5
:1033600070B5064600240025FB4800F021FF68B137
:1033700001221146F94802F085FA0020F849087048
:1033800040F6B831F74801F0CBFB70BDF64800F0CD
:103390000FFF98B109F0BCF9F4A009F0ABFC0022D2
:1033A0000121EE4802F06EFA0020ED490870F44960
:1033B00008706421F34801F0B3FBE6E7F14800F040
:1033C000F7FE78B109F0A4F9EFA009F093FC01220F
:1033D0001146E24802F056FA40F6B831E14801F0F1
:1033E0009FFBD2E7EE4800F0E3FE00281ED009F074
:1033F0008FF9ECA009F07EFCD9480178F2A00DF01D
:10340000BBFFD7480078002803DD0120DC490870A5
:1034100002E00020DA490870C821F44801F080FB7E
:103420009B22F349F34806F0FBFFAEE7CD4800F0DE
:10343000BFFE60B109F06CF9EFA009F05BFC0DF084
:10344000C3FA4FF49671F24801F06AFB9DE7F04829
:1034500000F0AEFEC0B109F05BF908F08FF9ED485D
:103460000078012804D10A21CD4801F059FB07E07A
:10347000BB480078002803DDC821DC4801F050FB80
:103480000020E449087080E7D84800F091FE70B150
:1034900009F03EF9E0A009F02DFCE64801680120A2
:1034A00008F052F90A21E44801F03AFB6DE7E248DE
:1034B00000F07EFE90B109F02BF9E0A009F01AFCB3
:1034C000A7490978491EE44A505CE449096808F0B4
:1034D0003BF90A21E24801F023FB56E7E04800F0FF
:1034E00067FE70B109F014F9DEA009F003FCE448AE
:1034F0000168012008F035F90A21E24801F010FBCB
:1035000043E7E04800F054FE90B109F001F9DEA075
:1035100009F0F0FB92490978491ECF4A505CE14915
:10352000096808F01EF90A21DF4801F0F9FA2CE7D2
:10353000DD4800F03DFE70B109F0EAF8DBA009F0CB
:10354000D9FBE3480168012008F0E4F80A21E148CA
:1035500001F0E6FA19E7DF4800F02AFE90B109F021
:10356000D7F8DDA009F0C6FB7D490978491EBA4AA3
:10357000505CE149096808F0CDF80A21DF4801F004
:10358000CFFA02E7DD4800F013FE70B109F0C0F891
:10359000DBA009F0AFFBE3480168012008F0C7F8A1
:1035A0000A21E14801F0BCFAEFE6DF4800F000FE36
:1035B00090B109F0ADF8DDA009F09CFB68490978ED
:1035C000491EA54A505CE149096808F0B0F80A2193
:1035D000DF4801F0A5FAD8E6DD4800F0E9FD38B192
:1035E00009F096F8DBA009F085FBFEF779FBCCE645
:1035F000DF4800F0DDFDB0B14FF49671DD4801F019
:103600008FFA09F085F8DCA009F074FB54480078C3
:10361000401E91490C5C2146DEA00DF0ADFE204617
:10362000FEF7EAFAB1E6D34800F0C2FD48B309F06C
:103630006FF8DBA009F05EFBE3480078012803D1B6
:10364000E2A009F057FB16E0E448007805280FDAFD
:10365000E2480078401CE149087008460178491C9E
:10366000DFA00DF089FE0A21C14801F059FA02E0FD
:10367000DEA009F03FFB97225D495E4806F0D0FED0
:1036800083E6DF4800F094FDE8B10A21DD4801F04F
:1036900047FA09F03DF8DCA009F02CFB0020E149D5
:1036A00008702F480078401E6B490C5C0846417832
:1036B000DDA00DF061FE082C00D10024DC4920467D
:1036C00008F0B2F861E6CF4800F072FD38B309F0B7
:1036D0001FF8D8A009F00EFB21480078401E5E4973
:1036E0000C5C082C00D10024204608F085F8044624
:1036F0002146DAA00DF022FFCD48844206D1B3A0C6
:1037000009F0F8FA0120C749087002E0B7A009F0F3
:10371000F1FA98223649374806F082FE35E6D1485C
:1037200000F046FDB0B14FF4FA71CF4801F0F8F95E
:1037300008F0EEFFCDA009F0DDFA0020D1490870B5
:10374000002108460CF026F904462146CEA00DF0D3
:1037500013FE1AE69CE1000004020020000402406F
:103760001402002074010020CC0100204F4E205292
:103770004553455420666F72203037322E0D0A00B3
:103780003F010020D40100204F46462052455345BA
:103790005420666F72203037322E0D0A0000000070
:1037A000DC010020CFF0EEE2E5F0EAE020F1E8E312
:1037B000EDE0EBE020524553455420E4EBFF203090
:1037C00037322E0D0A000000CAEEEBE8F7E5F1F201
:1037D000E2EE20E1EBEEEAEEE22030373220EDE0DF
:1037E00020E1E5EAEFEBE5E9EDE53A007C010020B8
:1037F00010C4002038E40020C8E4B8F220F1E1EE63
:10380000F020E0E4F0E5F1EEE2210D0A0000000016
:10381000BC01002040010020D3F1F2E0EDE0E2EB3A
:10382000E8E2E0E5EC20ECE0F1F2E5F02049503090
:10383000210D0A001C01002084010020D3F1F2E0D8
:10384000EDE0E2EBE8E2E0E5EC20F1EBE5E9E22097
:10385000495030210D0A00000C0200202C010020EC
:103860008C010020D3F1F2E0EDE0E2EBE8E2E0E5EC
:10387000EC20ECE0F1F2E5F020495031210D0A0096
:103880002001002094010020D3F1F2E0EDE0E2EB12
:10389000E8E2E0E5EC20F1EBE5E9E22049503121F6
:1038A0000D0A0000300100209C010020D3F1F2E05D
:1038B000EDE0E2EBE8E2E0E5EC20ECE0F1F2E5F04F
:1038C00020444553545F495030210D0A0000000048
:1038D00024010020A4010020D3F1F2E0EDE0E2EBAE
:1038E000E8E2E0E5EC20F1EBE5E9E2204445535461
:1038F0005F495030210D0A0034010020AC01002046
:10390000D3F1F2E0EDE0E2EBE8E2E0E5EC20ECE020
:10391000F1F2E5F020444553545F495031210D0A3E
:103920000000000028010020B4010020D3F1F2E0E3
:10393000EDE0E2EBE8E2E0E5EC20F1EBE5E9E220A6
:10394000444553545F495031210D0A00380100208D
:10395000C4010020D0E5F1F2E0F0F220CCC0CA2092
:10396000FFF7E5E5EA20303732210D0A00000000BC
:103970004C01002044010020CFEEF1FBEBE0E5EC30
:1039800020EAEEE420EFEE20F8E8EDE520343835CB
:10399000210D0A005245515F4144523A0000000097
:1039A000CFF0EEE2E5F0FFE5EC20F0E5E7F3EBFC2D
:1039B000F2E0F220F2E5F1F2E020F8E8EDFB20344D
:1039C0003835210D0A0000003C010020D2E5F1F25B
:1039D00020EFF0EEE9E4E5ED210D0A001D020020E4
:1039E000CFEEEFFBF2EAE03A00000000D2E5F1F2A0
:1039F00020EDE520EFF0EEE9E4E5ED210D0A000011
:103A00005C01002054010020CFEEF1FBEBE0E5EC7F
:103A100020EAEEE420EFEE20F8E8EDE520535049EF
:103A2000210D0A003E0100204164723A00000000AE
:103A3000EFBEEDDECFF0EEE2E5F0FFE5EC20F0E5E5
:103A4000E7F3EBFCF2E0F220F2E5F1F2E020F8E837
:103A5000EDFB20535049210D0A000000416E6377B1
:103A600065723A006C01002064010020CEEFF0E0A6
:103A7000F8E8E2E0E5EC20F8E8EDF3204A544147AD
:103A8000210D0A003D010020746D70303A000000E5
:103A9000554800F08DFB002854D008F039FE53A0A3
:103AA00009F028F95B4801685BA00DF065FC002572
:103AB00020E02946AFF21C300DF09AFC5CA009F022
:103AC00019F905EB85005B4A02EB80008168AFF2D3
:103AD00034300DF04BFD58A009F00CF905EB8501D1
:103AE000544A02EB8101C86809F004F948A009F0C2
:103AF00001F96D1C474800688542DADB45480068DB
:103B00004E490978884217D14C480078401E00EB96
:103B10008000484901EB800080684949884207D10C
:103B2000AFF2581009F0E6F801204649087003E0AA
:103B3000AFF2481009F0DEF899224349434806F0F5
:103B40006FFC22E4424800F033FB58B141A009F079
:103B5000D1F80120434908704FF4FA61424800F05F
:103B6000DFFF12E4404800F023FB58B13FA009F00A
:103B7000C1F802203B4908704FF4FA613F4800F059
:103B8000CFFF02E43D4800F013FB58B13CA009F020
:103B9000B1F80320334908704FF4FA613C4800F053
:103BA000BFFF0AE43A4800F003FBD8B139A009F09E
:103BB000A1F801203C49087000203C490870012010
:103BC0003B4908703B49087002203B4908700120BE
:103BD0003A4908703A4908703A490870002021496A
:103BE000087022E400BF20E464010020CFF0EEE280
:103BF000E5F0FFE5EC20F0E5E7F3EBFCF2E0F22086
:103C0000F2E5F1F2E020F8E8EDFB204A54414721CB
:103C10000D0A0000F4020020CAEEEBE8F7E5F1F22D
:103C2000E2EE20F3F1F2F0EEE9F1F2E23A00000008
:103C30005D20000000210120202D20001402002022
:103C4000DD20A0023D01002010C4002038E4002047
:103C5000E401002043E2E5F2EEE4E8EEE4FB3A3072
:103C60000D0A00001C020020EC01002043E2E5F2F6
:103C7000EEE4E8EEE4FB3A310D0A0000F401002026
:103C800043E2E5F2EEE4E8EEE4FB3A320D0A00002E
:103C9000FC01002043E2E5F2EEE4E8EEE4FB3ACD7D
:103CA000CED0CCC00D0A0000F1000020F2000020B0
:103CB000F3000020F4000020F5000020F6000020B2
:103CC000F7000020F800002010B50020024908701D
:103CD000024801F053FA10BD500000208C0600206D
:103CE00010B5024801F04AFA10BD00005803002048
:103CF00010B5024801F042FA10BD0000EC060020A9
:103D000010B5002002490870024801F037FA10BDD2
:103D1000380000202C0600200146087810381823AF
:103D2000B0FBF3F20848805CC865032A05D908682F
:103D30006FF30900001D886503E008686FF3090050
:103D40008865886D704700004C1701080146002007
:103D50008A6A8B69CBB932B1012A0DD0022A03D00D
:103D6000032A10D10EE000BFCB6A03F08073B3F1D9
:103D7000807F00D1012007E0CB6AB3F1C07F00D182
:103D8000012001E000E000BF34E08B69B3F5005F83
:103D90001AD132B1012A07D0022A03D0032A11D145
:103DA0000AE000BF01200EE0CB6A03F08073B3F19C
:103DB000807F00D1012006E0CB6AB3F1C07F00D143
:103DC000012000E000BF15E032B1012A05D0022A2F
:103DD00004D0032A0CD103E000BF00BF012008E09B
:103DE000CB6A03F08073B3F1807F00D1012000E043
:103DF00000BF00BF704730B50468246824F48024F5
:103E000005682C60046863608468402C04D10468F1
:103E1000A2600468E16003E00468A1600468E260F5
:103E200030BD0000F0B585B05324002500260027E2
:103E3000124801F051FDF92004904FF6FF7000EA9E
:103E400044014FF47A7301220C4801F02DFE05461F
:103E500055B9012003AACDE900206100034604AA58
:103E60000290064802F076F8044801F017FD9DF82C
:103E70000C0000F00106304605B0F0BDB80300208C
:103E8000704700000349086000BF02490968002923
:103E9000FBD170472400002000B5014600220DE050
:103EA000FA2000F00EF8FA2000F00BF8FA2000F0EB
:103EB00008F8FA2000F005F8501C82B28A42EFDBC5
:103EC00000BD704710B501E009F00CFB0CF0B8FF25
:103ED00000F001000028F7D10DF020F80CF09EFF53
:103EE0000DF00AF810BD000038B504460BA00068BC
:103EF000009001E009F0F6FA0CF0A2FF00F00100DA
:103F00000028F7D10DF00AF800236A462146D82090
:103F10000DF016F80CF0F0FF38BD0000FF000000B7
:103F200070B504460D46164601E009F0DBFA0CF0C8
:103F300087FF00F001000028F7D133462A462146CA
:103F400003200CF0A7FF70BD70B504460D46164661
:103F500001E009F0C7FA0CF073FF00F0010000283F
:103F6000F7D10CF0DBFF33462A46214602200CF045
:103F7000E7FF0CF0C1FF70BD38B504460BA0006828
:103F8000009001E009F0AEFA0DF010F800F0010029
:103F90000028F7D10DF078F800236A462146D82092
:103FA0000DF084F80DF05EF838BD0000FF00000051
:103FB00070B504460D46164601E009F093FA0CF080
:103FC000F5FF00F001000028F7D10DF05DF8334651
:103FD0002A46214602200DF069F80DF043F870BD25
:103FE0002DE9F05F06460C4617469946DDE90AA81A
:103FF0004FF0000B002506F5206000EBC70103C958
:10400000C4E90601A56A202D41D2D4E90A30591C21
:1040100040F10000C4E90A10002105EB450000EB67
:10402000851204F1300000EBC200C0E9048105EB09
:10403000450000EB851104F1300000EBC100C0F831
:10404000049006F5C06000EBC70006C805EB45000C
:1040500000EB851304F1300000EBC300C0E902124D
:10406000012105EB450000EB851204F1300040F81A
:10407000321005EB450000EB851204F1300000EB37
:10408000C20080F818A0206A2930206204E04FF0B6
:10409000010B03A008F02EFE5846BDE8F09F00007B
:1040A000EDE5F220ECE5F1F2E020E4EBFF20EAE2BE
:1040B000E8F2E0EDF6E8E9210D0A000010B5012074
:1040C00001F0E0FA01200149087010BDC000002095
:1040D00010B5022001F0D6FA01200149087010BD88
:1040E000C100002010B5082001F0CCFA01200149E0
:1040F000087010BDC300002010B5402001F0C2FAC6
:1041000001200149087010BDC60000207047000062
:1041100010B5012211030A4801F0B4FB012251033A
:10412000074801F0AFFB0120FFF7ACFE00224FF47F
:104130000051034801F0A6FB0120FFF7A3FE10BDCC
:10414000000402402DE9F043A1B007460E46144694
:104150004FF000080025204604EBD0714FEA6109BA
:1041600000BF08E0601B801E56F82010601B401E38
:1041700046F820106D1C601EA842F3DC3760002555
:1041800005E056F8250001A941F825006D1CA5425F
:10419000F7DB064B0422214601A8FCF75AF801A8D8
:1041A00050F82980404621B0BDE8F083E1F40008D2
:1041B00001460878012803D10020087001207047CB
:1041C0000020FCE72DE9F04790B0074689464FF004
:1041D000000A3846F91707EB5171C1F3C706CA4602
:1041E00000224FF48061854801F04CFB50460CF0F2
:1041F00003FE4FF000080BE000200CF0FDFD002155
:104200006A4602EBC80203C208F1010000F0FF0891
:10421000F91707EB5171B8EBE10FEDDB01229102C9
:10422000764801F02FFB012E01D1DDE90045022E79
:104230000AD1DDE90012100240EA11600A02DDE94C
:104240000231D41840EB0105032E12D1DDE9001232
:10425000100440EA11400A04DDE90231090241EA92
:1042600013611B02D2184841DDE90431D41840EB38
:104270000105042E1AD1DDE90002110641EA1021E0
:104280000206DDE90230000440EA13401B04D218A4
:104290004141DDE90430000240EA13601B02D218FC
:1042A0004841DDE90631D41840EB0105052E1DD14A
:1042B000DDE90231090641EA13211B0600981A1CA8
:1042C0004141DDE90430000440EA13401B04D218E8
:1042D0004141DDE90630000240EA13601B02D218BA
:1042E0004841DDE90831D41840EB0105062E22D102
:1042F000009801020022029892184141DDE9043041
:10430000000640EA13201B06D2184841DDE90631B9
:10431000090441EA13411B04D2184141DDE9083088
:10432000000240EA13601B02D2184841DDE90A315D
:10433000D41840EB0105072E29D1009801044FF055
:10434000000C02981CEB0C0241EB0021049812EBCC
:104350000C024141DDE90630000640EA13201B064D
:10436000D2184841DDE90831090441EA13411B0430
:10437000D2184141DDE90A30000240EA13601B0215
:10438000D2184841DDE90C31D41840EB0105082E64
:104390002ED14FF0000C02990A0463466146944600
:1043A0000098CA184CEB00600499121C40EB0121E4
:1043B0000698121C4841DDE90831090641EA13213B
:1043C0001B06D2184841DDE90A31090441EA1341CC
:1043D0001B04D2184141DDE90C30000240EA1360B1
:1043E0001B02D2184841DDE90E31D41840EB01051B
:1043F0002046294610B0BDE8F087000000100240BA
:104400002DE9FC470746894614461D463846F917EC
:1044100007EB5171C1F3C706012E02D1E0B28DF84E
:104420000300022E08D1E0B28DF80200200A40EA13
:104430000560C0B28DF80300032E0ED1E0B28DF8F6
:104440000100200A40EA0560C0B28DF80200200C8D
:1044500040EA0540C0B28DF80300042E14D1E0B24A
:104460008DF80000200A40EA0560C0B28DF8010016
:10447000200C40EA0540C0B28DF80200200E40EA50
:104480000520C0B28DF80300052E17D1E0B28DF8DB
:104490000000200A40EA0560C0B28DF80100200C3F
:1044A00040EA0540C0B28DF80200200E40EA052027
:1044B000C0B28DF80300E8B28DF80400062E1AD1C0
:1044C000E0B28DF80000200A40EA0560C0B28DF825
:1044D0000100200C40EA0540C0B28DF80200200E19
:1044E00040EA0520C0B28DF80300E8B28DF8040060
:1044F000280A8DF80500072E1DD1E0B28DF80000C6
:10450000200A40EA0560C0B28DF80100200C40EAA4
:104510000540C0B28DF80200200E40EA0520C0B26E
:104520008DF80300E8B28DF80400280A8DF8050024
:10453000280C8DF80600082E20D1E0B28DF800007E
:10454000200A40EA0560C0B28DF80100200C40EA64
:104550000540C0B28DF80200200E40EA0520C0B22E
:104560008DF80300E8B28DF80400280A8DF80500E4
:10457000280C8DF80600280E8DF8070000224FF455
:104580008061124801F07EF949F080000CF034FCA3
:10459000701EC6B24FF0000809E0A6EB08011DF836
:1045A00001000CF029FC08F1010000F0FF08F917E8
:1045B00007EB5171B8EBE10FEFDB012291020348E9
:1045C00001F060F90020BDE8FC8700000010024007
:1045D0002DE9F04F89B0044600BF4FF00009CA46EC
:1045E00000BFCB4600BF00BF207A01060022607AE0
:1045F000124341EA0041A07A41EA0021E07A0843EF
:10460000217B09060A4340EAE171607B000442EA2B
:10461000000341EAE072A07B0002034342EAE0703B
:10462000E17B0B4340EAE170CDE90630FE4ADDE96B
:104630000601FCF7A5FD80466078217840EA01215B
:1046400040F2334008FB00F0F84A02EB0010018012
:10465000E078A17840EA012140F2334008FB00F005
:1046600002EB0010418020790006617940EA0140A8
:10467000A17940EA0120E179084340F2334108FB87
:1046800001F102EB01118860207A01060022607AB4
:10469000124341EA0040A17A40EA0121E07A41EA6E
:1046A0000003207B01061046084343EAE171627B68
:1046B000120440EA020341EAE270A17B0A024FEAD7
:1046C000E27C1A4340EA0C00E17B0A4340EAE170D5
:1046D00040F2334108FB01F1D44B03EB0111C1E976
:1046E0000420207C01060022607C030442EA0200D0
:1046F0001943A27C4FEA022C024641EA0C01E07CFD
:104700000143207D0006024341EAE071607D000420
:10471000C317104341EA0302A17D0902CB170143ED
:104720001A43E07D0B46034342EAE07140F2334016
:1047300008FB00F0BD4A02EB0010C0E90631207E04
:104740000006617E40EA0140A17E40EA0120E17E50
:10475000084340F2334108FB01F102EB011108620A
:10476000207F0006617F40EA0140A17F40EA0120EE
:10477000E17F084340F2334108FB01F102EB0111F4
:10478000486294F820000206002194F821000943B1
:1047900042EA004094F822204FEA022C0A4640EAFE
:1047A0000C0194F8230041EA000394F82400010668
:1047B00042EA010043EAE17294F825100904084333
:1047C00042EAE17294F826100902084342EAE172D3
:1047D00094F82710084342EAE17240F2334108FBA3
:1047E00001F1924B03EB0111C1E90A0228250020D7
:1047F0000646074662E1605D0106681C205C41EAEE
:104800000041A81C205C41EA0021E81C205C014317
:1048100040F2334008FB00F0844A02EB00103030D5
:1048200006EB460202EB861240F83210281D205C8F
:104830000106681D205C41EA0041A81D205C41EA98
:104840000021E81D205C014340F2334008FB00F0EA
:10485000764A02EB0010303006EB460202EB86127D
:1048600000EBC200416005F10800205C0106002257
:1048700005F10900205C124341EA004005F10A01FC
:10488000615C40EA012105F10B00205C014305F168
:104890000C00205C030642EA030041EAE37105F1E3
:1048A0000D02A25C1204D3170243194305F10E0056
:1048B000205C0002C317104341EA030205F10F0117
:1048C000615C03460B4342EAE17040F2334108FB6E
:1048D00001F1564A02EB0111303106EB460202EBC0
:1048E000861201EBC201C1E9023005F11000205C23
:1048F0000106002205F11100205C030442EA0200D7
:10490000194305F11202A25C4FEA022C024641EA69
:104910000C0105F11300205C014305F11400205C3B
:104920000006024341EAE07105F11500205C000435
:10493000024341EAE07105F11600205C00020243E7
:1049400041EAE07005F11701615CCB171143184390
:1049500040F2334208FB02F2344B03EB02123032D6
:1049600006EB460303EB861302EBC302C2E9041015
:104970002F48D0F800B0016841600068401E2C4903
:1049800008624FF0000A07E005EB0A01605C294964
:1049900006F0AAFE0AF1010ABAF1180FF4D34FF09B
:1049A00000091DE005F118004844215C40F2334045
:1049B00008FB00F01D4A02EB0010303006EB460207
:1049C00002EB861200EBC200183000F8091005F166
:1049D00018014944605C174906F086FE09F1010997
:1049E00040F2334008FB00F0104901EB001030307A
:1049F00006EB460101EB861150F831004845D1D84D
:104A00000B480068401C0A49486205F1180000EB99
:104A1000090540F2334008FB00F0044901EB0010A7
:104A2000303006EB460107E0D0F60020E0800020A1
:104A300010E4002010C4002001EB861100EBC1003F
:104A4000C1688068CDE9040140F2334008FB00F002
:104A5000234901EB0010303006EB460101EB8611D3
:104A600000EBC10041690069CDE9020140F2334029
:104A700008FB00F01A4901EB0010006940F23341D5
:104A800008FB01F1164A02EB0111303106EB460238
:104A900002EB861201EBC2014968CDE9001040F239
:104AA000334108FB01F10F4A02EB01105B460E4A4D
:104AB0000E4906F015FD761C47F1000740F2334021
:104AC00008FB00F0064901EB0011D1E90A01301A98
:104AD00077EB0100FFF48FAE09B0BDE8F08F000066
:104AE000E0800020B03D002038E4002010C4002009
:104AF00008480068B0F5167F0AD90020054908600B
:104B000005480068401C04490860012003490870FA
:104B1000704700001401002018010020100100203F
:104B20000A46002100230370426000E0491C044B48
:104B300053F82130002BF9D1014B43F82100704785
:104B4000B03900202DE9F041044600250026002759
:104B500000BF1BE04FF480410F4800F08BFE07467A
:104B6000700800EBC776012251030B4800F08AFE63
:104B70000120FFF787F900224FF40051064800F0AA
:104B800081FE0120FFF77EF9681C85B2A542E1DBBA
:104B90003046BDE8F081000000040240704700008C
:104BA00038B502460020009000BF92F83C00012872
:104BB00001D1022038BD012082F83C0000BF086806
:104BC000092816D91068C0680C780A3C04EB440523
:104BD0000724AC40A0431468E0600C780A3C04EB66
:104BE00044048868A0401468E46820431468E060C6
:104BF00013E0106800690C7804EB44050724AC400E
:104C0000A043146820610C7804EB44048868A04039
:104C1000146824692043146820614868072817D263
:104C20001068406B0C79641E04EB84051F24AC40B3
:104C3000A04314686063088880B20C79641E04EB9A
:104C40008404A0401468646B20431468606331E0FE
:104C500048680D2817D21068006B0C79E41F04EB2C
:104C600084051F24AC40A04314682063088880B2E8
:104C70000C79E41F04EB8404A0401468246B2043E7
:104C80001468206316E01068C06A0C790D3C04EBD0
:104C900084051F24AC40A0431468E062088880B2F9
:104CA0000C790D3C04EB8404A0401468E46A2043B2
:104CB0001468E0621E4B1F4C1068A0420AD10868BD
:104CC000122807D1586820F400005860586840F452
:104CD00080005860174C1068A04222D1164C08681A
:104CE000A04202D0086811281BD1586820F4800027
:104CF0005860586840F4000058600F4C0868A042A3
:104D00000FD10E4800680E4CB0FBF4F000EB8000B1
:104D10004000009002E00098401E0090009800289B
:104D2000F9D100BF002082F83C0000BF00BF41E77E
:104D30000023014000200140120000100403002065
:104D400040420F0002490968491C014A116070473E
:104D5000480200207047704770B5044600250026C1
:104D600020680068C0F3400520684068C0F3401622
:104D700095B38EB3206C00F0100018B9206C40F48D
:104D8000007020642068806800F04050E8B9207E00
:104D9000D8B92068C06A00F4700020B1206880682B
:104DA00000F4806088B92068406820F02000216805
:104DB0004860206C20F480702064206C00F48050E7
:104DC00018B9206C40F0010020642046FFF7BAFFBC
:104DD0006FF012002168086020680068C0F3800549
:104DE00020684068C0F3C016E5B3DEB3206C00F065
:104DF000100018B9206C40F40050206420688068CE
:104E000000F4401038BB2068806B00F4401020B1E3
:104E10002068806800F48060E8B92068406800F489
:104E20008060C0B92068806800F0405098B9207E4A
:104E300088B92068406820F0800021684860206CB4
:104E400020F480502064206C00F4807018B9206C2D
:104E500040F0010020642046FFF7A0FE6FF00C0038
:104E6000216808602068006800F00105206840683B
:104E7000C0F3801685B17EB12068006800F00100A3
:104E800050B1206C40F480302064204600F052F88D
:104E90006FF001002168086020680068C0F34015C9
:104EA00020684068C0F380667DB176B1606C40F0E8
:104EB000020060646FF02000216808602046FFF760
:104EC0004AFF6FF020002168086070BD70B504468D
:104ED00000250CB9012070BD1549A06A884200D098
:104EE00000BF206C30B9204600F026F80020606436
:104EF00084F83C00206C00F0100088B9206C20F48D
:104F0000885040F0020020642046FBF7E1FE0020BC
:104F10006064206C20F0020040F00100206400E09A
:104F2000012500BF002084F83C0000BF2846D2E7DE
:104F30000100000F7047000010B586B00446142130
:104F400001A8FBF7DBF92B492068884250D100BF4C
:104F5000002000902848006840F4807026490860CE
:104F60000846006800F48070009000BF00BF00BFDA
:104F70000020009020481438006840F001001E49CD
:104F8000143908600846006800F00100009000BF76
:104F900000BF0F200190032002900020039001A980
:104FA000164800F07DFB164816490860002048604E
:104FB000002114488160C1604FF4806101614900A3
:104FC0004161890081614911C161090201620421C5
:104FD0004162012181620021C162016300F0EEF9AA
:104FE00008B1FFF793F800BF0648A063846300BFD1
:104FF00006B010BD002001404438024000000240CD
:105000001064024058030020F8B504460D461646C9
:105010000020009000BF94F83C00012801D102203C
:10502000F8BD012084F83C0000BF2068806800F0D3
:105030000100A0B92068806840F001002168886004
:105040003D4800683D49B0FBF1F000EB40000090A6
:1050500002E00098401E009000980028F9D12068D6
:10506000806800F00100002864D0206C40F20161EB
:10507000884340F4807020642068406800F48060B9
:1050800028B1206C20F4005040F480502064206C43
:1050900000F48050B0F5805F04D1606C20F0060011
:1050A000606401E00020606400BF002084F83C00E0
:1050B00000BF234F2348A16BC8632348A16B08643A
:1050C0002248A16BC8646FF0220021680860206844
:1050D000406840F08060216848602068806840F443
:1050E000807021688860226802F14C0133462A46AC
:1050F000A06B00F0D9F9786800F01F0058B920685B
:10510000806800F0405028B92068806840F08040F6
:10511000216888600EE00E49206888420AD1206824
:10512000806800F0405028B92068806840F08040D6
:1051300021688860002073E70403002040420F00CC
:1051400000230140130C0008AB0C0008910C000870
:1051500000200140014691F83500022803D080204C
:10516000486501207047052081F83500086800680F
:1051700020F001000A6810600020F3E7F8B504464B
:10518000002000908C4800684FF41651B0FBF1F7F6
:10519000A56D2E6894F85C1008208840304098B1C6
:1051A0002068006800F0040070B12068006820F0FA
:1051B00004002168086094F85C1008208840A8600A
:1051C000606D40F00100606594F85C10012088403B
:1051D000304068B12068406900F0800040B194F828
:1051E0005C1001208840A860606D40F0020060659E
:1051F00094F85C1004208840304068B12068006852
:1052000000F0020040B194F85C1004208840A860CF
:10521000606D40F00400606594F85C1010208840D8
:10522000304078B32068006800F0080050B394F86C
:105230005C1010208840A8602068006800F480207E
:1052400080B12068006800F4002028B9206CC8B143
:105250002046216C884715E0A06C98B12046A16CCF
:1052600088470FE02068006800F4807028B9206843
:10527000006820F0080021680860206C10B120460A
:10528000216C884794F85C1020208840304000282A
:1052900065D02068006800F0100000285FD094F806
:1052A0005C1020208840A86094F83500052828D19B
:1052B0002068006820F016002168086020684069B6
:1052C00020F0800021684861206C08B9A06C28B1EA
:1052D0002068006820F008002168086094F85C10DD
:1052E0003F208840A86000BF002084F8340000BF41
:1052F000012084F83500206D10B12046216D8847CB
:10530000F8BD2068006800F4802080B12068006843
:1053100000F4002028B9606C10B12046616C884709
:105320001DE0E06BD8B12046E16B884717E02068AC
:10533000006800F4807068B92068006820F01000F0
:105340002168086000BF002084F8340000BF0120FD
:1053500084F83500E06B10B12046E16B8847606D42
:1053600038B3606D00F00100F0B1052084F835001D
:105370002068006820F001002168086000BF0098E4
:10538000401C0090B84200D905E02068006800F099
:1053900001000028F3D100BF00BF002084F83400D2
:1053A00000BF012084F83500E06C10B12046E16CAC
:1053B000884700BFA4E70000040300202DE9F04166
:1053C0000446002500F064FA074614B90120BDE840
:1053D000F081606A00B100BF00BF002084F8340093
:1053E00000BF022084F835002068006820F001002A
:1053F000216808600AE000F04BFAC01B052805D9B7
:1054000020206065032084F83500E0E7206800680C
:1054100000F001000028EED1206805682148054011
:10542000D4E901010843E16808432169084361693F
:105430000843A1690843E1690843216A0843054319
:10544000606A042803D1D4E90B01084305432068AE
:1054500005602068456925F00705606A0543606AB4
:1054600004280DD1A06A0543E06A48B12046FEF742
:105470006DFC28B140206065012084F83500A6E766
:10548000206845612046FEF747FC064694F85C100C
:105490003F208840B06000206065012084F835001E
:1054A000002094E73F8010F02DE9F04704460D46B8
:1054B00016461F464FF00008D4F8589000BF94F8E5
:1054C0003400012802D10220BDE8F087012084F8D1
:1054D000340000BF94F8350001282BD1022084F855
:1054E0003500002060653B46324629462046FEF7DF
:1054F00082FC94F85C103F208840C9F808002068BE
:10550000006840F01600216808602068406940F09B
:10551000800021684861206C28B12068006840F054
:105520000800216808602068006840F001002168D8
:10553000086006E000BF002084F8340000BF4FF090
:1055400002084046C0E70000F0B50C4600250022E6
:105550000023002181E0012606FA01F504EA050294
:10556000AA4279D13F4E8F0856F827308E07370F61
:105570000F26BE4033403C4EB04201D1002614E01D
:105580003A4EB04201D101260FE0394EB04201D16E
:1055900002260AE0374EB04201D1032605E0364E1E
:1055A000B04201D1042600E007268F073F0FBE401E
:1055B0009E4222D18E07370F0F2606FA07F3294E97
:1055C0008F0856F827609E43264F4FEA910C47F804
:1055D0002C602A4E36689643284F3E603E1D366842
:1055E00096433F1D3E603E1D366896433F1D3E601C
:1055F0003E1D366896433F1D3E6006684FEA410CEB
:10560000032707FA0CF7BE430660CF0800F1200617
:1056100056F827604F074FEAD76C0F2707FA0CF7A9
:10562000BE434FEAD10C00F1200747F82C60866892
:105630004FEA410C032707FA0CF7BE438660466821
:1056400001278F40BE434660C6684FEA410C0327DE
:1056500007FA0CF7BE43C660491C1029FFF47BAF64
:10566000F0BD000008380140000002400004024084
:1056700000080240000C024000100240003C0140C3
:105680007047000010B5044604480068204020B16F
:10569000024804602046FFF7F3FF10BD143C0140B0
:1056A000F8B503460A460025002400200021CDE07D
:1056B000012606FA01F5166806EA0504AC4273D124
:1056C0005668022E02D05668122E13D1CF0803F16D
:1056D000200656F827004E07F70E0F26BE40B043AF
:1056E0004F07FF0E1669BE403043CF0803F1200676
:1056F00046F8270018684F000326BE40B0431679CD
:1057000006F003064F00BE40304318605668012E75
:1057100008D05668022E05D05668112E02D0566861
:10572000122E13D198684F000326BE40B0434F009D
:10573000D668BE4030439860586801268E40B0431A
:105740001679C6F300168E4030435860D8684F0073
:105750000326BE40B0434F009668BE403043D86039
:10576000566806F08056B6F1805F6ED100BF002605
:105770000096384E366846F48046364F3E603E46C8
:10578000366806F48046009600BF00BF324E8F0890
:1057900056F827008E07370F0F26BE40B0432F4E16
:1057A000B34202D1002615E04FE02D4EB34201D1A5
:1057B00001260FE02B4EB34201D102260AE02A4E09
:1057C000B34201D1032605E0284EB34201D104269D
:1057D00000E007268F073F0FBE4030431E4E8F0864
:1057E00046F82700224E3068A043566806F48036FB
:1057F000B6F5803F00D120431D4E3060361D306825
:10580000A043566806F40036B6F5003F00D12043A9
:10581000174E361D3060361D3068A043566806F4BA
:105820008016B6F5801F00D12043114E0836306037
:10583000361D3068A043566806F40016B6F5001F02
:1058400000D120430A4E0C363060491C1029FFF469
:105850002FAFF8BD44380240083801400000024034
:105860000004024000080240000C02400010024008
:10587000003C0140024613690B400BB1012000E0DF
:10588000002070470AB1816101E00B048361704719
:105890000148006870470000F802002010B5044677
:1058A0000CB9012010BD242084F83D002068006858
:1058B00020F0010021680860204600F0E1FD002092
:1058C000206484F83D00206384F83E0000BF84F823
:1058D0003C0000BF00BFE5E770B504460CB90120ED
:1058E00070BD94F83D0028B9002084F83C002046A3
:1058F00000F0DEFD242084F83D002068006820F0E0
:105900000100216808602068006840F400402168B8
:1059100008602068006820F400402168086000F0FA
:10592000A7FF05465C496068884206D85B48854207
:1059300001D2012007E0002005E05948854201D24C
:10594000012000E00020012800D1C9E75548B5FB3F
:10595000F0F62068406820F03F003043216848603E
:105960004D496068884201D8701C07E04FF496707A
:1059700070434FF47A71B0FBF1F0401C2168096A62
:1059800021F03F010843216808624349606888426A
:1059900014D8681E61684900B0FBF1F0401CC0F3E8
:1059A0000B00042801D204203DE0681E6168490014
:1059B000B0FBF1F0401CC0F30B0034E0A06838B934
:1059C000681E616801EB4101B0FBF1F0401C0AE088
:1059D000681E616801EBC10202EB0111B0FBF1F03E
:1059E000401C40F48040C0F30B0008B901201AE0CD
:1059F000A06848B9681E616801EB4101B0FBF1F095
:105A0000401CC0F30B000CE0681E616801EBC10292
:105A100002EB0111B0FBF1F0401CC0F30B0040F4AD
:105A2000804040F400402168C9694CF6FF72914300
:105A300008432168C861D4E907010843216809685F
:105A400021F0C001084321680860D4E9031008432D
:105A50002168896848F2FF329143084321688860D1
:105A6000D4E9050108432168C96821F0FF01084312
:105A70002168C8602068006840F001002168086063
:105A800000202064202084F83D000020206384F85A
:105A90003E0000BF24E70000A086010080841E00B5
:105AA00000093D0040420F002DE9F84F04460F4623
:105AB00090461E46FFF7ECFE05464FF0010994F8AC
:105AC0003D0020287DD119230122624920460095FE
:105AD00002F0D4F810B10220BDE8F88F00BF94F8AE
