:020000040800F2
:10000000189F0020AD01000879650008954200089E
:10001000BD610008A50F00089185000800000000E0
:10002000000000000000000000000000116D00084A
:10003000491700080000000075660008857900086F
:10004000C7010008C7010008C7010008C701000870
:10005000C7010008C7010008E9170008FD170008DC
:10006000C701000811180008C7010008C7010008EF
:10007000C7010008C7010008C7010008C701000840
:10008000C701000819160008590A000800000000FE
:10009000000000000000000000000000251800081B
:1000A000C7010008C7010008C7010008C701000810
:1000B000C7010008C70100086D7B0008C7010008E0
:1000C000C7010008C7010008C7010008C7010008F0
:1000D000C7010008358500084185000800000000C0
:1000E000C7010008C7010008C701000800000000A0
:1000F000000000000000000000000000C701000830
:1001000000000000C7010008C7010008C70100087F
:1001100000000000000000000000000000000000DF
:100120002D160008C7010008C7010008C701000814
:10013000C7010008000000000000000000000000EF
:10014000000000000000000000000000C7010008DF
:10015000C701000839160008451600084D8500083B
:10016000C7010008C70100080000000000000000EF
:10017000000000000000000000000000000000007F
:1001800000000000C701000800000000000000009F
:10019000C7010008C7010008DFF80CD000F084FB9D
:1001A0000048004799A00008189F00200648804793
:1001B00006480047FEE7FEE7FEE7FEE7FEE7FEE74C
:1001C000FEE7FEE7FEE7FEE7B57A000899010008C2
:1001D0002DE9F05F0546002092469B46884606467C
:1001E000814640241BE0284641464746224600F00F
:1001F00020F853465A46C01A914110D3114618466A
:10020000224600F034FA2D1A67EB01084F462246C9
:100210000120002100F02BFA17EB00094E41201EAF
:10022000A4F10104DFDC484631462A464346BDE8D6
:10023000F09F202A04DB203A21FA02F000217047C7
:1002400021FA02F3D040C2F120029140084319463E
:100250007047D2B201E000F8012B491EFBD2704773
:100260000022F6E710B513460A4604461946FFF782
:10027000F0FF204610BD421C10F8011B0029FBD1E5
:10028000801A704710B5002200E0521C835C8C5C21
:10029000A34201D1002BF8D1D8B2E1B2401A10BD6F
:1002A00070B5064608F0C2F9046805460A22002126
:1002B000304600F0FDF92C6070BD2DE9FE4F804600
:1002C00081EA0300C00F0C46009021F0004123F0AA
:1002D0000045B8EB0200A94105D2404621469046B0
:1002E0001C460B46024623F00040104347D0270D22
:1002F000C7F30A00C3F30A510290401A0190402844
:100300006BDAC3F3130040F4801B0098924620B1CF
:100310000023D2EB030A63EB0B0B01985946C0F1A3
:100320004002504600F0A3F906460D465046594695
:10033000019A00F0ABF910EB08006141002487EA54
:10034000115284EAE7731A4340D0009A62B3019ACB
:10035000012A4FEA075215DC001B61EB02014FF046
:10036000004202EA0752CDE90042001C41F580112B
:1003700032462B4600F01AFA03B0BDE8F08F404633
:100380002146F9E7001B61EB0201001C41F58013D7
:1003900000185B412018A2F5001747EB030140EA63
:1003A000D570B6196D4111E06D084FEA360645EA81
:1003B000C0754FEA0752001B61EB0201001C41F5BA
:1003C000801149084FEA30000019514132462B464E
:1003D00003B0BDE8F04F00F0DAB900980122400008
:1003E0000023D0EB020263EBE073009821464FEA52
:1003F000E074B8EB000061EB0401E9E783F000432F
:100400005BE781F0004158E72DE9FE4F81EA0304E4
:1004100004F0004421F0004100944FF0000B23F061
:10042000004350EA01045ED052EA03045BD0C3F3F8
:100430000A54C1F30A552C44A4F2F3340194A0FBEE
:100440000254C1F3130141F48011C3F3130343F4C5
:10045000801301FB024400FB034E840A970A44EA1E
:10046000815447EA8357A4FB076802958D0A05FB70
:1004700007854FEA932C04FB0C542705029D4FEA95
:10048000065847EA1637B5EB08056EEB070C870EE2
:10049000920E47EA811742EA8312A7FB0201B6EBEC
:1004A0000B0164EB00042B0D43EA0C335E1844EBA4
:1004B0001C50DA465146E7FB0201C5F313044FEA2C
:1004C0000B3343EA14534FEA0432019C43EA060318
:1004D000A4F10C040294009CCDE900B400F066F98C
:1004E00003B0BDE8F08F00200146F9E72DE9F04D9B
:1004F00081EA030404F0004B21F0004514464FF05C
:10050000000A23F0004150EA050220D054EA01021B
:100510001DD0C5F30A570246C5F31303C1F31300F8
:10052000C1F30A5640F4801543F48013A7EB060884
:10053000101BD64608F2FD3873EB050002D308F114
:10054000010801E092185B41B8F1000F03DA0020C6
:100550000146BDE8F08D00204FF480110646844628
:100560000EE0171B73EB050705D3121B63EB0503A6
:1005700006434CEA010C49084FEA300092185B41EF
:1005800050EA0107EDD152EA030012D082EA0400DA
:1005900083EA0501084305D0101BAB4106D20122B6
:1005A000002306E000224FF0004302E06FF001025A
:1005B00053101AEB06004CEB085110EB0A0041EB0C
:1005C0000B01BDE8F04D00F0E2B80EB540F233414A
:1005D00002910021CDE900110A460B4600F0E6F831
:1005E00003B000BD00F0004230F000400AD0C10D61
:1005F00001F56071C0F3160042EA0151C2084007DC
:100600001143704700200146704701F0004330B4A9
:1006100021F0004150EA010206D00A0DA2F56072F5
:10062000C1F31301002A02DC30BC00207047440FE4
:1006300044EAC104C100E01830BC00EBC25000F035
:100640006FB830B50B46014600202022012409E096
:1006500021FA02F59D4205D303FA02F5491B04FA7B
:1006600002F52844151EA2F10102F1DC30BD202A5A
:1006700004DB203A00FA02F1002070479140C2F1F9
:10068000200320FA03F3194390407047202A06DB29
:10069000CB17203A41FA02F043EAE07306E041FA50
:1006A00002F3D040C2F1200291400843194670473E
:1006B0002DE9F04791460F4680460446002614F87F
:1006C000015B2DB100F002F90068405DC007F6D172
:1006D0002B2D02D02D2D18D0641E4A4639462046B7
:1006E00000F0F8F827B13968A14201D1C7F80080BD
:1006F00071054FF002040BD54042002803DD07F0DE
:1007000095FF0460A007BDE8F08746F48066E4E743
:100710000028F8DA07F08AFF04606FF00040F2E783
:100720000029A8BF7047401C490008BF20F0010005
:10073000704710B4B0FA80FC00FA0CF050EA0104E3
:1007400004BF10BC704749B1CCF1200421FA04F475
:1007500011FA0CF118BF012121430843A3EB0C014E
:10076000CB1D4FEA00614FEA102042BF002010BCB1
:10077000704700EBC35010440029A4BF10BC704761
:10078000401C490008BF20F0010010BC704710B5A4
:10079000141E73F1000408DA401C41F100019218A4
:1007A0005B411A4301D120F0010010BD2DE9F04D4D
:1007B00092469B4611B1B1FA81F202E0B0FA80F2A2
:1007C00020329046FFF753FF04460F4640EA0A00E6
:1007D00041EA0B0153465A46084313D0114653EAE7
:1007E000010019D0C8F140025046FFF722FD05462E
:1007F0000E46504659464246FFF739FF084305D09A
:10080000012004E020463946BDE8F08D0020054374
:1008100046EAE0762C4337430A986305E40AA0EBE6
:1008200008000022FD0A44EA47540A3002D500209D
:100830000146E9E7010510196941DDE9084500199C
:100840006941BDE8F04DA2E7C1F30A52C1F31301BB
:1008500040F2FF3341F480119A4202DA002001464F
:10086000704740F233439A42A2F2334202DC5242D2
:10087000FFF7DFBCFFF7FBBE30B5041E71F10004CB
:1008800004DB4FF00044404264EB0101141E73F19D
:10089000000405DB1C464FF00043524263EB0403A7
:1008A000994208BF904230BD064C074D06E0E06813
:1008B00040F0010394E8070098471034AC42F6D3A7
:1008C000FFF76EFC94B10008B4B10008004870470F
:1008D0000CAF00082DE9F05F82460078002715462E
:1008E0008B460AF10104B946302801D09DB113E0CE
:1008F00014F8010B0127782803D0582801D045B1FE
:100900000AE00DB1102D07D10027102514F8010BB6
:1009100002E0082500E00A250026B0460EE005FBAF
:10092000080005FB06F1012701EB10461FFA80F8CD
:10093000B6F5803F00D3B94614F8010B294600F004
:1009400018F80028EBDABBF1000F05D00FB1641ED8
:1009500000E05446CBF80040B9F1000F06D007F094
:1009600065FE02210160C81EBDE8F09F48EA06400E
:10097000FAE73A2800D2303820F02002412A01D389
:10098000A2F13700884201D34FF0FF30704730B5F5
:100990008C1810F8012B12F00F0301D110F8013B55
:1009A000120906D110F8012B03E010F8015B01F8E1
:1009B000015B5B1EF9D101E001F8013B521EFBD146
:1009C000A142E6D3002030BD10B50146806B026C19
:1009D00012F0500F05D0026CD20626D501F01BFB99
:1009E00010BD016C41F40071016401688A6812F065
:1009F000405F17D1027EAAB9CA6A12F4700F02D002
:100A00008A6852050ED44A6822F020024A60016CBE
:100A100021F480710164016CC90403D4016C41F0BC
:100A20000101016401F0EEFA10BD806BC26CBDE8FB
:100A300010400846104710B5806B40210164416C9E
:100A400041F00401416401F0E6FA10BD10B5806B7D
:100A500001F0E0FA10BD000010B5034801F0DCFA27
:100A600002490120087010BD6C010020C100002067
:100A7000464910B54A6822F440324A604A684368E1
:100A80001A434A6001684A6822F480724A60016829
:100A90004A68036942EA03224A6001684A6822F010
:100AA00040724A6001684A6883681A434A60016874
:100AB0008A6822F400628A6001688A68C3681A43FF
:100AC0008A60816A6FF07062D14201688A6822F0A0
:100AD00070628A6001688A680CD0836A1A438A60EF
:100AE00001688A6822F040528A6001688A68C36A95
:100AF0001A4301E022F040528A6001688A6822F0BD
:100B000002028A6001688A68037E42EA43028A60C0
:100B100090F82010002901684A680FD042F4006262
:100B20004A6001684A6822F460424A6001684A6883
:100B3000174C436A04EB43331A4301E022F400628A
:100B40004A600168CA6A22F47002CA620168CA6A0D
:100B5000838B104C04EB03531A43CA6201688A6802
:100B600022F400728A6001688A6890F8303042EAA4
:100B700043228A6001688A6822F480628A60016880
:100B80008A68406942EA8020886010BD00230140E5
:100B900000E0FFFF0000F0FF9FED0B1B10B553ECD2
:100BA000112B51EC100BFFF729FC9FED091B53ECA7
:100BB000112BFFF79BFC9FED081B53EC112BFFF74C
:100BC0007CFB41EC100B10BD52B81E85EB51E83F89
:100BD0007B14AE47E17A643F00000000000039401A
:100BE00070B5544900202DED068B0864524C2088C6
:100BF000FFF7EBFC9FED518B53EC182BFFF704FC38
:100C00009FED509B53EC192BFFF7FEFB9FED4FAB75
:100C100053EC1A2BFFF7F8FBFFF7F7FC04F10C0578
:100C200028606088FFF7D1FC53EC182BFFF7ECFB32
:100C300053EC192BFFF7E8FB53EC1A2BFFF7E4FBFF
:100C4000FFF7E3FC6860A088FFF7BFFC53EC182BAC
:100C5000FFF7DAFB9FED3F1B53EC112BFFF7D4FBA3
:100C600053EC192BFFF7D0FBFFF7CFFCA860E0880F
:100C7000FFF7ABFC53EC182BFFF7C6FB53EC192B1B
:100C8000FFF7C2FB53EC1A2BFFF7BEFBFFF7BDFCCF
:100C9000E8602089FFF799FC53EC182BFFF7B4FBB1
:100CA00053EC192BFFF7B0FBFFF7AFFC28612BA02B
:100CB00007F03CF995ED000A2CA008F087FC95EDB3
:100CC000010A2EA008F082FC95ED020A2FA008F080
:100CD0007DFC95ED030A31A008F078FC2869FFF748
:100CE00081FC41EC100BFFF757FF51EC100BFFF7A5
:100CF0008CFC00EE100A2DA008F068FC2FA007F075
:100D000015F9218819A009F097FE61881BA009F048
:100D100093FEA1881DA009F08FFEE1881FA009F0B5
:100D20008BFE218921A0BDEC068BBDE8704009F047
:100D300083BE000008000020D003002066666666BF
:100D400066660A40000000000000303F000000001E
:100D5000000000405DBF60376CDB16400D0A2D2D92
:100D60002D2D2D2D2D2D2D0D0A00000061646330D9
:100D70005F352E305620202020203A0061646331F8
:100D80005F332E335620202020203A0061646332E6
:100D90005F3132562020202020203A0061646333E6
:100DA0005F332E335620202020203A0074656D706A
:100DB0005F73656E7328D12920203A000D0D0D0058
:100DC00070B50546136814460E46002004EBC001BA
:100DD000D1E902216A4071400A4302D0401C022836
:100DE000F4D302280CD1022B0BD009A007F09EF8F7
:100DF000206804EBC000C0E902562068411C216055
:100E000070BD07A007F092F8C4E90256002070BD3B
:100E1000CDEEE2FBE920E0E4F0E5F1210D0A00006F
:100E2000CFF0E5E2FBF8E5EDEE20F7E8F1EBEE20A0
:100E3000CED2CFD0C0C2C8D2C5CBC5C9210D0A0001
:100E4000224900200A6889698A4200D901201F4985
:100E500020310A6889698A4201D940F002001B49A1
:100E600040310A6889698A4201D940F00400174973
:100E700060310A6889698A4201D940F00800134943
:100E800080310A6889698A4201D940F010000F490F
:100E9000A0310A6889698A4201D940F020000B49D3
:100EA000C0310A6889698A4201D940F04000074987
:100EB000E0310A6889698A4201D940F0800004491A
:100EC00008B1022000E0012088727047F02B00205A
:100ED000080000200449020E0A70020C4A70020A3F
:100EE0008A70C87070470000A400002070B5184ECA
:100EF000184C4FF48055B8B1206D002827D1A07B45
:100F0000012824D10020A07302462946304601F072
:100F100000FD11A007F00AF814A003F061FCBDE881
:100F2000704016A003F05CBCFF2005F055FB0122C9
:100F30002946304601F0EDFC4FF47A702065A07B25
:100F4000002804D111A006F0F1FF0120A07370BDAC
:100F5000000C024008000020C2EAEBFEF7E0E5ECDE
:100F600020CFC8D2C0CDC8C5210D0A007E30207068
:100F700077725F3037323A303B0000007E302065B8
:100F80006E61626C655F6C6D3A313B00C2FBEAEBEF
:100F9000FEF7E0E5EC20CFC8D2C0CDC8C5210D0AD0
:100FA00000000000FEE700002DE9F04F0024DFF80C
:100FB00018A3DFF818B385B00E460546A14605EB29
:100FC000C407D7E9201081F0010101437DD1C0A001
:100FD00006F0ACFFC1A006F0A9FF55F824000021DF
:100FE00008F002FC804655F82400012108F0FCFBC3
:100FF000034655F82400022108F0F6FB049055F84A
:101000002400032108F0F0FB039055F8240004218C
:1010100008F0EAFB029055F82400052108F0E4FBF3
:10102000019055F82400062108F0DEFB009055F8E9
:101030002400072108F0D8FB02460398DDF804C01D
:10104000B25C315C16F8080041EA0060F15C0B0408
:101050000499715C43EA012108430299715C0B0A0F
:10106000184316F80C30DDF800C0090641EA0341C8
:1010700040EA134016F80C3041EA032140EA1360BD
:101080001143CAE908109DA003F0AAFB90A006F046
:101090004DFFD7E9A0019C4AFFF792FE80464146EA
:1010A0009AA009F0C9FCDAF82000A321CDE900904C
:1010B00008FB01F00BEB001103232246284600F049
:1010C00055FB2146284605F075FCD7E9201081F034
:1010D000640101431BD1D7E9A0018B4AFFF770FEE1
:1010E000CAE90A09DAF820100323CDE90091A32107
:1010F00048430BEB00112246284600F037FB3146EF
:10110000284605F0B1FF2146284605F053FCD7E9F3
:10111000201081F0C80101433BD155F8240008F0AC
:1011200063FB804655F82400012108F05DFB024670
:1011300055F82400022108F057FB034655F8240017
:10114000032108F051FB315C16F8080041EA006009
:10115000B15CF25C090441EA0221084306F0D4FCC8
:10116000D7E9A001684AFFF72BFEDAF82010032325
:10117000CDE90091A32148430BEB001122462846FC
:1011800000F0F4FA2146284605F014FC64A006F0AD
:10119000CDFED7E9201081F00301014347D155F876
:1011A000240008F021FB034655F82400012108F033
:1011B0001BFB024655F82400022108F015FB80466F
:1011C00055F82400032108F00FFB305CF15C40EA85
:1011D0000160B15C0A0416F80810DFF8EC8042EAFE
:1011E0000121A8F18008084388F80C00D7E9A00184
:1011F000454AFFF7E5FD012388F80B30DAF82010A7
:101200000323CDE90091A32148430BEB00112246B3
:10121000284600F0ABFA2146284605F0CBFB44A057
:1012200006F084FE98F80C1048A009F005FCD7E9F8
:10123000201081F0040101433FD155F8240008F04B
:10124000D3FA024655F82400012108F0CDFA804671
:1012500055F82400022108F0C7FA034655F8240087
:10126000032108F0C1FA305CB15CF25C40EA016035
:1012700016F80810090441EA022140EA010808F0C2
:10128000FF0005F0A9F9D7E9A0011F4AFFF798FD73
:10129000DAF820100323CDE90091A32148430BEB9A
:1012A00000112246284600F061FA2146284605F042
:1012B00081FB414628A009F0BFFB641C202CFFF4F1
:1012C0007EAE05B0BDE8F08F88000020F02C002035
:1012D0000D0A2D2D2D2D2D2D0D0A0000CAEEECE04E
:1012E000EDE4E03AF3F1F2E0EDEEE2EAE020E2F0E4
:1012F000E5ECE5EDE8210D0A000000007E302074E9
:10130000696D653B0000000020560020CDEEECE545
:10131000F020EEF2EFF0E0E2E8F2E5EBFF3A000059
:10132000D1E2E5F2EEE4E8EEE4FB210D0A00000074
:10133000D3EFF0E0E2EBE5EDE8E520EFE8F2E0EDF9
:10134000E8E5EC202B313256210D0A00535441526E
:10135000545F42503A000000F3EFF0E0E2EBFFE5AB
:10136000EC20EFE8F2E0EDE8E520EAE0EDE0EBEE7E
:10137000E23A000070B50D4E4FF400752946304634
:1013800001F0C2FA0A4C217C88420ED02946304630
:1013900001F0BAFA20742946304601F0B5FABDE8EA
:1013A0007040014603A009F047BB70BD000C02402D
:1013B00008000020504F4B5F4844535F4F55543A4C
:1013C000000000002DE9F05F824C814A002004F10A
:1013D0002005117B04F1400604F1600904F1800747
:1013E00004F1A00804F1C00A012939D0002935D13F
:1013F000517C012932D15074411E21602960316035
:10140000C9F8001039604346C8F8001004F1E0083C
:10141000CAF80010C8F80010E060E860F060C9F891
:101420000C00F860D860CAF80C00C8F80C00A06086
:101430004A46A860B0609060D446B8609860CCF826
:101440000800C8F80800606068607060C9F80400AF
:1014500078605860CAF80400C8F80400BDE8F09F3E
:10146000916CB1F5FA7FF9D9012151749064084665
:1014700004F0F0F9022004F0EDF9032004F0EAF999
:10148000042004F0E7F9052004F0E4F9062004F054
:10149000E1F9072004F0DEF9082004F0DBF901206F
:1014A00004F0FCFA2060022004F0F8FA286003201F
:1014B00004F0F4FA3060042004F0F0FAC9F80000F7
:1014C000052004F0EBFA3860BB46062004F0E6FA8B
:1014D000C8F800004746072004F0E0FACAF8000008
:1014E000D046082004F0DAFADFF8E8A00AF1E00AB2
:1014F000CAF80000012004F0B7FB6060022004F08D
:10150000B3FB6860032004F0AFFB7060042004F0BC
:10151000ABFBC9F80400052004F0A6FBCBF80400DF
:10152000062004F0A1FB7860072004F09DFBC8F8BA
:101530000400082004F098FBCAF80400012004F01D
:101540001BFBA060022004F017FBA860032004F03E
:1015500013FBB060042004F00FFBC9F8080005205D
:1015600004F00AFBCBF80800062004F005FBB86085
:10157000072004F001FBC8F80800082004F0FCFA7A
:10158000CAF80800012004F0E7FBE060022004F044
:10159000E3FBE860032004F0DFFBF060042004F0CC
:1015A000DBFBC9F80C00052004F0D6FBCBF80C00DF
:1015B000062004F0D1FBF860072004F0CDFBC8F84A
:1015C0000C00082004F0C8FBCAF80C0046E7000035
:1015D00008000020F02B0020074840F2DC52016B8D
:1015E000914207D9C16A012904D10021C16203A037
:1015F00006F09CBC7047000008000020CFD0CECF82
:10160000C0CB20D1C8C3CDC0CB205431485A5F4D88
:101610004B2121210D0A00000249002008700248D8
:1016200000F0AABE1D00002038570020014800F03D
:10163000A3BE000038560020014800F09DBE000007
:1016400098570020024900200870024800F094BE1C
:101650001B000020D856002001681823CAB2103A97
:10166000B2FBF3F2054B6FF30901032A9B5CC365E0
:1016700000D9091D816508467047000028AD0008A3
:1016800010B5014600208B698A6A4FF0C07453B1CF
:10169000B3F5005F15D072B1012A0CD0022A0AD02E
:1016A000032A09D104E01AB1012A06D0022A03D183
:1016B000C96AC90100D5012010BDC96AA142FAD08A
:1016C00010BD002AF7D0012AF2D0022AF3D0032A53
:1016D000F3D010BD30B50468256825F48025256059
:1016E000046863608368402B036803D099600068D6
:1016F000C26030BD9A600068C16030BD00B585B081
:10170000104801F02BF9F9208DF80C00A6214FF4B8
:101710007A7301220B4801F0E5F950B9012004A9C0
:10172000CDE9001003460290A62103AA054801F066
:101730007FFB044801F0F8F89DF8100005B000F0B8
:10174000010000BDB4010020704700000249486557
:10175000486D0028FCD1704708000020002101E0FE
:10176000491C89B28142FBD3704700002DE9F0414A
:1017700000EBC200DDE90656D0E9A027C1E9062743
:101780008A6A0024402A1AD2571CD1F82CC002EBD6
:1017900082024CF1000CC1E90A7C01EBC202002775
:1017A0005363C2E91067D0E96030C2E90E3001200E
:1017B000106382F84850086A2930086203E0012467
:1017C00002A006F0B3FB2046BDE8F081EDE5F22073
:1017D000ECE5F1F2E020E4EBFF20EAE2E8F2E0EDF4
:1017E000F6E8E9210D0A000010B5012000F0B6FF6F
:1017F00001490120087010BD0000002010B5022032
:1018000000F0ACFF01490120087010BD0800002065
:1018100010B5082000F0A2FF01490120087010BD9A
:101820000900002010B5402000F098FF0149012078
:10183000087010BDC00000207047000070B50C4C4F
:1018400001221103204601F064F8012255032946C4
:10185000204601F05EF80120FFF778FF00222946BC
:10186000204601F056F8BDE870400120FFF76EBF3A
:10187000000402402DE9F04F0F468046C6084FF4A1
:10188000806B91B000225946804801F042F83846FA
:1018900008F0E4FF0027B946EA4609E0002008F016
:1018A000DDFF01460AEBC7007F1CC0E90019FFB24B
:1018B000B7EBD80FF2D301225946744801F029F84A
:1018C000012E0ED0022E0FD0032E17D0042E26D0BC
:1018D000052E3FD0062E5AD0072E7BD0082E7AD068
:1018E0007BE0DDE9005478E0DDE900010C0244EA28
:1018F00010640102DDE902020D186DE0DDE900016E
:101900000C0444EA10440204DDE90201090241EA40
:101910001061000210184C41DDE90412B3E0DDE96A
:1019200000010906DDE9063441EA102100061B1812
:101930004C41DDE90201090441EA10410504DDE9F9
:101940000402120242EA10620002281851411D18D6
:101950004C4142E0DDE90201090641EA102100069E
:10196000009C19EB00024C41DDE90401090441EA45
:101970001041000412184C41DDE90601090241EA58
:101980001061000210184C41DDE908127BE0029959
:10199000009819EB090241EB0024DDE904014FEA4C
:1019A000016141EA10214FEA006012184C41DDE963
:1019B0000601090441EA1041000412184C41DDE916
:1019C0000801090241EA1061000210184C41DDE9EA
:1019D0000A1258E006E02CE0544111B02846214696
:1019E000BDE8F08F009802990404484619EB000204
:1019F00044EB0124049912EB09024C41DDE9060194
:101A0000090641EA1021000612184C41DDE90801DF
:101A1000090441EA1041000412184C41DDE90A01B1
:101A2000090241EA1061000210184C41DDE90C1274
:101A300029E000980299040648460A0419EB0001BF
:101A40005441049A0B1844EB0224069913EB090243
:101A50004C41DDE90801090641EA1021000612188F
:101A60004C41DDE90A01090441EA10410004121861
:101A70004C41DDE90C01090241EA10610002101835
:101A80004C41DDE90E124518A6E7000000100240A7
:101A90002DE9FC478946C4080646D1B2012C21D065
:101AA000100A40EA0360C5B2022C1ED0100C40EAB6
:101AB0000340C0B2032C1DD0120E42EA0322D2B260
:101AC0004FEA1368042C1CD0DFB2052C22D0C3F3DC
:101AD000072C062C29D0C3F30743072C32D0082C3F
:101AE0003FD04EE08DF803104BE08DF802108DF8DA
:101AF000035046E08DF801108DF802508DF8030078
:101B00003FE08DF800108DF801508DF802008DF83F
:101B1000032036E08DF800108DF801508DF802009A
:101B20008DF803208DF804702BE08DF800108DF8EF
:101B300001508DF802008DF804708DF803208DF8A7
:101B400005C01EE08DF800108DF801508DF804706E
:101B50008DF802008DF805C08DF803208DF8063051
:101B60000FE08DF800108DF804708DF801508DF89D
:101B700005C08DF802008DF806308DF803208DF831
:101B80000780DFF844A04FF48068002241465046A9
:101B900000F0BFFE49F0800008F060FE641EE5B270
:101BA00000246F4605E0281B385C08F057FE641CD3
:101BB000E4B2B4EBD60FF6D301224146504600F012
:101BC000A8FE0020BDE8FC87001002402DE9F04F80
:101BD00004460021806889468B4600BA20F0FF0148
:101BE000E07A627B0143207B1204000641EAE07147
:101BF000104341EAE271A27B89B01202104341EA2C
:101C0000E271E27B104341EAD271884AFFF7D8F8CB
:101C100021884ABAA32148438549069001EB001068
:101C200082460280618849BA41806168E27909BAD6
:101C300021F0FF0111438160A168627B09BA21F0A4
:101C4000FF03E17A12040B43217B090643EAE173A7
:101C5000114343EAE273A27B1202114343EAE273A7
:101C6000E27B114343EAD273C0E904132169627D28
:101C700009BA21F0FF03E17C12040B43217D090620
:101C800043EAE173114343EAE273A27D1202114376
:101C900043EAE273E27D114343EAD273C0E90613DB
:101CA000A169E27E09BA21F0FF0111430162E169F5
:101CB000E27F09BA21F0FF0111434162216A09BAAA
:101CC00021F0FF0394F823100B4394F8241094F8A8
:101CD0002520090643EAE1731204114343EAE27343
:101CE00094F82620DFF84C811202114343EAE27394
:101CF00094F82720114343EAD27381622826CAF858
:101D00002C3088E0A019016809BA21F0FF02C178DF
:101D10000A4309EB89010AEBC1052A634168C279CC
:101D200009BA21F0FF0111436963816809BA21F002
:101D3000FF02C17A0A43017B0B06417B42EAE37250
:101D400009040B4342EAE172817B09020B4342EA38
:101D5000E172C17B0B4342EAD172C5E90E320169DF
:101D600009BA21F0FF02C17C0A43017D0B06417DC7
:101D700042EAE37209040B4342EAE172817DC07DCD
:101D800009020B4342EAE172034342EAD072C5E919
:101D90001032D8F800000790C8F80400401E002751
:101DA000C8F82000F0192449205C04F0C5FE7F1C0F
:101DB000182FF7D300270AE0F0192044EA19017E12
:101DC00082F84810007E1C4904F0B6FE7F1C286B88
:101DD000B842F1D8D8F800003E44401CC8F82400AE
:101DE000D5E90E01CDE90401D5E91001CDE90201E3
:101DF000DAF81010686BCDE9000110490698104A16
:101E000001EB00100C491836079B04F0E9FD19F1AD
:101E100001094BF1000BDAE90A23B9EB02017BEB74
:101E20000300FFF46FAF09B0BDE8F08F205600202B
:101E3000F85700205051002050410020F02C002085
:101E4000785100202DE9F0470024804625464FF4C4
:101E50008049114E4FF4005718E04946304600F0D3
:101E600053FD690801EBC07501223946304600F088
:101E700050FD0120FFF76AFC00223946304600F091
:101E800048FD0120FFF762FC641CA4B24445E4D382
:101E90002846BDE8F08700000004024070470000BB
:101EA00078B50024009490F83C20012A19D0012232
:101EB00080F83C200A6807250368092A13D9DE68E0
:101EC0000A3A02EB42029540AE43DE600A788B6824
:101ED0000A3A02EB420293400268D5682B43D36072
:101EE00010E0022078BD1E6902EB42029540AE432D
:101EF0001E610A788B6802EB420293400268156902
:101F00002B4313614A681F25072A13D203685E6BAF
:101F1000521E02EB82029540AE435E630A8893B282
:101F20000A79521E02EB820293400268556B2B43E2
:101F3000536327E003680D2A12D21E6BD21F02EBF7
:101F400082029540AE431E630A8893B20A79D21F7B
:101F500002EB820293400268156B2B43136311E07E
:101F6000DE6A0D3A02EB82029540AE43DE620A88D9
:101F700093B20A790D3A02EB820293400268D56A65
:101F80002B43D3621B4B0568194A9D420AD10D6849
:101F9000122D07D1556825F400055560556845F4A4
:101FA0008005556005689D421DD1134D0B68AB42FD
:101FB00001D0112B17D1536823F480035360536869
:101FC00043F4000353600968A9420CD10B490C4A41
:101FD0000968B1FBF2F101EB8101490000E0491E03
:101FE00000910029FBD180F83C40002078BD000022
:101FF0000023014000200140120000104401002095
:1020000040420F000248016C491C01647047000007
:10201000080000207047704770B5044600680168EA
:10202000C1F340024168C1F3401152B349B3216C7E
:10203000C90603D4216C41F400712164816811F058
:10204000405F17D1217EA9B9C16A11F4700F02D087
:10205000816849050ED4416821F020014160206C5F
:1020600020F480702064206CC00403D4206C40F005
:10207000010020642046FFF7C5FF21686FF01200C1
:102080000860206801684268C1F38001C2F3C01291
:1020900089B382B3216CC90603D4216C41F4005189
:1020A0002164816811F4401F1ED1816B11F4401F1F
:1020B00002D08168490517D44168490514D4816864
:1020C00011F0405F10D1217E71B9416821F080018B
:1020D0004160206C20F480502064206CC00503D443
:1020E000206C40F0010020642046FFF7D7FE2168F5
:1020F0006FF00C000860206801684268C1F30001BD
:10210000C2F3801271B16AB10068C0070AD0206CB6
:1021100040F480302064204600F046F821686FF0DB
:1021200001000860206801684268C1F34011C2F3F1
:10213000806200290DD0002A0BD0616C41F00201B1
:1021400061646FF0200505602046FFF764FF20689A
:10215000056070BD70B504004FF0000603D0206C20
:10216000002510B107E0012070BD204600F01EF8E8
:10217000656484F83C50206CC00610D4206C20F4B8
:10218000885040F0020020642046FEF771FC656430
:10219000206C20F0020040F00100206400E00126E5
:1021A00084F83C50304670BD7047000070B586B072
:1021B000064614216846FEF753F8204930688842E5
:1021C0003AD11F480025016841F480710160006820
:1021D00000F4807005901A481438016841F001013C
:1021E00001600068694600F0010005900F20009032
:1021F0000320CDE90105134800F0BCFA134C124846
:10220000C4E900050015A560C4E903504000606101
:102210008000A0614011E061000220620420606241
:102220000120C4E90A052046256300F075F908B1CC
:10223000FFF702FBB463A66306B070BD0020014047
:10224000443802400000024010640240385600202A
:10225000F8B500230446009390F83C00012807D00D
:10226000012084F83C0020688568ED0702D011E069
:102270000220F8BD856845F0010585602E482F4D88
:102280000068B0FBF5F000EB400000E0401E00905D
:102290000028FBD120688568ED074AD0256C40F204
:1022A0000166B54345F4807525644068400505D551
:1022B000206C20F4005040F480502064206CC00456
:1022C00004D5606C20F00600606400E0636484F86C
:1022D0003C30A36B1B481A4DD863A36B1A48186493
:1022E000A36B1A48D86423686FF022001860206836
:1022F000436843F0806343602068836843F48073DD
:102300008360134620680A46A66B00F14C013046F4
:1023100000F06CF96868C006206802D00C49884259
:1023200007D1816811F0405F03D1816841F080419D
:1023300081600020F8BD00004401002040420F00F1
:1023400000230140C90900084D0A0008370A0008A7
:102350000020014090F83510022903D0802141650A
:1023600001207047052180F835100068016821F0D0
:1023700001010160002070472DE9F84304464FF049
:102380000009CDF8009063484FF41651A56D006820
:10239000B0FBF1F72E6894F85C20082101FA02F0F6
:1023A00030420FD02068026852070BD5026822F035
:1023B0000402026094F85C008140A960606D40F006
:1023C0000100606594F85C104FF0010808FA01F014
:1023D000304208D021684969090604D5A860606DBB
:1023E00040F00200606594F85C10042088403042A0
:1023F00008D021680968890704D5A860606D40F09D
:102400000400606594F85C1010208840304218D0B9
:1024100021680968090714D5A86020680168490384
:1024200004D50068000308D5A16C07E00168C90560
:1024300003D4016821F008010160216C09B1204634
:10244000884794F85C1020208840304231D02168C1
:102450000968C9062DD5A86094F8350005282068BC
:10246000016806D0490347D5006800031DD4616C9C
:102470001CE021F0160101602068416921F0800113
:102480004161206C08B9A06C20B12068016821F07E
:102490000801016094F85C103F208840A86084F82F
:1024A000349084F83580216D1FE0E16B09B120463E
:1024B0008847606D00282BD0606DC00714D00520C0
:1024C00084F835002068016821F00101016000985E
:1024D000401C0090B84203D820680068C007F6D1BD
:1024E00084F8349084F83580E16C002910D001B074
:1024F0002046BDE8F04308470168C905D5D4016806
:1025000021F01001016084F8349084F83580CCE724
:10251000BDE8F883440100202DE9F041044600F0B5
:10252000FDF905465CB1002684F83460022084F889
:1025300035002068016821F0010101600DE00120F3
:10254000BDE8F08100F0EAF9401B052805D92020FC
:102550006065032084F83500F2E720680068C00752
:10256000F0D121680A6820480240D4E901031843E9
:10257000D4E903352B43184363691843A36918430F
:10258000E3691843236A18431043626A042A03D19B
:10259000D4E90B231A431043086020684069656A38
:1025A00020F0070128460D43012704280CD1A06A1A
:1025B0000543E06A40B12046FFF762F820B14020B1
:1025C000606584F83570BAE7206845612046FFF7FA
:1025D00043F894F85C203F2191408160666584F85F
:1025E00035700020ACE700003F8010F02DE9F0418D
:1025F0000446866D90F83400002501280DD0012096
:1026000084F8340094F835700020012F07D084F846
:10261000340002252846BDE8F0810220FBE70227AE
:1026200084F8357060652046FFF754F894F85C1024
:102630003F208840B0602068016841F016010160C9
:102640002068416941F080014161206C20B120681F
:10265000016841F0080101602068016841F0010152
:102660000160D7E72DE9F04F8946DFF8D0A00021BF
:102670004FF0010B4FF00F0C0BFA01F609EA0603BD
:10268000B34255D121F003045444D4F808288D07EF
:102690002F0F0CFA07F505EA0208294A904201D1EA
:1026A000002214E0274A904201D101220FE0264A7D
:1026B000904201D102220AE0244A904201D1032231
:1026C00005E0234A904201D1042200E00722BA40EB
:1026D000424514D1D4F80828AA43C4F808281D4A52
:1026E00014689C431460121D14689C431460121DEE
:1026F00014689C431460121D14689C4314600368A2
:102700004C000322A24093430360CB0800EB8303F9
:102710001D6A4C07E70E0CFA07F4A5431D62836897
:10272000934383604368B3434360C3689343C36088
:10273000491C1029A0D3BDE8F08F000000300140F3
:10274000000002400004024000080240000C024069
:1027500000100240003C014070470000044910B5E1
:102760000A68024202D00860FFF7F6FF10BD0000C1
:10277000143C01402DE9F84FDFF86C91002209F17B
:10278000040A0AF1040B4FF00F080BF1040E0126A6
:102790000B6896403340B34271D14C68022C01D093
:1027A000122C11D1D40800EB84073D6A5407E40EC3
:1027B00008FA04FC25EA0C05D1F810C00CFA04FC58
:1027C0004CEA050CC7F820C007685400032591F8AF
:1027D00004C0A5400CF0030CAF430CFA04FC4CEA17
:1027E000070CC0F800C04F68012F05D0022F03D09E
:1027F000112F01D0122F11D18768D1F80CC0AF432F
:102800000CFA04FC4CEA070CC0F808C04768B74350
:102810000E79C6F3001696403E434660C668AE4346
:102820008D68A5403543C5604C68E40056D52F4CF3
:10283000256845F480452560246822F0030504F4EA
:10284000804400942A4C2E19D6F808789407250F56
:1028500008FA05F4A743274CA04201D1002415E053
:10286000254CA04201D1012410E0244CA04201D10A
:1028700002240BE0224CA04202D1032406E02DE00A
:10288000204CA04201D1042400E00724AC403C438A
:10289000C6F80848D9F800404D464E689C43F603F8
:1028A00000D51C432C60DAF8004055464E689C4326
:1028B000B60300D51C432C60DBF800405D464E6833
:1028C0009C43F60200D51C432C60DEF800407546A0
:1028D0004E689C43B60200D51C432C60521C102A43
:1028E000FFF455AFBDE8F88F003C0140443802408A
:1028F0000030014000000240000402400008024095
:10290000000C0240001002400069084000D0012085
:1029100070470AB1816170470904FBE7014880688C
:10292000704700003801002010B5040013D02420A7
:1029300084F83D002068016821F001010160204613
:1029400000F050FC0020206484F83D0044F8300F73
:10295000A073207310BD012010BD000070B50400ED
:1029600025D094F83D00002520B984F83C5020463D
:1029700000F04CFC242084F83D002068016821F020
:10298000010101602068016841F400410160206894
:10299000016821F40041016000F0A4FD4D4B616825
:1029A000994201D84C4900E04C49884201D20120AB
:1029B00070BD4B492268B0FBF1F1566826F03F0626
:1029C0000E43566062689A4206D94FF4967251439C
:1029D0004FF47A72B1FBF2F12268491C166A26F0B4
:1029E0003F06314311626168994210D84900401E88
:1029F000B0FBF1F2521CC2F30B02042A01D20420F4
:102A000022E0B0FBF1F0401CC0F30B001CE0A26818
:102A1000F2B301EBC10303EB0116431EB3FBF6F364
:102A20005B1C43F480431B0549D092B301EBC10208
:102A300002EB0111401EB0FBF1F0401CC0F30B0093
:102A400040F4804040F400402168CA694CF6FF73AE
:102A50009A431043C861D4E9071001432068026813
:102A600022F0C00211430160D4E903010143206850
:102A7000826848F2FF339A4311438160D4E905101C
:102A800001432068C26822F0FF021143C16001E0E7
:102A90000EE016E02068016841F001010160256444
:102AA000202084F83D00256384F83E50002070BD4E
:102AB00001EB4106431EB3FBF6F35B1CB3E70120B9
:102AC000C2E701EB4101401EB0FBF1F0401CC0F336
:102AD0000B00B7E7A086010080841E0000093D00BE
:102AE00040420F002DE9FF4F81B01F469346044638
:102AF000FFF714FF054694F83D00012620287DD1FC
:102B00001923012250492046009501F0C5FC0028F8
:102B100074D194F83C00012870D0012084F83C0066
:102B200020680168C90703D1016841F00101016013
:102B30002068016821F400610160242084F83D00D0
:102B40004FF0000AC4F840A04048E0624FF020096E
:102B50002068016841F4807101603B4600224FF01B
:102B600001112046009501F097FC50B120680068E3
:102B7000C00502D54FF400702064032005B0BDE805
:102B8000F08F0298216800F0FE000861FFF7C6FE92
:102B90000546206841694069C1F34001C0F38020C7
:102BA0004FF0A0080EE0FFF7B9FE401BB84200D876
:102BB0000FB984F83D80206841694069C1F3400144
:102BC000C0F3802094F83D20A02A02D009B9002843
:102BD000E9D084F83D9020684169C943890717D43A
:102BE000016841F4007101602068564641698069BE
:102BF0001923012214492046009500E022E001F04B
:102C00004BFCA8B984F83D9084F83C600020B5E7FF
:102C1000016841F40071016021686FF480604861CF
:102C20001923012208492046009501F035FC08B11E
:102C30000120A3E7761C5E458AD384F83D9084F892
:102C40003CA0F5E7022099E7020010000000FFFF1A
:102C50002DE9F84F984617468A460446DDF8289035
:102C6000FFF75CFE054694F83D00202875D1192336
:102C700001226C492046009501F00EFC0028F5D198
:102C800094F83C00012868D0012084F83C002068BA
:102C90000168C90703D1016841F0010101602068A2
:102CA000016821F400610160222084F83D001020B9
:102CB00084F83E00002626646762A4F82A80608DAE
:102CC00020855948E0622B464A465146204601F08D
:102CD000F9FA002878D1208D544F68B1012814D01A
:102CE00002282068016816D041F4806101602068E4
:102CF00041698069009087E020684169816900919D
:102D0000016841F4007101607EE02068016821F4EF
:102D100080610160F0E721F4806101602068016852
:102D200041F40061E2E7032848D801280AD00228CC
:102D300014D04B46002239462046009501F0ACFBEA
:102D4000D8BB27E02A464946204601F025FCA0BB17
:102D500020680069616A08704DE061E04B4600221E
:102D600039462046009501F097FB30BB206801688A
:102D700041F40071016020680069616A0870606A4E
:102D8000401C6062218D491E2185618D491E61852F
:102D900021682EE02068016821F4806101602068CC
:102DA0000069616A0870606A401C6062208D401E84
:102DB0002085608D401E6085D0E705E02A464946A3
:102DC000204601F0E9FB10B10120BDE8F88F206832
:102DD0000069616A0870606A401C6062218D491E4A
:102DE0002185618D491E618521684A69D243520758
:102DF0000AD409690170606A401C6062208D401E1F
:102E00002085608D401E6085208D00288BD120207C
:102E100084F83D0084F83E6084F83C600020D4E7EC
:102E20000220D2E7020010000000FFFF04000100B2
:102E30002DE9FF4F81B01F46DDE90EBA91460446E9
:102E4000FFF76CFD054694F83D0020287ED119233C
:102E5000012296492046009501F01EFB0028F5D17D
:102E600094F83C00012871D0012084F83C002068CF
:102E70000168C90703D1016841F0010101602068C0
:102E8000016821F400610160212084F83D004FF0C9
:102E9000100884F83E8000262664C4F824906785D4
:102EA000608D2085824FE7622B462046109A02995A
:102EB00001F07EFA206841698069009034E02A467A
:102EC0002046109901F09DFB40B1206C042804D1EC
:102ED0002068016841F4007101609EE0606A216829
:102EE00000780861606A401C6062618D491E6185DE
:102EF000218D491E89B2218522685369DB435B0716
:102F00000BD451B100781061606A401C6062608D22
:102F1000401E6085208D401E20852A46204610993F
:102F200001F094FA0028D0D1208D0028C7D12220AA
:102F300084F83D0084F83E802664C4F824B0A4F8E8
:102F40002AA0608D2085E7622B4600E0ABE020469A
:102F5000109A029901F0B6F9F0BB208D554F68B177
:102F6000012814D002282068016816D041F480613D
:102F70000160206841698069009088E020684169AB
:102F800081690091016841F4007101607FE020686F
:102F9000016821F480610160F0E721F48061016043
:102FA0002068016841F40061E2E703284DD8012858
:102FB00025D00228109B00954FF00002394620468C
:102FC00028D001F069FA2068016821F4806101606D
:102FD00020680069616A00E01FE00870606A401CB8
:102FE0006062208D401E2085608D401E60850095AA
:102FF000002239462046109B01F04EFA11E02A4685
:103000002046109901F0C8FA38B920680069616A51
:10301000087033E001F040FA18B1012005B0BDE8B6
:10302000F08F2068016841F4007101602068006938
:10303000616A0870606A401C6062218D491E2185AA
:10304000618D491E6185216816E02A462046109947
:1030500001F0A2FA20680069616A0870606A401C89
:103060006062218D491E2185618D491E618521681F
:103070004A69D24352070AD409690170606A401C48
:103080006062208D401E2085608D401E6085208DF1
:1030900000288AD1202084F83D0084F83E6084F81E
:1030A0003C600020BAE70220B8E7000002001000F0
:1030B0000000FFFF040001002DE9F84F1F46904675
:1030C0008A460446DDF82890FFF728FC054694F868
:1030D0003D0020287FD11923012240492046009538
:1030E00001F0DAF9002876D194F83C00012872D07A
:1030F000012084F83C0020680168C90703D10168F9
:1031000041F0010101602068016821F40061016063
:10311000212084F83D00102084F83E00002626641B
:10312000C4F824806785608D20852D48E0622B4699
:103130004A465146204601F03BF990B92068416962
:103140008069009036E02A464946204601F059FA47
:1031500050B1206C042804D12068016841F400714A
:1031600001600120BDE8F88F606A2168007808617D
:10317000626A521C6262608D401E6085208D401E16
:1031800080B2208521684B69DB435B070BD450B1CB
:1031900010780861606A401C6062608D401E608526
:1031A000208D401E20852A464946204601F04EF9D2
:1031B0000028CED1208D0028C5D154F83D0B0168E0
:1031C00041F400710160202004F81E09E67766775B
:1031D0000020C7E7FFE70220C4E70000020010005C
:1031E0000000FFFF00680649884208D105480168D1
:1031F00021F400110160C0210348FFF733BA704782
:1032000000540040403802400004024010B586B02F
:10321000044614216846FDF723F8134920688842C4
:1032200020D112480021026842F0020202600068C8
:1032300000F002000590C0200090122001900220B2
:10324000CDE902010420049069460948FFF792FA8B
:1032500006481030016841F400110160006800F474
:103260000010059006B010BD0054004030380240F8
:10327000000402400248816802781144816070476E
:10328000380100200B4810B5016841F4007101605D
:10329000016841F480610160016841F4807101605E
:1032A000032000F06FF8002000F006F800F024F88A
:1032B000002010BD003C024070B50D4D04464FF497
:1032C0007A712878B1FBF0F00A490968B1FBF0F097
:1032D00000F0BBFC48B9102C07D200222146501E3A
:1032E00000F030F800206C6070BD012070BD00005F
:1032F00038010020440100200A4808B5016841F463
:1033000080410160006800F4804000900548001F83
:10331000016841F080510160006800F08050009029
:1033200008BD000044380240002809DB00F01F02FD
:10333000012191404009800000F1E020C0F8001117
:1033400070470000F0B40E4B1B68C3F30223C3F1B7
:103350000704042C00D904241D1D072D01D20023CD
:1033600000E0DB1E012606FA04F56D1E0D409D40AF
:103370009E40761E164045EA0601F0BC05F045B9B0
:103380000CED00E0064A00F0070110684FF6FF035D
:10339000184040EA012003490843106070470000CC
:1033A0000CED00E00000FA052DE9F0470D460400A1
:1033B00065D0DFF81491D9F80000EFB200F00F00EB
:1033C000A84207D289F80070D9F8000000F00F0079
:1033D000A84254D120683D4E810712D5400703D53D
:1033E000306840F4E05030602078000703D5306842
:1033F00040F4604030603068A16820F0F00008437D
:1034000030602078C0072DD0304960680839012825
:1034100012D0022813D0032811D009688907002987
:103420002DDA316821F0030101433160FFF776FAAC
:10343000804641F2883A0EE009688903EFE709689F
:103440008901ECE7FFF76AFAA0EB0801514502D9C0
:103450000320BDE8F0873068616800F00C00B0EB35
:10346000810FEFD1D9F80010484601F00F01A942B1
:1034700007D90770006800F00F00A84201D00120B2
:10348000E7E72078400705D53068E16820F4E05090
:10349000084330602078000706D53068216920F4A1
:1034A000604040EAC100306000F03CF83168084AF2
:1034B000C1F30311515CC840064908600020FFF7C2
:1034C000FBFE0020C5E70000003C02400838024037
:1034D00030AD00084401002001480068704700003A
:1034E000440100200448054900680968044AC1F302
:1034F0008221515CC84070474401002008380240D6
:1035000040AD00080448054900680968044AC1F351
:103510004231515CC84070474401002008380240E5
:1035200040AD0008104810B5006810F00C010F48BD
:1035300018D0042916D0082914D10B4C241F216857
:1035400001F03F02216821680023C1F38811A1FB2B
:103550000001FCF73DFE2168C1F30141491C49000F
:10356000B0FBF1F010BD0000083802400024F40068
:103570002DE9F84F040073D02078BD4DC00748D026
:10358000BB4808300168C1F38101012908D00068F7
:10359000C0F3810002280AD1281D0068400206D528
:1035A0002868800335D560680028E4D031E0606881
:1035B000B0F5803F10D0B0F5A02F286810D020F4CF
:1035C00080302860286820F4802028606068A0B1DE
:1035D000FFF7A4F906460CE0286840F48030F4E7D1
:1035E00040F480202860F7E7FFF798F9801B6428F3
:1035F00072D828688003F7D50BE0FFF78FF90646ED
:1036000004E0FFF78BF9801B6428F1D82868800359
:10361000F7D42078DFF85C9280074FF0000A3ED59F
:1036200093480830016811F00C0F09D00068C0F30E
:10363000810002280BD18E48001D0068400206D48C
:103640002868800715D5E068012809D111E0E068F5
:10365000B8B10120C9F80000FFF760F9064605E09F
:1036600003E1FFF75BF9801B0228C1D828688007B7
:10367000F7D52868216920F0F80040EAC1002860E9
:103680000DE0C9F800A0FFF749F9064604E0FFF78E
:1036900045F9801B02281FD828688007F7D42078B6
:1036A000000722D5724F74496069743770B10120E8
:1036B0000860FFF733F9064604E0FFF72FF9801B97
:1036C000022809D838688007F7D50EE0C1F800A0B5
:1036D000FFF724F9064605E081E0FFF71FF9801B9C
:1036E00002287CD838688007F7D42078400769D54D
:1036F000DFF87CB14FF000080BF1400BDBF8000065
:10370000C0000CD4DBF8001041F08051CBF8001061
:10371000DBF800004FF0010800F080500090574F98
:103720003868C0050FD4386840F480703860FFF7FF
:10373000F5F8064604E0FFF7F1F8801B02284ED8A2
:103740003868C005F7D54A4FA068703701280FD0F8
:103750000528386810D020F001003860386820F063
:1037600004003860A068B0B1FFF7D8F806460EE054
:10377000386840F00100F4E740F004003860F7E7F3
:10378000FFF7CCF8811B41F28830814265D8386858
:103790008007F5D50DE0FFF7C1F8064606E0FFF714
:1037A000BDF8811B41F28830814256D838688007C5
:1037B000F5D4B8F1000F05D0DBF8001021F08051EE
:1037C000CBF80010A069C8B3294908310968C1F3D2
:1037D0008101022949D00228504607D000E03CE090
:1037E000C9F86000FFF79AF8044639E04F46C9F877
:1037F0006000FFF793F8064604E0FFF78FF8801BA0
:1038000002282AD828688001F7D4D4E907010843A0
:10381000A16A1B4A490802EB0141626A41EA82112E
:10382000084394F82C1040EA01611148001D016022
:1038300001203866FFF772F8044605E013E0FFF751
:103840006DF8001B022808D828688001F7D50AE027
:10385000FFF764F8001B022802D90320BDE8F88FA7
:1038600028688001F4D40020F8E70120F6E7000082
:103870000038024000004742800E4742007000407E
:103880000000FFFF70B5040005D00025A56294F884
:10389000510010B106E0012070BD84F85050204660
:1038A00000F030F8022084F851002068016821F00F
:1038B00040010160D4E901010843D4E90312114336
:1038C000084361690843218B01F400710843E169F1
:1038D0000843216A0843A16A084321680860A06977
:1038E000042101EA1040616A0843216848602068A9
:1038F000C16921F40061C1616565012084F851004E
:10390000002070BD2DE9F04F87B0044614216846B1
:10391000FCF7A6FC494D484A206848490026103D5E
:1039200002274FF0050A4FF0060B4FF003089042B4
:1039300019D1086840F480400860086800F48040AD
:103940000590286840F002002860286802AA00F06C
:10395000020005904FF47040CDE9000782E8400571
:10396000694637481BE0374A90421AD1086840F44C
:1039700000400860086800F400400590286840F0A6
:1039800004002860286802AA00F0040005904FF4A3
:10399000E050CDE9000782E8400969462A48FEF771
:1039A000E9FE2A49DFF89490206809F10409884269
:1039B0001CD1D9F8001041F40051C9F80010D9F811
:1039C000000000F400500590286840F010002860C6
:1039D000286802AA00F0100005906420CDE90007D5
:1039E00082E8400569461A48FEF7C4FE1949206876
:1039F00088421DD1D9F8001041F48011C9F8001097
:103A0000D9F8000000F480100590286840F01000FC
:103A10002860286802AA00F0100005904FF4E040EA
:103A2000CDE9000782E8400969460948FEF7A2FE91
:103A300007B0BDE8F08F0000003800404038024079
:103A400000040240003C00400008024000340140F5
:103A500000100240005001402DE9F84F044690F854
:103A6000500001250A9E1F4692468B464FF00008E3
:103A700001280ED0012084F85000FEF74FFF814648
:103A800094F85100616801280CD0B1F5827F07D10C
:103A900002E00220BDE8F88FA16809B9042801D02E
:103AA0000220B6E0BBF1000F27D0BAF1000F24D0FE
:103AB0001FB394F85100042802D0052084F8510067
:103AC00000206065C4F838A0E787A787C4F830B045
:103AD000E786A7862064606420680168490603D4ED
:103AE000016841F040010160E068B0F5006F606876
:103AF00005D0E8B3012F43D079E0012089E008B177
:103B0000012F34D1206B21680088C860206B801C95
:103B10002063E08E401EE08629E0206881688907E6
:103B20000DD5E18E59B1012D09D1216B0988C160F4
:103B3000206B801C2063E08E401EE08600252068FC
:103B40008168C9070BD0E18F49B1C068A16B0880BB
:103B5000A06B801CA063E08F401EE0870125FEF76C
:103B6000DDFEA0EB0900B04201D3701C50D100E093
:103B700006E0E08E0028D0D1E08F0028CDD13CE0D7
:103B8000206B216800780873206B401C2063E08E56
:103B9000401EE0862BE02068816889070DD5E18E04
:103BA00059B1012D09D1216B09780173206B401C9B
:103BB0002063E08E401EE086002520688168C907EA
:103BC0000BD0E18F49B1C068A16B0870A06B401C9D
:103BD000A063E08F401EE0870125FEF79FFEA0EB6B
:103BE0000900B04202D3701C01D011E086B1E08E12
:103BF0000028D0D1E08F0028CDD14A46314620465A
:103C000002F0A8FF38B120204FF00108606508E0FD
:103C10000320804605E0A06818B92068C168806864
:103C20000090012084F85100002084F850004046A4
:103C300030E74FF0E0210428086903D020F00400A9
:103C40000861704740F00400FAE710B5401EB0F17B
:103C5000807F01D3012010BD4FF0E02460610F216F
:103C6000601704F0D2FC0020A06107202061002032
:103C700010BD70477047704770B504460068016911
:103C80004FF00005C943890715D4C168C9438907A6
:103C900011D4E91E01610120207720688069800726
:103CA000204602D0FFF7E7FF04E000F098F8204636
:103CB00000F096F8257720680169C943490717D4B1
:103CC000C168C943490713D46FF0040101610220A0
:103CD00020772068806910F4407F204602D0FFF7EB
:103CE000CAFF04E000F07BF8204600F079F8257761
:103CF00020680169C943090716D4C168C943090787
:103D000012D46FF008010161042020772068C06997
:103D10008007204602D0FFF7AEFF04E000F05FF816
:103D2000204600F05DF8257720680169C943C9067F
:103D300017D4C168C943C90613D46FF010010161DB
:103D4000082020772068C06910F4407F204602D008
:103D5000FFF791FF04E000F042F8204600F040F841
:103D6000257720680169C943C90708D1C168C943DB
:103D7000C90704D1891E0161204600F032F820688D
:103D80000169C943090609D4C168C943090605D4B4
:103D90006FF0800101612046FFF76BFF2068016929
:103DA000C943490609D4C168C943490605D46FF01F
:103DB00040010161204600F015F820680169C943FF
:103DC00089060BD4C168C943890607D46FF0200166
:103DD00001612046BDE87040FFF74CBF70BD7047E1
:103DE000704770477047704710F8391F4078084394
:103DF0007047000070B5026804461068D1685369C6
:103E000010F00F0F51D003F0010501F49076354307
:103E10005DD0C20705D0CA0503D5E26B42F00102AE
:103E2000E263420705D5DA0703D0E26B42F00202F3
:103E3000E263820705D5DA0703D0E26B42F00402A1
:103E4000E263020705D5DA0703D0E26B42F008020D
:103E5000E263E26B002A34D0800604D5880602D5DE
:103E6000204604F06EF920684069E16BC0F38010D1
:103E700001F008010143204624D004F04BF92068EA
:103E8000416949061AD5416921F040014161606BE1
:103E9000A0B11B490165606BFEF75CFA002810D0E9
:103EA000606B016DBDE87040084783060FD58B0637
:103EB0000DD52046BDE8704004F043B92046FFF719
:103EC00092FF70BDFFF78FFF0020E06370BD030617
:103ED00006D50B0604D52046BDE8704004F0D2BAE2
:103EE0004006F3D54806F1D5D168204621F04001BF
:103EF000D160202184F8391000F0CAF970BD0000AB
:103F0000E57F000870B5040004D094F8390000255E
:103F100010B106E0012070BD84F83850204600F052
:103F200023F8242084F839002068C16821F4005166
:103F3000C160204604F050F92068016921F49041E5
:103F400001612068416921F02A0141612068C1684E
:103F500041F40051C160E563202084F8390084F801
:103F60003A00002070BD00002DE9F04F87B00446F4
:103F700014216846FCF774F97448DFF8CC811438D2
:103F8000D4F800C00025DFF8C491022101220323E8
:103F9000402607154FF0070A4FF0006BC4453ED18D
:103FA000D9F8008048F01008C9F80080D9F800C09E
:103FB0000CF0100CCDF814C0D0F800C04CF0010C7F
:103FC000C0F800C0006800F00100059058028DE8BC
:103FD0000F0469465E48FEF7CDFBDFF87C815D4942
:103FE0004046C0E90265C0E90475C8F81850C0E948
:103FF000001BB102C8E907510421C8F82410FEF7DC
:104000008BFA08B1FDF718FCC4F830800022114685
:104010002520C8F83840FFF795F9252048E0DFF85B
:104020003C81C44549D1D9F8008048F02008C9F83E
:104030000080D9F800C00CF0200CCDF814C0D0F8E6
:1040400000C04CF0040CC0F800C0006800F0040090
:104050000590C0208DE80F00082004906946404874
:10406000FEF788FB3B49DFF8FC8018394046C8F86A
:1040700000104FF02061C8F80410C0E90265C0E9E3
:104080000475C8F81850C8F81C50C8F82050C8F873
:104090002450FEF741FA08B1FDF7CEFBC4F830809A
:1040A000002211464720C8F83840FFF74BF9472057
:1040B000FFF73AF907B0BDE8F08FDFF8AC80C445F0
:1040C000F8D1DFF888C0ACF1040CDCF8008048F4CB
:1040D0000038CCF80080DCF800C00CF4003CCDF8CF
:1040E00014C0D0F800C04CF0080CC0F800C0006844
:1040F00000F00800059060208DE80F0469461B4819
:10410000FEF738FBDFF86C8019494046C0E90265CC
:10411000C0E90475C8F81850C8F81C50C8F82050F9
:10412000C8E9001BC8F82450FEF7F6F908B1FDF7FE
:1041300083FBC4F83080002211462620C8F838409E
:10414000FFF700F92620B3E7001001404438024091
:1041500000000240B8640240D8560020001401401C
:10416000000802409857002000440040000C024024
:10417000A06002403857002090F83A30202B22D11E
:10418000F9B1F2B190F83830012B1CD081628285F0
:10419000C2850021C163222280F83A2080F83810BD
:1041A0000168CA6842F48072CA6001684A6942F0D4
:1041B00001024A610068C16841F02001C16000202D
:1041C0007047012070470220704700000E4930B44C
:1041D000A1F112020B78516E0C4C0C44491C516633
:1041E0002370516E0023402900D15366D16E491CC3
:1041F000D166402902D1D3660121117530BC01225C
:104200000149FFF7B9BF00001A0000200C2400206C
:10421000F7B5044690F83900202831D1019969B3E7
:1042200062B394F8380001282AD0012084F83800BD
:104230002162A284E2840025E563212084F839000C
:10424000236B1048D863236B0F481864236B0F4807
:10425000D864206B134605652668206B321DFEF777
:10426000C5F921686FF04000086084F83850206874
:10427000416941F0800141610020FEBD0120FEBD89
:104280000220FEBD3F8000086D800008F57F000819
:1042900070477047FEE701684A69D24352050FD460
:1042A0006FF480624A61002140F8301F202242737F
:1042B0008173026942F004020261017301207047B8
:1042C000002070472DE9F84F0446C06A1D4693460A
:1042D0000F4621680A6842F480620A60082807D005
:1042E000012805D010F5803F02D0206B112804D1A1
:1042F0002068016841F4807101604FF001195B464C
:10430000002249462046009500F0C6F84FF4007898
:1043100040B120680068C00501D5C4F84080032082
:10432000BDE8F88F2069DFF884A0B0F5804F0FD08A
:104330000620216800EAD71646F0F00008612B46F7
:104340005A460AF10601204600F0DAF858BB03E0AD
:10435000F8B240F001001CE02168F8B208612B4679
:104360005A465146204600F0CBF8E0B92068416932
:1043700081690091016841F4807101605B4600220F
:1043800049462046009500F087F80028C1D146F044
:10439000F100216808612B465A465146204600F03C
:1043A000AFF80028BCD00120BAE7000002000100ED
:1043B000F8B50446C06A1E460D461746082807D0C1
:1043C000012805D010F5803F02D0206B122804D1BF
:1043D0002068016841F480710160134600224FF0AB
:1043E00001112046009600F057F840B1206800689F
:1043F000C00502D54FF4007020640320F8BD206989
:10440000B0F5804F0ED00620216800EAD51040F0AC
:10441000F000086133463A460B49204600F070F838
:1044200078B902E005F0FE0000E0E8B2216808611A
:10443000054933463A46891F204600F061F80028B6
:10444000DCD00120F8BD00000800010070B5164660
:104450000D4604460DE02046FFF71DFF08B1012080
:1044600070BD681C05D0FEF759FA801BA84207D81A
:1044700035B120684069C0434007ECD4002070BDCE
:10448000002044F8300F20216173A073216941F0AE
:10449000200121612073E2E72DE9F0471D46904697
:1044A0000E460446C1F30747DDF8209008E0681C7B
:1044B00006D0FEF733FAA0EB0900A8420FD875B179
:1044C0002068012F18D0806926EA00000004000C43
:1044D00014D000204045EAD00020BDE8F08700203D
:1044E00044F8300F20216173A073216941F020014D
:1044F000216120730120F0E74069E5E70120E9E749
:104500002DE9F047984615460E4604464FF000093F
:104510004FF0200AC1F3074723E020684069C043F9
:10452000400515D42068016841F4007101602168DC
:104530006FF480604861C4F8309084F83DA084F83E
:104540003E90216C41F00401216484F83C901EE00F
:10455000681C06D0FEF7E2F9A0EB0800A8420AD8D2
:104560004DB12068012F15D0806926EA00000004B3
:10457000000C0DD0D1E744F8309F84F80DA084F8EA
:104580000E90216941F02001216184F80C900120F6
:10459000BDE8F0874069E8E72DE9F04116460D4691
:1045A000044600274FF0200817E04069C043C006CA
:1045B0000DD454F8301B6FF01000486144F80D7BA7
:1045C00004F81D89A777206A2062277717E0FEF795
:1045D000A5F9801BA84208D83DB120684169C943AC
:1045E0004906E2D40020BDE8F08144F8307F84F829
:1045F0000D80A773206940F02000206127730120FF
:10460000F1E770B516460D4604460DE02046FFF76B
:1046100042FE08B1012070BD681C05D0FEF77EF98E
:10462000801BA84207D835B120684069C043000606
:10463000ECD4002070BD002044F8300F20216173BD
:10464000A073216941F0200121612073E2E700009D
:104650002DE9F0478046002403F08EFA02F088F836
:1046600003F034F91D4F08F001004FF400494FF4F6
:104670000056C8F3400508B1012200E00022494677
:104680003846FEF746F9012231463846FEF741F931
:104690000120FDF75BF8002231463846FEF739F974
:1046A0000120FDF753F8641CA4B228460A2CE2D37B
:1046B000002249463846FEF72CF9FDF7BFF803F013
:1046C0004BFF02F055F803F0B5F82020FDF7BAFBD8
:1046D000BDE8F047014602A006F05EBA00040240C1
:1046E0004A5441475F49443A00000000002210212B
:1046F0000148FEF70EB9000000100240012210210F
:104700000148FEF706B900000010024010B504464B
:10471000FFF7ECFF200A06F08FF8E0B206F08CF805
:10472000002006F089F8012006F086F8002000F04D
:1047300005F80446FFF7E2FF204610BD06F07CB8FE
:1047400070B50D460446FFF7D1FF200A06F074F855
:10475000E0B206F071F8802006F06EF8012006F055
:104760006BF8284606F068F8FFF7C8FF012070BD17
:10477000F0B5002302EBC30400264FF0FF35C4E977
:1047800002565B1C022BF5D300241460224601EB79
:10479000C20341F822504FF0FF36E3E92066C3E937
:1047A000C0668B18521C83F88044202AEFD3C1F8CE
:1047B000A04400214FF480524454491C9142FBD341
:1047C00000F5805100F580530C604C600021C3E976
:1047D0000211C3E9041118469961C161F0BD0000DE
:1047E0002DE9F04F00262DED028B83B081468DF828
:1047F0000460FE4B9C8C14B905F043FC0446DFF8C2
:10480000ECA39E840AF1800AF949CAF800609FED82
:10481000F98ADAF818000125DFF8DCB3884202DCF7
:10482000D88C9D281AD95E768AED068ADE675046B6
:10483000DE751E76C0E90165CAF80C509E76DE76FC
:104840001E77ED49CAF810602020CAF81460C831FC
:104850008BF8000008709E775E77DE849E46002C01
:1048600072D0DAF80030514619F803007E281BD1C7
:104870009EF819207046BAB9457681ED068AC6675A
:10488000C6750676C1E90165CD608676C67606777F
:10489000D94F0E6120224E61C8378BF800203A7044
:1048A00086774677AEF82660DFF84C83DEF87C200A
:1048B000A8F1E90819F8030008F80200BEF826C0BC
:1048C00077460CF1010CAEF826C03B2804D03D28F9
:1048D0000FD03A280DD013E097F81DC0BCF1000F9F
:1048E00025D197F819C0BCF1010F20D17E763D7615
:1048F00016E097F81AC0BCF1000F01D1BD76BD7764
:104900002E2802D024280DD011E097F81BC0BCF14E
:10491000000F0CD197F81DC0BCF1000F07D1FD7638
:10492000BD7704E097F81CC0BCF1000F07D0022A45
:1049300054D998F802C0BCF1200F06D04EE04FF0D9
:10494000020C87F81CC0EBE76BE097F81EC0BCF1C7
:10495000000F43D197F81CC0BCF1020F3ED297F86C
:104960001AC0BCF1010F0FD0DFF88C82D1F804C05F
:10497000A8F12008BCF1200F08F80C003AD20CF185
:10498000010CC1F804C035E097F81BC0BCF1000F62
:1049900009D0BCF1010F13D0BCF1000F07D0BCF15E
:1049A000010F15D026E0D1F808800BF808008868C0
:1049B000C8281FD2401C88604869401C486119E023
:1049C000DFF834C2D1F80C800CF1C80C0CF80800E8
:1049D000C868C8280ED2401CC8600BE097F81CC0FD
:1049E000BCF1020F06D197F81EC0BCF1000F01D137
:1049F00008613D77D1E9040C844502D2387F012853
:104A00000DD07E77C82A01D2521CFA67C82B02D279
:104A10005B1CCAF800308EF81E60641E1FE77D77AD
:104A2000F0E79EF81800774601287DD17248E938F2
:104A300001787E2903D1F97D41F00101F9758046A5
:104A40004078B97D884203D1F87D40F00200F875C6
:104A5000F87D032869D1684868A12038FBF712FC6B
:104A600000287DD0644867A12038FBF70BFC0028A4
:104A700077D0614867A12038FBF704FC002871D08B
:104A80005D4867A12038FBF7FDFB00286BD05A4832
:104A900066A12038FBF7F6FB00287BD0564864A1BE
:104AA0002038FBF7EFFB002875D0534863A120386E
:104AB000FBF7E8FB00286FD04F4863A12038FBF7D5
:104AC000E1FB002869D04C4862A12038FBF7DAFBF3
:104AD00000287BD0484862A12038FBF7D3FB0A2589
:104AE000002874D0444861A12038FBF7CBFB002894
:104AF0006ED0414860A12038FBF7C4FB002868D085
:104B00003D485FA12038FBF7BDFB002862D03A4842
:104B10005DA12038FBF7B6FB00285CD036485CA1CD
:104B20002038FBF7AFFB01E0D1E2D1E2002853D0FF
:104B3000314858A12038FBF7A5FB00284DD02E485E
:104B400055A12038FBF79EFB002847D02A4854A1E6
:104B50002038FBF797FBDFF8509100283FD003E0A7
:104B600022E134E13DE142E1234850A12038FBF746
:104B700089FB002834D020484DA12038FBF782FB68
:104B800000282ED01C484DA12038FBF77BFB0028C5
:104B900028D003E036E14AE166E16DE1164849A11B
:104BA0002038FBF76FFB00281DD0134848A12038A0
:104BB000FBF768FB002817D00F4847A12038FBF708
:104BC00061FB002811D047A10B488DE066E173E13D
:104BD00083E190E19FE1A8E1B2E1BDE1C8E1D4E168
:104BE000EBE1FCE107E217E222E229E20800002003
:104BF00000004842000000005E2A00207273745FCB
:104C00003037320072733438355F746573745F4FB8
:104C10004B00000072733438355F746573740000A4
:104C200072733438355F68656C700000757072009F
:104C30007370695F77726974650000007370695FF3
:104C400072656164000000007370695F72645F7474
:104C5000737400004A5441475F54535400000000ED
:104C60004A544147325F5343414E00004A54414742
:104C7000315F5343414E00004A5441475F4944006D
:104C8000426174504700000074696D6500000000C7
:104C90006D656D004D53470049445F5345525600C2
:104CA0007370693500000000001002406E737300DD
:104CB0006574685F696E6974000000007463615F09
:104CC000727374007463615F746573740000000034
:104CD0007463615F77000000656E61626C655F6C94
:104CE0006D0000006C6D00002038FBF7CBFA002847
:104CF00072D0F8A1FA48FBF7C5FA00286DD0F9A1E7
:104D0000F748FBF7BFFA002868D0F8A1F448FBF792
:104D1000B9FA002873D0F7A1F148FBF7B3FA0028DD
:104D20006ED0F6A1EE48FBF7ADFA002869D0F5A1E8
:104D3000EB48FBF7A7FA002874D0F4A1E848FBF78A
:104D4000A1FA00286FD0F3A1E548FBF79BFA0028F1
:104D50006AD0F2A1E248FBF795FA00287DD0F2A1D3
:104D6000DF48FBF78FFA002878D0F1A1DC48FBF789
:104D700089FA002873D0F1A1D948FBF783FA0028FB
:104D80006ED0F2A1D648FBF77DFA002869D0D2A1F7
:104D9000D348FBF777FA00287CD0EFA1D048FBF787
:104DA00071FA002877D09EE3CD482030FBF778FADF
:104DB0000146F863E9A005F03FFEF86BEB4B0128D4
:104DC00003D000220121184623E10122FAE7E8A0DE
:104DD000F96B05F031FE02E044E151E15EE1EAA049
:104DE00073E3F2A0F96B05F027FEF5A004E0F8A04C
:104DF000F96B05F021FEFBA003F0BCF873E3B5E20C
:104E0000C4E2D3E2B6482030FBF74AFA4FF48051AF
:104E1000F863012809D00022F548FDF77AFDF5A0D6
:104E2000F96BE2E2CFE2E3E2EEE20122F4E7AC4822
:104E30002030FBF735FAF863A948E830FBF730FA81
:104E4000B863FA6B022101EB0211F9630246C9B2A1
:104E500000232020FCF71CFE04E0E6E2F0E2F6E28C
:104E600007E31DE3E6A030E39D482030FBF718FA86
:104E7000032101EB001005E099482030FBF710FA00
:104E800005EB0010C1B2F8632020FCF7F3FC0146EB
:104E9000F86301E018E31BE3DFA012E39048203041
:104EA000FBF7FEF9F863DFA003F040F8E2A003F09F
:104EB0003DF802F081FE16E389482030FBF7F0F957
:104EC000F863DEA003F032F8DBA003F02FF8002037
:104ED000F96B04F013FDF86305E381482030FBF71C
:104EE000DFF9F863D5A003F021F8D3A003F01EF892
:104EF00000F0DCFBF7E27A482030FBF7D1F9F863E9
:104F0000D3A003F013F8CCA003F010F897F83C00FE
:104F1000FFF79EFBE7E20021D1A005F08DFDFCF735
:104F2000EDFB0146F863D2A05FE26D482030FBF74D
:104F3000B7F9F863DAE90823D0A005F059FDD2E209
:104F400067482030FBF7ACF90146F863CEA005F0C6
:104F500073FD01F013FBC6E261482030FBF7A0F9B6
:104F60000146F863CBA005F067FD00F06DFFBAE2E3
:104F70005B482030FBF794F90146F863C8A005F0C0
:104F80005BFDCB4801F05CFEADE255482030FBF7FD
:104F900087F90146F863C7A005F04EFD00224FF4E3
:104FA00080614D464846FDF7B4FC97F83C0005F09B
:104FB00055FC0122910228462BE049482030FBF79E
:104FC0006FF90146F863BFA005F036FDF86B0128C4
:104FD00003D00022102148461BE00122FAE7404896
:104FE0002030FBF75DF90146F863B9A005F024FD18
:104FF00002F0B8FA77E23A482030FBF751F901465F
:10500000F863B8A005F018FD4FF40041F86B23E0F9
:105010007748FDF77EFC66E231482030FBF740F927
:105020000146F863B3A005F007FDF86BB8625AE2D9
:105030002B482030FBF734F90146F863B2A04DE26B
:1050400027482030FBF72CF90146F863B2A005F0A1
:10505000F3FCF86B4FF48041012801D00022D7E720
:105060000122D5E71E482030FBF71AF90146B86344
:10507000AEA005F0E1FC97F8380000F07DFC32E2CC
:1050800017482030FBF70CF90146F863AAA005F099
:10509000D3FC97F83C0001F08DFE24E2104820304C
:1050A000FBF7FEF80146F863A8A005F0C5FC97F8E9
:1050B0003C0000F0CFFBA94DA9A0297805F06CFDBC
:1050C0006978A8A005F068FDA978A7A0F9E14BE2EE
:1050D00015E200007379735F696E666F000000006F
:1050E0003E2A00206C6D5F49440000006C6D5F74C7
:1050F000656D70006C6D5F76000000007077725F08
:10510000303732006932635F6164720073746172B8
:1051100074000000707772646E0000004144435FC9
:10512000746573740000000068656C700000000016
:105130006932635F73746174757300006932635F11
:105140007472616E736D6974000000006932635F90
:1051500072656369766500006C656400EFF0E8EDE8
:10516000FFEB207273745F3037323A000004024064
:10517000EFF0E8EDFFEB2072733438355F74657340
:10518000745F4F4B3A000000F2E5F1F220343835FD
:1051900020F8E8EDFB20EFF0EEE9E4E5ED20F3F197
:1051A000EFE5F8EDEE210D0A00000000EFF0E8ED6C
:1051B000FFEB2072733438355F746573743A000006
:1051C0007E302072733438355F746573743B000031
:1051D000EFF0E8EDFFEB2072733438355F68656CF3
:1051E000703A00007E302068656C703B0000000063
:1051F000000C0240EFF0E8EDFFEB207570723A0012
:10520000EFF0E8EDFFEB2046504741207370695FF7
:1052100077726974650D0A00434F44452046504734
:10522000413A0000EFF0E8EDFFEB204A5441475FC0
:105230005453540D000000000D000000EFF0E8EDA5
:10524000FFEB204A5441475F5343414E0D0000009D
:10525000EFF0E8EDFFEB204A5441475F49440D0071
:10526000EFF0E8EDFFEB2042617450473A00000098
:10527000504F5745525F474F4F443A0054494D45B0
:105280005F5359533A000000EFF0E8EDFFEB206D5B
:10529000656D3A00EFF0E8EDFFEB204D53473A0023
:1052A000EFF0E8EDFFEB2049445F534552563A00DA
:1052B00078510020EFF0E8EDFFEB20737069353A8C
:1052C00000000000EFF0E8EDFFEB206E73733A0092
:1052D000EFF0E8EDFFEB206574685F696E69743A82
:1052E00000000000EFF0E8EDFFEB207463615F72F7
:1052F00073743A00EFF0E8EDFFEB207463615F74C4
:105300006573743A00000000EFF0E8EDFFEB2074E5
:1053100063615F773A000000EFF0E8EDFFEB206596
:105320006E61626C655F6C6D3A000000EFF0E8ED55
:10533000FFEB206C6D3A0000EFF0E8EDFFEB20731F
:1053400079735F696E666F3A00000000EFF0E8ED78
:10535000FFEB206C6D5F49443A000000B80000206C
:10536000303A0000313A0000323A00008148FAF742
:1053700097FF0146F86380A005F05EFB97F83800C0
:1053800000F08CFB0146F8637FA02EE07948FAF725
:1053900087FF0146F8637EA005F04EFB97F83800C2
:1053A00000F0DAFC0146F8637DA01EE07148FAF7D0
:1053B00077FF0146F8637BA005F03EFB97F83C00C1
:1053C00001F00AF98FE06B48FAF76AFF0146F863CB
:1053D00078A005F031FBB88F4FF47A7381B20122C7
:1053E0007848FDF77FFB014677A005F025FB7AE0C2
:1053F0006048FAF755FF0146F86375A005F01CFBFD
:1054000097F83C0038736EE05A48FAF749FF0146B6
:10541000F86373A005F010FBF86B754B012802D000
:1054200000220221CFE40122FBE75248FAF738FFBD
:105430000146F8636FA005F0FFFAFBF7D1FB52E0DD
:1054400071A002F073FD002000F0BAFE4BE072A0E4
:1054500002F06CFD4748FAF723FF81B2F8630A2394
:1054600001225848FDF73EFB08B170A02DE072A064
:105470002BE074A002F05AFD3E48FAF711FFF863E2
:105480003C48C830FAF70CFFB8638DF8040000956B
:10549000B88F012381B201AA4A48FDF70DFE22E030
:1054A0006EA002F043FD3348FAF7FAFEF86381B2CA
:1054B000012301AA43480095FDF7CAFB9DF804109B
:1054C0006BA005F069FB0EE06BA002F02FFD0AE077
:1054D0002848FAF7E5FE0146F8636BA005F0ACFA40
:1054E000F86B02F011FB23486AA12038FAF7CAFED4
:1054F00028B96AA002F01AFD002000F061FE1D48E4
:1055000020380655641C202CFBD3002059460E542D
:10551000401CC828FBD3174A0020C8321654401C30
:10552000C828FBD3002043461E54401CC828FBD388
:105530008AED068A7E76FE67FE753E76CAF80460BE
:10554000CAF80860BE76CAF80C60FE76CAF8006039
:105550003E77CAF81060CAF81460BE777E772020C4
:105560008BF800001070FE84B86B03B0BDEC028BAA
:10557000BDE8F08F5E2A0020EFF0E8EDFFEB206C35
:105580006D5F74656D703A0074656D703A0000006F
:10559000EFF0E8EDFFEB206C6D5F763A0000000065
:1055A000763A0000EFF0E8EDFFEB207077725F30A5
:1055B00037323A00EFF0E8EDFFEB206932635F61CC
:1055C00064723A00B40100206932633A00000000BE
:1055D000EFF0E8EDFFEB2073746172743A000000A5
:1055E000EFF0E8EDFFEB20707772646E3A00000098
:1055F00000080240EFF0E8EDFFEB204144435F7408
:105600006573743A00000000EFF0E8EDFFEB2068EE
:10561000656C700D0A000000EFF0E8EDFFEB20690B
:1056200032635F7374617475730D0A006932635F6E
:105630006572726F720D0A006932635F4F4B0D0A1B
:1056400000000000EFF0E8EDFFEB206932635F74CB
:1056500072616E736D69740D0A000000EFF0E8ED81
:10566000FFEB206932635F7265636976650D0A003E
:10567000646174613D000000EFF0E8EDFFEB20692C
:105680006E666F0D0A000000EFF0E8EDFFEB206C96
:1056900065643A006D656E7500000000EFF0E8ED9E
:1056A000FFEB206D656E750D0A0000002DE9F041DD
:1056B000002402F061FA01F05BF802F007F94FF400
:1056C0000047154EBD10012239463046FDF721F93D
:1056D000012229463046FDF71CF90120FCF736F877
:1056E000002229463046FDF714F90120FCF72EF878
:1056F000641CA4B2FF2CE6D9FCF7A0F802F02CFF42
:1057000001F036F802F096F801F056F8BDE8F041E5
:10571000014602A005F090B9000402404A544147F6
:1057200020434841494E3A002DE9F0472A4C0126D2
:105730007703E06C294D4FF480484FF4004964280A
:1057400018D2A06DB0B9012239462846FDF7E1F81C
:10575000002241462846FDF7DCF80022494628464B
:10576000FDF7D7F8A665A06A08B102F0CDF9A06AE6
:105770004000A062E06CC82811D9E06D78B9002221
:1057800039462846FDF7C5F8012241462846FDF76F
:10579000C0F8002249462846FDF7BBF8E665E06CF4
:1057A000B0F5C87F0ED9002239462846FDF7B1F87A
:1057B000002241462846FDF7ACF80122494628461A
:1057C000FDF7A7F8E06CB0F5FA7F03D90020E0649C
:1057D000A065E065BDE8F0870800002000080240F1
:1057E00070B51B4C2079E17800F0030001EB00104C
:1057F000617901F0030100EB4150A17901F003014F
:1058000000EB8140E17901F0030100EB0140217AD6
:1058100001F0030100EB8130617A01F0010100EB3E
:105820000130A17A01F0030100EB0125207B00B9D2
:105830000025606BB0F5FA7F08D9606C854203D013
:10584000284602F061F965640020606370BD0000C5
:1058500008000020F0B504468DB00025032701267E
:105860004248FDF77BF899208DF82C00082C0ED0CB
:10587000072C0ED0062C0ED0052C0ED0042C0ED0EA
:10588000032C0ED0022C0ED0012C0ED00EE0502591
:105890000CE056250AE0512508E0572506E0592579
:1058A00004E05A2502E0152500E0162503A9012091
:1058B000CDE900170290034669000BAA2B48FDF7BB
:1058C000B7FA01462A48012919D09DF80C10017039
:1058D0009DF80D1041709DF80E108170012C12D0B2
:1058E000022C14D0032C17D0042C1AD0052C1DD058
:1058F000062C20D0072C2FD0082C32D026E0FF21F8
:1059000001704170E9E79DF80C101A4817E019483A
:105910009DF80C10203012E016489DF80C10403015
:105920000DE014489DF80C10603008E011489DF817
:105930000C10803003E00F489DF80C10A03001746B
:105940009DF80D1041749DF80E1081740748FCF706
:10595000EBFF0DB03046F0BD06489DF80C10C0308E
:10596000EDE704489DF80C10E030E8E7B4010020B2
:10597000B8000020F02B002070B58CB005469A20AE
:105980008DF82C00002408263348FCF7E7FF082D8B
:105990000ED0072D0ED0062D0ED0052D0ED0042DC5
:1059A0000ED0032D0ED0022D0ED0012D0ED00EE004
:1059B00050240CE056240AE0512408E0572406E065
:1059C000592404E05A2402E0152400E016244FF67E
:1059D000FF7000EA44014FF47A7301221E48FDF77C
:1059E00081F8050032D103A90120CDE9001602900B
:1059F000034661000BAA1848FDF71AFA9DF80C102F
:105A000016A005F0C9F89DF80D1016A005F0C4F811
:105A10009DF80E1015A005F0BFF89DF80F1015A009
:105A200005F0BAF89DF8101014A005F0B5F89DF82F
:105A3000111014A005F0B0F89DF8121013A005F095
:105A4000ABF89DF8131013A005F0A6F80248FCF778
:105A50006BFF0CB0284670BDB4010020615B305D67
:105A60003D000000615B315D3D000000615B325D27
:105A70003D000000615B335D3D000000615B345D13
:105A80003D000000615B355D3D000000615B365DFF
:105A90003D000000615B375D3D00000070B50546CC
:105AA0002DED048B8CB000240226B0EE009A9FED01
:105AB0002E8A2E48FCF752FF082D0ED0072D0ED04F
:105AC000062D0ED0052D0ED0042D0ED0032D0ED098
:105AD000022D0ED0012D0ED00EE050240CE05624E5
