:020000040800F2
:1000000050B10120AD0100080DA4000829720008BC
:1000100019A0000861170008B1D400080000000012
:100020000000000000000000000000001DB20008F9
:10003000B936000800000000F1A50008BDC30008A3
:10004000C7010008C7010008C7010008C701000870
:10005000C7010008C7010008F53800080939000881
:10006000C70100081D390008C7010008C7010008C2
:10007000C7010008C7010008C7010008C701000840
:10008000C701000801350008E10C0008000000006D
:1000900000000000000000000000000031390008EE
:1000A000C7010008C7010008C7010008C701000810
:1000B000C7010008C7010008D1C60008C701000831
:1000C000C7010008C7010008C7010008C7010008F0
:1000D000C70100084DD400085DD4000800000000EE
:1000E000C7010008C7010008C701000800000000A0
:1000F000000000000000000000000000C701000830
:1001000000000000C7010008C7010008C70100087F
:1001100000000000000000000000000000000000DF
:1001200019350008C7010008C7010008C701000809
:10013000C7010008000000000000000000000000EF
:10014000000000000000000000000000C7010008DF
:10015000C701000829350008393500086DD40008AA
:10016000C7010008C70100080000000000000000EF
:10017000000000000000000000000000000000007F
:1001800000000000C701000800000000000000009F
:10019000C7010008C7010008DFF80CD000F05EFCC2
:1001A000004800479902010850B1012006488047E5
:1001B00006480047FEE7FEE7FEE7FEE7FEE7FEE74C
:1001C000FEE7FEE7FEE7FEE799C500089901000893
:1001D0002DE9F05F0546002092469B46884606467C
:1001E000814640241BE0284641464746224600F00F
:1001F00020F853465A46C01A914110D3114618466A
:10020000224600F09BFA2D1A67EB01084F46224662
:100210000120002100F092FA17EB00094E41201E48
:10022000A4F10104DFDC484631462A464346BDE8D6
:10023000F09F202A04DB203A21FA02F000217047C7
:1002400021FA02F3D040C2F120029140084319463E
:1002500070472DE9FE43994615468846074601AC8E
:10026000022942D3002D40D000200290A8F10100C5
:100270004FF0FF36009022E000FB057201FB057095
:1002800011464A469047002805DC54F826003044C1
:1002900044F8260013E060682A4600FB057154F814
:1002A000040C00FB057007E00B7890F800C001F823
:1002B00001CB00F8013B521E002AF5D1764254F8DA
:1002C000040C61688842D7DC4B462A463846FFF763
:1002D000C0FF54F8040C4B46A8EB0001401C00FB87
:1002E00005702A46491EFFF7B4FFBDE8FE83D2B26F
:1002F00001E000F8012B491EFBD270470022F6E70F
:1003000010B513460A4604461946FFF7F0FF20468B
:1003100010BD421E12F8013F002BFBD111F8013B2A
:1003200002F8013B002BF9D17047421C10F8011B69
:100330000029FBD1801A704710B5002200E0521C42
:10034000835C8C5CA34201D1002BF8D1D8B2E1B21E
:10035000401A10BD034611F8012B00F8012B002AAA
:10036000F9D11846704770B506460DF01FF90468BC
:1003700005460A220021304600F001FA2C6070BDCB
:100380002DE9FE4F804681EA0300C00F0C46009025
:1003900021F0004123F00045B8EB0200A94105D24D
:1003A0004046214690461C460B46024623F000403C
:1003B000104347D0270DC7F30A00C3F30A51029038
:1003C000401A019040286BDAC3F3130040F4801BFD
:1003D0000098924620B10023D2EB030A63EB0B0B8B
:1003E00001985946C0F14002504600F0A7F9064670
:1003F0000D4650465946019A00F0AFF910EB08003F
:100400006141002487EA115284EAE7731A4340D01D
:10041000009A62B3019A012A4FEA075215DC001BC9
:1004200061EB02014FF0004202EA0752CDE90042BF
:10043000001C41F5801132462B4600F01EFA03B035
:10044000BDE8F08F40462146F9E7001B61EB020151
:10045000001C41F5801300185B412018A2F500171D
:1004600047EB030140EAD570B6196D4111E06D0804
:100470004FEA360645EAC0754FEA0752001B61EBAA
:100480000201001C41F5801149084FEA30000019B3
:10049000514132462B4603B0BDE8F04F00F0DEB9C3
:1004A0000098012240000023D0EB020263EBE073CE
:1004B000009821464FEAE074B8EB000061EB0401BC
:1004C000E9E783F000435BE781F0004158E72DE95D
:1004D000FE4F81EA030404F0004421F0004100943F
:1004E0004FF0000B23F0004350EA01045ED052EAC3
:1004F00003045BD0C3F30A54C1F30A552C44A4F29D
:10050000F3340194A0FB0254C1F3130141F48011B0
:10051000C3F3130343F4801301FB024400FB034EB7
:10052000840A970A44EA815447EA8357A4FB076880
:1005300002958D0A05FB07854FEA932C04FB0C54AA
:100540002705029D4FEA065847EA1637B5EB08051E
:100550006EEB070C870E920E47EA811742EA831270
:10056000A7FB0201B6EB0B0164EB00042B0D43EA81
:100570000C335E1844EB1C50DA465146E7FB02018F
:10058000C5F313044FEA0B3343EA14534FEA043222
:10059000019C43EA0603A4F10C040294009CCDE9FB
:1005A00000B400F06AF903B0BDE8F08F0020014606
:1005B000F9E72DE9F04D81EA030404F0004B21F046
:1005C000004514464FF0000A23F0004150EA0502AE
:1005D00020D054EA01021DD0C5F30A570246C5F3E4
:1005E0001303C1F31300C1F30A5640F4801543F41A
:1005F0008013A7EB0608101BD64608F2FD3873EBF4
:10060000050002D308F1010801E092185B41B8F13E
:10061000000F03DA00200146BDE8F08D00204FF402
:100620008011064684460EE0171B73EB050705D3C1
:10063000121B63EB050306434CEA010C49084FEA21
:10064000300092185B4150EA0107EDD152EA0300F5
:1006500012D082EA040083EA0501084305D0101B8A
:10066000AB4106D20122002306E000224FF00043F6
:1006700002E06FF0010253101AEB06004CEB085138
:1006800010EB0A0041EB0B01BDE8F04D00F0E6B8BD
:100690000EB5C10F80EAE0700844CA07002140F29D
:1006A00033438DE80E000A460B4600F0E6F803B02F
:1006B00000BD00F0004230F000400AD0C10D01F54D
:1006C0006071C0F3160042EA0151C20840071143AD
:1006D000704700200146704701F0004330B421F01C
:1006E000004150EA010206D00A0DA2F56072C1F382
:1006F0001301002A02DC30BC00207047440F44EA9A
:10070000C104C100E01830BC00EBC25000F06FB86B
:1007100030B50B46014600202022012409E021FAD1
:1007200002F59D4205D303FA02F5491B04FA02F5CE
:100730002844151EA2F10102F1DC30BD202A04DBA1
:10074000203A00FA02F1002070479140C2F12003E4
:1007500020FA03F3194390407047202A06DBCB1799
:10076000203A41FA02F043EAE07306E041FA02F36C
:10077000D040C2F1200291400843194670472DE94C
:10078000F04791460F4680460446002614F8015B68
:100790002DB100F075F90068405DC007F6D12B2D32
:1007A00002D02D2D18D0641E4A463946204600F04E
:1007B0006BF927B13968A14201D1C7F800807105F2
:1007C0004FF002040BD54042002803DD0CF0EEFE92
:1007D0000460A007BDE8F08746F48066E4E70028DF
:1007E000F8DA0CF0E3FE04606FF00040F2E7002955
:1007F000A8BF7047401C490008BF20F001007047A7
:1008000010B4B0FA80FC00FA0CF050EA010404BF06
:1008100010BC704749B1CCF1200421FA04F411FA5C
:100820000CF118BF012121430843A3EB0C01CB1DA0
:100830004FEA00614FEA102042BF002010BC704711
:1008400000EBC35010440029A4BF10BC7047401CEB
:10085000490008BF20F0010010BC704710B5141EFD
:1008600073F1000408DA401C41F1000192185B4169
:100870001A4301D120F0010010BD2DE9F04D924640
:100880009B4611B1B1FA81F202E0B0FA80F2203257
:100890009046FFF753FF04460F4640EA0A0041EA3C
:1008A0000B0153465A46084313D0114653EA010040
:1008B00019D0C8F140025046FFF7BBFC05460E4672
:1008C000504659464246FFF739FF084305D00120FC
:1008D00004E020463946BDE8F08D0020054346EA95
:1008E000E0762C4337430A986305E40AA0EB08003E
:1008F0000022FD0A44EA47540A3002D5002001468E
:10090000E9E7010510196941DDE908450019694168
:10091000BDE8F04DA2E770B521F0004303430CD0D1
:10092000C1F30A550024D5EB040564EB0403D61784
:10093000AD1AB34102DB0020014670BD201841EB27
:10094000025170BD2DE9F041054621F000400C46F2
:10095000284309D0C4F30A5040F23341884205DDF0
:1009600028462146BDE8F0812846FBE740F2FE31EB
:10097000884210DC0CDB4FEA043040EA155050EAA4
:10098000053105D0104804F0004101430020E9E79B
:1009900000200146E6E7A0F233404642C6F140029D
:1009A00028462146FFF7CAFE0746884628462146C4
:1009B0003246FFF73EFC43463A46FFF74FFF3246CA
:1009C000BDE8F041FFF7BABE0000F03FC1F30A52A4
:1009D000C1F3130140F2FF3341F480119A4202DA6D
:1009E00000200146704740F233439A42A2F233425C
:1009F00002DC5242FFF71DBCFFF7A0BE30B5041E5B
:100A000071F1000404DB4FF00044404264EB01014B
:100A1000141E73F1000405DB1C464FF000435242E4
:100A200063EB04038B4208BF824230BD30B5041E25
:100A300071F1000404DB4FF00044404264EB01011B
:100A4000141E73F1000405DB1C464FF000435242B4
:100A500063EB0403994208BF904230BD064C074D3A
:100A600006E0E06840F0010394E80700984710347E
:100A7000AC42F6D3FFF794FB341B0108541B01086A
:100A800000487047AC1801082DE9F05F82460078F5
:100A9000002715468B460AF10104B946302801D0DB
:100AA0009DB113E014F8010B0127782803D05828D2
:100AB00001D045B10AE00DB1102D07D10027102556
:100AC00014F8010B02E0082500E00A250026B046D4
:100AD0000EE005FB080005FB06F1012701EB1046BF
:100AE0001FFA80F8B6F5803F00D3B94614F8010B21
:100AF000294600F069F80028EBDABBF1000F05D0B9
:100B00000FB1641E00E05446CBF80040B9F1000F6D
:100B100006D00CF04BFD02210160C81EBDE8F09F1D
:100B200048EA0640FAE72DE9F04D00231A461B1A61
:100B30008A4103DB00200146BDE8F08DC1F30A5273
:100B4000C1F3130141F480154FF0000BD10702D11E
:100B500000186D41521E0027044640F2FF1138462E
:100B600001EB620A3E468046024600204FF48011A7
:100B7000FFF75FFBC2197141BB1846EB0100B4EBF4
:100B8000030C75EB000C04D3E41A65EB0005174663
:100B90000E46241908F101006D4180463428E3DD3A
:100BA000F91946EB0600091BA84103D24FF0FF32AA
:100BB000134601E0002213461BEB070046EB0A51E7
:100BC000BDE8F04DFFF74ABE3A2800D2303820F099
:100BD0002002412A01D3A2F13700884201D34FF00D
:100BE000FF30704770B58C1810F8015B15F00703E3
:100BF00001D110F8013B2A1106D110F8012B03E0B6
:100C000010F8016B01F8016B5B1EF9D12B0705D4BD
:100C10000023521E0DD401F8013BFAE710F8013B06
:100C2000CB1A921C03E013F8015B01F8015B521E22
:100C3000F9D5A142D8D3002070BD70B50546AC6B84
:100C4000206C00F0500050BB206C40F40070206419
:100C50002068806800F04050E8B9207ED8B920684C
:100C6000C06A00F4700020B12068806800F48060E1
:100C700088B92068406820F0200021684860206C16
:100C800020F480702064206C00F4805018B9206C2F
:100C900040F001002064204603F070FC0BE0206C63
:100CA00000F0100018B1204603F071FC03E0A06BC7
:100CB000C16C2846884770BD70B50546AC6B4020B6
:100CC0002064606C40F004006064204603F05FFC28
:100CD00070BD70B50446A56B284603F057FC70BD87
:100CE00010B5034803F054FC01200249087010BD00
:100CF000D8020020C800002055494A6822F440323A
:100D00004A604A6843681A434A600268526822F49B
:100D1000807203685A6002685368026943EA0222DB
:100D200003685A600268526822F0407203685A6091
:100D30000268526883681A4303685A6002689268BE
:100D400022F4006203689A6002689268C3681A43DA
:100D500003689A603F4B826A9A4218D00268926890
:100D600022F0706203689A6002689268836A1A438C
:100D700003689A600268926822F0405203689A60A1
:100D800002689268C36A1A4303689A600BE00268BB
:100D9000926822F0706203689A600268926822F09A
:100DA000405203689A600268926822F00202036867
:100DB0009A6002689368027E43EA420203689A607E
:100DC0002022125CA2B10268526842F400620368F9
:100DD0005A600268526822F4604203685A600268EE
:100DE0005368426A521E43EA423203685A6005E081
:100DF0000268526822F4006203685A600268D26A8C
:100E000022F470020368DA620268D36A828B521E8F
:100E100043EA02520368DA620268926822F40072BE
:100E200003689A600268936890F8302043EA42228F
:100E300003689A600268926822F4806203689A608C
:100E400002689368426943EA822203689A607047A5
:100E5000002301400100000F10B52DED088BB0EE0E
:100E6000408AF0EE608A9FED100B53EC102B51EC92
:100E7000180BFFF726FB41EC1B0B9FED0D0B53EC02
:100E8000102BFFF796FB41EC1A0B9FED0B0B53EC6D
:100E9000102BFFF775FA41EC190BB0EE490AF0EE92
:100EA000690ABDEC088B10BD52B81E85EB51E83FB6
:100EB0007B14AE47E17A643F000000000000394037
:100EC00010B52DED088B00209349086093480088E9
:100ED00000EE100AB8EE400A10EE101A0846FFF7AE
:100EE000E8FB41EC1B0B9FED8E0B53EC102BFFF737
:100EF000EEFA41EC1A0B9FED8C0B53EC102BFFF725
:100F000058FB41EC190B9FED8A0B53EC102BFFF7AC
:100F1000DEFA41EC180BFFF7DFFB874908607F48DA
:100F2000408800EE100AB8EE400A10EE101A08468B
:100F3000FFF7BFFB41EC1B0B9FED790B53EC102B24
:100F4000FFF7C5FA41EC1A0B9FED770B53EC102B12
:100F5000FFF72FFB41EC190B9FED750B53EC102B9A
:100F6000FFF7B5FA41EC180BFFF7B6FB7249486082
:100F70006A48808800EE100AB8EE400A10EE101A97
:100F80000846FFF796FB41EC1B0B9FED650B53ECFE
:100F9000102BFFF79CFA41EC1A0B9FED680B53ECFA
:100FA000102BFFF794FA41EC190B9FED5F0B53ECFC
:100FB000102BFFF7FEFA41EC180BFFF78DFB5E4993
:100FC00088605648C08800EE100AB8EE400A10EE5D
:100FD000101A0846FFF76DFB41EC1B0B9FED500B01
:100FE00053EC102BFFF773FA41EC1A0B9FED4E0BED
:100FF00053EC102BFFF7DDFA41EC190B9FED4C0B76
:1010000053EC102BFFF763FA41EC180BFFF764FB6E
:101010004949C8604148008900EE100AB8EE400A0C
:1010200010EE101A0846FFF744FB41EC1A0B9FED37
:101030003C0B53EC102BFFF74AFA41EC190B9FEDD8
:101040003A0B53EC102BFFF7B4FA41EC180BFFF7F7
:1010500043FB394908613BA00BF034FE3648D0ED24
:10106000000AB0EE600A3BA00EF028FA3248D0ED3C
:10107000010AB0EE600A3BA00EF020FA2E48D0ED37
:10108000020AB0EE600A3BA00EF018FA2A48D0ED32
:10109000030AB0EE600A3BA00EF010FA264890ED6D
:1010A000040A10EE101A0846FFF703FB41EC1A0B76
:1010B000B0EE4A0AF0EE6A0AFFF7CEFEB0EE409AB2
:1010C000F0EE609A51EC190BFFF706FB08EE100AE0
:1010D000B0EE480A2FA00EF0F1F932A00BF0F2FDAD
:1010E0000E4801881BA010F0BBF80C4841881DA0D9
:1010F00010F0B6F8094881881EA010F0B1F8074832
:10110000C18820A010F0ACF80448018921A010F09B
:10111000A7F8BDEC088B10BD14020020800700204A
:101120006666666666660A40000000000000B04021
:1011300000000000000000408C0700205DBF603709
:101140006CDB16400D0A2D2D2D2D2D2D2D2D2D0D49
:101150000A000000616463305F352E305620202085
:1011600020203A00616463315F332E335620202003
:1011700020203A00616463325F3132562020202003
:1011800020203A00616463335F332E3356202020E1
:1011900020203A0074656D705F73656E7328D129E5
:1011A00020203A000D0D0D002DE9F04105460E46B8
:1011B00014460027B846D4F800800CE004F108007B
:1011C00000EBC70006C885EA010086EA0201084371
:1011D00000D102E07F1C022FF0D300BF022F09D103
:1011E000B8F1020F06D10CA00BF06CFD0027C4E98A
:1011F00002560EE0022F0CD10FA00BF063FD04F19C
:101200000800216800EBC10060C027682068401C0E
:1012100020603846BDE8F081CFF0E5E2FBF8E5ED6F
:10122000EE20F7E8F1EBEE20CED2CFD0C0C2C8D28C
:10123000C5CBC5C9210D0A00CDEEE2FBE920E0E4F3
:10124000F0E5F1210D0A0000002024490968234A35
:101250009269914201D940F0010021490968204A70
:101260009269914201D940F002001E4909681D4A65
:101270009269914201D940F004001B4909681A4A59
:101280009269914201D940F0080018490968174A4B
:101290009269914201D940F0100015490968144A39
:1012A0009269914201D940F0200012490968114A1F
:1012B0009269914201D940F040000F4909680E4AF5
:1012C0009269914201D940F0800018B102210B4A85
:1012D000117002E00121094A11707047203000208E
:1012E0003031002040320020503300206034002094
:1012F000703500208036002090370020F00000205C
:10130000010E044A1170010C5170010A9170D070E5
:10131000704700000001002010B500200021A34A02
:1013200092F848400346401CA14AD4549F4AB2F860
:101330004A2014120346401C9D4AD4549B4A92F8FA
:101340004A400346401C9A4AD454984AD26C140E20
:101350000346401C964AD454944AD26CC2F30744C4
:101360000346401C924AD454904AB2F84C20C2F32F
:1013700007240346401C8E4AD4548C4A92F84C40B1
:101380000346401C8A4AD454884A126D140E024601
:10139000431CD8B2864B9C54844A126DC2F3074456
:1013A0000246431CD8B2824B9C54804AB2F850206B
:1013B000C2F307240246431CD8B27D4B9C547B4A9F
:1013C00092F850400246431CD8B2794B9C54774A5D
:1013D000526D140E0246431CD8B2754B9C54734A8E
:1013E000526DC2F307440246431CD8B2704B9C5462
:1013F0006E4AB2F85420C2F307240246431CD8B206
:101400006B4B9C54694A92F854400246431CD8B234
:10141000674B9C54654A926D140E0246431CD8B229
:10142000634B9C54614A926DC2F307440246431CCD
:10143000D8B25F4B9C545D4AB2F85820C2F30724DF
:101440000246431CD8B25A4B9C54584A92F8584012
:101450000246431CD8B2564B9C54544A92F85C4006
:101460000246431CD8B2524B9C54504A126E140E82
:101470000246431CD8B24E4B9C544C4A126EC2F3E7
:1014800007440246431CD8B2494B9C54474AB2F821
:101490006020C2F307240246431CD8B2444B9C543C
:1014A000424A92F860400246431CD8B2404B9C54DA
:1014B0003E4AD26E140E0246431CD8B23C4B9C549A
:1014C0003A4AD26EC2F307440246431CD8B2384BA4
:1014D0009C54364AB2F86C20C2F307240246431CDF
:1014E000D8B2334B9C54314A92F86C400246431CAC
:1014F000D8B22F4B9C542D4B9A6E93F86C30120E31
:1015000042EA0322D4B20246431CD8B2284B9C5470
:10151000264B9A6E93F86C30120C42EA0342D4B216
:101520000246431CD8B2224B9C54204B68331A8885
:101530001B79120A42EA0362D4B20246431CD8B2B3
:101540001B4B9C54194A92F868400246431CD8B27F
:10155000174B9C54154A126F140E0246431CD8B206
:10156000134B9C54114A126FC2F307440246431CAA
:10157000D8B20F4B9C540D4AB2F87020C2F3072426
:101580000246431CD8B20A4B9C54084A92F8704059
:101590000246431CD8B2064B9C54044A92F874404D
:1015A0000246431CD8B2024B9C5410BDA038002008
:1015B000DC1D012070B505460C46D5B900201F4939
:1015C00081F84800FF2008F07DFF012211031C482C
:1015D00003F074FD4FF47A701A4908601A480078D5
:1015E000002829D119A00BF06DFB012016490870C5
:1015F00022E014480068F8B91348007801281BD18C
:101600000E4981F8480000200F49087000224FF46D
:1016100080510B4803F052FD12A00BF053FB204603
:1016200008F050FF01229103054803F047FD4FF4F5
:101630007A61114802F090FE70BD0000A0380020D1
:10164000000C02402000002020020020C2FBEAEB38
:10165000FEF7E0E5EC20CFC8D2C0CDC8C5210D0A09
:1016600000000000C2EAEBFEF7E0E5EC20CFC8D2B4
:10167000C0CDC8C5210D0A006C01002030B585B071
:101680000546002420222046641C0DF800207E22FE
:101690002046641C0DF8002005F13000C2B220463F
:1016A000641C0DF8002020222046641C0DF8002048
:1016B00072222046641C0DF8002073222046641C10
:1016C0000DF8002034222046641C0DF8002038223A
:1016D0002046641C0DF8002035222046641C0DF8BD
:1016E00000205F222046641C0DF800207422204652
:1016F000641C0DF8002065222046641C0DF80020B3
:1017000073222046641C0DF8002074222046641CBD
:101710000DF800203B222046641C0DF8002000221A
:101720002046641C0DF800202046641C0DF80020A3
:1017300068460BF0F7FA05A00BF0C4FA68460BF008
:10174000C1FA06A00BF0BEFA05B030BDCFEEF1EB4A
:10175000E0ED20EAEEE43A20000000000D0A00006F
:1017600000BFFEE710B502A00BF0DCFA10BD0000D0
:101770007E30206574685F636F6E6669673B00004A
:101780002DE9F04F8BB0054688460024A346002083
:101790000A9081468246099008900790069000BF03
:1017A00005900490039000BFFEE305F5807000EB08
:1017B000C400D0E900100123594001437DD1EFA0BE
:1017C0000BF080FAF0A00BF07DFA0120F6490870CA
:1017D00055F8240000210EF02DF8834655F824001A
:1017E00001210EF027F80A9055F8240002210EF08E
:1017F00021F8814655F8240003210EF01BF882469B
:1018000055F8240004210EF015F8099055F824002D
:1018100005210EF00FF8089055F8240006210EF06F
:1018200009F8079055F8240007210EF003F80690F8
:1018300018F80B00020600210A9818F80000094366
:1018400042EA004018F809204FEA022C0A4640EA12
:101850000C0118F80A000143099818F80000002349
:101860001B0643EA10234FEA006C084642EA0C01CB
:1018700040EA0302089818F800300020000440EA0B
:1018800013404FEA034C134641EA0C0218430799F0
:1018900018F801300021090241EA136C42EA0321E1
:1018A00040EA0C00069A18F802201143BF4AC2E928
:1018B00000100AF015FFB1A000E002E00BF002FA00
:1018C000A2E305F5807000EBC400D0E900106423AA
:1018D0005940014315D10120B349087005F5A060B6
:1018E00000EBC40003C8B24ACDE90001FFF75CFC7D
:1018F00000270646AF49C0C14146284609F06AFEA6
:1019000082E305F5807000EBC40103C9C823584089
:1019100008432ED10120A449087055F82400002165
:101920000DF088FF834655F8240001210DF082FF59
:101930000A9055F8240002210DF07CFF814655F8ED
:10194000240003210DF076FF824618F80B000106F3
:101950000A9818F8000041EA004018F8091040EA17
:10196000012018F80A100843059005980AF072FE45
:101970004AE305F5807000EBC40103C9CC2358404D
:1019800008432ED101208849087055F82400002111
:101990000DF050FF834655F8240001210DF04AFF59
:1019A0000A9055F8240002210DF044FF814655F8B5
:1019B000240003210DF03EFF824618F80B000106BB
:1019C0000A9818F8000041EA004018F8091040EAA7
:1019D000012018F80A1008430590059809F03AF814
:1019E00012E305F5807000EBC400D0E9001003237A
:1019F0005940014337D101206B49087055F8240044
:101A000000210DF017FF834655F8240001210DF049
:101A100011FF0A9055F8240002210DF00BFF8146BA
:101A200055F8240003210DF005FF824618F80B003D
:101A300001060A9818F8000041EA004018F8091059
:101A400040EA012018F80A100843059018F8090028
:101A50000490594905980870584904980870012065
:101A600057490870D0E205F5807000EBC400D0E95A
:101A700000100423594001432FD101204A49087026
:101A800055F8240000210DF0D5FE834655F82400BA
:101A900001210DF0CFFE0A9055F8240002210DF02F
:101AA000C9FE814655F8240003210DF0C3FE82468D
:101AB00018F80B0001060A9818F8000041EA0040E7
:101AC00018F8091040EA012018F80A100843059098
:101AD0000599C8B208F0F6FC96E205F5807000EBB7
:101AE000C400D0E9001005225140014345D1012036
:101AF0002D49087055F8240000210DF09BFE834607
:101B000055F8240001210DF095FE0A9055F82400A7
:101B100002210DF08FFE814655F8240003210DF0BF
:101B200089FE824655F8240004210DF083FE0990B9
:101B30000A9818F80000000618F8091040EA014059
:101B400018F80A1040EA0120099918F80110084312
:101B5000059018F80B0002901A490878059909F0C9
:101B600083F919A00BF0AEF81FA005990FF05AFCED
:101B700023A002990FF074FB46E249E00D0A2D2DD7
:101B80002D2D2D2D0D0A0000CAEEECE0EDE4E03A1B
:101B9000F3F1F2E0EDEEE2EAE020E2F0E5ECE5ED73
:101BA000E8210D0A00000000F8010020D00000200C
:101BB000581C012000020020090200200A02002017
:101BC00008020020DC010020CFF0E8F8B8EB204943
:101BD000503020E4EBFF20CCE0F1F2E5F0E02030E3
:101BE0003732210D0A000000EEF2EFF0E0E2EBFFE9
:101BF000E5EC20495020E0E4F0E5F13A0000000077
:101C0000C220E1EBEEEA2030373220B900000000BC
:101C100005F5807000EBC400D0E9001006225140A9
:101C2000014349D10120FE49087055F824000021E4
:101C30000DF000FE834655F8240001210DF0FAFD59
:101C40000A9055F8240002210DF0F4FD814655F864
:101C5000240003210DF0EEFD824655F824000421F6
:101C60000DF0E8FD09900A9818F80000000618F831
:101C7000091040EA014018F80A1040EA01200999C9
:101C800018F801100843059018F80B00E5490860A2
:101C9000E5490878059909F033F9E4A00BF012F84A
:101CA000AFF2BC0005990FF0BDFBDE480168AFF252
:101CB000B0000FF0D5FAA7E105F5807000EBC40085
:101CC000D0E900100A23594001430BD10120D44927
:101CD0000870DEA00AF0F6FF4FF47A71E94802F0CE
:101CE0003BFB91E105F5807000EBC400D0E90010EA
:101CF0000B23594001430FD10120C9490870E2A0CC
:101D00000AF0E0FF0020E9490870E94908700A215B
:101D1000E84802F021FB77E105F5807000EBC40094
:101D2000D0E900100C23594001430DD10120BC49DA
:101D30000870E1A00AF0C6FF0020E84908700A21F7
:101D4000E74802F009FB5FE105F5807000EBC40095
:101D5000D0E900100D22514001430DD10120B049BE
:101D60000870E0A00AF0AEFF0020E74908700A21E1
:101D7000E64802F0F1FA47E105F5807000EBC40097
:101D8000D0E90010C9225140014355D10120A44996
:101D9000087055F8240000210DF04CFD834655F8DD
:101DA000240001210DF046FD0A9055F8240002217F
:101DB0000DF040FD814655F8240003210DF03AFD59
:101DC000824655F8240004210DF034FD09900A984C
:101DD00018F80000000618F8091040EA014018F849
:101DE0000A1040EA0121099818F800000143059102
:101DF00018F80B00C6490860C6A005990FF030FA24
:101E0000C3480168CFA00FF02BFA9DED050AB8EE8C
:101E1000400ACF4880ED000A90ED000ADFEDCD0AC0
:101E200080EE201ACC48BA49096800EB810080EDA9
:101E3000001A00F0B7FEE7E005F5807000EBC40083
:101E4000D0E90010CA235940014356D101207449FA
:101E5000087055F8240000210DF0ECFC834655F87D
:101E6000240001210DF0E6FC0A9055F8240002211F
:101E70000DF0E0FC814655F8240003210DF0DAFC5A
:101E8000824655F8240004210DF0D4FC09900A98EC
:101E900018F80000000618F8091040EA014018F888
:101EA0000A1040EA0120099918F80110084305902A
:101EB00018F80B0096490860A8A005990FF0D0F912
:101EC000934801689FA00FF0CBF99DED050AB8EE8D
:101ED000400A9F4880ED000A90ED000ADFED9D0A60
:101EE00080EE201A9C4820308949096800EB810067
:101EF00080ED001A00F0B0FE86E005F5807000EB82
:101F0000C40103C9CB225040084329D101204449D0
:101F100008700AF0E5FB9EA00AF0D4FE00F0C0FDB8
:101F200000F0B0FE05F5A06000EBC40003C8A74AAE
:101F3000CDE90001FFF738F90646A5480068A54934
:101F40004022CDE90021029040F263207043A24A72
:101F500002EB00119A232246284609F061F953E06A
:101F600005F5807000EBC400D0E90010CD23594086
:101F7000014349D101202A4908700AF0B1FB97A01A
:101F80000AF0A0FE55F8240000210DF053FC834612
:101F900055F8240001210DF04DFC0A9055F824005D
:101FA00002210DF047FC00E057E1814655F824007E
:101FB00003210DF03FFC824618F80B0001060A9839
:101FC00018F8000041EA004018F8091040EA012022
:101FD00018F80A10084305900598032809D1002035
:101FE0008B49087001208B49087002218A4802F051
:101FF000B3F90598012807D10221874802F0ACF90E
:102000006421204802F0A8F905480078012805D18C
:1020100000200349087005F5A060FFE01CE1000006
:10202000F80100201C020020DC010020CFF0E8F8BD
:10203000B8EB2049503120E4EBFF20CCE0F1F2E591
:10204000F0E020303732210D0A000000C7E0EFF049
:10205000E0F8E8E2E0E5EC20EAE0F1F1E5F2FB206F
:1020600030373220E220C0D620EDE020EFF0E5E46A
:10207000ECE5F220E8F520E0E4F0E5F1EEE2210DF8
:102080000A0000006C010020EDE0F7E8EDE0E5EC6F
:1020900020F2E5F1F220EFF0EEE2E5F0EAF320F8CD
:1020A000E8EDFB20343835210D0A00003401002012
:1020B000EC01002044010020EDE0F7E8EDE0E5EC64
:1020C00020F2E5F1F220EFF0EEE2E5F0EAF320F89D
:1020D000E8EDFB20535049210D0A00003601002095
:1020E00054010020EDE0F7E8EDE0E5EC20F2E5F149
:1020F000F220EFF0EEE2E5F0EAF320F8E8EDFB2065
:102100004A544147210D0A00350100206401002096
:10211000F0010020CFF0E8EDFFF220EAEEFDF4F44C
:10212000E8F6E8E5EDF220EAEEF0F0E5EAF6E8E8B8
:1021300020E8E7ECE5F0E5EDE8FF20F2EEEAE03A32
:1021400000000000E220EAE0EDE0EBE53A000000EC
:10215000F401002000007A44A0380020CFF0E8ED20
:10216000FFF220EAEEFDF4F4E8F6E8E5EDF220EA0D
:10217000EEF0F0E5EAF6E8E820E8E7ECE5F0E5ED7A
:10218000E8FF20EDE0EFF0FFE6E5EDE8FF3A0000C4
:102190000D0ACFF0E8EDFFF220E7E0EFF0EEF120DE
:1021A000EDE020F1EFE8F1EEEA20EAEEF0F0E5EA0A
:1021B000F2E8F0FEF9E8F520EAEEFDF4F4E8F6E8DE
:1021C000E5EDF2EEE22E0D0A00000000581C0120A1
:1021D000D000002098390020183A00200D0ACFF0D6
:1021E000E8EDFFF220E7E0EFF0EEF120EDE020EF88
:1021F000F0EEE2E5F0EAF320F1E8E3EDE0EBE020D9
:10220000524553455420E4EBFF203037320D0A008D
:102210003701002038010020C401002000EBC40178
:1022200005C9CDE90002104A0199FEF7BDFF064637
:102230000E4800680021CDE9001040F26320704391
:102240000B4A02EB001103232246284601F0E4FA70
:102250002146284608F036FC641C402CFFF4A5AA51
:102260000BB0BDE8F08F0000581C0120D00000200A
:10227000183A002010B54FF400710C4802F016FF18
:102280000B490978884210D04FF40071074802F0DA
:102290000DFF074908704FF40071044802F006FF73
:1022A0000446214603A00EF0DBFF10BD000C0240E7
:1022B00028020020504F4B5F4844535F4F55543A1B
:1022C0000000000070B50024FE48007801287DD190
:1022D000FD480068FA2879D90120FC4908700020DF
:1022E000F9490860012007F07FF8022007F07CF828
:1022F000032007F079F8042007F076F8052007F0AE
:1023000073F8062007F070F8072007F06DF8082032
:1023100007F06AF8012007F0BDF9ED4908600220D6
:1023200007F0B8F9EB490860032007F0B3F9EA4970
:102330000860042007F0AEF9E8490860052007F0BE
:10234000A9F9E7490860062007F0A4F9E549086003
:10235000072007F09FF9E4490860082007F09AF980
:10236000E2490860DA480068A04206D9E04890F8DF
:102370004000012801D1D6480468D6480068A04230
:1023800006D9DB4890F84100012801D1D148046802
:10239000D1480068A04206D9D54890F842000128EB
:1023A00001D1CD480468CD480068A04206D9D04884
:1023B00090F84300012801D1C8480468C848006863
:1023C000A04208D9CA4890F8440000E089E20128F8
:1023D00001D1C3480468C3480068A04206D9C44874
:1023E00090F84500012801D1BE480468BE48006845
:1023F000A04206D9BE4890F84600012801D1BA484B
:102400000468BA480068A04206D9B94890F8470065
:10241000012801D1B5480468B549A1F84A40002413
:10242000012007F0C3F906460C22A949203101F02A
:10243000A5FAA7498860022007F0B8F906460C22E1
:10244000A449203101F09AFAA2498860032007F0DC
:10245000ADF906460C22A049203101F08FFA9E49C1
:102460008860042007F0A2F906460C229B4920311F
:1024700001F084FA99498860052007F097F906462B
:102480000C229749203101F079FA9549886006209D
:1024900007F08CF906460C229249203101F06EFAC1
:1024A00090498860072007F081F906460C228E4982
:1024B000203101F063FA8C498860082007F076F932
:1024C00006460C228949203101F058FA8749886074
:1024D0007F488068A04206D9854890F840000128CE
:1024E00001D17B4884687B488068A04206D9804837
:1024F00090F84000012801D17648846876488068C9
:10250000A04206D97A4890F84000012801D17248CB
:10251000846872488068A04206D9754890F84000E7
:10252000012801D16D4884686D488068A04206D9B1
:102530006F4890F84000012801D1694884686948D3
:102540008068A04206D96A4890F84000012801D16D
:102550006448846864488068A04206D9644890F85A
:102560004000012801D16048846860488068A0422A
:1025700006D95F4890F84000012801D15B48846883
:102580005B48C4640024012007F0C2F906460C220F
:102590004F49703101F0F2F94D49C860022007F04F
:1025A000B7F906460C224B49703101F0E7F9494969
:1025B000C860032007F0ACF906460C22464970318A
:1025C00001F0DCF94449C860042007F0A1F906468F
:1025D0000C224249703101F0D1F94049C860052010
:1025E00007F096F906460C223D49703101F0C6F914
:1025F0003B49C860062007F08BF906460C22394992
:10260000703101F0BBF93749C860072007F080F945
:1026100006460C223449703101F0B0F93249C860E5
:10262000082007F075F906460C223049703101F098
:10263000A5F92E49C860264AD16890680CF00EFFB3
:1026400006460C222249C03101F098F92049486021
:10265000204AD16890680CF001FF06460C221D4903
:10266000C03101F08BF91B4948601B4AD168906862
:102670000CF0F4FE06460C221749C03101F07EF939
:1026800015494860154AD16890680CF0E7FE064687
:102690000C221249C03101F071F910494860104A0A
:1026A000D16890680CF0DAFE06460C220C49C03165
:1026B00001F064F90A4948600A4AD16890680CF050
:1026C000CDFE17E00902002018000020290200209A
:1026D00020300020303100204032002050330020D4
:1026E00060340020703500208036002090370020B4
:1026F000A038002006460C22C74901F03FF9C64920
:10270000C0394860C54AD16890680CF0A7FE0646FB
:102710000C22C249C03101F031F9C0494860C04AB9
:10272000D16890680CF09AFE06460C22BC49C03174
:1027300001F024F9BA494860BA484068BA49496882
:102740000844BA4949680844B94949680844B9493C
:1027500049680844B049C03949680844AF494968E4
:102760000844AF4949680844B3498865AD48C06822
:10277000A04206D9084690F84000012801D1A94896
:10278000C468A948C068A04206D9AB4890F8400088
:10279000012801D1A448C468A448C068A04206D951
:1027A000A54890F84000012801D1A048C468A0487D
:1027B000C068A04206D9A04890F84000012801D185
:1027C0009B48C4689B48C068A04206D99A4890F8C4
:1027D0004000012801D19748C4688F48C038C068BC
:1027E000A04207D9944890F84000012802D18A48B5
:1027F000C038C4688948C068A04206D98E4890F89D
:102800004000012801D18548C4688548C068A042BD
:1028100006D9894890F84000012801D18048C46851
:1028200085484465854C7F48C068A04206D28248EE
:1028300090F84000012801D17A48C4687A48C068FD
:10284000A04206D27C4890F84100012801D1764888
:10285000C4687648C068A04206D2774890F8420023
:10286000012801D17148C4687148C068A04206D2ED
:10287000714890F84300012801D16D48C4686D4843
:10288000C068A04206D26C4890F84400012801D1EB
:102890006848C4686048C038C068A04207D266482B
:1028A00090F84500012802D15B48C038C4685B48F5
:1028B000C068A04206D2604890F84600012801D1C5
:1028C0005648C4685648C068A04206D25A4890F894
:1028D0004700012801D15248C468574804650024C4
:1028E00050E05748007800284CD15648007801281D
:1028F00048D1002053490870401E4A4908604A499F
:1029000008604A4908604A4908604A4908604249E3
:10291000C0390860414908604149086000204149C8
:10292000C8604149C8604149C8604149C8604149DF
:10293000C8603949C039C8603849C8603849C8607A
:1029400038498860384988603849886038498860E3
:10295000384988603049C0398860304988603049DA
:1029600088603049486030494860304948603049A3
:102970004860304948602849C03948602749486064
:102980002749486000252C48B0F84A0041F28831B8
:10299000884201DD681CC5B22748C06C40F6C411EE
:1029A000884208D92448C06C0021494071EA0000DF
:1029B00001D0681CC5B22048006D40F24C418842ED
:1029C00001D2681CC5B21C48406D40F2E241884209
:1029D00008D91948406D0021494071EA000001D032
:1029E000681CC5B21448806D47F23051884201D945
:1029F000681CC5B2104890F85C0008B9681CC5B2E4
:102A000025B100200C4981F8740003E001200A4937
:102A100081F8740070BD0000303600208036002040
:102A2000903700202030002030310020403200203C
:102A30005033002060340020A0380020A086010020
:102A4000090200202902002010B500240A4800686D
:102A500040F2DC51884209D908480068012805D1B4
:102A600000200649086006A00AF02CF90348007807
:102A70000A4981F85C0010BDE4000020E00000205D
:102A8000CFD0CECFC0CB20D1C8C3CDC0CB20543106
:102A9000485A5F4D4B2121210D0A0000A03800202B
:102AA00010B5002416A00AF00DF900BF0EE0214673
:102AB00016A00EF011FC164800EB8400D0ED000AC1
:102AC000B0EE600A13A00CF0F9FC641C082CEEDBDD
:102AD0000BA00AF0F7F800240FE021460EA00EF03C
:102AE000FBFB0B48203000EB8400D0ED000AB0EE79
:102AF000600A08A00CF0E2FC641C082CEDDB10BDA1
:102B00000D0A2D2D2D2D2D2D2D0D0A004B495B006D
:102B1000A03800205D3D00004B555B0030B52DED29
:102B2000028B91B020250024002008EE100A9FEDB2
:102B30001A0AF0EE408A2A4601A9680300F00CFE4A
:102B400000BF22E001A911F824000106A000401CEA
:102B500001AA105C01EB0041A000801C105C01EB9D
:102B60000021A000C01C105C084408EE100AB8EE5A
:102B7000C80AF0EE408A9FED090AC8EE800A0848AC
:102B800000EB8400C0ED000A641C082CDADB11B0F5
:102B9000BDEC028B30BD00000000000000007A4454
:102BA000A038002010B588B04FF4802000F0B8FDA8
:102BB00008226946054807F02BFC20242246694676
:102BC000600300F0DDFD08B010BD0000A03800205B
:102BD00030B52DED028B91B020250024002008EEA9
:102BE000100A9FED1A0AF0EE408A2A4601A9A803AE
:102BF00000F0B2FD00BF22E001A911F82400010697
:102C0000A000401C01AA105C01EB0041A000801C48
:102C1000105C01EB0021A000C01C105C084408EE11
:102C2000100AB8EEC80AF0EE408A9FED090AC8EE15
:102C3000800A084800EB8400C0ED000A641C082CE0
:102C4000DADB11B0BDEC028B30BD000000000000EB
:102C500000007A44C038002010B588B04FF400203E
:102C600000F05EFD08226946054807F0D1FB2024EC
:102C700022466946A00300F083FD08B010BD0000A5
:102C8000C038002030B500210022002000BF1CE029
:102C9000204B03EB820393ED000ADFED1F0A20EEC9
:102CA000200ABCEEC00A10EE101A0B0E1B4C235467
:102CB000C1F30744194D431CEC54C1F30724831C92
:102CC000EC54C31CE954001D521C082AE0D3002216
:102CD0001DE0104B203303EB820393ED000ADFED80
:102CE0000E0A20EE200ABCEEC00A10EE101A0B0EDF
:102CF0000A4C2354C1F30744084D431CEC54C1F360
:102D00000724831CEC54C31CE954001D521C082AE0
:102D1000DFD330BDA038002000007A44983900206D
:102D200070B5064600240025F64800F05DFE60B14F
:102D300009F0D6FCF4A009F0C5FF0020F74908709F
:102D4000C821F74801F008FB70BDF54800F04CFEC3
:102D500050B109F0C5FCF3A009F0B4FF41F288318D
:102D6000F64801F0F9FAEFE7F54800F03DFE0028DB
:102D70001AD009F0B5FCF3A009F0A4FFE7480178E8
:102D8000F9A00EF06DFAE5480078002802DD012078
:102D9000FE490870C821FE4801F0DEFA9B22FD4979
:102DA000FD4806F055FECFE7E44800F01DFE60B197
:102DB00009F096FCF9A009F085FF0DF08FFD40F2B7
:102DC000DC51FC4801F0C8FABEE7FA4800F00CFEFE
:102DD000C0B109F085FC08F0DFF8F7480078012859
:102DE00004D10A21D64801F0B7FA07E0CB480078B1
:102DF000002803DDC821E64801F0AEFA0020EE49C4
:102E00000870A1E7E24800F0EFFD70B109F068FC3E
:102E1000EAA009F057FFF0480168012008F024F803
:102E20000A21EE4801F098FA8EE7EC4800F0DCFD4C
:102E300090B109F055FCEAA009F044FFB7490978C0
:102E4000491EEE4A505CEE49096808F00DF80A2167
:102E5000EC4801F081FA77E7EA4800F0C5FD70B16F
:102E600009F03EFCE8A009F02DFFEE4801680120C2
:102E700008F046F80A21EC4801F06EFA64E7EA48E7
:102E800000F0B2FD90B109F02BFCE8A009F01AFFA8
:102E9000A2490978491ED94A505CEB49096808F0F3
:102EA0002FF80A21E94801F057FA4DE7E74800F00A
:102EB0009BFD70B109F014FCE5A009F003FFED489B
:102EC0000168012007F038FF0A21EB4801F044FABD
:102ED0003AE7E94800F088FD90B109F001FCE7A06D
:102EE00009F0F0FE8D490978491EC44A505CEB494F
:102EF000096807F021FF0A21E94801F02DFA23E7CC
:102F0000E74800F071FD70B109F0EAFBE5A009F0B7
:102F1000D9FEED480168012007F05AFF0A21EB486D
:102F200001F01AFA10E7E94800F05EFD90B109F0EF
:102F3000D7FBE7A009F0C6FE78490978491EAF4AD9
:102F4000505CEB49096807F043FF0A21E94801F0AA
:102F500003FAF9E6E74800F047FD38B109F0C0FB95
:102F6000E5A009F0AFFEFEF7FDFBEDE6E94800F055
:102F70003BFD90B14FF49671E74801F0EDF909F08F
:102F8000AFFBE6A009F09EFE64480078401E9B4916
:102F90000C5C2046FEF772FBD6E6DF4800F024FD0D
:102FA00018B309F09DFBE4A009F08CFEEC48007812
:102FB000012803D1EBA009F085FE10E0ED48007870
:102FC000032809DAEB480078401CEA4908700A2116
:102FD000D04801F0C1F902E0E7A009F073FE9722A2
:102FE0006C496D4806F034FDAEE6E84800F0FCFCA4
:102FF000E8B10A21E64801F0AFF909F071FBE5A05C
:1030000009F060FE0020EA49087044480078401E3C
:103010007A490C5C08464178E6A00EF021F9082CAC
:1030200000D10024E549204607F0F2FF8CE6D8489D
:1030300000F0DAFC38B309F053FBE1A009F042FEDE
:1030400036480078401E6D490C5C082C00D10024E5
:10305000204607F0D1FF04462146E3A00EF0E2F936
:10306000D648844206D1BFA009F02CFE0120D049E9
:10307000087002E0C0A009F025FE982245494648A4
:1030800006F0E6FC60E6DA4800F0AEFCB0B14FF4C2
:10309000FA71D84801F060F909F022FBD6A009F0D6
:1030A00011FE0020DA490870002108460CF05AFC95
:1030B00004462146D7A00EF0D3F845E6CD4800F0EF
:1030C00093FC00281CD009F00BFBD4A009F0FAFDFA
:1030D000DC480168DCA00EF0C3F80025D4E12946E5
:1030E00015A00EF0F9F8DEA009F0ECFD05EB850067
:1030F000DC4A02EB800081680FA00EF0ABF9B3E16F
:10310000EBE10000C40100204F4E205245534554CE
:1031100020666F72203037322E0D0A00E401002045
:10312000CC0100204F464620524553455420666F3F
:1031300072203037322E0D0A000000006C01002092
:10314000D4010020CFF0EEE2E5F0EAE020F1E8E380
:10315000EDE0EBE020524553455420E4EBFF2030F6
:1031600037322E0D0A000000CAEEEBE8F7E5F1F267
:10317000E2EE20E1EBEEEAEEE22030373220EDE045
:1031800020E1E5EAEFEBE5E9EDE53A003701002063
:1031900074010020D8D2002000130120C8E4B8F246
:1031A00020F1E1EEF020E0E4F0E5F1EEE2210D0A9D
:1031B00000000000B401002038010020D3F1F2E04B
:1031C000EDE0E2EBE8E2E0E5EC20ECE0F1F2E5F046
:1031D00020495030210D0A00140100207C010020FC
:1031E000D3F1F2E0EDE0E2EBE8E2E0E5EC20F1EB38
:1031F000E5E9E220495030210D0A0000DC01002001
:103200002401002084010020D3F1F2E0EDE0E2EBA4
:10321000E8E2E0E5EC20ECE0F1F2E5F020495031A5
:10322000210D0A00180100208C010020D3F1F2E0EA
:10323000EDE0E2EBE8E2E0E5EC20F1EBE5E9E220AD
:10324000495031210D0A000028010020940100207E
:10325000D3F1F2E0EDE0E2EBE8E2E0E5EC20ECE0D7
:10326000F1F2E5F020444553545F495030210D0AF6
:10327000000000001C0100209C010020D3F1F2E0BE
:10328000EDE0E2EBE8E2E0E5EC20F1EBE5E9E2205D
:10329000444553545F495030210D0A002C01002051
:1032A000A4010020D3F1F2E0EDE0E2EBE8E2E0E59A
:1032B000EC20ECE0F1F2E5F020444553545F495036
:1032C00031210D0A0000000020010020AC01002087
:1032D000D3F1F2E0EDE0E2EBE8E2E0E5EC20F1EB47
:1032E000E5E9E220444553545F495031210D0A007D
:1032F00030010020BC010020D0E5F1F2E0F0F22026
:10330000CCC0CA20FFF7E5E5EA20303732210D0AAC
:1033100000000000440100203C010020CFEEF1FB42
:10332000EBE0E5EC20EAEEE420EFEE20F8E8EDE556
:1033300020343835210D0A00CFF0EEE2E5F0FFE54C
:10334000EC20F0E5E7F3EBFCF2E0F220F2E5F1F23D
:10335000E020F8E8EDFB20343835210D0A000000AC
:1033600034010020D2E5F1F220EFF0EEE9E4E5EDE2
:10337000210D0A00EC010020D2E5F1F220EDE5205C
:10338000EFF0EEE9E4E5ED210D0A00005401002024
:103390004C010020CFEEF1FBEBE0E5EC20EAEEE49F
:1033A00020EFEE20F8E8EDE520535049210D0A000A
:1033B000360100204164723A00000000EFBEEDDEED
:1033C000CFF0EEE2E5F0FFE5EC20F0E5E7F3EBFC13
:1033D000F2E0F220F2E5F1F2E020F8E8EDFB205314
:1033E0005049210D0A000000416E637765723A0072
:1033F000640100205C010020CEEFF0E0F8E8E2E09C
:10340000E5EC20F8E8EDF3204A544147210D0A008D
:1034100035010020746D70303A000000CFF0EEE20C
:10342000E5F0FFE5EC20F0E5E7F3EBFCF2E0F2205D
:10343000F2E5F1F2E020F8E8EDFB204A54414721A3
:103440000D0A0000C0020020CAEEEBE8F7E5F1F239
:10345000E2EE20F3F1F2F0EEE9F1F2E23A000000E0
:103460005D200000A82E01201DA009F02BFC05EB1B
:1034700085011C4A02EB8101C86809F023FCAFF208
:10348000882009F01FFC6D1C174800688542FFF674
:1034900026AE1548006815490978884217D11348A7
:1034A0000078401E00EB80000E4901EB8000806830
:1034B0000F49884207D1AFF2541009F003FC0120F4
:1034C0000C49087003E0AFF2501009F0FBFB9922A1
:1034D00009490A4806F0BCFA36E400BF34E40000AB
:1034E000202D2000A82E0120C0020020E401002091
:1034F000DD20A00235010020D8D2002000130120D9
:1035000010B5002002490870024801F053FA10BDBE
:10351000500000205406002010B5024801F04AFA7D
:1035200010BD00002003002010B5024801F042FA4F
:1035300010BD0000B406002010B50020024908703C
:10354000024801F037FA10BD38000020F4050020D1
:103550000146087810381823B0FBF3F20848805C65
:10356000C865032A05D908686FF30900001D88653E
:1035700003E008686FF309008865886D70470000F4
:1035800034160108014600208A6A8B69CBB932B132
:10359000012A0DD0022A03D0032A10D10EE000BF69
:1035A000CB6A03F08073B3F1807F00D1012007E084
:1035B000CB6AB3F1C07F00D1012001E000E000BF81
:1035C00034E08B69B3F5005F1AD132B1012A07D01C
:1035D000022A03D0032A11D10AE000BF01200EE025
:1035E000CB6A03F08073B3F1807F00D1012006E045
:1035F000CB6AB3F1C07F00D1012000E000BF15E02D
:1036000032B1012A05D0022A04D0032A0CD103E0EA
:1036100000BF00BF012008E0CB6A03F08073B3F164
:10362000807F00D1012000E000BF00BF704730B5AF
:103630000468246824F4802405682C6004686360AE
:103640008468402C04D10468A2600468E16003E04F
:103650000468A1600468E26030BD0000F0B585B088
:103660005324002500260027124801F051FDF920BF
:1036700004904FF6FF7000EA44014FF47A73012280
:103680000C4801F02DFE054655B9012003AACDE9ED
:1036900000206100034604AA0290064802F076F872
:1036A000044801F017FD9DF80C0000F001063046BB
:1036B00005B0F0BD8003002070470000034908609A
:1036C00000BF024909680029FBD17047240000208F
:1036D00000B5014600220DE0FA2000F00EF8FA20B5
:1036E00000F00BF8FA2000F008F8FA2000F005F8D6
:1036F000501C82B28A42EFDB00BD704710B501E07A
:1037000009F0D8FE0DF010FB00F001000028F7D101
:103710000DF078FB0DF0F6FA0DF062FB10BD000025
:1037200038B504460BA00068009001E009F0C2FE25
:103730000DF0FAFA00F001000028F7D10DF062FB5D
:1037400000236A462146D8200DF06EFB0DF048FBA1
:1037500038BD0000FF00000070B504460D46164657
:1037600001E009F0A7FE0DF0DFFA00F001000028EB
:10377000F7D133462A46214603200DF0FFFA70BDEB
:1037800070B504460D46164601E009F093FE0DF0B3
:10379000CBFA00F001000028F7D10DF033FB3346DF
:1037A0002A46214602200DF03FFB0DF019FB70BDAB
:1037B00038B504460BA00068009001E009F07AFEDD
:1037C0000DF068FB00F001000028F7D10DF0D0FBF0
:1037D00000236A462146D8200DF0DCFB0DF0B6FB35
:1037E00038BD0000FF00000070B504460D461646C7
:1037F00001E009F05FFE0DF04DFB00F00100002834
:10380000F7D10DF0B5FB33462A46214602200DF0D4
:10381000C1FB0DF09BFB70BD2DE9F05F06460C4629
:1038200017469946DDE90AA84FF0000B002506F57A
:10383000A06000EBC70103C9C4E90601A56A402DD9
:1038400041D2D4E90A30591C40F10000C4E90A1001
:10385000002105EB450000EB051204F1300000EB00
:10386000C200C0E9048105EB450000EB051104F13D
:10387000300000EBC100C0F8049006F5407000EB8A
:10388000C70006C805EB450000EB051304F1300046
:1038900000EBC300C0E90212012105EB450000EB7B
:1038A000051204F1300040F8321005EB450000EB42
:1038B000051204F1300000EBC20080F818A0206A65
:1038C0002930206204E04FF0010B03A009F0FAF95F
:1038D0005846BDE8F09F0000EDE5F220ECE5F1F27E
:1038E000E020E4EBFF20EAE2E8F2E0EDF6E8E9218F
:1038F0000D0A000010B5012001F0E0FA0120014995
:10390000087010BDC000002010B5022001F0D6FAEA
:1039100001200149087010BDC100002010B5082029
:1039200001F0CCFA01200149087010BDC30000204D
:1039300010B5402001F0C2FA01200149087010BD05
:10394000C60000207047000010B5012211030A488C
:1039500001F0B4FB01225103074801F0AFFB012045
:10396000FFF7ACFE00224FF40051034801F0A6FB24
:103970000120FFF7A3FE10BD000402402DE9F04333
:10398000A1B007460E4614464FF000080025204619
:1039900004EBD0714FEA610900BF08E0601B801E94
:1039A00056F82010601B401E46F820106D1C601E4B
:1039B000A842F3DC3760002505E056F8250001A990
:1039C00041F825006D1CA542F7DB064B0422214679
:1039D00001A8FCF73EFC01A850F82980404621B020
:1039E000BDE8F083B1F4000801460878012803D14E
:1039F00000200870012070470020FCE72DE9F04707
:103A000090B0074689464FF0000A3846F91707EB91
:103A10005171C1F3C706CA4600224FF48061854840
:103A200001F04CFB50460DF05BF94FF000080BE045
:103A300000200DF055F900216A4602EBC80203C2CE
:103A400008F1010000F0FF08F91707EB5171B8EB1E
:103A5000E10FEDDB01229102764801F02FFB012EF0
:103A600001D1DDE90045022E0AD1DDE90012100284
:103A700040EA11600A02DDE90231D41840EB010589
:103A8000032E12D1DDE90012100440EA11400A04AD
:103A9000DDE90231090241EA13611B02D2184841F3
:103AA000DDE90431D41840EB0105042E1AD1DDE91B
:103AB0000002110641EA10210206DDE9023000048D
:103AC00040EA13401B04D2184141DDE904300002F2
:103AD00040EA13601B02D2184841DDE90631D418D0
:103AE00040EB0105052E1DD1DDE90231090641EA51
:103AF00013211B0600981A1C4141DDE90430000423
:103B000040EA13401B04D2184141DDE906300002AF
:103B100040EA13601B02D2184841DDE90831D4188D
:103B200040EB0105062E22D10098010200220298E6
:103B300092184141DDE90430000640EA13201B06DB
:103B4000D2184841DDE90631090441EA13411B045A
:103B5000D2184141DDE90830000240EA13601B023F
:103B6000D2184841DDE90A31D41840EB0105072E8F
:103B700029D1009801044FF0000C02981CEB0C02B4
:103B800041EB0021049812EB0C024141DDE90630C3
:103B9000000640EA13201B06D2184841DDE908312F
:103BA000090441EA13411B04D2184141DDE90A30FE
:103BB000000240EA13601B02D2184841DDE90C31D3
:103BC000D41840EB0105082E2ED14FF0000C0299BD
:103BD0000A046346614694460098CA184CEB00609C
:103BE0000499121C40EB01210698121C4841DDE9A2
:103BF0000831090641EA13211B06D2184841DDE9C4
:103C00000A31090441EA13411B04D2184141DDE99C
:103C10000C30000240EA13601B02D2184841DDE973
:103C20000E31D41840EB01052046294610B0BDE8FE
:103C3000F0870000001002402DE9FC470746894646
:103C400014461D463846F91707EB5171C1F3C706F4
:103C5000012E02D1E0B28DF80300022E08D1E0B2AD
:103C60008DF80200200A40EA0560C0B28DF803001A
:103C7000032E0ED1E0B28DF80100200A40EA056063
:103C8000C0B28DF80200200C40EA0540C0B28DF8A9
:103C90000300042E14D1E0B28DF80000200A40EA9F
:103CA0000560C0B28DF80100200C40EA0540C0B2AA
:103CB0008DF80200200E40EA0520C0B28DF8030006
:103CC000052E17D1E0B28DF80000200A40EA056009
:103CD000C0B28DF80100200C40EA0540C0B28DF85A
:103CE0000200200E40EA0520C0B28DF80300E8B2C1
:103CF0008DF80400062E1AD1E0B28DF80000200ADB
:103D000040EA0560C0B28DF80100200C40EA054091
:103D1000C0B28DF80200200E40EA0520C0B28DF836
:103D20000300E8B28DF80400280A8DF80500072E7C
:103D30001DD1E0B28DF80000200A40EA0560C0B253
:103D40008DF80100200C40EA0540C0B28DF8020059
:103D5000200E40EA0520C0B28DF80300E8B28DF8CD
:103D60000400280A8DF80500280C8DF80600082E9E
:103D700020D1E0B28DF80000200A40EA0560C0B210
:103D80008DF80100200C40EA0540C0B28DF8020019
:103D9000200E40EA0520C0B28DF80300E8B28DF88D
:103DA0000400280A8DF80500280C8DF80600280E5E
:103DB0008DF8070000224FF48061124801F07EF96F
:103DC00049F080000CF08CFF701EC6B24FF0000866
:103DD00009E0A6EB08011DF801000CF081FF08F1D5
:103DE000010000F0FF08F91707EB5171B8EBE10F84
:103DF000EFDB01229102034801F060F90020BDE8E9
:103E0000FC870000001002402DE9F04F89B0044605
:103E100000BF4FF00009CA4600BFCB4600BF00BF3D
:103E2000207A01060022607A124341EA0041A07A1A
:103E300041EA0021E07A0843217B09060A4340EA6F
:103E4000E171607B000442EA000341EAE072A07B7A
:103E50000002034342EAE070E17B0B4340EAE17079
:103E6000CDE90630FE4ADDE90601FDF79DF9804601
:103E70006078217840EA012140F2632008FB00F0DD
:103E8000F84A02EB00100180E078A17840EA0121B5
:103E900040F2632008FB00F002EB00104180207923
:103EA0000006617940EA0140A17940EA0120E17908
:103EB000084340F2632108FB01F102EB0111886025
:103EC000207A01060022607A124341EA0040A17A7A
:103ED00040EA0121E07A41EA0003207B0106104616
:103EE000084343EAE171627B120440EA020341EABB
:103EF000E270A17B0A024FEAE27C1A4340EA0C001E
:103F0000E17B0A4340EAE17040F2632108FB01F1E2
:103F1000D44B03EB0111C1E90420207C01060022EF
:103F2000607C030442EA02001943A27C4FEA022C9F
:103F3000024641EA0C01E07C0143207D0006024379
:103F400041EAE071607D0004C317104341EA0302B7
:103F5000A17D0902CB1701431A43E07D0B460343C1
:103F600042EAE07140F2632008FB00F0BD4A02EB38
:103F70000010C0E90631207E0006617E40EA014063
:103F8000A17E40EA0120E17E084340F2632108FB64
:103F900001F102EB01110862207F0006617F40EA17
:103FA0000140A17F40EA0120E17F084340F2632104
:103FB00008FB01F102EB0111486294F820000206AF
:103FC000002194F82100094342EA004094F822209D
:103FD0004FEA022C0A4640EA0C0194F8230041EA19
:103FE000000394F82400010642EA010043EAE1726A
:103FF00094F825100904084342EAE17294F8261067
:104000000902084342EAE17294F82710084342EAA1
:10401000E17240F2632108FB01F1924B03EB0111C5
:10402000C1E90A02282500200646074662E1605DD4
:104030000106681C205C41EA0041A81C205C41EAA2
:104040000021E81C205C014340F2632008FB00F0E3
:10405000844A02EB0010303006EB460202EB0612F7
:1040600040F83210281D205C0106681D205C41EAE2
:104070000041A81D205C41EA0021E81D205C0143AD
:1040800040F2632008FB00F0764A02EB001030306B
:1040900006EB460202EB061200EBC200416005F19E
:1040A0000800205C0106002205F10900205C124393
:1040B00041EA004005F10A01615C40EA012105F195
:1040C0000B00205C014305F10C00205C030642EA72
:1040D000030041EAE37105F10D02A25C1204D3175B
:1040E0000243194305F10E00205C0002C317104380
:1040F00041EA030205F10F01615C03460B4342EA0A
:10410000E17040F2632108FB01F1564A02EB011114
:10411000303106EB460202EB061201EBC201C1E9A7
:10412000023005F11000205C0106002205F11100AB
:10413000205C030442EA0200194305F11202A25C6A
:104140004FEA022C024641EA0C0105F11300205C03
:10415000014305F11400205C0006024341EAE071CE
:1041600005F11500205C0004024341EAE07105F10D
:104170001600205C0002024341EAE07005F11701DD
:10418000615CCB171143184340F2632208FB02F233
:10419000344B03EB0212303206EB460303EB0613FB
:1041A00002EBC302C2E904102F48D0F800B0016846
:1041B00041600068401E2C4908624FF0000A07E089
:1041C00005EB0A01605C294906F0A0FD0AF1010A2D
:1041D000BAF1180FF4D34FF000091DE005F11800F3
:1041E0004844215C40F2632008FB00F01D4A02EBCA
:1041F0000010303006EB460202EB061200EBC20064
:10420000183000F8091005F118014944605C17499D
:1042100006F07CFD09F1010940F2632008FB00F083
:10422000104901EB0010303006EB460101EB06119E
:1042300050F831004845D1D80B480068401C0A4965
:10424000486205F1180000EB090540F2632008FB05
:1042500000F0044901EB0010303006EB460107E0A6
:10426000581C012078860020D8120120D8D20020C6
:1042700001EB061100EBC100C1688068CDE90401C3
:1042800040F2632008FB00F0234901EB00103030BE
:1042900006EB460101EB061100EBC1004169006924
:1042A000CDE9020140F2632008FB00F01A4901EB5E
:1042B0000010006940F2632108FB01F1164A02EB8D
:1042C0000111303106EB460202EB061201EBC2018E
:1042D0004968CDE9001040F2632108FB01F10F4A63
:1042E00002EB01105B460E4A0E4906F011FC761CEB
:1042F00047F1000740F2632008FB00F0064901EB9C
:104300000011D1E90A01301A77EB0100FFF48FAEFA
:1043100009B0BDE8F08F000078860020183A002030
:1043200000130120D8D2002008480068B0F5167F9D
:104330000AD900200549086005480068401C044966
:104340000860012003490870704700000C0100203C
:1043500010010020080100200A46002100230370FC
:10436000426000E0491C044B53F82130002BF9D186
:10437000014B43F821007047183900202DE9F04126
:10438000044600250026002700BF1BE04FF48041B3
:104390000F4800F08BFE0746700800EBC77601223D
:1043A00051030B4800F08AFE0120FFF787F9002235
:1043B0004FF40051064800F081FE0120FFF77EF91E
:1043C000681C85B2A542E1DB3046BDE8F081000003
:1043D000000402407047000038B5024600200090FB
:1043E00000BF92F83C00012801D1022038BD012015
:1043F00082F83C0000BF0868092816D91068C06818
:104400000C780A3C04EB44050724AC40A043146834
:10441000E0600C780A3C04EB44048868A04014680F
:10442000E46820431468E06013E0106800690C78C9
:1044300004EB44050724AC40A043146820610C78C9
:1044400004EB44048868A04014682469204314687D
:1044500020614868072817D21068406B0C79641EE9
:1044600004EB84051F24AC40A043146860630888F3
:1044700080B20C79641E04EB8404A0401468646B61
:1044800020431468606331E048680D2817D2106833
:10449000006B0C79E41F04EB84051F24AC40A0439F
:1044A00014682063088880B20C79E41F04EB84044C
:1044B000A0401468246B20431468206316E0106841
:1044C000C06A0C790D3C04EB84051F24AC40A0436A
:1044D0001468E062088880B20C790D3C04EB840417
:1044E000A0401468E46A20431468E0621E4B1F4C2D
:1044F0001068A0420AD10868122807D1586820F431
:1045000000005860586840F480005860174C1068EC
:10451000A04222D1164C0868A04202D00868112897
:104520001BD1586820F480005860586840F400009F
:1045300058600F4C0868A0420FD10E4800680E4C1E
:10454000B0FBF4F000EB80004000009002E0009827
:10455000401E009000980028F9D100BF002082F88A
:104560003C0000BF00BF41E70023014000200140A4
:1045700012000010D002002040420F0002490968DA
:10458000491C014A116070471402002070477047AF
:1045900070B504460025002620680068C0F3400579
:1045A00020684068C0F3401695B38EB3206C00F0CD
:1045B000100018B9206C40F40070206420688068F6
:1045C00000F04050E8B9207ED8B92068C06A00F4F5
:1045D000700020B12068806800F4806088B920688D
:1045E000406820F0200021684860206C20F4807032
:1045F0002064206C00F4805018B9206C40F0010059
:1046000020642046FFF7BAFF6FF0120021680860AF
:1046100020680068C0F3800520684068C0F3C016B9
:10462000E5B3DEB3206C00F0100018B9206C40F444
:10463000005020642068806800F4401038BB206877
:10464000806B00F4401020B12068806800F4806026
:10465000E8B92068406800F48060C0B920688068CC
:1046600000F0405098B9207E88B92068406820F05A
:10467000800021684860206C20F480502064206C09
:1046800000F4807018B9206C40F0010020642046CE
:10469000FFF7A0FE6FF00C0021680860206800683A
:1046A00000F0010520684068C0F3801685B17EB136
:1046B0002068006800F0010050B1206C40F48030A8
:1046C0002064204600F052F86FF001002168086075
:1046D00020680068C0F3401520684068C0F3806619
:1046E0007DB176B1606C40F0020060646FF0200034
:1046F000216808602046FFF74AFF6FF0200021681C
:10470000086070BD70B5044600250CB9012070BD6D
:104710001549A06A884200D000BF206C30B92046FD
:1047200000F026F80020606484F83C00206C00F063
:10473000100088B9206C20F4885040F002002064FA
:104740002046FCF7D9FA00206064206C20F00200BB
:1047500040F00100206400E0012500BF002084F843
:104760003C0000BF2846D2E70100000F7047000060
:1047700010B586B00446142101A8FBF7BFFD2B49F4
:104780002068884250D100BF00200090284800686F
:1047900040F48070264908600846006800F4807084
:1047A000009000BF00BF00BF0020009020481438D8
:1047B000006840F001001E4914390860084600688E
:1047C00000F00100009000BF00BF0F200190032007
:1047D00002900020039001A9164800F07DFB1648C6
:1047E0001649086000204860002114488160C160BB
:1047F0004FF4806101614900416189008161491183
:10480000C16109020162042141620121816200212A
:10481000C162016300F0EEF908B1FFF793F800BF41
:104820000648A063846300BF06B010BD00200140AD
:10483000443802400000024010640240200300207F
:10484000F8B504460D4616460020009000BF94F8C7
:104850003C00012801D10220F8BD012084F83C0071
:1048600000BF2068806800F00100A0B9206880685F
:1048700040F00100216888603D4800683D49B0FB78
:10488000F1F000EB4000009002E00098401E009024
:1048900000980028F9D12068806800F00100002805
:1048A00064D0206C40F20161884340F48070206441
:1048B0002068406800F4806028B1206C20F400502B
:1048C00040F480502064206C00F48050B0F5805F8C
:1048D00004D1606C20F00600606401E00020606498
:1048E00000BF002084F83C0000BF234F2348A16B89
:1048F000C8632348A16B08642248A16BC8646FF0A9
:104900002200216808602068406840F080602168CB
:1049100048602068806840F4807021688860226860
:1049200002F14C0133462A46A06B00F0D9F97868B1
:1049300000F01F0058B92068806800F0405028B986
:104940002068806840F08040216888600EE00E4951
:10495000206888420AD12068806800F0405028B959
:104960002068806840F0804021688860002073E7FC
:10497000D002002040420F00002301403B0C000801
:10498000D30C0008B90C000800200140014691F842
:104990003500022803D0802048650120704705209B
:1049A00081F835000868006820F001000A6810608E
:1049B0000020F3E7F8B50446002000908C4800681A
:1049C0004FF41651B0FBF1F7A56D2E6894F85C100A
:1049D00008208840304098B12068006800F004004A
:1049E00070B12068006820F004002168086094F825
:1049F0005C1008208840A860606D40F00100606590
:104A000094F85C1001208840304068B1206840690B
:104A100000F0800040B194F85C1001208840A8604C
:104A2000606D40F00200606594F85C1004208840DE
:104A3000304068B12068006800F0020040B194F88E
:104A40005C1004208840A860606D40F00400606540
:104A500094F85C1010208840304078B320680068DB
:104A600000F0080050B394F85C1010208840A86053
:104A70002068006800F4802080B12068006800F49D
:104A8000002028B9206CC8B12046216C884715E069
:104A9000A06C98B12046A16C88470FE020680068A0
:104AA00000F4807028B92068006820F008002168B0
:104AB0000860206C10B12046216C884794F85C1087
:104AC000202088403040002865D02068006800F031
:104AD000100000285FD094F85C1020208840A86067
:104AE00094F83500052828D12068006820F01600C9
:104AF000216808602068406920F0800021684861D2
:104B0000206C08B9A06C28B12068006820F008006B
:104B10002168086094F85C103F208840A86000BFBE
:104B2000002084F8340000BF012084F83500206D97
:104B300010B12046216D8847F8BD2068006800F458
:104B4000802080B12068006800F4002028B9606CE3
:104B500010B12046616C88471DE0E06BD8B120465B
:104B6000E16B884717E02068006800F4807068B93E
:104B70002068006820F010002168086000BF002055
:104B800084F8340000BF012084F83500E06B10B1D8
:104B90002046E16B8847606D38B3606D00F001001E
:104BA000F0B1052084F835002068006820F001008D
:104BB0002168086000BF0098401C0090B84200D9EE
:104BC00005E02068006800F001000028F3D100BF74
:104BD00000BF002084F8340000BF012084F83500B5
:104BE000E06C10B12046E16C884700BFA4E70000EC
:104BF000D00200202DE9F0410446002500F064FABF
:104C0000074614B90120BDE8F081606A00B100BF19
:104C100000BF002084F8340000BF022084F8350073
:104C20002068006820F00100216808600AE000F0B8
:104C30004BFAC01B052805D920206065032084F8A5
:104C40003500E0E72068006800F001000028EED1A0
:104C50002068056821480540D4E901010843E1685E
:104C600008432169084361690843A1690843E16970
:104C70000843216A08430543606A042803D1D4E944
:104C80000B0108430543206805602068456925F04D
:104C90000705606A0543606A04280DD1A06A0543D0
:104CA000E06A48B12046FEF76DFC28B140206065FF
:104CB000012084F83500A6E7206845612046FEF70C
:104CC00047FC064694F85C103F208840B060002006
:104CD0006065012084F83500002094E73F8010F0E3
:104CE0002DE9F04704460D4616461F464FF00008D2
:104CF000D4F8589000BF94F83400012802D1022063
:104D0000BDE8F087012084F8340000BF94F8350036
:104D100001282BD1022084F83500002060653B4635
:104D2000324629462046FEF782FC94F85C103F206C
:104D30008840C9F808002068006840F01600216823
:104D400008602068406940F0800021684861206C5C
:104D500028B12068006840F00800216808602068D9
:104D6000006840F001002168086006E000BF0020F4
:104D700084F8340000BF4FF002084046C0E700004E
:104D8000F0B50C46002500220023002181E0012619
:104D900006FA01F504EA0502AA4279D13F4E8F08CE
:104DA00056F827308E07370F0F26BE4033403C4E53
:104DB000B04201D1002614E03A4EB04201D10126A2
:104DC0000FE0394EB04201D102260AE0374EB04220
:104DD00001D1032605E0364EB04201D1042600E0A1
:104DE00007268F073F0FBE409E4222D18E07370F06
:104DF0000F2606FA07F3294E8F0856F827609E43C0
:104E0000264F4FEA910C47F82C602A4E366896439D
:104E1000284F3E603E1D366896433F1D3E603E1D56
:104E2000366896433F1D3E603E1D366896433F1DE3
:104E30003E6006684FEA410C032707FA0CF7BE43B1
:104E40000660CF0800F1200656F827604F074FEAAA
:104E5000D76C0F2707FA0CF7BE434FEAD10C00F1CD
:104E6000200747F82C6086684FEA410C032707FAB1
:104E70000CF7BE438660466801278F40BE434660FC
:104E8000C6684FEA410C032707FA0CF7BE43C66019
:104E9000491C1029FFF47BAFF0BD00000838014029
:104EA000000002400004024000080240000C0240E2
:104EB00000100240003C01407047000010B504465D
:104EC00004480068204020B1024804602046FFF7F3
:104ED000F3FF10BD143C0140F8B503460A46002517
:104EE000002400200021CDE0012606FA01F5166815
:104EF00006EA0504AC4273D15668022E02D0566809
:104F0000122E13D1CF0803F1200656F827004E07C2
:104F1000F70E0F26BE40B0434F07FF0E1669BE4086
:104F20003043CF0803F1200646F8270018684F00E9
:104F30000326BE40B043167906F003064F00BE407C
:104F4000304318605668012E08D05668022E05D0EE
:104F50005668112E02D05668122E13D198684F0051
:104F60000326BE40B0434F00D668BE403043986031
:104F7000586801268E40B0431679C6F300168E405D
:104F800030435860D8684F000326BE40B0434F00FE
:104F90009668BE403043D860566806F08056B6F139
:104FA000805F6ED100BF00260096384E366846F40A
:104FB0008046364F3E603E46366806F48046009690
:104FC00000BF00BF324E8F0856F827008E07370FFC
:104FD0000F26BE40B0432F4EB34202D1002615E04B
:104FE0004FE02D4EB34201D101260FE02B4EB342CC
:104FF00001D102260AE02A4EB34201D1032605E080
:10500000284EB34201D1042600E007268F073F0F48
:10501000BE4030431E4E8F0846F82700224E3068AF
:10502000A043566806F48036B6F5803F00D1204391
:105030001D4E3060361D3068A043566806F40036B9
:10504000B6F5003F00D12043174E361D3060361DA7
:105050003068A043566806F48016B6F5801F00D16C
:105060002043114E08363060361D3068A043566824
:1050700006F40016B6F5001F00D120430A4E0C3688
:105080003060491C1029FFF42FAFF8BD44380240AE
:1050900008380140000002400004024000080240BD
:1050A000000C024000100240003C0140024613691F
:1050B0000B400BB1012000E0002070470AB1816174
:1050C00001E00B04836170470148006870470000ED
:1050D000C402002010B504460CB9012010BD2420E4
:1050E00084F83D002068006820F001002168086015
:1050F000204600F0E1FD0020206484F83D0020639C
:1051000084F83E0000BF84F83C0000BF00BFE5E724
:1051100070B504460CB9012070BD94F83D0028B963
:10512000002084F83C00204600F0DEFD242084F8B6
:105130003D002068006820F00100216808602068B8
:10514000006840F40040216808602068006820F48E
:1051500000402168086000F0A7FF05465C496068D0
:10516000884206D85B48854201D2012007E0002032
:1051700005E05948854201D2012000E000200128C5
:1051800000D1C9E75548B5FBF0F62068406820F02B
:105190003F003043216848604D496068884201D82B
:1051A000701C07E04FF4967070434FF47A71B0FBB7
:1051B000F1F0401C2168096A21F03F010843216891
:1051C000086243496068884214D8681E61684900D3
:1051D000B0FBF1F0401CC0F30B00042801D2042006
:1051E0003DE0681E61684900B0FBF1F0401CC0F36F
:1051F0000B0034E0A06838B9681E616801EB41011A
:10520000B0FBF1F0401C0AE0681E616801EBC102CE
:1052100002EB0111B0FBF1F0401C40F48040C0F300
:105220000B0008B901201AE0A06848B9681E61683F
:1052300001EB4101B0FBF1F0401CC0F30B000CE0AE
:10524000681E616801EBC10202EB0111B0FBF1F0D5
:10525000401CC0F30B0040F4804040F40040216843
:10526000C9694CF6FF72914308432168C861D4E9CB
:10527000070108432168096821F0C001084321683B
:105280000860D4E9031008432168896848F2FF32B6
:105290009143084321688860D4E9050108432168E7
:1052A000C96821F0FF0108432168C86020680068D0
:1052B00040F001002168086000202064202084F86C
:1052C0003D000020206384F83E0000BF24E700007A
:1052D000A086010080841E0000093D0040420F00AE
:1052E0002DE9F84F04460F4690461E46FFF7ECFEA8
:1052F00005464FF0010994F83D0020287DD119237F
:10530000012262492046009502F0D4F810B1022033
:10531000BDE8F88F00BF94F83C00012801D10220BD
:10532000F6E7012084F83C0000BF2068006800F028
:10533000010028B92068006840F001002168086079
:105340002068006820F4006021680860242084F848
:105350003D00002020644E48E06200BF20680068E5
:1053600040F4807021680860334600224FF001113C
:105370002046009502F09EF848B12068006800F4CD
:10538000807010B14FF4007020640320C0E707F074
:10539000FE0021680861FFF797FE05462068406916
:1053A000C0F3400A20684069C0F3802B10E0FFF78B
:1053B0008BFE401BB04200D816B9A02084F83D00F7
:1053C00020684069C0F3400A20684069C0F3802B20
:1053D00094F83D00A02805D0BAF1000F02D1BBF12E
:1053E000000FE4D0202084F83D0020684069C0F31D
:1053F000400028B32068006800E044E040F40070FA
:105400002168086000BF002000902068406900907B
:1054100020688069009000BF00BF192301221B494A
:105420002046009502F046F808B1012070E72020E0
:1054300084F83D0000BF002084F83C0000BF67E70F
:105440002068006840F40070216808606FF4806094
:1054500021684861192301220C492046009502F079
:1054600029F808B1012053E709F10109C145FFF40A
:1054700075AF202084F83D0000BF002084F83C0078
:1054800000BF012044E7022042E7000002001000B4
:105490000000FFFF2DE9F843044689461746984669
:1054A000089EFFF711FE054694F83D0020287DD1A7
:1054B00019230122B2492046009501F0FBFF10B1EB
:1054C0000220BDE8F88300BF94F83C00012801D118
:1054D0000220F6E7012084F83C0000BF2068006845
:1054E00000F0010028B92068006840F00100216840
:1054F00008602068006820F40060216808602220AD
:1055000084F83D00102084F83E000020206467628B
:10551000A4F82A80608D20859A48E0622B463246A6
:105520004946204601F0A2FE08B10120C9E7208DBE
:1055300088B900BF00200090206840690090206872
:105540008069009000BF00BF2068006840F40070D0
:105550002168086047E0208D012817D12068006885
:1055600020F480602168086000BF0020009020685F
:105570004069009020688069009000BF00BF2068EB
:10558000006840F40070216808602CE0208D02283B
:1055900018D12068006820F48060216808602068C5
:1055A000006840F400602168086000E0E6E000BFA9
:1055B0000020009020684069009020688069009079
:1055C00000BF10E02068006840F480602168086037
:1055D00000BF00200090206840690090206880692A
:1055E000009000BF00BFBAE0208D03287ED8208D38
:1055F000012815D12A463146204602F000F808B1AC
:1056000001205EE720680069616A0870606A401CDA
:105610006062208D401E2085608D401E60859EE06A
:10562000208D02282AD13346002257492046009572
:1056300001F040FF08B1012043E72068006840F412
:1056400000702168086020680069616A0870606AFB
:10565000401C6062208D401E2085608D401E60854C
:1056600020680069616A0870606A401C6062208D71
:10567000401E2085608D401E608570E0334600220C
:1056800041492046009501F015FF08B1012018E7B7
:105690002068006820F48060216808602068006944
:1056A000616A0870606A401C6062208D401E20851F
:1056B000608D401E608533460022334920460095A8
:1056C00001F0F8FE08B10120FBE62068006840F414
:1056D00000702168086020680069616A0870606A6B
:1056E000401C6062208D401E208500E010E0608D2F
:1056F000401E608520680069616A0870606A401C0D
:105700006062208D401E2085608D401E608526E0F1
:105710002A463146204601F072FF08B10120D0E64A
:1057200020680069616A0870606A401C6062208DB0
:10573000401E2085608D401E608520684069C0F352
:10574000800060B120680069616A0870606A401C6E
:105750006062208D401E2085608D401E6085208DFA
:1057600000287FF441AF202084F83D00002084F819
:105770003E0000BF84F83C0000BFA2E60220A0E685
:10578000020010000000FFFF040001002DE9F84FA7
:105790000446894617469846DDE90AAB0C9EFFF79A
:1057A00093FC054694F83D0020287DD11923012261
:1057B000E2492046009501F07DFE10B10220BDE8CF
:1057C000F88F00BF94F83C00012801D10220F6E7D1
:1057D000012084F83C0000BF2068006800F0010050
:1057E00028B92068006840F001002168086020683E
:1057F000006820F4006021680860212084F83D00E2
:10580000102084F83E00002020646762A4F82A80FB
:10581000608D2085CA48E0622B46324649462046C4
:1058200001F0BCFD00BF002000902068406900909E
:1058300020688069009000BF00BF44E02A463146DE
:10584000204601F01CFF50B1206C042805D12068CF
:10585000006840F40070216808600120AFE7606ACA
:10586000007821680861606A401C6062608D401E9B
:105870006085208D401E208520684069C0F380002F
:1058800070B1208D60B1606A007821680861606A3B
:10589000401C6062608D401E6085208D401E20850A
:1058A0002A463146204600E045E101F0D5FD50B1E1
:1058B000206C042805D12068006840F4007021683D
:1058C000086001207BE7208D0028B7D1222084F8D2
:1058D0003D00102084F83E0000202064C4F824A07D
:1058E000A4F82AB0608D20859548E0622B463246A8
:1058F0004946204601F0BAFC08B101205FE7208D3F
:1059000088B900BF0020009020684069009020689E
:105910008069009000BF00BF2068006840F40070FC
:105920002168086045E0208D012817D120680068B3
:1059300020F480602168086000BF0020009020688B
:105940004069009020688069009000BF00BF206817
:10595000006840F40070216808602AE0208D022869
:1059600016D12068006820F48060216808602068F3
:10597000006840F400602168086000BF00200090CB
:1059800020684069009020688069009000BF10E0A6
:105990002068006840F480602168086000BF002033
:1059A000009020684069009020688069009000BFE6
:1059B00000BFB1E0208D03287ED8208D012815D1AD
:1059C0002A463146204601F01AFE08B10120F6E6CB
:1059D00020680069616A0870606A401C6062208DFE
:1059E000401E2085608D401E608595E0208D022838
:1059F0002AD13346002253492046009501F05AFD32
:105A000008B10120DBE62068006840F400702168DE
:105A1000086020680069616A0870606A401C606202
:105A2000208D401E2085608D401E608520680069A5
:105A3000616A0870606A401C6062208D401E20858B
:105A4000608D401E608567E0334600223D49204658
:105A5000009501F02FFD2068006820F48060216827
:105A6000086020680069616A0870606A401C6062B2
:105A7000208D401E2085608D401E608533460022AB
:105A800030492046009501F015FD2068006840F47B
:105A900000702168086020680069616A0870606AA7
:105AA000401C6062208D401E2085608D401E6085F8
:105AB00020680069616A00E00AE00870606A401CC2
:105AC0006062208D401E2085608D401E608523E031
:105AD0002A463146204601F092FD20680069616A3D
