:020000040800F2
:1000000020DC0020AD01000865990008E5690008C2
:100010007195000875170008E1C80008000000008D
:10002000000000000000000000000000C5A600085D
:10003000392F000800000000919A000865B80008F8
:10004000C7010008C7010008C7010008C701000870
:10005000C7010008C7010008593000086D300008CA
:10006000C701000881300008C7010008C701000867
:10007000C7010008C7010008C7010008C701000840
:10008000C7010008812D0008E10C000800000000F5
:100090000000000000000000000000009530000893
:1000A000C7010008C7010008C7010008C701000810
:1000B000C7010008C701000821BB0008C7010008EC
:1000C000C7010008C7010008C7010008C7010008F0
:1000D000C70100087DC800088DC8000800000000A6
:1000E000C7010008C7010008C701000800000000A0
:1000F000000000000000000000000000C701000830
:1001000000000000C7010008C7010008C70100087F
:1001100000000000000000000000000000000000DF
:10012000992D0008C7010008C7010008C701000891
:10013000C7010008000000000000000000000000EF
:10014000000000000000000000000000C7010008DF
:10015000C7010008A92D0008B92D00089DC8000896
:10016000C7010008C70100080000000000000000EF
:10017000000000000000000000000000000000007F
:1001800000000000C701000800000000000000009F
:10019000C7010008C7010008DFF80CD000F05EFCC2
:1001A00000480047C9F6000820DC002006488047C8
:1001B00006480047FEE7FEE7FEE7FEE7FEE7FEE74C
:1001C000FEE7FEE7FEE7FEE741BA000899010008F6
:1001D0002DE9F05F0546002092469B46884606467C
:1001E000814640241BE0284641464746224600F00F
:1001F00020F853465A46C01A914110D3114618466A
:10020000224600F09BFA2D1A67EB01084F46224662
:100210000120002100F092FA17EB00094E41201E48
:10022000A4F10104DFDC484631462A464346BDE8D6
:10023000F09F202A04DB203A21FA02F000217047C7
:1002400021FA02F3D040C2F120029140084319463E
:1002500070472DE9FE43994615468846074601AC8E
:10026000022942D3002D40D000200290A8F10100C5
:100270004FF0FF36009022E000FB057201FB057095
:1002800011464A469047002805DC54F826003044C1
:1002900044F8260013E060682A4600FB057154F814
:1002A000040C00FB057007E00B7890F800C001F823
:1002B00001CB00F8013B521E002AF5D1764254F8DA
:1002C000040C61688842D7DC4B462A463846FFF763
:1002D000C0FF54F8040C4B46A8EB0001401C00FB87
:1002E00005702A46491EFFF7B4FFBDE8FE83D2B26F
:1002F00001E000F8012B491EFBD270470022F6E70F
:1003000010B513460A4604461946FFF7F0FF20468B
:1003100010BD421E12F8013F002BFBD111F8013B2A
:1003200002F8013B002BF9D17047421C10F8011B69
:100330000029FBD1801A704710B5002200E0521C42
:10034000835C8C5CA34201D1002BF8D1D8B2E1B21E
:10035000401A10BD034611F8012B00F8012B002AAA
:10036000F9D11846704770B506460CF037FB0468A3
:1003700005460A220021304600F001FA2C6070BDCB
:100380002DE9FE4F804681EA0300C00F0C46009025
:1003900021F0004123F00045B8EB0200A94105D24D
:1003A0004046214690461C460B46024623F000403C
:1003B000104347D0270DC7F30A00C3F30A51029038
:1003C000401A019040286BDAC3F3130040F4801BFD
:1003D0000098924620B10023D2EB030A63EB0B0B8B
:1003E00001985946C0F14002504600F0A7F9064670
:1003F0000D4650465946019A00F0AFF910EB08003F
:100400006141002487EA115284EAE7731A4340D01D
:10041000009A62B3019A012A4FEA075215DC001BC9
:1004200061EB02014FF0004202EA0752CDE90042BF
:10043000001C41F5801132462B4600F01EFA03B035
:10044000BDE8F08F40462146F9E7001B61EB020151
:10045000001C41F5801300185B412018A2F500171D
:1004600047EB030140EAD570B6196D4111E06D0804
:100470004FEA360645EAC0754FEA0752001B61EBAA
:100480000201001C41F5801149084FEA30000019B3
:10049000514132462B4603B0BDE8F04F00F0DEB9C3
:1004A0000098012240000023D0EB020263EBE073CE
:1004B000009821464FEAE074B8EB000061EB0401BC
:1004C000E9E783F000435BE781F0004158E72DE95D
:1004D000FE4F81EA030404F0004421F0004100943F
:1004E0004FF0000B23F0004350EA01045ED052EAC3
:1004F00003045BD0C3F30A54C1F30A552C44A4F29D
:10050000F3340194A0FB0254C1F3130141F48011B0
:10051000C3F3130343F4801301FB024400FB034EB7
:10052000840A970A44EA815447EA8357A4FB076880
:1005300002958D0A05FB07854FEA932C04FB0C54AA
:100540002705029D4FEA065847EA1637B5EB08051E
:100550006EEB070C870E920E47EA811742EA831270
:10056000A7FB0201B6EB0B0164EB00042B0D43EA81
:100570000C335E1844EB1C50DA465146E7FB02018F
:10058000C5F313044FEA0B3343EA14534FEA043222
:10059000019C43EA0603A4F10C040294009CCDE9FB
:1005A00000B400F06AF903B0BDE8F08F0020014606
:1005B000F9E72DE9F04D81EA030404F0004B21F046
:1005C000004514464FF0000A23F0004150EA0502AE
:1005D00020D054EA01021DD0C5F30A570246C5F3E4
:1005E0001303C1F31300C1F30A5640F4801543F41A
:1005F0008013A7EB0608101BD64608F2FD3873EBF4
:10060000050002D308F1010801E092185B41B8F13E
:10061000000F03DA00200146BDE8F08D00204FF402
:100620008011064684460EE0171B73EB050705D3C1
:10063000121B63EB050306434CEA010C49084FEA21
:10064000300092185B4150EA0107EDD152EA0300F5
:1006500012D082EA040083EA0501084305D0101B8A
:10066000AB4106D20122002306E000224FF00043F6
:1006700002E06FF0010253101AEB06004CEB085138
:1006800010EB0A0041EB0B01BDE8F04D00F0E6B8BD
:100690000EB5C10F80EAE0700844CA07002140F29D
:1006A00033438DE80E000A460B4600F0E6F803B02F
:1006B00000BD00F0004230F000400AD0C10D01F54D
:1006C0006071C0F3160042EA0151C20840071143AD
:1006D000704700200146704701F0004330B421F01C
:1006E000004150EA010206D00A0DA2F56072C1F382
:1006F0001301002A02DC30BC00207047440F44EA9A
:10070000C104C100E01830BC00EBC25000F06FB86B
:1007100030B50B46014600202022012409E021FAD1
:1007200002F59D4205D303FA02F5491B04FA02F5CE
:100730002844151EA2F10102F1DC30BD202A04DBA1
:10074000203A00FA02F1002070479140C2F12003E4
:1007500020FA03F3194390407047202A06DBCB1799
:10076000203A41FA02F043EAE07306E041FA02F36C
:10077000D040C2F1200291400843194670472DE94C
:10078000F04791460F4680460446002614F8015B68
:100790002DB100F075F90068405DC007F6D12B2D32
:1007A00002D02D2D18D0641E4A463946204600F04E
:1007B0006BF927B13968A14201D1C7F800807105F2
:1007C0004FF002040BD54042002803DD0CF006F97F
:1007D0000460A007BDE8F08746F48066E4E70028DF
:1007E000F8DA0CF0FBF804606FF00040F2E7002943
:1007F000A8BF7047401C490008BF20F001007047A7
:1008000010B4B0FA80FC00FA0CF050EA010404BF06
:1008100010BC704749B1CCF1200421FA04F411FA5C
:100820000CF118BF012121430843A3EB0C01CB1DA0
:100830004FEA00614FEA102042BF002010BC704711
:1008400000EBC35010440029A4BF10BC7047401CEB
:10085000490008BF20F0010010BC704710B5141EFD
:1008600073F1000408DA401C41F1000192185B4169
:100870001A4301D120F0010010BD2DE9F04D924640
:100880009B4611B1B1FA81F202E0B0FA80F2203257
:100890009046FFF753FF04460F4640EA0A0041EA3C
:1008A0000B0153465A46084313D0114653EA010040
:1008B00019D0C8F140025046FFF7BBFC05460E4672
:1008C000504659464246FFF739FF084305D00120FC
:1008D00004E020463946BDE8F08D0020054346EA95
:1008E000E0762C4337430A986305E40AA0EB08003E
:1008F0000022FD0A44EA47540A3002D5002001468E
:10090000E9E7010510196941DDE908450019694168
:10091000BDE8F04DA2E770B521F0004303430CD0D1
:10092000C1F30A550024D5EB040564EB0403D61784
:10093000AD1AB34102DB0020014670BD201841EB27
:10094000025170BD2DE9F041054621F000400C46F2
:10095000284309D0C4F30A5040F23341884205DDF0
:1009600028462146BDE8F0812846FBE740F2FE31EB
:10097000884210DC0CDB4FEA043040EA155050EAA4
:10098000053105D0104804F0004101430020E9E79B
:1009900000200146E6E7A0F233404642C6F140029D
:1009A00028462146FFF7CAFE0746884628462146C4
:1009B0003246FFF73EFC43463A46FFF74FFF3246CA
:1009C000BDE8F041FFF7BABE0000F03FC1F30A52A4
:1009D000C1F3130140F2FF3341F480119A4202DA6D
:1009E00000200146704740F233439A42A2F233425C
:1009F00002DC5242FFF71DBCFFF7A0BE30B5041E5B
:100A000071F1000404DB4FF00044404264EB01014B
:100A1000141E73F1000405DB1C464FF000435242E4
:100A200063EB04038B4208BF824230BD30B5041E25
:100A300071F1000404DB4FF00044404264EB01011B
:100A4000141E73F1000405DB1C464FF000435242B4
:100A500063EB0403994208BF904230BD064C074D3A
:100A600006E0E06840F0010394E80700984710347E
:100A7000AC42F6D3FFF794FBD40D0108F40D010846
:100A8000004870474C0B01082DE9F05F8246007862
:100A9000002715468B460AF10104B946302801D0DB
:100AA0009DB113E014F8010B0127782803D05828D2
:100AB00001D045B10AE00DB1102D07D10027102556
:100AC00014F8010B02E0082500E00A250026B046D4
:100AD0000EE005FB080005FB06F1012701EB1046BF
:100AE0001FFA80F8B6F5803F00D3B94614F8010B21
:100AF000294600F069F80028EBDABBF1000F05D0B9
:100B00000FB1641E00E05446CBF80040B9F1000F6D
:100B100006D00BF063FF02210160C81EBDE8F09F04
:100B200048EA0640FAE72DE9F04D00231A461B1A61
:100B30008A4103DB00200146BDE8F08DC1F30A5273
:100B4000C1F3130141F480154FF0000BD10702D11E
:100B500000186D41521E0027044640F2FF1138462E
:100B600001EB620A3E468046024600204FF48011A7
:100B7000FFF75FFBC2197141BB1846EB0100B4EBF4
:100B8000030C75EB000C04D3E41A65EB0005174663
:100B90000E46241908F101006D4180463428E3DD3A
:100BA000F91946EB0600091BA84103D24FF0FF32AA
:100BB000134601E0002213461BEB070046EB0A51E7
:100BC000BDE8F04DFFF74ABE3A2800D2303820F099
:100BD0002002412A01D3A2F13700884201D34FF00D
:100BE000FF30704770B58C1810F8015B15F00703E3
:100BF00001D110F8013B2A1106D110F8012B03E0B6
:100C000010F8016B01F8016B5B1EF9D12B0705D4BD
:100C10000023521E0DD401F8013BFAE710F8013B06
:100C2000CB1A921C03E013F8015B01F8015B521E22
:100C3000F9D5A142D8D3002070BD70B50546AC6B84
:100C4000206C00F0500050BB206C40F40070206419
:100C50002068806800F04050E8B9207ED8B920684C
:100C6000C06A00F4700020B12068806800F48060E1
:100C700088B92068406820F0200021684860206C16
:100C800020F480702064206C00F4805018B9206C2F
:100C900040F001002064204603F04EF80BE0206C89
:100CA00000F0100018B1204603F04FF803E0A06BED
:100CB000C16C2846884770BD70B50546AC6B4020B6
:100CC0002064606C40F004006064204603F03DF84E
:100CD00070BD70B50446A56B284603F035F870BDAD
:100CE00010B5034803F032F801200249087010BD26
:100CF000B0020020C800002055494A6822F4403262
:100D00004A604A6843681A434A600268526822F49B
:100D1000807203685A6002685368026943EA0222DB
:100D200003685A600268526822F0407203685A6091
:100D30000268526883681A4303685A6002689268BE
:100D400022F4006203689A6002689268C3681A43DA
:100D500003689A603F4B826A9A4218D00268926890
:100D600022F0706203689A6002689268836A1A438C
:100D700003689A600268926822F0405203689A60A1
:100D800002689268C36A1A4303689A600BE00268BB
:100D9000926822F0706203689A600268926822F09A
:100DA000405203689A600268926822F00202036867
:100DB0009A6002689368027E43EA420203689A607E
:100DC0002022125CA2B10268526842F400620368F9
:100DD0005A600268526822F4604203685A600268EE
:100DE0005368426A521E43EA423203685A6005E081
:100DF0000268526822F4006203685A600268D26A8C
:100E000022F470020368DA620268D36A828B521E8F
:100E100043EA02520368DA620268926822F40072BE
:100E200003689A600268936890F8302043EA42228F
:100E300003689A600268926822F4806203689A608C
:100E400002689368426943EA822203689A607047A5
:100E5000002301400100000F10B52DED088BB0EE0E
:100E6000408AF0EE608A9FED100B53EC102B51EC92
:100E7000180BFFF726FB41EC1B0B9FED0D0B53EC02
:100E8000102BFFF796FB41EC1A0B9FED0B0B53EC6D
:100E9000102BFFF775FA41EC190BB0EE490AF0EE92
:100EA000690ABDEC088B10BD52B81E85EB51E83FB6
:100EB0007B14AE47E17A643F000000000000394037
:100EC00010B52DED088B00209349086093480088E9
:100ED00000EE100AB8EE400A10EE101A0846FFF7AE
:100EE000E8FB41EC1B0B9FED8E0B53EC102BFFF737
:100EF000EEFA41EC1A0B9FED8C0B53EC102BFFF725
:100F000058FB41EC190B9FED8A0B53EC102BFFF7AC
:100F1000DEFA41EC180BFFF7DFFB874908607F48DA
:100F2000408800EE100AB8EE400A10EE101A08468B
:100F3000FFF7BFFB41EC1B0B9FED790B53EC102B24
:100F4000FFF7C5FA41EC1A0B9FED770B53EC102B12
:100F5000FFF72FFB41EC190B9FED750B53EC102B9A
:100F6000FFF7B5FA41EC180BFFF7B6FB7249486082
:100F70006A48808800EE100AB8EE400A10EE101A97
:100F80000846FFF796FB41EC1B0B9FED650B53ECFE
:100F9000102BFFF79CFA41EC1A0B9FED680B53ECFA
:100FA000102BFFF794FA41EC190B9FED5F0B53ECFC
:100FB000102BFFF7FEFA41EC180BFFF78DFB5E4993
:100FC00088605648C08800EE100AB8EE400A10EE5D
:100FD000101A0846FFF76DFB41EC1B0B9FED500B01
:100FE00053EC102BFFF773FA41EC1A0B9FED4E0BED
:100FF00053EC102BFFF7DDFA41EC190B9FED4C0B76
:1010000053EC102BFFF763FA41EC180BFFF764FB6E
:101010004949C8604148008900EE100AB8EE400A0C
:1010200010EE101A0846FFF744FB41EC1A0B9FED37
:101030003C0B53EC102BFFF74AFA41EC190B9FEDD8
:101040003A0B53EC102BFFF7B4FA41EC180BFFF7F7
:1010500043FB394908613BA00BF04CF83648D0ED12
:10106000000AB0EE600A3BA00DF040FC3248D0ED23
:10107000010AB0EE600A3BA00DF038FC2E48D0ED1E
:10108000020AB0EE600A3BA00DF030FC2A48D0ED19
:10109000030AB0EE600A3BA00DF028FC264890ED54
:1010A000040A10EE101A0846FFF703FB41EC1A0B76
:1010B000B0EE4A0AF0EE6A0AFFF7CEFEB0EE409AB2
:1010C000F0EE609A51EC190BFFF706FB08EE100AE0
:1010D000B0EE480A2FA00DF009FC32A00BF00AF880
:1010E0000E4801881BA00FF00DFA0C4841881DA086
:1010F0000FF008FA094881881EA00FF003FA07488C
:10110000C18820A00FF0FEF90448018921A00FF04A
:10111000F9F9BDEC088B10BDF40100205807002040
:101120006666666666660A40000000000000B04021
:101130000000000000000040640700205DBF603731
:101140006CDB16400D0A2D2D2D2D2D2D2D2D2D0D49
:101150000A000000616463305F352E305620202085
:1011600020203A00616463315F332E335620202003
:1011700020203A00616463325F3132562020202003
:1011800020203A00616463335F332E3356202020E1
:1011900020203A0074656D705F73656E7328D129E5
:1011A00020203A000D0D0D002DE9F04105460E46B8
:1011B00014460027B846D4F800800CE004F108007B
:1011C00000EBC70006C885EA010086EA0201084371
:1011D00000D102E07F1C022FF0D300BF022F09D103
:1011E000B8F1020F06D10CA00AF084FF0027C4E971
:1011F00002560EE0022F0CD10FA00AF07BFF04F183
:101200000800216800EBC10060C027682068401C0E
:1012100020603846BDE8F081CFF0E5E2FBF8E5ED6F
:10122000EE20F7E8F1EBEE20CED2CFD0C0C2C8D28C
:10123000C5CBC5C9210D0A00CDEEE2FBE920E0E4F3
:10124000F0E5F1210D0A0000002024490968234A35
:101250009269914201D940F0010021490968204A70
:101260009269914201D940F002001E4909681D4A65
:101270009269914201D940F004001B4909681A4A59
:101280009269914201D940F0080018490968174A4B
:101290009269914201D940F0100015490968144A39
:1012A0009269914201D940F0200012490968114A1F
:1012B0009269914201D940F040000F4909680E4AF5
:1012C0009269914201D940F0800018B102210B4A85
:1012D000117002E00121094A11707047F82F0020B7
:1012E0000831002018320020283300203834002034
:1012F000483500205836002068370020F0000020D4
:10130000010E044A1170010C5170010A9170D070E5
:1013100070470000000100200020A34991F84030F0
:101320000246401CA1498B549F49B1F842100B1250
:101330000246401C9D498B549B4991F8423002461D
:10134000401C9A498B549849496C0B0E0246401C2C
:1013500096498B549449496CC1F307430246401C9B
:1013600092498B549049B1F84410C1F307230246C7
:10137000401C8E498B548C4991F844300246401CE5
:101380008A498B548849896C0B0E0146421CD0B2A5
:10139000864A53548449896CC1F307430146421C71
:1013A000D0B2824A53548049B1F84810C1F30723A0
:1013B0000146421CD0B27D4A53547B4991F84830D3
:1013C0000146421CD0B2794A53547749C96C0B0E7E
:1013D0000146421CD0B2754A53547349C96CC1F3DB
:1013E00007430146421CD0B2704A53546E49B1F8CB
:1013F0004C10C1F307230146421CD0B26B4A535430
:10140000694991F84C300146421CD0B2674A5354A6
:101410006549096D0B0E0146421CD0B2634A535414
:101420006149096DC1F307430146421CD0B25F4ACE
:1014300053545D49B1F85010C1F307230146421CD3
:10144000D0B25A4A5354584991F850300146421C80
:10145000D0B2564A5354544991F854300146421C74
:10146000D0B2524A53545049896D0B0E0146421C6A
:10147000D0B24E4A53544C49896DC1F307430146DB
:10148000421CD0B2494A53544749B1F85810C1F3ED
:1014900007230146421CD0B2444A5354424991F8B2
:1014A00058300146421CD0B2404A53543E49496E1E
:1014B0000B0E0146421CD0B23C4A53543A49496E85
:1014C000C1F307430246411CC8B238498B54364920
:1014D000B1F86410C1F307230146421CD0B2334A6D
:1014E0005354314991F864300146421CD0B22F4A1E
:1014F00053542D4A116E92F86420090E41EA0221DC
:10150000CBB20146421CD0B2284A535426490A6E37
:1015100091F864100B0443EA1241CBB20146421C1D
:10152000D0B2224A5354204A603211881279090AF3
:1015300041EA0261CBB20146421CD0B21B4A53546D
:10154000194991F860300146421CD0B2174A5354F1
:101550001549896E0B0E0146421CD0B2134A5354F2
:101560001149896EC1F307430146421CD0B20F4AAC
:1015700053540D49B1F86810C1F307230146421CCA
:10158000D0B20A4A5354084991F868300146421CC7
:10159000D0B2064A5354044991F86C300146421CBB
:1015A000D0B2024A5354704778380020ACA80020CB
:1015B00010B50446D4B900201D4981F84000FF2031
:1015C00008F004FA012211031A4803F055F94FF408
:1015D0007A701949086019480078002827D118A0A6
:1015E0000AF088FD01201549087020E012480068C3
:1015F000E8B912480078012819D10D4981F8400056
:1016000000200E49087000224FF48051094803F071
:1016100033F911A00AF06EFD14A005F02DFD17A0FE
:1016200005F02AFD4FF47A61184802F047FA10BD20
:1016300078380020000C024020000020F901002032
:10164000C2FBEAEBFEF7E0E5EC20CFC8D2C0CDC884
:10165000C5210D0A00000000C2EAEBFEF7E0E5EC50
:1016600020CFC8D2C0CDC8C5210D0A007E30207061
:1016700077725F3037323A303B0000007E302065B1
:101680006E61626C655F6C6D3A313B0068010020F1
:1016900030B585B00546002420222046641C0DF894
:1016A00000207E222046641C0DF8002005F1300049
:1016B000C2B22046641C0DF8002020222046641C83
:1016C0000DF8002072222046641C0DF800207322C1
:1016D0002046641C0DF8002034222046641C0DF8BE
:1016E000002038222046641C0DF8002035222046B8
:1016F000641C0DF800205F222046641C0DF80020B9
:1017000074222046641C0DF8002065222046641CCB
:101710000DF8002073222046641C0DF8002074226E
:101720002046641C0DF800203B222046641C0DF866
:1017300000202046641C0DF8002000222046641C76
:101740000DF8002068460AF005FD05A00AF0D2FC5D
:1017500068460AF0CFFC06A00AF0CCFC05B030BD0C
:10176000CFEEF1EBE0ED20EAEEE43A2000000000DD
:101770000D0A000000BFFEE710B502A00AF0EAFC67
:1017800010BD00007E30206574685F636F6E66690F
:10179000673B00002DE9F04F89B0054688460024DC
:1017A000A146A246A346002007900690059004900B
:1017B000039000BF029000BF81E305F1800000EBC1
:1017C000C400D0E900100123594001437DD1F3A0AA
:1017D0000AF090FCF4A00AF08DFC0120FA49087090
:1017E00055F8240000210DF03DFA814655F82400FB
:1017F00001210DF037FA824655F8240002210DF040
:1018000031FA834655F8240003210DF02BFA079096
:1018100055F8240004210DF025FA069055F824000F
:1018200005210DF01FFA059055F8240006210DF052
:1018300019FA049055F8240007210DF013FA0390CB
:1018400018F809000106002218F80A00030442EA09
:101850000200194318F80B204FEA022C024641EA15
:101860000C01079818F800000143069818F80000CA
:1018700000231B0643EA10234FEA006C42EA0C02E5
:1018800041EA0300059918F801300021090441EAF2
:10189000134C42EA034140EA0C00049A18F8023063
:1018A0000022120242EA13624FEA032C034641EA85
:1018B0000C001A43039918F801100843C34905C1E5
:1018C000C3A005F0D9FBB5A000E002E00AF012FCCD
:1018D000CEE205F1800000EBC400D0E900106423E3
:1018E0005940014315D10120B749087005F5207012
:1018F00000EBC40003C8B94ACDE90001FFF754FC6E
:1019000006460027B648C0C04146284609F0B6F84A
:10191000AEE205F1800000EBC400D0E90010C8235E
:10192000594001432ED10120A749087055F82400E1
:1019300000210DF097F9814655F8240001210DF0A2
:1019400091F9824655F8240002210DF08BF9834667
:1019500055F8240003210DF085F9079018F80900C7
:10196000000618F80A1040EA014018F80B1040EA87
:101970000120079918F801100843029002980AF014
:1019800091F875E205F1800000EBC400D0E9001089
:1019900003235940014331D101208B49087055F888
:1019A000240000210DF05EF9814655F82400012144
:1019B0000DF058F9824655F8240002210DF052F935
:1019C000834655F8240003210DF04CF9079018F8D0
:1019D0000900000618F80A1040EA014018F80B1038
:1019E00040EA0120079918F80110084302907D4948
:1019F0000298087001207C49087039E205F18000E6
:101A000000EBC400D0E900100423594001432FD15A
:101A100001206D49087055F8240000210DF022F9CD
:101A2000814655F8240001210DF01CF9824655F835
:101A3000240002210DF016F9834655F824000321F5
:101A40000DF010F9079018F80900000618F80A10B0
:101A500040EA014018F80B1040EA0120079918F8F5
:101A60000110084302900299C8B207F0AFFFFFE1EE
:101A700005F1800000EBC400D0E9001005235940B7
:101A8000014345D101205049087055F82400002138
:101A90000DF0E8F8814655F8240001210DF0E2F838
:101AA000824655F8240002210DF0DCF8834655F8F3
:101AB000240003210DF0D6F8079055F824000421E6
:101AC0000DF0D0F8069018F80A00000618F80B1070
:101AD00040EA0141079818F8000041EA0020069901
:101AE00018F801100843029018F8090001903F49C6
:101AF0000878029908F00CFC3DA00AF0FBFA44A01B
:101B000002990EF0E1FD48A001990EF0FBFCAFE157
:101B100005F1800000EBC400D0E90010062251401E
:101B200001433AD101202849087055F824000021CA
:101B30000DF098F8814655F8240001210DF092F837
:101B4000824655F8240002210DF08CF8834655F8A2
:101B5000240003210DF086F8079055F82400042195
:101B60000DF080F8069018F80A00000618F80B101F
:101B700040EA0141079818F8000041EA0021069860
:101B800018F800000143029118F809000190174964
:101B90000878029908F008FC4EE05BE00D0A2D2D54
:101BA0002D2D2D2D0D0A0000CAEEECE0EDE4E03AFB
:101BB000F3F1F2E0EDEEE2EAE020E2F0E5ECE5ED53
:101BC000E8210D0A00000000DC010020D000002008
:101BD0007E302074696D653B0000000008A700207E
:101BE000E0010020E9010020E8010020C001002000
:101BF000CFF0E8F8B8EB2049503020E4EBFF20CCE0
:101C0000E0F1F2E5F0E020303732210D0A0000006B
:101C1000EEF2EFF0E0E2EBFFE5EC20495020E0E4EB
:101C2000F0E5F13A00000000C220E1EBEEEA2030DE
:101C3000373220B900000000A4A00AF05BFAAFF22E
:101C4000300002990EF040FDAFF2240001990EF031
:101C500059FC0DE105F1800000EBC400D0E9001053
:101C60000A23594001430BD10120A0490870A0A0CC
:101C70000AF040FA4FF47A71AB4801F01FFFF7E029
:101C800005F1800000EBC400D0E900100B225140A8
:101C900001430DD1012095490870A4A00AF02AFA49
:101CA0000020AB4908700A21AA4801F007FFDFE0D5
:101CB00005F1800000EBC400D0E900100C22514077
:101CC00001430DD1012089490870A3A00AF012FA3E
:101CD0000020AA4908700A21A94801F0EFFEC7E0D8
:101CE00005F1800000EBC400D0E900100D22514046
:101CF00001430DD101207D490870A2A00AF0FAF934
:101D00000020A94908700A21A84801F0D7FEAFE0D9
:101D100005F1800000EBC40103C9C922504008430B
:101D20004ED101207149087055F8240000210CF0B3
:101D300099FF814655F8240001210CF093FF82465B
:101D400055F8240002210CF08DFF834655F824003D
:101D500003210CF087FF079055F8240004210CF0B4
:101D600081FF069018F80A00000618F80B1040EAE8
:101D70000141079818F8000041EA0020069918F878
:101D800001100843029018F809008949086089A0E9
:101D900002990EF0B7FB9DED020AB8EE400A914899
:101DA00080ED000A90ED000ADFED8F0A80EE201A28
:101DB0008E487F49096800EB810080ED001A57E0EA
:101DC00005F1800000EBC40103C9CA22504008435A
:101DD0004ED101204549087055F8240000210CF02F
:101DE00041FF814655F8240001210CF03BFF82465B
:101DF00055F8240002210CF035FF834655F82400E5
:101E000003210CF02FFF079055F8240004210CF05B
:101E100029FF069018F80A00000618F80B1040EA8F
:101E20000141079818F8000041EA0021069818F8C7
:101E300000000143029118F809005D4908606CA098
:101E400002990EF05FFB9DED020AB8EE400A65486C
:101E500080ED000A90ED000ADFED630A80EE201AA3
:101E6000624820305249096800EB810080ED001A79
:101E70001E480078012821D100201C49087005F572
:101E8000207000EBC40003C8664ACDE90001FFF7EB
:101E90008BF90646644800680021CDE9001040F245
:101EA00063107043614A02EB001103232246284667
:101EB00001F064F82146284608F058F8641C202CEC
:101EC000FFF47BAC09B0BDE8F08F0000CFF0E8F87C
:101ED000B8EB2049503120E4EBFF20CCE0F1F2E5F3
:101EE000F0E020303732210D0A000000DC01002034
:101EF000C7E0EFF0E0F8E8E2E0E5EC20EAE0F1F13D
:101F0000E5F2FB2030373220E220C0D620EDE02081
:101F1000EFF0E5E4ECE5F220E8F520E0E4F0E5F1AF
:101F2000EEE2210D0A00000068010020EDE0F7E874
:101F3000EDE0E5EC20F2E5F1F220EFF0EEE2E5F085
:101F4000EAF320F8E8EDFB20343835210D0A0000D3
:101F50003401002040010020EDE0F7E8EDE0E5EC81
:101F600020F2E5F1F220EFF0EEE2E5F0EAF320F8FE
:101F7000E8EDFB20535049210D0A000036010020F6
:101F800050010020EDE0F7E8EDE0E5EC20F2E5F1AE
:101F9000F220EFF0EEE2E5F0EAF320F8E8EDFB20C6
:101FA0004A544147210D0A003501002060010020FC
:101FB000D4010020CFF0E8EDFFF220EAEEFDF4F4CA
:101FC000E8F6E8E5EDF220EAEEF0F0E5EAF6E8E81A
:101FD00020E8E7ECE5F0E5EDE8FF20F2EEEAE03A94
:101FE00000000000D801002000007A44783800206A
:101FF000CFF0E8EDFFF220EAEEFDF4F4E8F6E8E5D4
:10200000EDF220EAEEF0F0E5EAF6E8E820E8E7ECA9
:10201000E5F0E5EDE8FF20EDE0EFF0FFE6E5EDE8C7
:10202000FF3A000008A70020D000002068390020F7
:1020300010B54FF400710C4802F016FC0B490978FA
:10204000884210D04FF40071074802F00DFC074998
:1020500008704FF40071044802F006FC0446214663
:1020600003A00EF04FFA10BD000C02400002002049
:10207000504F4B5F4844535F4F55543A00000000A7
:1020800070B50024FE48007801287DD1FD48006825
:10209000FA2879D90120FC4908700020F949086024
:1020A000012006F057FC022006F054FC032006F045
:1020B00051FC042006F04EFC052006F04BFC0620E7
:1020C00006F048FC072006F045FC082006F042FC1C
:1020D000012006F095FDED490860022006F090FD14
:1020E000EB490860032006F08BFDEA4908600420F4
:1020F00006F086FDE8490860052006F081FDE74905
:102100000860062006F07CFDE5490860072006F01F
:1021100077FDE4490860082006F072FDE249086096
:10212000DA480068A04201D9D8480468D848006855
:10213000A04201D9D6480468D6480068A04201D917
:10214000D4480468D4480068A04201D9D248046841
:10215000D2480068A04201D9D0480468D04800683D
:10216000A04201D9CE480468CE480068A04201D9F7
:10217000CC480468CC480068A04201D9CA48046829
:10218000CA49A1F8424000E0E4E10024012006F041
:10219000C3FD06460C22BD49203100F0A1FFBB491A
:1021A0008860022006F0B8FD06460C22B8492031AE
:1021B00000F096FFB6498860032006F0ADFD0646A4
:1021C0000C22B449203100F08BFFB2498860042012
:1021D00006F0A2FD06460C22AF49203100F080FF38
:1021E000AD498860052006F097FD06460C22AB49F4
:1021F000203100F075FFA9498860062006F08CFDAB
:1022000006460C22A649203100F06AFFA4498860E6
:10221000072006F081FD06460C22A249203100F07D
:102220005FFFA0498860082006F076FD06460C2274
:102230009D49203100F054FF9B4988609348806895
:10224000A04201D99148846891488068A04201D990
:102250008F4884688F488068A04201D98D4884687F
:102260008D488068A04201D98B4884688B4880687B
:10227000A04201D98948846889488068A04201D970
:102280008748846887488068A04201D98548846867
:1022900085488068A04201D98348846883484464A3
:1022A0000024012006F0EAFD06460C227749703131
:1022B00000F016FF7549C860022006F0DFFD0646F3
:1022C0000C227349703100F00BFF7149C860032084
:1022D00006F0D4FD06460C226E49703100F000FF76
:1022E0006C49C860042006F0C9FD06460C226A4904
:1022F000703100F0F5FE6849C860052006F0BEFDAB
:1023000006460C226549703100F0EAFE6349C86058
:10231000062006F0B3FD06460C226149703100F03C
:10232000DFFE5F49C860072006F0A8FD06460C22C4
:102330005C49703100F0D4FE5A49C860082006F0AC
:102340009DFD06460C225849703100F0C9FE5649E1
:10235000C8604E4AD16890680CF098FA06460C2284
:102360004A49C03100F0BCFE48494860484AD1683B
:1023700090680CF08BFA06460C224549C03100F0FB
:10238000AFFE43494860434AD16890680CF07EFA3A
:1023900006460C223F49C03100F0A2FE3D4948608C
:1023A0003D4AD16890680CF071FA06460C223A4911
:1023B000C03100F095FE38494860384AD1689068CD
:1023C0000CF064FA06460C223449C03100F088FE55
:1023D00032494860324AD16890680CF057FA064694
:1023E0000C222F49C03100F07BFE2D4948602D4A58
:1023F000D16890680CF04AFA06460C222949C0318F
:1024000000F06EFE27494860274AD16890680CF0BA
:102410003DFA06460C222449C03100F061FE2249F3
:1024200048601A4840681A49496808441949496887
:102430000844194949680844184949680844184932
:1024400049680844174949680844174949680844D5
:10245000164908650D48C068A04201D90B48C468F8
:102460000B48C068A04201D90948C4680948C0683F
:10247000A04201D90748C4680748C068A04217E0D5
:10248000E90100201800002001020020F82F0020A0
:102490000831002018320020283300203834002072
:1024A0004835002058360020683700207838002052
:1024B00001D96C48C4686C48C068A04201D96A4818
:1024C000C4686A48C068A04201D96848C4686848BE
:1024D000C068A04201D96648C4686648C068A04286
:1024E00001D96448C4686448C464644C6448C068E2
:1024F000A04201D26248C4686248C068A04201D2CA
:102500006048C4686048C068A04201D25E48C468A0
:102510005448C068A04201D25248C4685248C068BA
:10252000A04201D25048C4685048C068A04201D2BD
:102530004E48C4684E48C068A04201D24C48C468A6
:102540004C48C068A04201D24A48C4684A488464E2
:1025500000244CE04D480078002848D14C480078D1
:10256000012844D100204A490870401E44490860AF
:1025700044490860444908603A4908603A4908609B
:102580003A4908603A4908603A49086000203C49E5
:10259000C8603C49C8603C49C8603249C86032499B
:1025A000C8603249C8603249C8603249C86034499D
:1025B000886034498860344988602A4988602A499B
:1025C00088602A4988602A4988602A4988602C499D
:1025D00048602C4948602C4948602249486022499B
:1025E00048602249486022494860224948600025E5
:1025F0002148B0F8420041F28831884201DD681C70
:10260000C5B21D48406C40F6C411884201D9681C0F
:10261000C5B21948806C40F24C41884201D2681C16
:10262000C5B21548C06C40F2E241884201D9681C2D
:10263000C5B21148006D47F23051884201D9681C7B
:10264000C5B20D4890F8540008B9681CC5B225B150
:102650000020094981F86C0003E00120064981F857
:102660006C0070BD2833002038340020483500202D
:10267000583600206837002078380020A0860100F6
:10268000F82F00200831002018320020E901002036
:102690000102002010B500240A48006840F2DC5115
:1026A000884209D908480068012805D10020064958
:1026B000086006A009F01EFD034800780A4981F869
:1026C000540010BDE4000020E0000020CFD0CECFA9
:1026D000C0CB20D1C8C3CDC0CB205431485A5F4DA8
:1026E0004B2121210D0A00007838002070B50646E4
:1026F00000240025E64800F029FD68B1E5A004F0BB
:10270000BBFCE7A009F0F6FC0DF0F2FA40F6B83198
:10271000E94801F0D3F970BDE74800F017FD68B152
:10272000DCA004F0A9FC07F08BFEE4480078002848
:1027300003DDC821E24801F0C1F9ECE7E04800F010
:1027400005FD80B1D3A004F097FCDEA009F0D2FC17
:10275000E3490878E349096807F0DAFD6421E248B3
:1027600001F0ACF9D7E7E04800F0F0FC80B1C9A077
:1027700004F082FCDDA009F0BDFCD9494878E249AB
:10278000096807F0C5FD6421E04801F097F9C2E748
:10279000DE4800F0DBFC80B1BEA004F06DFCDCA0E4
:1027A00009F0A8FCCE490878E049096807F0FCFD6B
:1027B0006421DF4801F082F9ADE7DD4800F0C6FC96
:1027C00080B1B4A004F058FCDAA009F093FCC4492D
:1027D0004878DF49096807F0E7FD6421DD4801F02A
:1027E0006DF998E7DB4800F0B1FC80B1A9A004F0D6
:1027F00043FCD9A009F07EFCB9490878DF49096893
:1028000007F0EEFC6421DE4801F058F983E7DC486C
:1028100000F09CFC80B19FA004F02EFCD9A009F030
:1028200069FCAF494878DF49096807F0D9FC6421A1
:10283000DD4801F043F96EE7DB4800F087FC80B12A
:1028400094A004F019FCD9A009F054FCA44908781C
:10285000DF49096807F010FD6421DE4801F02EF918
:1028600059E7DC4800F072FC80B18AA004F004FC57
:10287000D9A009F03FFC9A494878DF49096807F078
:10288000FBFC6421DD4801F019F944E7DB4800F066
:102890005DFC40B17FA004F0EFFBD9A009F02AFC59
:1028A000FEF76AFF37E7DD4800F050FC80B14FF4D7
:1028B000FA71DB4801F002F976A004F0DDFBD9A043
:1028C00009F018FC864844782046FEF7E1FE22E72E
:1028D000D34800F03BFC002824D06EA004F0CCFBD1
:1028E000D7A009F007FCE0480078012803D1DFA059
:1028F00009F000FC10E0E1480078032809DADF481D
:102900000078401CDD4908700A21C44801F0D6F85F
:1029100002E0DBA009F0EEFB9722DE49DE4806F07C
:102920004DFBF8E6DD4800F011FCD0B10A21DC488F
:1029300001F0C4F857A004F09FFBDAA009F0DAFB1D
:102940000020DF490870664844784178DDA00DF02A
:10295000D9FD082C00D10024DC49204607F0ACFD4D
:10296000D9E6CF4800F0F2FB002825D049A004F0BA
:1029700083FBD7A009F0BEFB59484478082C00D14E
:102980000024204607F08CFD04462146DAA00DF015
:102990009BFECE48844206D1B4A009F0ABFB0120D7
:1029A000C749087002E0B6A009F0A4FB9822B94913
:1029B000B94806F003FBAEE6D14800F0C7FBB8B15A
:1029C0004FF4FA71CF4801F079F832A004F054FBCB
:1029D000CDA009F08FFB0020D149087000210846E6
:1029E0000CF0D8F904462146CEA00DF08BFD92E6FE
:1029F000C44800F0ABFB002848D026A004F03CFB04
:102A0000CAA009F077FBD3480168D3A00DF07AFD86
:102A100000251EE0294621A00DF0B0FDD4A009F04C
:102A200069FB05EB8500D34A02EB800081681BA09F
:102A30000DF062FED0A009F05DFB05EB8501CD4AEB
:102A400002EB8101C86809F055FB2EA009F052FB8A
:102A50006D1CC04800688542DCDBBE480068022867
:102A60000ED1C448C069C549884206D17FA009F08B
:102A700041FB0120AA49087002E081A009F03AFB5D
:102A800099228449844806F099FA44E600BF42E658
:102A9000680100207E302074696D653B00000000F5
:102AA000C8E4B8F220F1E1EEF020E0E4F0E5F1EE68
:102AB000E2210D0A00000000B0010020C801002042
:102AC00070010020D3F1F2E0EDE0E2EBE8E2E0E5B6
:102AD000EC20ECE0F1F2E5F020495030210D0A0045
:102AE000C00100201401002078010020D3F1F2E0A1
:102AF000EDE0E2EBE8E2E0E5EC20F1EBE5E9E220F5
:102B0000495030210D0A00002401002080010020DE
:102B1000D3F1F2E0EDE0E2EBE8E2E0E5EC20ECE01E
:102B2000F1F2E5F020495031210D0A001801002092
:102B300088010020D3F1F2E0EDE0E2EBE8E2E0E52D
:102B4000EC20F1EBE5E9E220495031210D0A0000CB
:102B50002801002090010020D3F1F2E0EDE0E2EB4B
:102B6000E8E2E0E5EC20ECE0F1F2E5F0204445534A
:102B7000545F495030210D0A000000001C01002064
:102B800098010020D3F1F2E0EDE0E2EBE8E2E0E5CD
:102B9000EC20F1EBE5E9E220444553545F49503025
:102BA000210D0A002C010020A0010020D3F1F2E049
:102BB000EDE0E2EBE8E2E0E5EC20ECE0F1F2E5F05C
:102BC00020444553545F495031210D0A0000000054
:102BD00020010020A8010020D3F1F2E0EDE0E2EBBB
:102BE000E8E2E0E5EC20F1EBE5E9E220444553546E
:102BF0005F495031210D0A0030010020B80100204A
:102C0000D0E5F1F2E0F0F220CCC0CA20FFF7E5E514
:102C1000EA20303732210D0A000000004001002078
:102C200038010020CFEEF1FBEBE0E5EC20EAEEE42A
:102C300020EFEE20F8E8EDE520343835210D0A00CC
:102C4000CFF0EEE2E5F0FFE5EC20F0E5E7F3EBFC9A
:102C5000F2E0F220F2E5F1F2E020F8E8EDFB2034BA
:102C60003835210D0A00000034010020D2E5F1F2D0
:102C700020EFF0EEE9E4E5ED210D0A00D00100209F
:102C8000D2E5F1F220EDE520EFF0EEE9E4E5ED210B
:102C90000D0A00002892002050A2002050010020C0
:102CA00048010020CFEEF1FBEBE0E5EC20EAEEE49A
:102CB00020EFEE20F8E8EDE520535049210D0A0001
:102CC000360100204164723A00000000EFBEEDDEE4
:102CD000CFF0EEE2E5F0FFE5EC20F0E5E7F3EBFC0A
:102CE000F2E0F220F2E5F1F2E020F8E8EDFB20530B
:102CF0005049210D0A000000416E637765723A0069
:102D00006001002058010020CEEFF0E0F8E8E2E09A
:102D1000E5EC20F8E8EDF3204A544147210D0A0084
:102D200035010020746D70303A000000CFF0EEE203
:102D3000E5F0FFE5EC20F0E5E7F3EBFCF2E0F22054
:102D4000F2E5F1F2E020F8E8EDFB204A544147219A
:102D50000D0A000098020020CAEEEBE8F7E5F1F258
:102D6000E2EE20F3F1F2F0EEE9F1F2E23A000000D7
:102D70005D20000078B90020202D2000DD20A00279
:102D800010B5002002490870024801F0F1F910BDA9
:102D9000500000202C06002010B5024801F0E8F990
:102DA00010BD0000F802002010B5024801F0E0F963
:102DB00010BD00008C06002010B5002002490870EC
:102DC000024801F0D5F910BD38000020CC050020E4
:102DD0000146087810381823B0FBF3F20848805CED
:102DE000C865032A05D908686FF30900001D8865C6
:102DF00003E008686FF309008865886D704700007C
:102E0000D8080108014600208A6A8B69CBB932B123
:102E1000012A0DD0022A03D0032A10D10EE000BFF0
:102E2000CB6A03F08073B3F1807F00D1012007E00B
:102E3000CB6AB3F1C07F00D1012001E000E000BF08
:102E400034E08B69B3F5005F1AD132B1012A07D0A3
:102E5000022A03D0032A11D10AE000BF01200EE0AC
:102E6000CB6A03F08073B3F1807F00D1012006E0CC
:102E7000CB6AB3F1C07F00D1012000E000BF15E0B4
:102E800032B1012A05D0022A04D0032A0CD103E072
:102E900000BF00BF012008E0CB6A03F08073B3F1EC
:102EA000807F00D1012000E000BF00BF704730B537
:102EB0000468246824F4802405682C600468636036
:102EC0008468402C04D10468A2600468E16003E0D7
:102ED0000468A1600468E26030BD0000F0B585B010
:102EE0005324002500260027124801F0EFFCF920AA
:102EF00004904FF6FF7000EA44014FF47A73012208
:102F00000C4801F0CBFD054655B9012003AACDE9D7
:102F100000206100034604AA0290064802F014F85B
:102F2000044801F0B5FC9DF80C0000F001063046A5
:102F300005B0F0BD58030020704700000349086049
:102F400000BF024909680029FBD170472400002016
:102F500000B5014600220DE0FA2000F00EF8FA203C
:102F600000F00BF8FA2000F008F8FA2000F005F85D
:102F7000501C82B28A42EFDB00BD70472DE9F05F42
:102F800006460C4617469946DDE90AA84FF0000BA5
:102F9000002506F5207000EBC70103C9C4E906014E
:102FA000A56A402D41D2D4E90A30591C40F10000F5
:102FB000C4E90A10002105EB450000EBC50204F14D
:102FC000300000EBC200C0E9048105EB450000EBD6
:102FD000C50104F1300000EBC100C0F8049006F513
:102FE000C07000EBC70006C805EB450000EBC50349
:102FF00004F1300000EBC300C0E90212012105EB2F
:10300000450000EBC50204F1300040F8321005EB3A
:10301000450000EBC50204F1300000EBC20080F86F
:1030200018A0206A2930206204E04FF0010B03A0B1
:1030300009F060F85846BDE8F09F0000EDE5F22089
:10304000ECE5F1F2E020E4EBFF20EAE2E8F2E0ED6B
:10305000F6E8E9210D0A000010B5012001F00CFB93
:1030600001200149087010BDC000002010B50220E9
:1030700001F002FB01200149087010BDC1000020D1
:1030800010B5082001F0F8FA01200149087010BDC0
:10309000C300002010B5402001F0EEFA01200149E4
:1030A000087010BDC60000207047000010B5012256
:1030B00011030A4801F0E0FB01225103074801F027
:1030C000DBFB0120FFF73AFF00224FF400510348D9
:1030D00001F0D2FB0120FFF731FF10BD00040240D8
:1030E0002DE9F043A1B007460E4614464FF0000804
:1030F0000025204604EBD0714FEA610900BF08E0CB
:10310000601B801E56F82010601B401E46F82010E1
:103110006D1C601EA842F3DC3760002505E056F800
:10312000250001A941F825006D1CA542F7DB064BDF
:103130000422214601A8FDF78CF801A850F8298047
:10314000404621B0BDE8F083E1E800080146087878
:10315000012803D100200870012070470020FCE7FF
:103160002DE9F04790B0074689464FF0000A3846EF
:10317000F91707EB5171C1F3C706CA4600224FF495
:103180008061854801F078FB50460CF0A7FF4FF0B6
:1031900000080BE000200CF0A1FF00216A4602EBC2
:1031A000C80203C208F1010000F0FF08F91707EB9D
:1031B0005171B8EBE10FEDDB01229102764801F08D
:1031C0005BFB012E01D1DDE90045022E0AD1DDE9CC
:1031D0000012100240EA11600A02DDE90231D4183F
:1031E00040EB0105032E12D1DDE90012100440EA84
:1031F00011400A04DDE90231090241EA13611B02B0
:10320000D2184841DDE90431D41840EB0105042E01
:103210001AD1DDE90002110641EA10210206DDE9BA
:103220000230000440EA13401B04D2184141DDE99A
:103230000430000240EA13601B02D2184841DDE965
:103240000631D41840EB0105052E1DD1DDE9023110
:10325000090641EA13211B0600981A1C4141DDE9C9
:103260000430000440EA13401B04D2184141DDE958
:103270000630000240EA13601B02D2184841DDE923
:103280000831D41840EB0105062E22D10098010226
:103290000022029892184141DDE90430000640EA1C
:1032A00013201B06D2184841DDE90631090441EA22
:1032B00013411B04D2184141DDE90830000240EA05
:1032C00013601B02D2184841DDE90A31D41840EBE3
:1032D0000105072E29D1009801044FF0000C029837
:1032E0001CEB0C0241EB0021049812EB0C02414153
:1032F000DDE90630000640EA13201B06D2184841DB
:10330000DDE90831090441EA13411B04D2184141A7
:10331000DDE90A30000240EA13601B02D21848417E
:10332000DDE90C31D41840EB0105082E2ED14FF009
:10333000000C02990A046346614694460098CA1834
:103340004CEB00600499121C40EB01210698121C02
:103350004841DDE90831090641EA13211B06D2186C
:103360004841DDE90A31090441EA13411B04D2183E
:103370004141DDE90C30000240EA13601B02D21823
:103380004841DDE90E31D41840EB010520462946BD
:1033900010B0BDE8F0870000001002402DE9FC47A6
:1033A0000746894614461D463846F91707EB517102
:1033B000C1F3C706012E02D1E0B28DF80300022E40
:1033C00008D1E0B28DF80200200A40EA0560C0B2E0
:1033D0008DF80300032E0ED1E0B28DF80100200A13
:1033E00040EA0560C0B28DF80200200C40EA0540BA
:1033F000C0B28DF80300042E14D1E0B28DF80000A5
:10340000200A40EA0560C0B28DF80100200C40EAB5
:103410000540C0B28DF80200200E40EA0520C0B27F
:103420008DF80300052E17D1E0B28DF80000200AB8
:1034300040EA0560C0B28DF80100200C40EA05406A
:10344000C0B28DF80200200E40EA0520C0B28DF80F
:103450000300E8B28DF80400062E1AD1E0B28DF810
:103460000000200A40EA0560C0B28DF80100200C7F
:1034700040EA0540C0B28DF80200200E40EA052067
:10348000C0B28DF80300E8B28DF80400280A8DF868
:103490000500072E1DD1E0B28DF80000200A40EA99
:1034A0000560C0B28DF80100200C40EA0540C0B2B2
:1034B0008DF80200200E40EA0520C0B28DF803000E
:1034C000E8B28DF80400280A8DF80500280C8DF864
:1034D0000600082E20D1E0B28DF80000200A40EA54
:1034E0000560C0B28DF80100200C40EA0540C0B272
:1034F0008DF80200200E40EA0520C0B28DF80300CE
:10350000E8B28DF80400280A8DF80500280C8DF823
:103510000600280E8DF8070000224FF48061124843
:1035200001F0AAF949F080000CF0D8FD701EC6B277
:103530004FF0000809E0A6EB08011DF801000CF0AF
:10354000CDFD08F1010000F0FF08F91707EB5171FC
:10355000B8EBE10FEFDB01229102034801F08CF997
:103560000020BDE8FC870000001002402DE9F04F6C
:1035700089B0044600BF4FF00009CA4600BFCB46E1
:1035800000BF00BF207A01060022607A124341EAA0
:103590000041A07A41EA0021E07A0843217B090634
:1035A0000A4340EAE171607B000442EA000341EA19
:1035B000E072A07B0002034342EAE070E17B0B4330
:1035C00040EAE170CDE90630FE4ADDE90601FDF78B
:1035D000EBFD80466078217840EA012140F26310DB
:1035E00008FB00F0F84A02EB00100180E078A178B7
:1035F00040EA012140F2631008FB00F002EB0010EA
:10360000418020790006617940EA0140A17940EAD1
:103610000120E179084340F2631108FB01F102EB5C
:1036200001118860207A01060022607A124341EA83
:103630000040A17A40EA0121E07A41EA0003207BC0
:1036400001061046084343EAE171627B120440EA36
:10365000020341EAE270A17B0A024FEAE27C1A43CC
:1036600040EA0C00E17B0A4340EAE17040F263115A
:1036700008FB01F1D44B03EB0111C1E90420207CCC
:1036800001060022607C030442EA02001943A27C86
:103690004FEA022C024641EA0C01E07C0143207D06
:1036A0000006024341EAE071607D0004C317104345
:1036B00041EA0302A17D0902CB1701431A43E07DD1
:1036C0000B46034342EAE07140F2631008FB00F04E
:1036D000BD4A02EB0010C0E90631207E0006617E83
:1036E00040EA0140A17E40EA0120E17E084340F229
:1036F000631108FB01F102EB01110862207F000653
:10370000617F40EA0140A17F40EA0120E17F084358
:1037100040F2631108FB01F102EB0111486294F8D9
:1037200020000206002194F82100094342EA0040EB
:1037300094F822204FEA022C0A4640EA0C0194F841
:10374000230041EA000394F82400010642EA010044
:1037500043EAE17294F825100904084342EAE17251
:1037600094F826100902084342EAE17294F82710FF
:10377000084342EAE17240F2631108FB01F1924B07
:1037800003EB0111C1E90A0228250020064607467D
:1037900062E1605D0106681C205C41EA0041A81CF2
:1037A000205C41EA0021E81C205C014340F26310E8
:1037B00008FB00F0844A02EB0010303006EB4602B2
:1037C00002EBC60240F83210281D205C0106681D7D
:1037D000205C41EA0041A81D205C41EA0021E81D6F
:1037E000205C014340F2631008FB00F0764A02EBD4
:1037F0000010303006EB460202EBC60200EBC200BE
:10380000416005F10800205C0106002205F1090075
:10381000205C124341EA004005F10A01615C40EA84
:10382000012105F10B00205C014305F10C00205C37
:10383000030642EA030041EAE37105F10D02A25CCE
:103840001204D3170243194305F10E00205C000255
:10385000C317104341EA030205F10F01615C0346FF
:103860000B4342EAE17040F2631108FB01F1564A52
:1038700002EB0111303106EB460202EBC60201EB0E
:10388000C201C1E9023005F11000205C01060022EE
:1038900005F11100205C030442EA0200194305F11E
:1038A0001202A25C4FEA022C024641EA0C0105F129
:1038B0001300205C014305F11400205C0006024364
:1038C00041EAE07105F11500205C0004024341EA81
:1038D000E07105F11600205C0002024341EAE0704D
:1038E00005F11701615CCB171143184340F26312D5
:1038F00008FB02F2344B03EB0212303206EB4603B4
:1039000003EBC60302EBC302C2E904102F48D0F850
:1039100000B0016841600068401E2C4908624FF009
:10392000000A07E005EB0A01605C294906F042FC49
:103930000AF1010ABAF1180FF4D34FF000091DE0A3
:1039400005F118004844215C40F2631008FB00F0C8
:103950001D4A02EB0010303006EB460202EBC602B5
:1039600000EBC200183000F8091005F118014944B5
:10397000605C174906F01EFC09F1010940F2631072
:1039800008FB00F0104901EB0010303006EB460157
:1039900001EBC60150F831004845D1D80B4800680A
:1039A000401C0A49486205F1180000EB090540F285
:1039B000631008FB00F0044901EB0010303006EB07
:1039C000460107E008A70020C865002028A20020C3
:1039D0002892002001EBC60100EBC100C16880689D
:1039E000CDE9040140F2631008FB00F0234901EB2C
:1039F0000010303006EB460101EBC60100EBC100C0
:103A000041690069CDE9020140F2631008FB00F052
:103A10001A4901EB0010006940F2631108FB01F143
:103A2000164A02EB0111303106EB460202EBC602E8
:103A300001EBC2014968CDE9001040F2631108FBB7
:103A400001F10F4A02EB01105B460E4A0E4906F0E7
:103A5000B3FA761C47F1000740F2631008FB00F050
:103A6000064901EB0011D1E90A01301A77EB010098
:103A7000FFF48FAE09B0BDE8F08F0000C8650020EC
:103A80006839002050A200202892002008480068D1
:103A9000B0F5167F0AD9002005490860054800687E
:103AA000401C044908600120034908707047000069
:103AB0000C010020100100200801002070B5044610
:103AC0000E46002500202070666000E06D1C09484D
:103AD00050F825000028F9D1064840F8254006A0F6
:103AE00008F008FB0EA003F0C7FA31460FA00CF057
:103AF00009FD70BDE8380020CFEEE4EDE8ECE0E52C
:103B0000EC20F4EBE0E320EEF2EBEEE6E5EDEDEE9B
:103B1000E3EE20E7E0E4E0EDE8FF210D0A0000001D
:103B20007E302074696D653B0000000074696D652E
:103B30006F75743A000000002DE9F041044600253D
:103B40000026002700BF1BE04FF480410F4800F023
:103B50008BFE0746700800EBC776012251030B4825
:103B600000F08AFE0120FFF7E9F900224FF400512E
:103B7000064800F081FE0120FFF7E0F9681C85B2DD
:103B8000A542E1DB3046BDE8F081000000040240C0
:103B90007047000038B502460020009000BF92F840
:103BA0003C00012801D1022038BD012082F83C00F0
:103BB00000BF0868092816D91068C0680C780A3C4C
:103BC00004EB44050724AC40A0431468E0600C7883
:103BD0000A3C04EB44048868A0401468E46820436D
:103BE0001468E06013E0106800690C7804EB440589
:103BF0000724AC40A043146820610C7804EB440413
:103C00008868A040146824692043146820614868CB
:103C1000072817D21068406B0C79641E04EB8405EA
:103C20001F24AC40A04314686063088880B20C79FC
:103C3000641E04EB8404A0401468646B2043146881
:103C4000606331E048680D2817D21068006B0C796A
:103C5000E41F04EB84051F24AC40A04314682063D8
:103C6000088880B20C79E41F04EB8404A040146837
:103C7000246B20431468206316E01068C06A0C7936
:103C80000D3C04EB84051F24AC40A0431468E062A3
:103C9000088880B20C790D3C04EB8404A0401468C1
:103CA000E46A20431468E0621E4B1F4C1068A04277
:103CB0000AD10868122807D1586820F4000058601B
:103CC000586840F480005860174C1068A04222D118
:103CD000164C0868A04202D0086811281BD1586809
:103CE00020F480005860586840F4000058600F4C81
:103CF0000868A0420FD10E4800680E4CB0FBF4F0EB
:103D000000EB80004000009002E00098401E009010
:103D100000980028F9D100BF002082F83C0000BFC5
:103D200000BF41E7002301400020014012000010C5
:103D3000A802002040420F0002490968491C014ABC
:103D400011607047F40100207047704770B5044659
:103D50000025002620680068C0F340052068406800
:103D6000C0F3401695B38EB3206C00F0100018B964
:103D7000206C40F4007020642068806800F040509F
:103D8000E8B9207ED8B92068C06A00F4700020B17C
:103D90002068806800F4806088B92068406820F05E
:103DA000200021684860206C20F480702064206C22
:103DB00000F4805018B9206C40F0010020642046C7
:103DC000FFF7BAFF6FF012002168086020680068F2
:103DD000C0F3800520684068C0F3C016E5B3DEB3C9
:103DE000206C00F0100018B9206C40F400502064E2
:103DF0002068806800F4401038BB2068806B00F4B5
:103E0000401020B12068806800F48060E8B9206824
:103E1000406800F48060C0B92068806800F04050BD
:103E200098B9207E88B92068406820F08000216819
:103E30004860206C20F480502064206C00F4807076
:103E400018B9206C40F0010020642046FFF7A0FE66
:103E50006FF00C00216808602068006800F0010520
:103E600020684068C0F3801685B17EB12068006884
:103E700000F0010050B1206C40F4803020642046F6
:103E800000F052F86FF001002168086020680068B7
:103E9000C0F3401520684068C0F380667DB176B1FC
:103EA000606C40F0020060646FF0200021680860E0
:103EB0002046FFF74AFF6FF020002168086070BDC0
:103EC00070B5044600250CB9012070BD1549A06AE3
:103ED000884200D000BF206C30B9204600F026F8A0
:103EE0000020606484F83C00206C00F0100088B969
:103EF000206C20F4885040F0020020642046FCF73B
:103F0000FBFE00206064206C20F0020040F0010005
:103F1000206400E0012500BF002084F83C0000BFC1
:103F20002846D2E70100000F7047000010B586B0A8
:103F30000446142101A8FCF7E1F92B4920688842C6
:103F400050D100BF002000902848006840F48070E5
:103F5000264908600846006800F48070009000BFA1
:103F600000BF00BF0020009020481438006840F0D7
:103F700001001E49143908600846006800F001007D
:103F8000009000BF00BF0F2001900320029000208E
:103F9000039001A9164800F07DFB164816490860F9
:103FA00000204860002114488160C1604FF48061A6
:103FB000016149004161890081614911C1610902C2
:103FC000016204214162012181620021C162016319
:103FD00000F0EEF908B1FFF767F800BF0648A063EC
:103FE000846300BF06B010BD002001404438024089
:103FF0000000024010640240F8020020F8B50446B8
:104000000D4616460020009000BF94F83C000128A1
:1040100001D10220F8BD012084F83C0000BF2068D7
:10402000806800F00100A0B92068806840F00100BD
:10403000216888603D4800683D49B0FBF1F000EB25
:104040004000009002E00098401E00900098002878
:10405000F9D12068806800F00100002864D0206C4D
:1040600040F20161884340F4807020642068406819
:1040700000F4806028B1206C20F4005040F480509F
:104080002064206C00F48050B0F5805F04D1606C37
:1040900020F00600606401E00020606400BF0020A2
:1040A00084F83C0000BF234F2348A16BC86323481A
:1040B000A16B08642248A16BC8646FF022002168DC
:1040C00008602068406840F080602168486020688F
:1040D000806840F4807021688860226802F14C0199
:1040E00033462A46A06B00F0D9F9786800F01F002B
:1040F00058B92068806800F0405028B9206880686E
:1041000040F08040216888600EE00E4920688842B7
:104110000AD12068806800F0405028B92068806883
:1041200040F0804021688860002073E7A8020020EA
:1041300040420F00002301403B0C0008D30C000854
:10414000B90C000800200140014691F83500022812
:1041500003D08020486501207047052081F8350094
:104160000868006820F001000A6810600020F3E78A
:10417000F8B50446002000908C4800684FF41651B2
:10418000B0FBF1F7A56D2E6894F85C10082088400C
:10419000304098B12068006800F0040070B12068D9
:1041A000006820F004002168086094F85C10082082
:1041B0008840A860606D40F00100606594F85C1074
:1041C00001208840304068B12068406900F08000DC
:1041D00040B194F85C1001208840A860606D40F008
:1041E0000200606594F85C1004208840304068B19B
:1041F0002068006800F0020040B194F85C100420D0
:104200008840A860606D40F00400606594F85C1020
:1042100010208840304078B32068006800F0080023
:1042200050B394F85C1010208840A86020680068A3
:1042300000F4802080B12068006800F4002028B9D4
:10424000206CC8B12046216C884715E0A06C98B15D
:104250002046A16C88470FE02068006800F4807059
:1042600028B92068006820F0080021680860206CE8
:1042700010B12046216C884794F85C1020208840BB
:104280003040002865D02068006800F01000002849
:104290005FD094F85C1020208840A86094F8350026
:1042A000052828D12068006820F0160021680860E1
:1042B0002068406920F0800021684861206C08B9BE
:1042C000A06C28B12068006820F008002168086010
:1042D00094F85C103F208840A86000BF002084F85C
:1042E000340000BF012084F83500206D10B1204655
:1042F000216D8847F8BD2068006800F4802080B1F7
:104300002068006800F4002028B9606C10B12046D5
:10431000616C88471DE0E06BD8B12046E16B8847AF
:1043200017E02068006800F4807068B920680068B1
:1043300020F010002168086000BF002084F83400DD
:1043400000BF012084F83500E06B10B12046E16B1E
:104350008847606D38B3606D00F00100F0B1052052
:1043600084F835002068006820F0010021680860AA
:1043700000BF0098401C0090B84200D905E02068BA
:10438000006800F001000028F3D100BF00BF00204A
:1043900084F8340000BF012084F83500E06C10B1CF
:1043A0002046E16C884700BFA4E70000A802002077
:1043B0002DE9F0410446002500F064FA074614B9DF
:1043C0000120BDE8F081606A00B100BF00BF00209D
:1043D00084F8340000BF022084F8350020680068AB
:1043E00020F00100216808600AE000F04BFAC01BD1
:1043F000052805D920206065032084F83500E0E712
:104400002068006800F001000028EED120680568EF
:1044100021480540D4E901010843E16808432169C6
:10442000084361690843A1690843E1690843216AB7
:1044300008430543606A042803D1D4E90B0108430B
:104440000543206805602068456925F00705606A16
:104450000543606A04280DD1A06A0543E06A48B1AB
:104460002046FEF7CFFC28B140206065012084F88B
:104470003500A6E7206845612046FEF7A9FC064600
:1044800094F85C103F208840B060002060650120F7
:1044900084F83500002094E73F8010F02DE9F047C4
:1044A00004460D4616461F464FF00008D4F85890B3
:1044B00000BF94F83400012802D10220BDE8F08743
:1044C000012084F8340000BF94F8350001282BD176
:1044D000022084F83500002060653B4632462946BC
:1044E0002046FEF7E4FC94F85C103F208840C9F8B1
:1044F00008002068006840F0160021680860206805
:10450000406940F0800021684861206C28B1206833
:10451000006840F00800216808602068006840F0EA
:1045200001002168086006E000BF002084F8340024
:1045300000BF4FF002084046C0E70000F0B50C464F
:10454000002500220023002181E0012606FA01F562
:1045500004EA0502AA4279D13F4E8F0856F8273067
:104560008E07370F0F26BE4033403C4EB04201D17C
:10457000002614E03A4EB04201D101260FE0394E38
:10458000B04201D102260AE0374EB04201D10326E3
:1045900005E0364EB04201D1042600E007268F0721
:1045A0003F0FBE409E4222D18E07370F0F2606FADC
:1045B00007F3294E8F0856F827609E43264F4FEA8F
:1045C000910C47F82C602A4E36689643284F3E607F
:1045D0003E1D366896433F1D3E603E1D366896433D
:1045E0003F1D3E603E1D366896433F1D3E60066897
:1045F0004FEA410C032707FA0CF7BE430660CF08C9
:1046000000F1200656F827604F074FEAD76C0F27B6
:1046100007FA0CF7BE434FEAD10C00F1200747F828
:104620002C6086684FEA410C032707FA0CF7BE435B
:104630008660466801278F40BE434660C6684FEAE1
:10464000410C032707FA0CF7BE43C660491C10292A
:10465000FFF47BAFF0BD00000838014000000240CD
:104660000004024000080240000C0240001002401A
:10467000003C01407047000010B504460448006843
:10468000204020B1024804602046FFF7F3FF10BD30
:10469000143C0140F8B503460A46002500240020DA
:1046A0000021CDE0012606FA01F5166806EA0504A8
:1046B000AC4273D15668022E02D05668122E13D126
:1046C000CF0803F1200656F827004E07F70E0F26F5
:1046D000BE40B0434F07FF0E1669BE403043CF08BF
:1046E00003F1200646F8270018684F000326BE4055
:1046F000B043167906F003064F00BE403043186001
:104700005668012E08D05668022E05D05668112E24
:1047100002D05668122E13D198684F000326BE406F
:10472000B0434F00D668BE403043986058680126B9
:104730008E40B0431679C6F300168E403043586061
:10474000D8684F000326BE40B0434F009668BE4075
:104750003043D860566806F08056B6F1805F6ED15F
:1047600000BF00260096384E366846F48046364F25
:104770003E603E46366806F48046009600BF00BFA5
:10478000324E8F0856F827008E07370F0F26BE408F
:10479000B0432F4EB34202D1002615E04FE02D4E1C
:1047A000B34201D101260FE02B4EB34201D10226C4
:1047B0000AE02A4EB34201D1032605E0284EB34257
:1047C00001D1042600E007268F073F0FBE4030438B
:1047D0001E4E8F0846F82700224E3068A0435668C8
:1047E00006F48036B6F5803F00D120431D4E306080
:1047F000361D3068A043566806F40036B6F5003F13
:1048000000D12043174E361D3060361D3068A0435E
:10481000566806F48016B6F5801F00D12043114E6D
:1048200008363060361D3068A043566806F400161E
:10483000B6F5001F00D120430A4E0C363060491CEB
:104840001029FFF42FAFF8BD44380240083801406A
:10485000000002400004024000080240000C024038
:1048600000100240003C0140024613690B400BB1AE
:10487000012000E0002070470AB1816101E00B04D3
:104880008361704701480068704700009C02002067
:1048900010B504460CB9012010BD242084F83D0059
:1048A0002068006820F0010021680860204600F0C0
:1048B000E1FD0020206484F83D00206384F83E0080
:1048C00000BF84F83C0000BF00BFE5E770B50446B8
:1048D0000CB9012070BD94F83D0028B9002084F87F
:1048E0003C00204600F0DEFD242084F83D002068D6
:1048F000006820F00100216808602068006840F42A
:104900000040216808602068006820F400402168A9
:10491000086000F0A7FF05465C496068884206D839
:104920005B48854201D2012007E0002005E059489C
:10493000854201D2012000E00020012800D1C9E712
:104940005548B5FBF0F62068406820F03F00304342
:10495000216848604D496068884201D8701C07E0B2
:104960004FF4967070434FF47A71B0FBF1F0401C35
:104970002168096A21F03F01084321680862434920
:104980006068884214D8681E61684900B0FBF1F085
:10499000401CC0F30B00042801D204203DE0681E37
:1049A00061684900B0FBF1F0401CC0F30B0034E03B
:1049B000A06838B9681E616801EB4101B0FBF1F0F5
:1049C000401C0AE0681E616801EBC10202EB0111A4
:1049D000B0FBF1F0401C40F48040C0F30B0008B97C
:1049E00001201AE0A06848B9681E616801EB410126
:1049F000B0FBF1F0401CC0F30B000CE0681E6168D6
:104A000001EBC10202EB0111B0FBF1F0401CC0F35D
:104A10000B0040F4804040F400402168C9694CF626
:104A2000FF72914308432168C861D4E90701084334
:104A30002168096821F0C001084321680860D4E9B1
:104A4000031008432168896848F2FF329143084304
:104A500021688860D4E9050108432168C96821F00C
:104A6000FF0108432168C8602068006840F0010029
:104A70002168086000202064202084F83D00002088
:104A8000206384F83E0000BF24E70000A0860100F8
:104A900080841E0000093D0040420F002DE9F84FC0
:104AA00004460F4690461E46FFF7ECFE05464FF0C3
:104AB000010994F83D0020287DD119230122624983
:104AC0002046009502F0D4F810B10220BDE8F88F1E
:104AD00000BF94F83C00012801D10220F6E7012034
:104AE00084F83C0000BF2068006800F0010028B98D
:104AF0002068006840F001002168086020680068B4
:104B000020F4006021680860242084F83D00002023
:104B100020644E48E06200BF2068006840F4807066
:104B200021680860334600224FF0011120460095AD
:104B300002F09EF848B12068006800F4807010B15F
:104B40004FF4007020640320C0E707F0FE002168E6
:104B50000861FFF797FE054620684069C0F3400AE8
:104B600020684069C0F3802B10E0FFF78BFE401BEC
:104B7000B04200D816B9A02084F83D0020684069F2
:104B8000C0F3400A20684069C0F3802B94F83D00D0
:104B9000A02805D0BAF1000F02D1BBF1000FE4D07C
:104BA000202084F83D0020684069C0F3400028B30D
:104BB0002068006800E044E040F40070216808606C
:104BC00000BF002000902068406900902068806944
:104BD000009000BF00BF192301221B492046009509
:104BE00002F046F808B1012070E7202084F83D006B
:104BF00000BF002084F83C0000BF67E72068006821
:104C000040F40070216808606FF48060216848619A
:104C1000192301220C492046009502F029F808B119
:104C2000012053E709F10109C145FFF475AF2020C8
:104C300084F83D0000BF002084F83C0000BF012044
:104C400044E7022042E70000020010000000FFFFDE
:104C50002DE9F8430446894617469846089EFFF713
:104C600011FE054694F83D0020287DD1192301222C
:104C7000B2492046009501F0FBFF10B10220BDE8CB
:104C8000F88300BF94F83C00012801D10220F6E728
:104C9000012084F83C0000BF2068006800F001009B
:104CA00028B92068006840F0010021680860206889
:104CB000006820F4006021680860222084F83D002C
:104CC000102084F83E00002020646762A4F82A8047
:104CD000608D20859A48E0622B4632464946204640
:104CE00001F0A2FE08B10120C9E7208D88B900BFFC
:104CF0000020009020684069009020688069009042
:104D000000BF00BF2068006840F4007021680860A0
:104D100047E0208D012817D12068006820F48060CA
:104D20002168086000BF0020009020684069009062
:104D300020688069009000BF00BF2068006840F4D0
:104D40000070216808602CE0208D022818D12068AE
:104D5000006820F48060216808602068006840F4E2
:104D600000602168086000E0E6E000BF00200090DD
:104D700020684069009020688069009000BF10E0C2
:104D80002068006840F480602168086000BF00204F
:104D9000009020684069009020688069009000BF02
:104DA00000BFBAE0208D03287ED8208D012815D1C0
:104DB0002A463146204602F000F808B101205EE79D
:104DC00020680069616A0870606A401C6062208D1A
:104DD000401E2085608D401E60859EE0208D02284B
:104DE0002AD13346002257492046009501F040FF62
:104DF00008B1012043E72068006840F40070216892
:104E0000086020680069616A0870606A401C60621E
:104E1000208D401E2085608D401E608520680069C1
:104E2000616A0870606A401C6062208D401E2085A7
:104E3000608D401E608570E0334600224149204667
:104E4000009501F015FF08B1012018E720680068FF
:104E500020F480602168086020680069616A087039
:104E6000606A401C6062208D401E2085608D401E5F
:104E700060853346002233492046009501F0F8FE54
:104E800008B10120FBE62068006840F4007021684A
:104E9000086020680069616A0870606A401C60628E
:104EA000208D401E208500E010E0608D401E608552
:104EB00020680069616A0870606A401C6062208D29
:104EC000401E2085608D401E608526E02A463146C2
:104ED000204601F072FF08B10120D0E62068006989
:104EE000616A0870606A401C6062208D401E2085E7
:104EF000608D401E608520684069C0F3800060B10D
:104F000020680069616A0870606A401C6062208DD8
:104F1000401E2085608D401E6085208D00287FF416
:104F200041AF202084F83D00002084F83E0000BFFF
:104F300084F83C0000BFA2E60220A0E602001000B8
:104F40000000FFFF040001002DE9F84F04468946E8
:104F500017469846DDE90AAB0C9EFFF793FC054621
:104F600094F83D0020287DD119230122E2492046F2
:104F7000009501F07DFE10B10220BDE8F88F00BF62
:104F800094F83C00012801D10220F6E7012084F8C2
:104F90003C0000BF2068006800F0010028B92068CC
:104FA000006840F00100216808602068006820F473
:104FB000006021680860212084F83D00102084F8FA
:104FC0003E00002020646762A4F82A80608D20855E
:104FD000CA48E0622B4632464946204601F0BCFDF5
:104FE00000BF002000902068406900902068806920
:104FF000009000BF00BF44E02A463146204601F041
:105000001CFF50B1206C042805D12068006840F4D2
:105010000070216808600120AFE7606A00782168AD
:105020000861606A401C6062608D401E6085208D52
:10503000401E208520684069C0F3800070B1208D3B
:1050400060B1606A007821680861606A401C606233
:10505000608D401E6085208D401E20852A46314689
:10506000204600E045E101F0D5FD50B1206C042858
:1050700005D12068006840F40070216808600120B4
:105080007BE7208D0028B7D1222084F83D00102036
:1050900084F83E0000202064C4F824A0A4F82AB0BC
:1050A000608D20859548E0622B4632464946204671
:1050B00001F0BAFC08B101205FE7208D88B900BF7C
:1050C000002000902068406900902068806900906E
:1050D00000BF00BF2068006840F4007021680860CD
:1050E00045E0208D012817D12068006820F48060F9
:1050F0002168086000BF002000902068406900908F
:1051000020688069009000BF00BF2068006840F4FC
:105110000070216808602AE0208D022816D12068DE
:10512000006820F48060216808602068006840F40E
:1051300000602168086000BF00200090206840697E
:10514000009020688069009000BF10E0206800682F
:1051500040F480602168086000BF00200090206853
:105160004069009020688069009000BF00BFB1E0F6
:10517000208D03287ED8208D012815D12A4631465E
:10518000204601F01AFE08B10120F6E62068006909
:10519000616A0870606A401C6062208D401E208534
:1051A000608D401E608595E0208D02282AD133460F
:1051B000002253492046009501F05AFD08B1012014
:1051C000DBE62068006840F4007021680860206811
:1051D0000069616A0870606A401C6062208D401E30
:1051E0002085608D401E608520680069616A0870B6
:1051F000606A401C6062208D401E2085608D401ECC
:10520000608567E0334600223D492046009501F065
:105210002FFD2068006820F4806021680860206805
:105220000069616A0870606A401C6062208D401EDF
:105230002085608D401E608533460022304920461F
:10524000009501F015FD2068006840F400702168A9
:10525000086020680069616A0870606A401C6062CA
:10526000208D401E2085608D401E6085206800696D
:10527000616A00E00AE00870606A401C6062208D8C
:10528000401E2085608D401E608523E02A46314601
:10529000204601F092FD20680069616A0870606A2A
:1052A000401C6062208D401E2085608D401E608500
:1052B00020684069C0F3800060B120680069616ABD
:1052C0000870606A401C6062208D401E2085608DE1
:1052D000401E6085208D00287FF44AAF202084F88E
:1052E0003D00002084F83E0000BF84F83C0000BF71
:1052F00043E6022041E60000020010000000FFFF2C
:10530000040001002DE9F8430446894616461F466D
:10531000DDF82080FFF7B6FA054694F83D00202816
:105320007ED11923012251492046009501F0A0FCAD
:1053300010B10220BDE8F88300BF94F83C000128BA
:1053400001D10220F6E7012084F83C0000BF20686C
:10535000006800F0010028B92068006840F00100F2
:10536000216808602068006820F4006021680860F7
:10537000212084F83D00102084F83E0000202064A5
:1053800066626785608D20853948E0622B4642461B
:105390004946204601F0E0FB08B10120CAE700BF02
:1053A000002000902068406900902068806900908B
:1053B00000BF00BF44E02A464146204601F03DFDC3
:1053C00050B1206C042805D12068006840F40070BA
:1053D000216808600120ADE7606A007821680861F3
:1053E000606A401C6062608D401E6085208D401E9A
:1053F000208520684069C0F3800070B1208D60B1C5
:10540000606A007821680861606A401C6062608D93
:10541000401E6085208D401E20852A46414600E0C2
:1054200022E0204601F0F6FB50B1206C042805D1A3
:105430002068006840F4007021680860012079E766
:10544000208D0028B7D12068006840F400702168E2
:105450000860202084F83D00002084F83E0000BF52
:1054600084F83C0000BF65E7022063E702001000FB
:105470000000FFFF10B5044607492068884209D1A3
:105480000648006820F4001004490860C021044860
:10549000FFF754F810BD00000054004040380240AF
:1054A0000004024010B586B00446142101A8FAF7A2
:1054B00025FF1B49206888422FD100BF00200090A3
:1054C0001848006840F00200164908600846006865
:1054D00000F00200009000BF00BFC0200190122029
:1054E000029002200390002004900420059001A95E
:1054F0000D48FFF7CFF800BF00200090094810309A
:10550000006840F400100749103108600846006840
:1055100000F40010009000BF00BF06B010BD0000F6
:105520000054004030380240000402400348006844
:105530000349097808440149086070479C0200202B
:10554000A402002010B50D48006840F400700B491B
:1055500008600846006840F48060086008460068FB
:1055600040F480700860032000F0A2F8002000F0F2
:1055700007F800F02BF8002010BD0000003C0240AE
:1055800070B504460E4800784FF47A71B1FBF0F024
:105590000C490968B1FBF0F5284600F05EFE08B141
:1055A000012070BD102C07D200222146501E00F0B1
:1055B00041F80548046001E00120F2E70020F0E72F
:1055C000A4020020A8020020A002002008B500BF0D
:1055D000002000900E48006840F480400C490860AC
:1055E0000846006800F48040009000BF00BF00BF84
:1055F00000200090081F006840F08050091F0860DC
:105600000846006800F08050009000BF00BF08BD51
:105610004438024001460846002809DB00F01F0319
:1056200001229A4043099B0003F1E023C3F80021C3
:1056300000BF70472DE9F05F80460D4616460027F3
:1056400007F0B0F9074639462A46334601F007000D
:10565000C0F1070ABAF1040F02D94FF0040A01E0C1
:10566000C0F1070AD14600F1040ABAF1070F02D2CD
:105670004FF0000A01E0A0F1030AD4464FF0010AFE
:105680000AFA09FAAAF1010A0AEA020A0AFA0CFA63
:105690004FF0010B0BFA0CFBABF1010B0BEA030B08
:1056A0004AEA0B042146404607F084F9BDE8F09F22
:1056B00000BF00F00702064B19684FF6FF031940C0
:1056C000044B0B4343EA0221014B196000BF7047B2
:1056D0000CED00E00000FA0570B504460D460CB96B
:1056E000012070BD5848006800F00F00A84209D2A0
:1056F00055490D700846006800F00F00A84201D01F
:105700000120EEE7207800F0020002281DD1207869
:1057100000F00400042805D14C48006840F4E05033
:105720004A490860207800F00800082805D1474859
:10573000006840F46040454908604448006820F033
:10574000F000A168084341490860207800F001009A
:10575000A8B36068012807D13C4808380068C0F346
:105760004040B8B90120BCE76068022802D06068F8
:10577000032807D1354808380068C0F3406048B9AD
:105780000120AEE7314808380068C0F3400008B98E
:105790000120A6E72D48006820F003006168084357
:1057A0002A490860FFF76EF8064609E0FFF76AF835
:1057B000801B41F28831884202D9032091E707E03B
:1057C0002248006800F00C006168B0EB810FEDD159
:1057D0001D48006800F00F00A84209D91A490D7051
:1057E0000846006800F00F00A84201D0012078E7C9
:1057F000207800F00400042807D11448006820F441
:10580000E050E168084311490860207800F0080082
:10581000082808D10D48006820F46040216940EA5A
:10582000C1000A49086000F03DF808490968C1F361
:105830000311074A515CC840064908600020FFF781
:105840009FFE00204DE70000003C02400838024067
:10585000E0080108A8020020014800687047000025
:10586000A802002000B5FFF7F7FF04490968C1F35B
:105870008221034A515CC84000BD00000838024044
:10588000F008010800B5FFF7E7FF04490968C1F314
:105890004231034A515CC84000BD00000838024054
:1058A000F00801082DE9F047002400250026A14654
:1058B0002548006800F00C0020B1042805D0082815
:1058C0003AD105E0DFF8849039E0DFF8809036E0E7
:1058D0001D48001F006800F03F041B48001F0068BF
:1058E00000F4800078B119481749091F0968C1F30D
:1058F0008811A0FB01700146224600233846FAF7C2
:1059000067FC05460EE011480F49091F0968C1F3FD
:105910008811A0FB01700146224600233846FAF7A1
:1059200057FC05460848001F0068C0F30140401CB2
:105930004600B5FBF6F902E0DFF8109000BF00BFAB
:105940004846BDE8F0870000083802400024F40013
:10595000F8B504460CB90120F8BD207800F001002C
:10596000002874D0F948006800F00C0004280DD01D
:10597000F648006800F00C00082813D1F348001F17
:10598000006800F48000B0F5800F0BD1EF480838B4
:105990000068C0F34040002859D06068002856D104
:1059A0000120D9E700BF6068B0F5803F08D1E74823
:1059B0000838006840F48030E449083908601EE087
:1059C0006068B0F5A02F0DD1E0480838006840F4B9
:1059D0008020DE49083908600846006840F48030BD
:1059E00008600CE0D9480838006820F48030D749B6
:1059F000083908600846006820F48020086000BF6D
:105A0000606890B1FEF73EFF054606E0FEF73AFFFC
:105A1000401B642801D903209EE7CC480838006861
:105A2000C0F340400028F1D011E0FEF72BFF0546FF
:105A300006E0FEF727FF401B642801D903208BE70F
:105A4000C24808380068C0F340400028F1D12078EF
:105A500000F0020002285FD1BC48006800F00C0092
:105A600058B1BA48006800F00C0008281CD1B748AB
:105A7000001F006800F48000B0B9B448083800681E
:105A8000C0F3400020B1E068012801D0012063E7A5
:105A9000AE480838006820F0F800216940EAC100EB
:105AA000AA490839086037E0E06800B30120A84936
:105AB0000860FEF7E7FE054606E0FEF7E3FE401B42
:105AC000022801D9032047E7A04808380068C0F33E
:105AD00040000028F1D09D480838006820F0F80008
