:020000040800F2
:10000000B0830120AD010008A9AE0008C17A000844
:10001000B5AA0008DD1C0008B1D5000800000000EA
:1000200000000000000000000000000071BB00089C
:10003000C53E0008000000008DB00008B1C40008F3
:10004000C7010008C7010008C7010008C701000870
:10005000C7010008C7010008014100081541000858
:10006000C701000829410008C7010008C7010008AE
:10007000C7010008C7010008C7010008C701000840
:10008000C70100080D3D0008B90C00080000000081
:100090000000000000000000000000003D410008DA
:1000A000C7010008C7010008C7010008C701000810
:1000B000C7010008C7010008D1C70008C701000830
:1000C000C7010008C7010008C7010008C7010008F0
:1000D000C70100084DD500085DD5000800000000EC
:1000E000C7010008C7010008C701000800000000A0
:1000F000000000000000000000000000C701000830
:1001000000000000C7010008C7010008C70100087F
:1001100000000000000000000000000000000000DF
:10012000253D0008C7010008C7010008C7010008F5
:10013000C7010008000000000000000000000000EF
:10014000000000000000000000000000C7010008DF
:10015000C7010008353D0008453D00086DD5000881
:10016000C7010008C70100080000000000000000EF
:10017000000000000000000000000000000000007F
:1001800000000000C701000800000000000000009F
:10019000C7010008C7010008DFF80CD000F04AFCD6
:1001A0000048004799030108B083012006488047B2
:1001B00006480047FEE7FEE7FEE7FEE7FEE7FEE74C
:1001C000FEE7FEE7FEE7FEE799C600089901000892
:1001D0002DE9F05F0546002092469B46884606467C
:1001E000814640241BE0284641464746224600F00F
:1001F00020F853465A46C01A914110D3114618466A
:10020000224600F086FA2D1A67EB01084F46224677
:100210000120002100F07DFA17EB00094E41201E5D
:10022000A4F10104DFDC484631462A464346BDE8D6
:10023000F09F202A04DB203A21FA02F000217047C7
:1002400021FA02F3D040C2F120029140084319463E
:1002500070472DE9FE43994615468846074601AC8E
:10026000022942D3002D40D000200290A8F10100C5
:100270004FF0FF36009022E000FB057201FB057095
:1002800011464A469047002805DC54F826003044C1
:1002900044F8260013E060682A4600FB057154F814
:1002A000040C00FB057007E00B7890F800C001F823
:1002B00001CB00F8013B521E002AF5D1764254F8DA
:1002C000040C61688842D7DC4B462A463846FFF763
:1002D000C0FF54F8040C4B46A8EB0001401C00FB87
:1002E00005702A46491EFFF7B4FFBDE8FE83D2B26F
:1002F00001E000F8012B491EFBD270470022F6E70F
:1003000010B513460A4604461946FFF7F0FF20468B
:1003100010BD421C10F8011B0029FBD1801A704748
:1003200010B5002200E0521C835C8C5CA34201D11A
:10033000002BF8D1D8B2E1B2401A10BD70B5064614
:100340000DF0B4F9046805460A220021304600F099
:1003500001FA2C6070BD2DE9FE4F804681EA030052
:10036000C00F0C46009021F0004123F00045B8EB8F
:100370000200A94105D24046214690461C460B4644
:10038000024623F00040104347D0270DC7F30A0070
:10039000C3F30A510290401A019040286BDAC3F36C
:1003A000130040F4801B0098924620B10023D2EB4A
:1003B000030A63EB0B0B01985946C0F1400250460B
:1003C00000F0A7F906460D4650465946019A00F03E
:1003D000AFF910EB08006141002487EA115284EA6A
:1003E000E7731A4340D0009A62B3019A012A4FEA98
:1003F000075215DC001B61EB02014FF0004202EADC
:100400000752CDE90042001C41F5801132462B46CF
:1004100000F01EFA03B0BDE8F08F40462146F9E730
:10042000001B61EB0201001C41F5801300185B41C9
:100430002018A2F5001747EB030140EAD570B61962
:100440006D4111E06D084FEA360645EAC0754FEA86
:100450000752001B61EB0201001C41F580114908A5
:100460004FEA30000019514132462B4603B0BDE837
:10047000F04F00F0DEB90098012240000023D0EBDD
:10048000020263EBE073009821464FEAE074B8EB98
:10049000000061EB0401E9E783F000435BE781F0D2
:1004A000004158E72DE9FE4F81EA030404F00044BF
:1004B00021F0004100944FF0000B23F0004350EA7C
:1004C00001045ED052EA03045BD0C3F30A54C1F3C3
:1004D0000A552C44A4F2F3340194A0FB0254C1F356
:1004E000130141F48011C3F3130343F4801301FBA0
:1004F000024400FB034E840A970A44EA815447EA07
:100500008357A4FB076802958D0A05FB07854FEA10
:10051000932C04FB0C542705029D4FEA065847EA2A
:100520001637B5EB08056EEB070C870E920E47EAFF
:10053000811742EA8312A7FB0201B6EB0B0164EBC1
:1005400000042B0D43EA0C335E1844EB1C50DA46D2
:100550005146E7FB0201C5F313044FEA0B3343EAAC
:1005600014534FEA0432019C43EA0603A4F10C043D
:100570000294009CCDE900B400F06AF903B0BDE834
:10058000F08F00200146F9E72DE9F04D81EA0304E0
:1005900004F0004B21F0004514464FF0000A23F010
:1005A000004150EA050220D054EA01021DD0C5F3F3
:1005B0000A570246C5F31303C1F31300C1F30A56E9
:1005C00040F4801543F48013A7EB0608101BD646B1
:1005D00008F2FD3873EB050002D308F1010801E0D1
:1005E00092185B41B8F1000F03DA00200146BDE824
:1005F000F08D00204FF48011064684460EE0171B54
:1006000073EB050705D3121B63EB050306434CEAA6
:10061000010C49084FEA300092185B4150EA01078B
:10062000EDD152EA030012D082EA040083EA050108
:10063000084305D0101BAB4106D20122002306E07F
:1006400000224FF0004302E06FF0010253101AEB5A
:1006500006004CEB085110EB0A0041EB0B01BDE822
:10066000F04D00F0E6B80EB5C10F80EAE070084426
:10067000CA07002140F233438DE80E000A460B46BC
:1006800000F0E6F803B000BD00F0004230F000409A
:100690000AD0C10D01F56071C0F3160042EA0151A4
:1006A000C20840071143704700200146704701F01F
:1006B000004330B421F0004150EA010206D00A0D97
:1006C000A2F56072C1F31301002A02DC30BC0020E5
:1006D0007047440F44EAC104C100E01830BC00EB8D
:1006E000C25000F06FB830B50B4601460020202202
:1006F000012409E021FA02F59D4205D303FA02F52F
:10070000491B04FA02F52844151EA2F10102F1DC8E
:1007100030BD202A04DB203A00FA02F100207047A5
:100720009140C2F1200320FA03F31943904070472F
:10073000202A06DBCB17203A41FA02F043EAE073A5
:1007400006E041FA02F3D040C2F120029140084392
:10075000194670472DE9F04791460F4680460446FA
:10076000002614F8015B2DB100F076F90068405DB9
:10077000C007F6D12B2D02D02D2D18D0641E4A466D
:100780003946204600F06CF927B13968A14201D101
:10079000C7F8008071054FF002040BD540420028D5
:1007A00003DD0CF083FF0460A007BDE8F08746F48A
:1007B0008066E4E70028F8DA0CF078FF04606FF058
:1007C0000040F2E70029A8BF7047401C490008BF5D
:1007D00020F00100704710B4B0FA80FC00FA0CF071
:1007E00050EA010404BF10BC704749B1CCF12004A9
:1007F00021FA04F411FA0CF118BF01212143084336
:10080000A3EB0C01CB1D4FEA00614FEA102042BF61
:10081000002010BC704700EBC35010440029A4BF57
:1008200010BC7047401C490008BF20F0010010BCFC
:10083000704710B5141E73F1000408DA401C41F132
:10084000000192185B411A4301D120F0010010BD54
:100850002DE9F04D92469B4611B1B1FA81F202E0CA
:10086000B0FA80F220329046FFF753FF04460F465D
:1008700040EA0A0041EA0B0153465A46084313D0A6
:10088000114653EA010019D0C8F140025046FFF763
:10089000D0FC05460E46504659464246FFF739FF02
:1008A000084305D0012004E020463946BDE8F08D1C
:1008B0000020054346EAE0762C4337430A98630557
:1008C000E40AA0EB08000022FD0A44EA47540A307B
:1008D00002D500200146E9E7010510196941DDE96B
:1008E000084500196941BDE8F04DA2E770B521F057
:1008F000004303430CD0C1F30A550024D5EB040593
:1009000064EB0403D617AD1AB34102DB00200146A5
:1009100070BD201841EB025170BD00002DE9F0417F
:10092000054621F000400C46284309D0C4F30A5084
:1009300040F23341884205DD28462146BDE8F0817A
:100940002846FBE740F2FE31884210DC0CDB4FEA20
:10095000043040EA155050EA053105D0104804F043
:10096000004101430020E9E700200146E6E7A0F24C
:1009700033404642C6F1400228462146FFF7C9FEF1
:1009800007468846284621463246FFF752FC434632
:100990003A46FFF74EFF3246BDE8F041FFF7B9BED9
:1009A0000000F03FC1F30A52C1F3130140F2FF33DC
:1009B00041F480119A4202DA00200146704740F269
:1009C00033439A42A2F2334202DC5242FFF731BC77
:1009D000FFF79FBE30B5041E71F1000404DB4FF039
:1009E0000044404264EB0101141E73F1000405DB76
:1009F0001C464FF00043524263EB04038B4208BF96
:100A0000824230BD30B5041E71F1000404DB4FF0AA
:100A10000044404264EB0101141E73F1000405DB45
:100A20001C464FF00043524263EB0403994208BF57
:100A3000904230BD064C074D06E0E06840F00103EF
:100A400094E8070098471034AC42F6D3FFF7A8FBB0
:100A50001C1D01083C1D010800487047941A01083C
:100A60002DE9F05F82460078002715468B460AF193
:100A70000104B946302801D09DB113E014F8010BF0
:100A80000127782803D0582801D045B10AE00DB1DC
:100A9000102D07D10027102514F8010B02E00825BE
:100AA00000E00A250026B0460EE005FB080005FB25
:100AB00006F1012701EB10461FFA80F8B6F5803FDA
:100AC00000D3B94614F8010B294600F069F8002854
:100AD000EBDABBF1000F05D00FB1641E00E0544605
:100AE000CBF80040B9F1000F06D00CF0DFFD022179
:100AF0000160C81EBDE8F09F48EA0640FAE72DE90C
:100B0000F04D00231A461B1A8A4103DB00200146E0
:100B1000BDE8F08DC1F30A52C1F3130141F4801511
:100B20004FF0000BD10702D100186D41521E002773
:100B3000044640F2FF11384601EB620A3E46804609
:100B4000024600204FF48011FFF773FBC219714178
:100B5000BB1846EB0100B4EB030C75EB000C04D39F
:100B6000E41A65EB000517460E46241908F101004A
:100B70006D4180463428E3DDF91946EB0600091B78
:100B8000A84103D24FF0FF32134601E00022134682
:100B90001BEB070046EB0A51BDE8F04DFFF749BEDD
:100BA0003A2800D2303820F02002412A01D3A2F1A5
:100BB0003700884201D34FF0FF30704770B58C1872
:100BC00010F8015B15F0070301D110F8013B2A1161
:100BD00006D110F8012B03E010F8016B01F8016B4E
:100BE0005B1EF9D12B0705D40023521E0DD401F84A
:100BF000013BFAE710F8013BCB1A921C03E013F813
:100C0000015B01F8015B521EF9D5A142D8D3002047
:100C100070BD70B50546AC6B206C00F0500050BB49
:100C2000206C40F4007020642068806800F0405020
:100C3000E8B9207ED8B92068C06A00F4700020B1FD
:100C40002068806800F4806088B92068406820F0DF
:100C5000200021684860206C20F480702064206CA3
:100C600000F4805018B9206C40F001002064204648
:100C700004F0D0F80BE0206C00F0100018B1204612
:100C800004F0D1F803E0A06BC16C2846884770BD22
:100C900070B50546AC6B40202064606C40F00400E9
:100CA0006064204604F0BFF870BD70B50446A56BC3
:100CB000284604F0B7F870BD10B5034804F0B4F846
:100CC00001200249087010BD18030020C800002050
:100CD00055494A6822F440324A604A6843681A43D8
:100CE0004A600268526822F4807203685A6002689F
:100CF0005368026943EA022203685A600268526834
:100D000022F0407203685A600268526883681A438E
:100D100003685A600268926822F4006203689A606D
:100D200002689268C3681A4303689A603F4B826AFC
:100D30009A4218D00268926822F0706203689A6042
:100D400002689268836A1A4303689A60026892682C
:100D500022F0405203689A6002689268C36A1A439C
:100D600003689A600BE00268926822F07062036880
:100D70009A600268926822F0405203689A600268A2
:100D8000926822F0020203689A6002689368027E09
:100D900043EA420203689A602022125CA2B1026810
:100DA000526842F4006203685A600268526822F492
:100DB000604203685A6002685368426A521E43EAFE
:100DC000423203685A6005E00268526822F4006209
:100DD00003685A600268D26A22F470020368DA6219
:100DE0000268D36A828B521E43EA02520368DA62B7
:100DF0000268926822F4007203689A60026893683D
:100E000090F8302043EA422203689A6002689268B0
:100E100022F4806203689A6002689368426943EA38
:100E2000822203689A607047002301400100000F8E
:100E300010B52DED088BB0EE408AF0EE608A9FED84
:100E4000100B53EC102B51EC180BFFF725FB41EC6A
:100E50001B0B9FED0D0B53EC102BFFF795FB41EC9B
:100E60001A0B9FED0B0B53EC102BFFF774FA41ECB0
:100E7000190BB0EE490AF0EE690ABDEC088B10BD03
:100E800052B81E85EB51E83F7B14AE47E17A643FD0
:100E9000000000000000394010B52DED088B002047
:100EA000934908609348008800EE100AB8EE400AA3
:100EB00010EE101A0846FFF7E7FB41EC1B0B9FED05
:100EC0008E0B53EC102BFFF7EDFA41EC1A0B9FED54
:100ED0008C0B53EC102BFFF757FB41EC190B9FEDDC
:100EE0008A0B53EC102BFFF7DDFA41EC180BFFF7E0
:100EF000DEFB874908607F48408800EE100AB8EEA4
:100F0000400A10EE101A0846FFF7BEFB41EC1B0B1F
:100F10009FED790B53EC102BFFF7C4FA41EC1A0B41
:100F20009FED770B53EC102BFFF72EFB41EC190BC9
:100F30009FED750B53EC102BFFF7B4FA41EC180B37
:100F4000FFF7B5FB724948606A48808800EE100AD6
:100F5000B8EE400A10EE101A0846FFF795FB41EC78
:100F60001B0B9FED650B53EC102BFFF79BFA41EC2D
:100F70001A0B9FED680B53EC102BFFF793FA41EC23
:100F8000190B9FED5F0B53EC102BFFF7FDFA41ECB3
:100F9000180BFFF78CFB5E4988605648C08800EE4E
:100FA000100AB8EE400A10EE101A0846FFF76CFB64
:100FB00041EC1B0B9FED500B53EC102BFFF772FA1B
:100FC00041EC1A0B9FED4E0B53EC102BFFF7DCFAA4
:100FD00041EC190B9FED4C0B53EC102BFFF762FA11
:100FE00041EC180BFFF763FB4949C8604148008991
:100FF00000EE100AB8EE400A10EE101A0846FFF78D
:1010000043FB41EC1A0B9FED3C0B53EC102BFFF70D
:1010100049FA41EC190B9FED3A0B53EC102BFFF7FB
:10102000B3FA41EC180BFFF742FB394908613BA0CA
:101030000BF0C8FE3648D0ED000AB0EE600A3BA0C7
:101040000EF0BCFA3248D0ED010AB0EE600A3BA0C7
:101050000EF0B4FA2E48D0ED020AB0EE600A3BA0C2
:101060000EF0ACFA2A48D0ED030AB0EE600A3BA0BD
:101070000EF0A4FA264890ED040A10EE101A084665
:10108000FFF702FB41EC1A0BB0EE4A0AF0EE6A0AD7
:10109000FFF7CEFEB0EE409AF0EE609A51EC190BDD
:1010A000FFF705FB08EE100AB0EE480A2FA00EF07D
:1010B00085FA32A00BF086FE0E4801881BA010F0C6
:1010C000C5F90C4841881DA010F0C0F90948818875
:1010D0001EA010F0BBF90748C18820A010F0B6F997
:1010E0000448018921A010F0B1F9BDEC088B10BDB6
:1010F00050020020C00700206666666666660A40E9
:10110000000000000000B0400000000000000040AF
:10111000CC0700205DBF60376CDB16400D0A2D2D1B
:101120002D2D2D2D2D2D2D0D0A0000006164633015
:101130005F352E305620202020203A006164633134
:101140005F332E335620202020203A006164633222
:101150005F3132562020202020203A006164633322
:101160005F332E335620202020203A0074656D70A6
:101170005F73656E7328D12920203A000D0D0D0094
:1011800030B503460C460020002130BD2DE9DE417C
:10119000064688460027134804681348007A012849
:1011A0001ED100F077FC00200F4908720F4908702B
:1011B00048700D48007888700B480079C8700C485A
:1011C00000680422CDE90021029040F233406043E0
:1011D000084A02EB00119E23002230460AF0B8FDB7
:1011E000BDE8DE8138020020E8F60020080100207A
:1011F000D0000020B83D002000205C4A1288642303
:1012000092FBF3F15A4A1268594BDB699A4201D9B1
:1012100040F00100564AD2F81431D2F830219342FE
:1012200001D940F00200524AD2F82832D2F84422C2
:10123000934201D940F004004D4AD2F83C33D2F831
:101240005823934201D940F00800494AD2F850345B
:10125000D2F86C24934201D940F01000444AD2F8ED
:101260006435D2F88025934201D940F02000404AED
:10127000D2F87836D2F89426934201D940F0400053
:101280003B4AD2F88C37D2F8A827934201D940F0D4
:101290008000384A12688A4207DD364A12684FF6E3
:1012A000FF739A4201D040F48070324A12698A4238
:1012B00007DD304A12684FF6FF739A4201D040F4BE
:1012C00000702C4A126A8A4207DD2A4A12684FF6D9
:1012D000FF739A4201D040F48060264A126B8A4222
:1012E00007DD244A12684FF6FF739A4201D040F49A
:1012F0000060204A126C8A4207DD1E4A12684FF6CF
:10130000FF739A4201D040F480501A4A126D8A420B
:1013100007DD184A12684FF6FF739A4201D040F475
:101320000050144A126E8A4207DD124A12684FF6C4
:10133000FF739A4201D040F480400E4A126F8A42F5
:1013400007DD0C4A12684FF6FF739A4201D040F451
:10135000004010B9084A12781AB90222074B1A70D5
:1013600002E00122054B1A70704700003202002093
:10137000A0300020383B00201C020020F800002094
:10138000010E044A1170010C5170010A9170D07065
:10139000704700000801002030B500200022002125
:1013A000434B1D780446401C424B1D5500BF7CE05A
:1013B000414B03EB01131B88C3F307250346441C71
:1013C000A0B23C4CE5543C4B03EB01131D780346A3
:1013D000441CA0B2374CE554374B03EB01131D7985
:1013E0000346441CA0B2334CE554334B03EB0113CA
:1013F0005D790346441CA0B22E4CE5542E4B03EB02
:1014000001139D790346441CA0B22A4CE5542A4B93
:1014100003EB0113DD790346441CA0B2254CE554CF
:10142000254B03EB01131D7A0346441CA0B2214C4B
:10143000E554214B03EB01135D7A0346441CA0B233
:101440001C4CE5541C4B03EB01139D7A0346441CD2
:10145000A0B2184CE554184B03EB0113DD7A034698
:10146000441CA0B2134CE554134B03EB0113DB688F
:10147000C3F307450346441CA0B20E4CE5540E4B83
:1014800003EB01139B89C3F307250346441CA0B259
:10149000084CE554084B03EB01131D7B0346441C29
:1014A000A0B2044CE5544B1C99B2082980DB30BD36
:1014B0001C020020B83B0020383B002070B5002003
:1014C00000220023002100BF8DE101EB810404EB29
:1014D0008114C74D55F82440260E0446451CA8B279
:1014E000C44D2E5501EB810404EB8114C04D55F819
:1014F0002440C4F307460446451CA8B2BD4D2E55F2
:1015000001EB810404EB8114B94D35F82440C4F398
:1015100007260446451CA8B2B64D2E5501EB8104A2
:1015200004EB8114B24D15F824600446451CA8B2A2
:10153000B04D2E5501EB810404EB8114AC4D05EB4D
:1015400084046468260E0446451CA8B2A94D2E5595
:1015500001EB810404EB8114A54D05EB8404646860
:10156000C4F307460446451CA8B2A24D2E5501EB14
:10157000810404EB81149E4D05EB8404A488C4F31C
:1015800007260446451CA8B29A4D2E5501EB81044E
:1015900004EB8114964D05EB840426790446451C22
:1015A000A8B2944D2E5501EB810404EB8114904DAB
:1015B00005EB8404A468260E0446451CA8B28D4D94
:1015C0002E5501EB810404EB8114894D05EB840455
:1015D000A468C4F307460446451CA8B2854D2E55A1
:1015E00001EB810404EB8114814D05EB8404248913
:1015F000C4F307260446451CA8B27E4D2E5501EBC8
:10160000810404EB81147A4D05EB8404267A0446A8
:10161000451CA8B2774D2E5501EB810404EB8114D3
:10162000734D05EB8404E468260E0446451CA8B2FD
:10163000704D2E5501EB810404EB81146C4D05EBCC
:101640008404E468C4F307460446451CA8B2694D07
:101650002E5501EB810404EB8114654D05EB8404E8
:10166000A489C4F307260446451CA8B2614D2E5533
:1016700001EB810404EB81145D4D05EB8404267BB2
:101680000446451CA8B25B4D2E5501EB810404EBCA
:101690008114574D05EB8404A469260E0446451CAD
:1016A000A8B2544D2E5501EB810404EB8114504D2A
:1016B00005EB8404A469C4F307460446451CA8B29C
:1016C0004C4D2E5501EB810404EB8114484D05EB84
:1016D0008404248BC4F307260446451CA8B2454D58
:1016E0002E5501EB810404EB8114414D05EB84047C
:1016F000267E0446451CA8B23E4D2E5501EB8104C2
:1017000004EB81143A4D05EB8404E469260E04468B
:10171000451CA8B2374D2E5501EB810404EB811412
:10172000334D05EB8404E469C4F307460446451CC5
:10173000A8B2304D2E5501EB810404EB81142C4DE1
:1017400005EB8404A48BC4F307260446451CA8B209
:10175000284D2E5501EB810404EB8114244D05EB3B
:101760008404267F0446451CA8B2224D2E5501EB69
:10177000810404EB81141E4D05EB8404246A260EBB
:101780000446451CA8B21B4D2E5501EB810404EB09
:101790008114174D05EB8404246AC4F307460446FC
:1017A000451CA8B2134D2E5501EB810404EB8114A6
:1017B0000F4D05EB8404248CC4F307260446451C16
:1017C000A8B20C4D2E5501EB810404EB8114084D99
:1017D00005EB840494F820600446451CA8B2054D2E
:1017E0002E554C1CA1B20829FFF66FAE70BD00004B
:1017F000A0300020B83B002010B500200021A34AF3
:1018000092F848400346401CA14AD4549F4AB2F87B
:101810004A2014120346401C9D4AD4549B4A92F815
:101820004A400346401C9A4AD454984AD26C140E3B
:101830000346401C964AD454944AD26CC2F30744DF
:101840000346401C924AD454904AB2F84C20C2F34A
:1018500007240346401C8E4AD4548C4A92F84C40CC
:101860000346401C8A4AD454884A126D140E02461C
:10187000431CD8B2864B9C54844A126DC2F3074471
:101880000246431CD8B2824B9C54804AB2F8502086
:10189000C2F307240246431CD8B27D4B9C547B4ABA
:1018A00092F850400246431CD8B2794B9C54774A78
:1018B000526D140E0246431CD8B2754B9C54734AA9
:1018C000526DC2F307440246431CD8B2704B9C547D
:1018D0006E4AB2F85420C2F307240246431CD8B221
:1018E0006B4B9C54694A92F854400246431CD8B250
:1018F000674B9C54654A926D140E0246431CD8B245
:10190000634B9C54614A926DC2F307440246431CE8
:10191000D8B25F4B9C545D4AB2F85820C2F30724FA
:101920000246431CD8B25A4B9C54584A92F858402D
:101930000246431CD8B2564B9C54544A92F85C4021
:101940000246431CD8B2524B9C54504A126E140E9D
:101950000246431CD8B24E4B9C544C4A126EC2F302
:1019600007440246431CD8B2494B9C54474AB2F83C
:101970006020C2F307240246431CD8B2444B9C5457
:10198000424A92F860400246431CD8B2404B9C54F5
:101990003E4AD26E140E0246431CD8B23C4B9C54B5
:1019A0003A4AD26EC2F307440246431CD8B2384BBF
:1019B0009C54364AB2F86C20C2F307240246431CFA
:1019C000D8B2334B9C54314A92F86C400246431CC7
:1019D000D8B22F4B9C542D4B9A6E93F86C30120E4C
:1019E00042EA0322D4B20246431CD8B2284B9C548C
:1019F000264B9A6E93F86C30120C42EA0342D4B232
:101A00000246431CD8B2224B9C54204B68331A88A0
:101A10001B79120A42EA0362D4B20246431CD8B2CE
:101A20001B4B9C54194A92F868400246431CD8B29A
:101A3000174B9C54154A126F140E0246431CD8B221
:101A4000134B9C54114A126FC2F307440246431CC5
:101A5000D8B20F4B9C540D4AB2F87020C2F3072441
:101A60000246431CD8B20A4B9C54084A92F8704074
:101A70000246431CD8B2064B9C54044A92F8744068
:101A80000246431CD8B2024B9C5410BD4039002082
:101A9000B83B002010B5FF2009F062FA0020014990
:101AA000087010BD440200202DE9FF4106460D4696
:101AB0002C46082C00D10024204609F0F7FE82B203
:101AC00000920C0EC4F340128DF80420C4F30012EF
:101AD0008DF8052004F001028DF80620C4F34002C1
:101AE0008DF80720C4F380028DF80820C4F3C002EB
:101AF0008DF80920C1F30742D2B28DF80A20C1F354
:101B00000722D2B28DF80B20020C42EA01426FF09C
:101B10007F431A4003929DE88C1086E88C10BDE844
:101B2000FF81000070B505460C46FDB90020214933
:101B300081F84800FF2009F013FA012211031E4822
:101B400003F008FF4FF47A701C490860002201215D
:101B50001B4803F0FFFE1B480078002829D11AA07B
:101B60000BF030F901201749087022E01348006893
:101B7000F8B91448007801281BD10E4981F84800B3
:101B800000201049087000224FF480510A4803F0E9
:101B9000E1FE13A00BF016F9204609F0E1F901224D
:101BA0009103054803F0D6FE40F6B831114802F023
:101BB000EFFF70BD40390020000C024020000020E3
:101BC000000402405C020020C2FBEAEBFEF7E0E505
:101BD000EC20CFC8D2C0CDC8C5210D0A000000003E
:101BE000C2EAEBFEF7E0E5EC20CFC8D2C0CDC8C515
:101BF000210D0A000402002030B585B005460024FE
:101C000020222046641C0DF800207E222046641C01
:101C10000DF8002005F13000C2B22046641C0DF81A
:101C2000002020222046641C0DF80020722220464D
:101C3000641C0DF8002073222046641C0DF800205F
:101C400034222046641C0DF8002038222046641CF3
:101C50000DF8002035222046641C0DF800205F227C
:101C60002046641C0DF8002074222046641C0DF8E8
:101C7000002065222046641C0DF8002073222046B7
:101C8000641C0DF8002074222046641C0DF800200E
:101C90003B222046641C0DF8002000222046641CD4
:101CA0000DF800202046641C0DF8002068460BF05B
:101CB000B9F805A00BF086F868460BF083F806A08B
:101CC0000BF080F805B030BDCFEEF1EBE0ED20EA8F
:101CD000EEE43A20000000000D0A000000BFFEE71D
:101CE00010B502A00BF09EF810BD00007E302065FC
:101CF00074685F636F6E6669673B00002DE9F04FA3
:101D00008DB005460E460024A046A1460027A246F7
:101D100000200B900A900990089000BF8346059020
:101D20000490039000BFFCE305F5007000EBC400D5
:101D3000D0E9001001225140014373D1F6A00BF00D
:101D400041F8F8A00BF03EF80120FE49087055F864
:101D5000240000210DF0EEFD804655F824000121FD
:101D60000DF0E8FD814655F8240002210DF0E2FD5A
:101D7000074655F8240003210DF0DCFD824655F896
:101D8000240004210DF0D6FD0B9055F82400052108
:101D90000DF0D0FD0A9055F8240006210DF0CAFD83
:101DA000099055F8240007210DF0C4FD089016F89D
:101DB00008000206002116F80900094342EA004023
:101DC000F25D4FEA022C40EA0C0316F80A000343C6
:101DD0000B98325C0020000640EA122041EA0261C2
:101DE00018430A9AB35C0022120442EA13424FEAF3
:101DF000034C034641EA0C001A430999735C002125
:101E0000090241EA136140EA03201143089AB25CD7
:101E10001043CD4A03C20AF0E3FCBFA00AF0D2FF90
:101E200059E2FFE705F5007000EBC400D0E90010AF
:101E300064235940014318D10120C249087005F5B7
:101E4000206000EBC40105C9CDE90002BF4A019939
:101E5000FFF796F90021CDE90601BD4ADDE906014B
:101E600003C20120BB490870DAE705F5007000EBFA
:101E7000C400D0E90010C822514001432CD10120F8
:101E8000B049087055F8240000210DF053FD80463C
:101E900055F8240001210DF04DFD814655F8240030
:101EA00002210DF047FD074655F8240003210DF0EF
:101EB00041FD824616F80800000616F8091040EAAF
:101EC0000140F15D40EA012016F80A1040EA010BDA
:101ED00058460AF03FFCA3E705F5007000EBC4008C
:101EE000D0E90010CE23594001432DD1012095495E
:101EF000087055F8240000210DF01CFD804655F8AF
:101F0000240001210DF016FD814655F82400022120
:101F10000DF010FD074655F8240003210DF00AFDD1
:101F2000824616F80800000616F8091040EA01403B
:101F3000F15D40EA012016F80A1040EA010B0A217F
:101F4000854802F025FE6BE705F5007000EBC40044
:101F5000D0E90010CC235940014330D10120794908
:101F6000087055F8240000210DF0E4FC804655F877
:101F7000240001210DF0DEFC814655F824000221E9
:101F80000DF0D8FC074655F8240003210DF0D2FCD3
:101F9000824616F80800000616F8091040EA0140CB
:101FA000F15D40EA012016F80A1040EA010B58469C
:101FB00009F09EFA09F07AFA6849086630E705F5F3
:101FC000007000EBC40103C903235840084334D117
:101FD00001205C49087055F8240000210DF0AAFC8E
:101FE000804655F8240001210DF0A4FC814655F8E7
:101FF000240002210DF09EFC074655F82400032121
:102000000DF098FC824616F80800000616F8091034
:1020100040EA0140F15D40EA012016F80A1040EA6A
:10202000010BF05D05904E4981F800B04D490598CF
:10203000087001204C490870F2E605F5007000EBCD
:10204000C400D0E9001004235940014331D10120DC
:102050003C49087055F8240000210DF06BFC8046C7
:1020600055F8240001210DF065FC814655F8240047
:1020700002210DF05FFC074655F8240003210DF006
:1020800059FC824616F80800000616F8091040EAC6
:102090000140F15D40EA012016F80A1040EA010B08
:1020A000594632A00FF0B4FA0BF0FF0008F058FFC9
:1020B000B6E605F5007000EBC400D0E9001005237A
:1020C0005940014370D101201E49087055F8240081
:1020D00000210DF02FFC804655F8240001210DF061
:1020E00029FC814655F8240002210DF023FC074607
:1020F00055F8240003210DF01DFC824655F82400FC
:1021000004210DF017FC0B9016F809000006F15D94
:1021100040EA01402CE000000D0A2D2D2D2D2D2D23
:102120000D0A0000CAEEECE0EDE4E03AF3F1F2E073
:10213000EDEEE2EAE020E2F0E5ECE5EDE8210D0A63
:102140000000000030020020D0000020D8F600205F
:102150003802002041020020E40100204039002024
:1021600044020020450200204002002043483A007B
:1021700016F80A1040EA01200B99715C40EA010B45
:1021800016F8080003905946039809F045FBF8A09B
:102190000AF018FE5946FAA00FF03AFAFEA0039989
:1021A0000FF054F9D9E3FFE705F5007000EBC40028
:1021B000D0E9001006235940014341D10120FA49DA
:1021C000087055F8240000210DF0B4FB804655F846
:1021D000240001210DF0AEFB814655F824000221B8
:1021E0000DF0A8FB074655F8240003210DF0A2FBD3
:1021F000824655F8240004210DF09CFB0B9016F844
:1022000009000006F15D40EA014016F80A1040EAB4
:1022100001200B99715C40EA010B16F8080003904D
:102220005946039809F005FBE0A00AF0CBFD59469A
:10223000D3A00FF0EDF9D8A003990FF007F98CE3C4
:1022400005F5007000EBC400D0E9001007225140F2
:10225000014341D10120D449087055F824000021E0
:102260000DF068FB804655F8240001210DF062FB5B
:10227000814655F8240002210DF05CFB074655F815
:10228000240003210DF056FB824655F8240004215A
:102290000DF050FB0B9016F809000006F15D40EAC6
:1022A000014016F80A1040EA01200B99715C40EADF
:1022B000010B16F8080003905946039809F092FAAA
:1022C000BEA00AF07FFD5946ADA00FF0A1F9B2A063
:1022D00003990FF0BBF840E305F5007000EBC40173
:1022E00003C908235840084341D10120AE49087072
:1022F00055F8240000210DF01DFB804655F8240000
:1023000001210DF017FB814655F8240002210DF044
:1023100011FB074655F8240003210DF00BFB824604
:1023200055F8240004210DF005FB0B9016F8090068
:102330000006F15D40EA014016F80A1040EA01206B
:102340000B99715C40EA010B16F80800039059469E
:10235000039809F054FA9EA00AF034FD594688A06B
:102360000FF056F98CA003990FF070F8F5E205F51F
:10237000007000EBC400D0E900100A23594001436B
:102380000BD101208849087096A00AF01BFD4FF47C
:102390007A71A24802F0FCFBDFE205F5007000EB69
:1023A000C400D0E90010D0235940014337D10120A7
:1023B0007D49087055F8240000210DF0BBFA8046D5
:1023C00055F8240001210DF0B5FA814655F8240096
:1023D00002210DF0AFFA074655F8240003210DF055
:1023E000A9FA824616F80800000616F8091040EA15
:1023F0000140F15D40EA012016F80A1040EA010BA5
:10240000874981F800B008460078012803D185A0EB
:102410000AF0D8FCA1E28DA00AF0D4FC9DE205F5FB
:10242000007000EBC400D0E900100B2359400143B9
:102430000FD101205C4908708EA00AF0C3FC002077
:1024400095490870954908700A21954802F0A0FB4B
:1024500083E205F5007000EBC400D0E900100C2207
:10246000514001430DD101204F4908708DA00AF061
:10247000A9FC0020944908700A21944802F088FBC6
:102480006BE205F5007000EBC400D0E900100D23ED
:10249000594001430DD10120434908708CA00AF036
:1024A00091FC0020934908700A21934802F070FBC8
:1024B00053E205F5007000EBC400D0E90010C92319
:1024C0005940014352D101203749087055F8240082
:1024D00000210DF02FFA804655F8240001210DF05F
:1024E00029FA814655F8240002210DF023FA074607
:1024F00055F8240003210DF01DFA824655F82400FA
:1025000004210DF017FA0B9016F809000006F15D92
:1025100040EA014016F80A1040EA01200B99715C6C
:1025200000E026E240EA010B16F808007349086053
:10253000594673A00EF08AFF704801687CA00EF027
:1025400085FF00EE10BAB8EE400A7C4880ED000A24
:1025500090ED000ADFED7A0A80EE201A794867498B
:10256000096800EB810080ED001AEDE0EFE000006B
:10257000CFF0E8F8B8EB204950300D0A0000000019
:10258000EEF2EFF0E0E2EBFFE5EC20495020E0E472
:10259000F0E5F13A00000000C220E1EBEEEA203065
:1025A000373220B90000000030020020CFF0E8F8F8
:1025B000B8EB204950310D0A00000000CFF0E8F8D8
:1025C000B8EB20646573745F4950300D0A00000059
:1025D000CFF0E8F8B8EB20646573745F4950310DB3
:1025E0000A000000C7E0EFF0E0F8E8E2E0E5EC20E8
:1025F000EAE0F1F1E5F2FB2030373220E220C0D6EC
:1026000020EDE020EFF0E5E4ECE5F220E8F520E055
:10261000E4F0E5F1EEE2210D0A0000007401002073
:1026200042020020C2EAEBFEF7E5EDE8E520F0E526
:10263000E6E8ECE020EEF1EDEEE2EDFBF520EFE078
:10264000F0ECE5F2F0EEE2210D0A0000C2FBEAEB4D
:10265000FEF7E5EDE8E520F0E5E6E8ECE020EEF158
:10266000EDEEE2EDFBF520EFE0F0ECE5F2F0EEE26E
:10267000210D0A00EDE0F7E8EDE0E5EC20F2E5F1F0
:10268000F220EFF0EEE2E5F0EAF320F8E8EDFB20CF
:10269000343835210D0A00003C01002025020020BD
:1026A0004C010020EDE0F7E8EDE0E5EC20F2E5F18B
:1026B000F220EFF0EEE2E5F0EAF320F8E8EDFB209F
:1026C000535049210D0A00003E0100205C0100200A
:1026D000EDE0F7E8EDE0E5EC20F2E5F1F220EFF0D7
:1026E000EEE2E5F0EAF320F8E8EDFB204A5441473A
:1026F000210D0A003D0100206C010020280200206D
:10270000CFF0E8EDFFF220EAEEFDF4F4E8F6E8E5BC
:10271000EDF220EAEEF0F0E5EAF6E8E820E8E7EC92
:10272000E5F0E5EDE8FF20F2EEEAE03A0000000017
:10273000E220EAE0EDE0EBE53A0000002C020020A8
:1027400000007A444039002000F052FD05E105F513
:10275000007000EBC40103C9CA225040084353D1A2
:1027600001208749087055F8240000210DF0E2F897
:10277000804655F8240001210DF0DCF8814655F81B
:10278000240002210DF0D6F8074655F82400032155
:102790000DF0D0F8824655F8240004210DF0CAF857
:1027A0000B9016F809000006F15D40EA014016F8AA
:1027B0000A1040EA01210B98305C41EA000B16F840
:1027C00008007049086059466FA00EF03FFE6D4842
:1027D0000168AFF2A4000EF039FE00EE10BAB8EEB8
:1027E000400A764880ED000A90ED000A5FED2C0A61
:1027F00080EE201A72486349096800EB810080ED81
:10280000001A00F04FFDA8E005F5007000EBC400D1
:10281000D0E90010CB22514001432AD10120584970
:10282000087009F0DDFF67A00AF0CCFA00F05EFC4A
:1028300000F04EFD05F5206000EBC40103C9704AAD
:10284000CDE90001FEF79CFC06906E4800686E49D9
:102850004022CDE90021029040F2334206985043D5
:102860006A4A02EB00119A232246284609F070FAC0
:1028700073E005F5007000EBC400D0E90010CF2331
:102880005940014319D101203D49087009F0A8FFC2
:102890005FA00AF097FA68A00AF0C4FA64216B48B6
:1028A00002F076F905F5206000EBC40103C9544A33
:1028B000CDE90001FEF764FC4FE005F5007000EB88
:1028C000C400D0E90010CD235940014345D1012077
:1028D0002B49087009F084FF5DA00AF073FA55F8DF
:1028E000240000210DF026F8804655F8240001212F
:1028F0000DF020F8814655F8240002210DF01AF859
:10290000074655F8240003210DF014F8824616F806
:102910000800000616F8091040EA0140F15D40EA9F
:10292000012016F80A1040EA010BBBF1030F09D190
:10293000002054490870012053490870022153486F
:1029400002F026F9BBF1010F07D102214F4802F036
:102950001FF964214E4802F01BF90948007801284C
:1029600006D10020064908702146284608F0F8FDE7
:10297000641C802CFFF4D8A90DB0BDE8F08F0000D6
:102980003002002028020020CFF0E8EDFFF220EA1C
:10299000EEFDF4F4E8F6E8E5EDF220EAEEF0F0E51D
:1029A000EAF6E8E820E8E7ECE5F0E5EDE8FF20ED01
:1029B000E0EFF0FFE6E5EDE8FF3A00002C02002032
:1029C000603900200D0ACFF0E8EDFFF220E7E0EFDC
:1029D000F0EEF120EDE020F1EFE8F1EEEA20EAEE92
:1029E000F0F0E5EAF2E8F0FEF9E8F520EAEEFDF4B1
:1029F000F4E8F6E8E5EDF2EEE22E0D0A0000000044
:102A0000D8F60020D0000020383A0020B83D002041
:102A10000D0ACFF0E8EDFFF220EFF0E8EAE0E72062
:102A2000EDE020E7E0EFF3F1EA20FFF7E5E5EA204B
:102A3000C13037320D0A00007E3020623037325FFD
:102A400073746172743A313B000000000C02002084
:102A50000D0ACFF0E8EDFFF220E7E0EFF0EEF12015
:102A6000EDE020EFF0EEE2E5F0EAF320F1E8E3ED4F
:102A7000E0EBE020524553455420E4EBFF20303793
:102A8000320D0A003F01002040010020CC0100204F
:102A90007401002010B54FF400710C4802F052FF91
:102AA0000B490978884210D04FF40071074802F0B2
:102AB00049FF074908704FF40071044802F042FFD3
:102AC0000446214603A00EF0C1FC10BD000C0240DC
:102AD00064020020504F4B5F4844535F4F55543AB7
:102AE000000000002DE9F041002400270025FE48E9
:102AF000007801287AD1FD480068FA2876D90120AB
:102B0000FB4908700020F9490860012007F0BCF972
:102B1000022007F0B9F9032007F0B6F9042007F006
:102B2000B3F9052007F0B0F9062007F0ADF907204A
:102B300007F0AAF9082007F0A7F9EE4890F840003E
:102B4000012804D107F0F6FAEB49086002E01420EE
:102B5000E9490860E74890F84100012806D10220C1
:102B600007F0E8FAE449C1F8140103E01420E2494F
:102B7000C1F81401DF4890F84200012806D1032073
:102B800007F0D8FADC49C1F8280203E01420DA493A
:102B9000C1F82802D74890F84300012806D1042044
:102BA00007F0C8FAD449C1F83C0303E01420D24925
:102BB000C1F83C03CF4890F84400012806D1052015
:102BC00007F0B8FACC49C1F8500403E01420CA4910
:102BD000C1F85004C74890F84500012807D10620E5
:102BE00007F0A8FAC449C1F8640504E0B4E1142070
:102BF000C149C1F86405BF4890F84600012806D1D4
:102C0000072007F097FABC49C1F8780603E01420C2
:102C1000B949C1F87806B74890F84700012806D1AD
:102C2000082007F087FAB449C1F88C0703E01420A4
:102C3000B149C1F88C07B0480068A84206D9AD4830
:102C400090F84000012801D1AB480568AA48D0F8A7
:102C50001401A84207D9A74890F84100012802D1E1
:102C6000A548D0F81451A448D0F82802A84207D9A2
:102C7000A04890F84200012802D19F48D0F828527D
:102C80009D48D0F83C03A84207D99A4890F84300E1
:102C9000012802D19848D0F83C539748D0F8500406
:102CA000A84207D9934890F84400012802D19248DD
:102CB000D0F850549048D0F86405A84207D98D4800
:102CC00090F84500012802D18B48D0F864558A4815
:102CD000D0F87806A84207D9864890F8460001281F
:102CE00002D18548D0F878568348D0F88C07A8429E
:102CF00007D9804890F84700012802D17E48D0F8D3
:102D00008C577C49A1F84A50002500244CE0611CF6
:102D1000C8B207F09BFA804604EB840000EB8410F5
:102D2000754A02EB800000F124010C22404601F0BC
:102D30002BFA04EB840101EB84116F4A02EB810151
:102D4000886004EB840000EB8410114601EB8000E6
:102D50008068401C38B9002004EB840101EB841129
:102D600002EB8101886004EB840000EB841062496F
:102D700001EB8000806804EB840101EB84115E4A62
:102D800002EB8101496988420DD901205B49087233
:102D9000084604600120486004EB840101EB8411C3
:102DA00002EB8101C874641C082CB0DB002416E01F
:102DB00004EB840000EB84104F4901EB8000806835
:102DC000A8420BD94B484030005D012806D104EBE6
:102DD000840000EB841001EB80008568641C082CE3
:102DE000E6DB4448C564002500242CE0611CC8B221
:102DF00007F0DEFA804604EB840000EB84103E4AC4
:102E000002EB800000F174010C22404601F0BCF995
:102E100004EB840101EB8411374A02EB8101C860A5
:102E200004EB840000EB8410114601EB8000C068C5
:102E3000401C38B9002004EB840101EB841102EB43
:102E40008101C860641C082CD0DB002427E004EB5F
:102E5000840202EB8412284B03EB8202D16804EB5C
:102E6000840202EB841203EB820290680CF076FB82
:102E7000804604EB840000EB84101F4A02EB8000C4
:102E800000F1C4010C22404601F07EF904EB8401FC
:102E900001EB8411184A02EB81014860641C082C84
:102EA000D5DB002409E004EB840000EB8410124918
:102EB00001EB800040680744641C082CF3DB0D48DC
:102EC0008765002424E004EB840000EB84100A49A9
:102ED00001EB8000C068A84219D906484030005D67
:102EE000012814D10CE0000044020020180000204A
:102EF0006502002040390020A0300020E8F60020C4
:102F000004EB840000EB841001EB8000C568641CB6
:102F1000082CD8DB52484565524D002416E004EBDE
:102F2000840000EB8410504901EB8000C068A84287
:102F30000BD24B484030005D012806D104EB8400E1
:102F400000EB841001EB8000C568641C082CE6DBF4
:102F50004348056500252DE04448007850BB4448AF
:102F60000078012826D100204149087000241FE084
:102F70004FF0FF3004EB840101EB84113A4A42F830
:102F80002100002004EB840101EB841102EB81019C
:102F9000C86004EB840101EB841102EB81018860BD
:102FA00004EB840101EB841102EB81014860641C95
:102FB000082CDDDB00262A48B0F84A002D49098894
:102FC000884201DD701CC6B22548C06C40F6C411B1
:102FD000884208D92248C06C0021494071EA0000AB
:102FE00001D0701CC6B21E48006D40F24C418842B0
:102FF00001D2701CC6B21A48406D40F2E2418842CC
:1030000008D91748406D0021494071EA000001D0FD
:10301000701CC6B21248806D47F23051884201D907
:10302000701CC6B20E4890F85C0008B9701CC6B29D
:1030300026B100200A4981F8740003E00120084904
:1030400081F87400064890F87400012802D10A49FA
:10305000087002E0022008490870BDE8F081000015
:1030600040390020A0860100A0300020440200204A
:103070006502002032020020F600002010B5002476
:103080000F48006840F21A41884209D90D4800688B
:10309000012805D100200B4908600BA009F092FE21
:1030A000084800780F4981F85C000648006801284C
:1030B00002D10D49087002E002200B49087010BDD2
:1030C000E4000020E0000020CFD0CECFC0CB20D144
:1030D000C8C3CDC0CB205431485A5F4D4B2121216C
:1030E0000D0A000040390020F400002010B5002433
:1030F00016A009F067FE00BF0EE0214616A00EF0F4
:10310000E1F9164800EB8400D0ED000AB0EE600A49
:1031100013A00CF053FA641C082CEEDB0BA009F092
:1031200051FE00240FE021460EA00EF0CBF90B4813
:10313000203000EB8400D0ED000AB0EE600A08A059
:103140000CF03CFA641C082CEDDB10BD0D0A2D2D93
:103150002D2D2D2D2D0D0A004B495B0040390020EF
:103160005D3D00004B555B0030B52DED028B91B0FD
:1031700020250024002008EE100A9FED1A0AF0EE28
:10318000408A2A4601A9680300F0ECFE00BF22E055
:1031900001A911F824000106A000401C01AA105C3E
:1031A00001EB0041A000801C105C01EB0021A0009D
:1031B000C01C105C084408EE100AB8EEC80AF0EE15
:1031C000408A9FED090AC8EE800A084800EB840097
:1031D000C0ED000A641C082CDADB11B0BDEC028BD8
:1031E00030BD00000000000000007A44403900209B
:1031F00010B588B04FF4802000F098FE0822694690
:10320000054807F053FE202422466946600300F07B
:10321000BDFE08B010BD00004039002030B52DEDD6
:10322000028B91B020250024002008EE100A9FEDAB
:103230001A0AF0EE408A2A4601A9A80300F092FE7D
:1032400000BF22E001A911F824000106A000401CE3
:1032500001AA105C01EB0041A000801C105C01EB96
:103260000021A000C01C105C084408EE100AB8EE53
:10327000C80AF0EE408A9FED090AC8EE800A0848A5
:1032800000EB8400C0ED000A641C082CDADB11B0EE
:10329000BDEC028B30BD00000000000000007A444D
:1032A0006039002010B588B04FF4002000F03EFED9
:1032B00008226946054807F0F9FD202422466946A0
:1032C000A00300F063FE08B010BD000060390020CC
:1032D00030B500210022002000BF1CE0204B03EB92
:1032E000820393ED000ADFED1F0A20EE200ABCEEF8
:1032F000C00A10EE101A0B0E1B4C2354C1F30744E6
:10330000194D431CEC54C1F30724831CEC54C31C1B
:10331000E954001D521C082AE0D300221DE0104B86
:10332000203303EB820393ED000ADFED0E0A20EE5B
:10333000200ABCEEC00A10EE101A0B0E0A4C2354E1
:10334000C1F30744084D431CEC54C1F30724831C0C
:10335000EC54C31CE954001D521C082ADFD330BDB5
:103360004039002000007A44383A002070B5064603
:1033700000240025F74800F03DFF18B1F6A009F041
:1033800051FD70BDF94800F035FF68B101221146CA
:10339000F74802F0DFFA0020F649087040F6B8312D
:1033A000F54801F0F5FBECE7F44800F023FF98B195
:1033B00009F016FAF2A009F005FD00220121EC48FF
:1033C00002F0C8FA0020EB490870F24908700A219F
:1033D000F14801F0DDFBD4E7EF4800F00BFF78B1D6
:1033E00009F0FEF9EDA009F0EDFC01221146E048DC
:1033F00002F0B0FA40F6B831DF4801F0C9FBC0E78F
:10340000EC4800F0F7FE002825D009F0E9F9EAA021
:1034100009F0D8FCD748007818B901F0A3FBD549CA
:103420000870D4480178EDA00EF010F8D14800786B
:10343000002803DD0120D749087002E00020D549AB
:103440000870C821EE4801F0A3FB9B22ED49EE482D
:1034500007F04EF895E7C84800F0CCFE60B109F0DF
:10346000BFF9EAA009F0AEFC0DF018FB4FF496711D
:10347000EC4801F08DFB84E7EA4800F0BBFEC0B1E8
:1034800009F0AEF908F0E2F9E7480078012804D124
:103490000A21C84801F07CFB07E0B6480078002804
:1034A00003DDC821D64801F073FB0020DE49087017
:1034B00067E7D34800F09EFE98B109F091F9DBA0D0
:1034C00009F080FCE0480168012008F0A5F90A2114
:1034D000DE4801F05DFB9B22CA49CB4807F008F8A3
:1034E0004FE7DA4800F086FE90B109F079F9D8A0EC
:1034F00009F068FC9F490978491EDC4A505CDC49A8
:10350000096808F089F90A21DA4801F041FB38E737
:10351000D84800F06FFE70B109F062F9D6A009F04A
:1035200051FCDC480168012008F083F90A21DA48DF
:1035300001F02EFB25E7D84800F05CFE90B109F0C1
:103540004FF9D6A009F03EFC8A490978491EC74ABE
:10355000505CD949096808F06CF90A21D74801F094
:1035600017FB0EE7D54800F045FE70B109F038F9B9
:10357000D3A009F027FCDB480168012008F032F9EC
:103580000A21D94801F004FBFBE6D74800F032FEDF
:1035900090B109F025F9D5A009F014FC7549097816
:1035A000491EB24A505CD949096808F01BF90A2142
:1035B000D74801F0EDFAE4E6D54800F01BFE70B103
:1035C00009F00EF9D3A009F0FDFBDB4801680120EA
:1035D00008F015F90A21D94801F0DAFAD1E6D748FE
:1035E00000F008FE90B109F0FBF8D5A009F0EAFB65
:1035F00060490978491E9D4A505CD949096808F01C
:10360000FEF80A21D74801F0C3FABAE6D54800F01F
:10361000F1FD38B109F0E4F8D3A009F0D3FBFEF7CF
:103620005FFBAEE6D74800F0E5FDB0B14FF4967110
:10363000D54801F0ADFA09F0D3F8D4A009F0C2FBE7
:103640004C480078401E89490C5C2146D6A00DF0FC
:10365000FDFE2046FEF7D0FA93E6CB4800F0CAFD07
:1036600048B309F0BDF8D3A009F0ACFBDB48007803
:10367000012803D1DAA009F0A5FB16E0DC480078A8
:1036800005280FDADA480078401CD9490870084646
:103690000178491CD7A00DF0D9FE0A21B94801F0E4
:1036A00077FA02E0D6A009F08DFB972255495648DB
:1036B00006F01EFF65E6D74800F09CFDE8B10A2140
:1036C000D54801F065FA09F08BF8D4A009F07AFB2F
:1036D0000020D949087027480078401E63490C5CD7
:1036E00008464178D5A00DF0B1FE082C00D1002489
:1036F000D449204608F000F943E6C74800F07AFDB7
:1037000038B309F06DF8D0A009F05CFB19480078D7
:10371000401E56490C5C082C00D10024204608F0BD
:10372000D3F804462146D2A00DF072FFC54884426A
:1037300006D1ABA009F046FB0120BF49087002E0AA
:10374000AFA009F03FFB98222E492F4806F0D0FE8B
:1037500017E691E10C0200207E3020623037325FA4
:1037600073746172743A313B00000000040200205F
:10377000000402401C02002074010020CC01002043
:103780004F4E20524553455420666F7220303732D9
:103790002E0D0A003F010020D40100204F46462094
:1037A000524553455420666F72203037322E0D0A31
:1037B00000000000DC010020CFF0EEE2E5F0EAE0DE
:1037C00020F1E8E3EDE0EBE020524553455420E4DE
:1037D000EBFF203037322E0D0A000000CAEEEBE876
:1037E000F7E5F1F2E2EE20E1EBEEEAEEE22030372F
:1037F0003220EDE020E1E5EAEFEBE5E9EDE53A0026
:103800007C01002018C4002040E40020C8E4B8F285
:1038100020F1E1EEF020E0E4F0E5F1EEE2210D0A26
:1038200000000000BC01002040010020D3F1F2E0C4
:10383000EDE0E2EBE8E2E0E5EC20ECE0F1F2E5F0CF
:1038400020495030210D0A001C0100208401002075
:10385000D3F1F2E0EDE0E2EBE8E2E0E5EC20F1EBC1
:10386000E5E9E220495030210D0A00001402002051
:103870002C0100208C010020D3F1F2E0EDE0E2EB1E
:10388000E8E2E0E5EC20ECE0F1F2E5F0204950312F
:10389000210D0A002001002094010020D3F1F2E064
:1038A000EDE0E2EBE8E2E0E5EC20F1EBE5E9E22037
:1038B000495031210D0A0000300100209C010020F8
:1038C000D3F1F2E0EDE0E2EBE8E2E0E5EC20ECE061
:1038D000F1F2E5F020444553545F495030210D0A80
:1038E0000000000024010020A4010020D3F1F2E038
:1038F000EDE0E2EBE8E2E0E5EC20F1EBE5E9E220E7
:10390000444553545F495030210D0A0034010020D2
:10391000AC010020D3F1F2E0EDE0E2EBE8E2E0E51B
:10392000EC20ECE0F1F2E5F020444553545F4950BF
:1039300031210D0A0000000028010020B401002000
:10394000D3F1F2E0EDE0E2EBE8E2E0E5EC20F1EBD0
:10395000E5E9E220444553545F495031210D0A0006
:1039600038010020C4010020D0E5F1F2E0F0F2209F
:10397000CCC0CA20FFF7E5E5EA20303732210D0A36
:10398000000000004C01002044010020CFEEF1FBBC
:10399000EBE0E5EC20EAEEE420EFEE20F8E8EDE5E0
:1039A00020343835210D0A005245515F4144523AC6
:1039B00000000000CFF0EEE2E5F0FFE5EC20F0E5DE
:1039C000E7F3EBFCF2E0F220F2E5F1F2E020F8E8B8
:1039D000EDFB20343835210D0A0000003C010020A9
:1039E000D2E5F1F220EFF0EEE9E4E5ED210D0A0079
:1039F00025020020CFEEEFFBF2EAE03A00000000E3
:103A0000D2E5F1F220EDE520EFF0EEE9E4E5ED217D
:103A10000D0A00005C01002054010020CFEEF1FBF4
:103A2000EBE0E5EC20EAEEE420EFEE20F8E8EDE54F
:103A300020535049210D0A003E0100204164723A92
:103A400000000000EFBEEDDECFF0EEE2E5F0FFE5B6
:103A5000EC20F0E5E7F3EBFCF2E0F220F2E5F1F226
:103A6000E020F8E8EDFB20535049210D0A0000004A
:103A7000416E637765723A00634800F0BBFBB0B1FA
:103A80004FF4FA71614801F083F808F0A9FE60A0D4
:103A900009F098F9002064490870002108460BF0ED
:103AA000E1FF0446214661A00DF0D0FC69E45748CF
:103AB00000F0A0FB002854D008F092FE5DA009F0B1
:103AC00081F96648016866A00DF0C0FC002520E081
:103AD0002946AFF26C300DF0F5FC67A009F072F9E1
:103AE00005EB8500654A02EB80008168AFF2883003
:103AF0000DF0A6FD62A009F065F905EB85015F4AAE
:103B000002EB8101C86809F05DF953A009F05AF988
:103B10006D1C524800688542DADB504800685949FC
:103B20000978884217D157480078401E00EB800082
:103B3000524901EB800080685349884207D1AFF2B7
:103B4000601009F03FF901203749087003E0AFF237
:103B5000501009F037F999224C494D4806F0C8FC3D
:103B60000FE44C4800F046FB58B14BA009F02AF98D
:103B700001204D4908704FF4FA614C4801F008F8F3
:103B800011E44A4800F036FB58B149A009F01AF98F
:103B90000220454908704FF4FA61494800F0F8FFE7
:103BA00019E4474800F026FB58B146A009F00AF98D
:103BB00003203D4908704FF4FA61464800F0E8FFE1
:103BC00009E4444800F016FBD8B143A009F0FAF824
:103BD00001204649087000204549087001204549E8
:103BE0000870454908700220444908700120444982
:103BF0000870444908704449087000202A49087038
:103C000028E400BF26E400006C01002064010020CD
:103C1000CEEFF0E0F8E8E2E0E5EC20F8E8EDF320A4
:103C20004A544147210D0A003D010020746D703057
:103C30003A000000CFF0EEE2E5F0FFE5EC20F0E521
:103C4000E7F3EBFCF2E0F220F2E5F1F2E020F8E835
:103C5000EDFB204A544147210D0A0000FC020020E0
:103C6000CAEEEBE8F7E5F1F2E2EE20F3F1F2F0EE66
:103C7000E9F1F2E23A0000005D2000000821012095
:103C8000202D20001C020020DD20A00218C40020EE
:103C900040E40020E401002043E2E5F2EEE4E8EE37
:103CA000E4FB3A300D0A000024020020EC01002061
:103CB00043E2E5F2EEE4E8EEE4FB3A310D0A0000FF
:103CC000F401002043E2E5F2EEE4E8EEE4FB3A32F0
:103CD0000D0A0000FC01002043E2E5F2EEE4E8EE0C
:103CE000E4FB3ACDCED0CCC00D0A0000F10000209C
:103CF000F2000020F3000020F4000020F500002076
:103D0000F6000020F7000020F800002010B5002089
:103D100002490870024801F099FA10BD50000020D5
:103D20009406002010B5024801F090FA10BD000082
:103D30006003002010B5024801F088FA10BD0000B1
:103D4000F406002010B5002002490870024801F076
:103D50007DFA10BD380000203406002001460878A6
:103D600010381823B0FBF3F20848805CC865032ABA
:103D700005D908686FF30900001D886503E008682D
:103D80006FF309008865886D7047000020180108EE
:103D9000014600208A6A8B69CBB932B1012A0DD065
:103DA000022A03D0032A10D10EE000BFCB6A03F031
:103DB0008073B3F1807F00D1012007E0CB6AB3F1BB
:103DC000C07F00D1012001E000E000BF34E08B693A
:103DD000B3F5005F1AD132B1012A07D0022A03D00D
:103DE000032A11D10AE000BF01200EE0CB6A03F0E4
:103DF0008073B3F1807F00D1012006E0CB6AB3F17C
:103E0000C07F00D1012000E000BF15E032B1012ADF
:103E100005D0022A04D0032A0CD103E000BF00BF62
:103E2000012008E0CB6A03F08073B3F1807F00D1FA
:103E3000012000E000BF00BF704730B5046824686F
:103E400024F4802405682C60046863608468402C36
:103E500004D10468A2600468E16003E00468A16022
:103E60000468E26030BD0000F0B585B05324002541
:103E700000260027124801F097FDF92004904FF624
:103E8000FF7000EA44014FF47A7301220C4801F0FC
:103E900073FE054655B9012003AACDE90020610053
:103EA000034604AA0290064802F0BCF8044801F058
:103EB0005DFD9DF80C0000F00106304605B0F0BD38
:103EC000C0030020704700000349086000BF02499A
:103ED00009680029FBD170472400002000B5014685
:103EE00000220DE0FA2000F00EF8FA2000F00BF8A6
:103EF000FA2000F008F8FA2000F005F8501C82B211
:103F00008A42EFDB00BD704710B501E009F052FBBB
:103F10000DF000F800F001000028F7D10DF068F86E
:103F20000CF0E6FF0DF052F810BD000038B5044665
:103F30000BA00068009001E009F03CFB0CF0EAFFE8
:103F400000F001000028F7D10DF052F800236A4676
:103F50002146D8200DF05EF80DF038F838BD00008D
:103F6000FF00000070B504460D46164601E009F05A
:103F700021FB0CF0CFFF00F001000028F7D1334601
:103F80002A46214603200CF0EFFF70BD70B50446B1
:103F90000D46164601E009F00DFB0CF0BBFF00F0EA
:103FA00001000028F7D10DF023F833462A462146B8
:103FB00002200DF02FF80DF009F870BD38B5044659
:103FC0000BA00068009001E009F0F4FA0DF058F839
:103FD00000F001000028F7D10DF0C0F800236A4678
:103FE0002146D8200DF0CCF80DF0A6F838BD000021
:103FF000FF00000070B504460D46164601E009F0CA
:10400000D9FA0DF03DF800F001000028F7D10DF0CD
:10401000A5F833462A46214602200DF0B1F80DF0EE
:104020008BF870BD2DE9F05F06460C4617469946A1
:10403000DDE90AA84FF0000B002506F5206000EB33
:10404000C70103C9C4E90601A56A202D41D2D4E9FC
:104050000A30591C40F10000C4E90A10002105EBA8
:10406000450000EB851204F1300000EBC200C0E90E
:10407000048105EB450000EB851104F1300000EBF5
:10408000C100C0F8049006F5C06000EBC70006C888
:1040900005EB450000EB851304F1300000EBC30095
:1040A000C0E90212012105EB450000EB851204F185
:1040B000300040F8321005EB450000EB851204F1AA
:1040C000300000EBC20080F818A0206A293020627E
:1040D00004E04FF0010B03A008F074FE5846BDE861
:1040E000F09F0000EDE5F220ECE5F1F2E020E4EBDA
:1040F000FF20EAE2E8F2E0EDF6E8E9210D0A00002F
:1041000010B5012001F026FB01200149087010BD07
:10411000C000002010B5022001F01CFB0120014965
:10412000087010BDC100002010B5082001F012FB7E
:1041300001200149087010BDC300002010B54020C7
:1041400001F008FB01200149087010BDC6000020E5
:104150007047000010B5012211030A4801F0FAFB74
:1041600001225103074801F0F5FB0120FFF7ACFEE7
:1041700000224FF40051034801F0ECFB0120FFF74F
:10418000A3FE10BD000402402DE9F043A1B0074694
:104190000E4614464FF000080025204604EBD0716F
:1041A0004FEA610900BF08E0601B801E56F820102E
:1041B000601B401E46F820106D1C601EA842F3DCF8
:1041C0003760002505E056F8250001A941F82500D3
:1041D0006D1CA542F7DB064B0422214601A8FCF723
:1041E00038F801A850F82980404621B0BDE8F08396
:1041F000B1F5000801460878012803D100200870B5
:10420000012070470020FCE72DE9F04790B00746F9
:1042100089464FF0000A3846F91707EB5171C1F390
:10422000C706CA4600224FF48061854801F092FB20
:1042300050460CF04BFE4FF000080BE000200CF055
:1042400045FE00216A4602EBC80203C208F10100E4
:1042500000F0FF08F91707EB5171B8EBE10FEDDB48
:1042600001229102764801F075FB012E01D1DDE9B2
:104270000045022E0AD1DDE90012100240EA116069
:104280000A02DDE90231D41840EB0105032E12D1F8
:10429000DDE90012100440EA11400A04DDE90231B0
:1042A000090241EA13611B02D2184841DDE90431D9
:1042B000D41840EB0105042E1AD1DDE900021106E5
:1042C00041EA10210206DDE90230000440EA134011
:1042D0001B04D2184141DDE90430000240EA1360BA
:1042E0001B02D2184841DDE90631D41840EB010524
:1042F000052E1DD1DDE90231090641EA13211B0615
:1043000000981A1C4141DDE90430000440EA1340E2
:104310001B04D2184141DDE90630000240EA136077
:104320001B02D2184841DDE90831D41840EB0105E1
:10433000062E22D1009801020022029892184141D3
:10434000DDE90430000640EA13201B06D21848417C
:10435000DDE90631090441EA13411B04D218414149
:10436000DDE90830000240EA13601B02D218484120
:10437000DDE90A31D41840EB0105072E29D1009858
:1043800001044FF0000C02981CEB0C0241EB0021E1
:10439000049812EB0C024141DDE90630000640EAC8
:1043A00013201B06D2184841DDE90831090441EA0F
:1043B00013411B04D2184141DDE90A30000240EAF2
:1043C00013601B02D2184841DDE90C31D41840EBD0
:1043D0000105082E2ED14FF0000C02990A04634605
:1043E000614694460098CA184CEB00600499121C70
:1043F00040EB01210698121C4841DDE9083109060D
:1044000041EA13211B06D2184841DDE90A310904AB
:1044100041EA13411B04D2184141DDE90C3000028E
:1044200040EA13601B02D2184841DDE90E31D4186E
:1044300040EB01052046294610B0BDE8F08700009A
:10444000001002402DE9FC470746894614461D46E8
:104450003846F91707EB5171C1F3C706012E02D197
:10446000E0B28DF80300022E08D1E0B28DF8020010
:10447000200A40EA0560C0B28DF80300032E0ED179
:10448000E0B28DF80100200A40EA0560C0B28DF864
:104490000200200C40EA0540C0B28DF80300042E53
:1044A00014D1E0B28DF80000200A40EA0560C0B2E5
:1044B0008DF80100200C40EA0540C0B28DF80200E2
:1044C000200E40EA0520C0B28DF80300052E17D15A
:1044D000E0B28DF80000200A40EA0560C0B28DF815
:1044E0000100200C40EA0540C0B28DF80200200E09
:1044F00040EA0520C0B28DF80300E8B28DF8040050
:10450000062E1AD1E0B28DF80000200A40EA0560BC
:10451000C0B28DF80100200C40EA0540C0B28DF811
:104520000200200E40EA0520C0B28DF80300E8B278
:104530008DF80400280A8DF80500072E1DD1E0B281
:104540008DF80000200A40EA0560C0B28DF8010035
:10455000200C40EA0540C0B28DF80200200E40EA6F
:104560000520C0B28DF80300E8B28DF80400280AD7
:104570008DF80500280C8DF80600082E20D1E0B239
:104580008DF80000200A40EA0560C0B28DF80100F5
:10459000200C40EA0540C0B28DF80200200E40EA2F
:1045A0000520C0B28DF80300E8B28DF80400280A97
:1045B0008DF80500280C8DF80600280E8DF80700F0
:1045C00000224FF48061124801F0C4F949F08000E4
:1045D0000CF07CFC701EC6B24FF0000809E0A6EBA0
:1045E00008011DF801000CF071FC08F1010000F059
:1045F000FF08F91707EB5171B8EBE10FEFDB012270
:104600009102034801F0A6F90020BDE8FC870000F4
:10461000001002402DE9F04F89B0044600BF4FF072
:104620000009CA4600BFCB4600BF00BF207A010682
:104630000022607A124341EA0041A07A41EA002157
:10464000E07A0843217B09060A4340EAE171607B76
:10465000000442EA000341EAE072A07B0002034347
:1046600042EAE070E17B0B4340EAE170CDE90630BD
:10467000FE4ADDE90601FCF783FD8046607821787B
:1046800040EA012140F2334008FB00F0F84A02EB17
:1046900000100180E078A17840EA012140F2334027
:1046A00008FB00F002EB00104180207900066179E0
:1046B00040EA0140A17940EA0120E179084340F253
:1046C000334108FB01F102EB01118860207A0106F9
:1046D0000022607A124341EA0040A17A40EA0121B7
:1046E000E07A41EA0003207B01061046084343EAD2
:1046F000E171627B120440EA020341EAE270A17BAD
:104700000A024FEAE27C1A4340EA0C00E17B0A43CA
:1047100040EAE17040F2334108FB01F1D44B03EB76
:104720000111C1E90420207C01060022607C030401
:1047300042EA02001943A27C4FEA022C024641EAF7
:104740000C01E07C0143207D0006024341EAE07158
:10475000607D0004C317104341EA0302A17D0902F2
:10476000CB1701431A43E07D0B46034342EAE07155
:1047700040F2334008FB00F0BD4A02EB0010C0E9F4
:104780000631207E0006617E40EA0140A17E40EABB
:104790000120E17E084340F2334108FB01F102EBC6
:1047A00001110862207F0006617F40EA0140A17F7D
:1047B00040EA0120E17F084340F2334108FB01F168
:1047C00002EB0111486294F820000206002194F8DF
:1047D0002100094342EA004094F822204FEA022CCB
:1047E0000A4640EA0C0194F8230041EA000394F8D9
:1047F0002400010642EA010043EAE17294F8251020
:104800000904084342EAE17294F8261009020843B9
:1048100042EAE17294F82710084342EAE17240F25A
:10482000334108FB01F1924B03EB0111C1E90A028C
:10483000282500200646074662E1605D0106681CE7
:10484000205C41EA0041A81C205C41EA0021E81CF0
:10485000205C014340F2334008FB00F0844A02EB45
:104860000010303006EB460202EB861240F83210A0
:10487000281D205C0106681D205C41EA0041A81D3E
:10488000205C41EA0021E81D205C014340F23340F6
:1048900008FB00F0764A02EB0010303006EB4602CF
:1048A00002EB861200EBC200416005F10800205CBB
:1048B0000106002205F10900205C124341EA004094
:1048C00005F10A01615C40EA012105F10B00205C61
:1048D000014305F10C00205C030642EA030041EAB3
:1048E000E37105F10D02A25C1204D31702431943D0
:1048F00005F10E00205C0002C317104341EA0302D9
:1049000005F10F01615C03460B4342EAE17040F29E
:10491000334108FB01F1564A02EB0111303106EB3D
:10492000460202EB861201EBC201C1E9023005F139
:104930001000205C0106002205F11100205C030438
:1049400042EA0200194305F11202A25C4FEA022C6E
:10495000024641EA0C0105F11300205C014305F118
:104960001400205C0006024341EAE07105F11500E5
:10497000205C0004024341EAE07105F11600205C6E
:104980000002024341EAE07005F11701615CCB17B8
:104990001143184340F2334208FB02F2344B03EB5D
:1049A0000212303206EB460303EB861302EBC3021E
:1049B000C2E904102F48D0F800B0016841600068D7
:1049C000401E2C4908624FF0000A07E005EB0A017F
:1049D000605C294906F0F0FE0AF1010ABAF1180FED
:1049E000F4D34FF000091DE005F118004844215CA4
:1049F00040F2334008FB00F01D4A02EB001030305B
:104A000006EB460202EB861200EBC200183000F8FB
:104A1000091005F118014944605C174906F0CCFE05
:104A200009F1010940F2334008FB00F0104901EBA5
:104A30000010303006EB460101EB861150F83100D2
:104A40004845D1D80B480068401C0A49486205F126
:104A5000180000EB090540F2334008FB00F0044960
:104A600001EB0010303006EB460107E0D8F60020DD
:104A7000E880002018E4002018C4002001EB861113
:104A800000EBC100C1688068CDE9040140F2334009
:104A900008FB00F0234901EB0010303006EB460123
:104AA00001EB861100EBC10041690069CDE902010B
:104AB00040F2334008FB00F01A4901EB0010006996
:104AC00040F2334108FB01F1164A02EB011130318B
:104AD00006EB460202EB861201EBC2014968CDE902
:104AE000001040F2334108FB01F10F4A02EB0110C4
:104AF0005B460E4A0E4906F05BFD761C47F1000747
:104B000040F2334008FB00F0064901EB0011D1E907
:104B10000A01301A77EB0100FFF48FAE09B0BDE84F
:104B2000F08F0000E8800020B83D002040E4002025
:104B300018C4002008480068B0F5167F0AD9002084
:104B40000549086005480068401C044908600120C8
:104B5000034908707047000014010020180100206C
:104B60001001002070B500240025002600BF08E0D9
:104B7000204606F0B5FE06460448864200D16D1C6C
:104B8000641C082CF4DB284670BD0000EFBEEDDE8F
:104B90000A46002100230370426000E0491C044BD8
:104BA00053F82130002BF9D1014B43F82100704715
:104BB000B839002070B5002400250F48007801287E
:104BC00019D100BF15E0204606F08AFE05460B48C5
:104BD00085420DD121460AA00CF038FC01200C4979
:104BE0000872601E086005204860002002490870B5
:104BF000641C082CE7DB70BD42020020EFBEEDDE36
:104C0000CDE0E9E4E5EDE020FFF7E5E9EAE03A0090
:104C1000E8F600202DE9F041044600250026002793
:104C200000BF1BE04FF480410F4800F08BFE0746A9
:104C3000700800EBC776012251030B4800F08AFE92
:104C40000120FFF741F900224FF40051064800F01F
:104C500081FE0120FFF738F9681C85B2A542E1DB2F
:104C60003046BDE8F08100000004024070470000BB
:104C700038B502460020009000BF92F83C000128A1
:104C800001D1022038BD012082F83C0000BF086835
:104C9000092816D91068C0680C780A3C04EB440552
:104CA0000724AC40A0431468E0600C780A3C04EB95
:104CB00044048868A0401468E46820431468E060F5
:104CC00013E0106800690C7804EB44050724AC403D
:104CD000A043146820610C7804EB44048868A04069
:104CE000146824692043146820614868072817D293
:104CF0001068406B0C79641E04EB84051F24AC40E3
:104D0000A04314686063088880B20C79641E04EBC9
:104D10008404A0401468646B20431468606331E02D
:104D200048680D2817D21068006B0C79E41F04EB5B
:104D300084051F24AC40A04314682063088880B217
:104D40000C79E41F04EB8404A0401468246B204316
:104D50001468206316E01068C06A0C790D3C04EBFF
:104D600084051F24AC40A0431468E062088880B228
:104D70000C790D3C04EB8404A0401468E46A2043E1
:104D80001468E0621E4B1F4C1068A0420AD10868EC
:104D9000122807D1586820F400005860586840F481
:104DA00080005860174C1068A04222D1164C086849
:104DB000A04202D0086811281BD1586820F4800056
:104DC0005860586840F4000058600F4C0868A042D2
:104DD0000FD10E4800680E4CB0FBF4F000EB8000E1
:104DE0004000009002E00098401E009000980028CB
:104DF000F9D100BF002082F83C0000BF00BF41E7AE
:104E00000023014000200140120000100C0300208C
:104E100040420F0002490968491C014A116070476D
:104E2000500200207047704770B5044600250026E8
:104E300020680068C0F3400520684068C0F3401651
:104E400095B38EB3206C00F0100018B9206C40F4BC
:104E5000007020642068806800F04050E8B9207E2F
:104E6000D8B92068C06A00F4700020B1206880685A
:104E700000F4806088B92068406820F02000216834
:104E80004860206C20F480702064206C00F4805016
:104E900018B9206C40F0010020642046FFF7BAFFEB
:104EA0006FF012002168086020680068C0F3800578
:104EB00020684068C0F3C016E5B3DEB3206C00F094
:104EC000100018B9206C40F40050206420688068FD
:104ED00000F4401038BB2068806B00F4401020B113
:104EE0002068806800F48060E8B92068406800F4B9
:104EF0008060C0B92068806800F0405098B9207E7A
:104F000088B92068406820F0800021684860206CE3
:104F100020F480502064206C00F4807018B9206C5C
:104F200040F0010020642046FFF7A0FE6FF00C0067
:104F3000216808602068006800F00105206840686A
:104F4000C0F3801685B17EB12068006800F00100D2
:104F500050B1206C40F480302064204600F052F8BC
:104F60006FF001002168086020680068C0F34015F8
:104F700020684068C0F380667DB176B1606C40F017
:104F8000020060646FF02000216808602046FFF78F
:104F90004AFF6FF020002168086070BD70B50446BC
:104FA00000250CB9012070BD1549A06A884200D0C7
:104FB00000BF206C30B9204600F026F80020606465
:104FC00084F83C00206C00F0100088B9206C20F4BC
:104FD000885040F0020020642046FBF779FE002054
:104FE0006064206C20F0020040F00100206400E0CA
:104FF000012500BF002084F83C0000BF2846D2E70E
:105000000100000F7047000010B586B0044614215F
:1050100001A8FBF773F92B492068884250D100BFE3
:10502000002000902848006840F4807026490860FD
:105030000846006800F48070009000BF00BF00BF09
:105040000020009020481438006840F001001E49FC
:10505000143908600846006800F00100009000BFA5
:1050600000BF0F200190032002900020039001A9AF
:10507000164800F07DFB164816490860002048607D
:10508000002114488160C1604FF4806101614900D2
:105090004161890081614911C161090201620421F4
:1050A0004162012181620021C162016300F0EEF9D9
:1050B00008B1FFF74DF800BF0648A063846300BF46
:1050C00006B010BD002001404438024000000240FC
:1050D0001064024060030020F8B504460D461646F1
:1050E0000020009000BF94F83C00012801D102206C
:1050F000F8BD012084F83C0000BF2068806800F003
:105100000100A0B92068806840F001002168886033
:105110003D4800683D49B0FBF1F000EB40000090D5
:1051200002E00098401E009000980028F9D1206805
:10513000806800F00100002864D0206C40F201611A
:10514000884340F4807020642068406800F48060E8
:1051500028B1206C20F4005040F480502064206C72
:1051600000F48050B0F5805F04D1606C20F0060040
:10517000606401E00020606400BF002084F83C000F
:1051800000BF234F2348A16BC8632348A16B086469
:105190002248A16BC8646FF0220021680860206873
:1051A000406840F08060216848602068806840F472
:1051B000807021688860226802F14C0133462A46DB
:1051C000A06B00F0D9F9786800F01F0058B920688A
:1051D000806800F0405028B92068806840F0804026
:1051E000216888600EE00E49206888420AD1206854
:1051F000806800F0405028B92068806840F0804006
:1052000021688860002073E70C03002040420F00F3
:1052100000230140130C0008AB0C0008910C00089F
:1052200000200140014691F83500022803D080207B
:10523000486501207047052081F83500086800683E
:1052400020F001000A6810600020F3E7F8B504467A
:10525000002000908C4800684FF41651B0FBF1F725
:10526000A56D2E6894F85C1008208840304098B1F5
:105270002068006800F0040070B12068006820F029
:1052800004002168086094F85C1008208840A86039
:10529000606D40F00100606594F85C10012088406A
:1052A000304068B12068406900F0800040B194F857
:1052B0005C1001208840A860606D40F002006065CD
:1052C00094F85C1004208840304068B12068006881
:1052D00000F0020040B194F85C1004208840A860FF
:1052E000606D40F00400606594F85C101020884008
:1052F000304078B32068006800F0080050B394F89C
:105300005C1010208840A8602068006800F48020AD
:1053100080B12068006800F4002028B9206CC8B172
:105320002046216C884715E0A06C98B12046A16CFE
:1053300088470FE02068006800F4807028B9206872
:10534000006820F0080021680860206C10B1204639
:10535000216C884794F85C10202088403040002859
:1053600065D02068006800F0100000285FD094F835
:105370005C1020208840A86094F83500052828D1CA
:105380002068006820F016002168086020684069E5
:1053900020F0800021684861206C08B9A06C28B119
:1053A0002068006820F008002168086094F85C100C
:1053B0003F208840A86000BF002084F8340000BF70
:1053C000012084F83500206D10B12046216D8847FA
:1053D000F8BD2068006800F4802080B12068006873
:1053E00000F4002028B9606C10B12046616C884739
:1053F0001DE0E06BD8B12046E16B884717E02068DC
:10540000006800F4807068B92068006820F010001F
:105410002168086000BF002084F8340000BF01202C
:1054200084F83500E06B10B12046E16B8847606D71
:1054300038B3606D00F00100F0B1052084F835004C
:105440002068006820F001002168086000BF009813
:10545000401C0090B84200D905E02068006800F0C8
:1054600001000028F3D100BF00BF002084F8340001
:1054700000BF012084F83500E06C10B12046E16CDB
:10548000884700BFA4E700000C0300202DE9F0418D
:105490000446002500F064FA074614B90120BDE86F
:1054A000F081606A00B100BF00BF002084F83400C2
:1054B00000BF022084F835002068006820F0010059
:1054C000216808600AE000F04BFAC01B052805D9E6
:1054D00020206065032084F83500E0E7206800683C
:1054E00000F001000028EED1206805682148054041
:1054F000D4E901010843E16808432169084361696F
:105500000843A1690843E1690843216A0843054348
:10551000606A042803D1D4E90B01084305432068DD
:1055200005602068456925F00705606A0543606AE3
:1055300004280DD1A06A0543E06A48B12046FEF771
:1055400027FC28B140206065012084F83500A6E7DB
:10555000206845612046FEF701FC064694F85C1081
:105560003F208840B06000206065012084F835004D
:10557000002094E73F8010F02DE9F04704460D46E7
:1055800016461F464FF00008D4F8589000BF94F814
:105590003400012802D10220BDE8F087012084F800
:1055A000340000BF94F8350001282BD1022084F884
:1055B0003500002060653B46324629462046FEF70E
:1055C0003CFC94F85C103F208840C9F80800206833
:1055D000006840F01600216808602068406940F0CB
:1055E000800021684861206C28B12068006840F084
:1055F0000800216808602068006840F00100216808
:10560000086006E000BF002084F8340000BF4FF0BF
:1056100002084046C0E70000F0B50C460025002215
:105620000023002181E0012606FA01F504EA0502C3
:10563000AA4279D13F4E8F0856F827308E07370F90
:105640000F26BE4033403C4EB04201D1002614E04C
:105650003A4EB04201D101260FE0394EB04201D19D
:1056600002260AE0374EB04201D1032605E0364E4D
:10567000B04201D1042600E007268F073F0FBE404D
:105680009E4222D18E07370F0F2606FA07F3294EC6
:105690008F0856F827609E43264F4FEA910C47F833
:1056A0002C602A4E36689643284F3E603E1D366871
:1056B00096433F1D3E603E1D366896433F1D3E604B
:1056C0003E1D366896433F1D3E6006684FEA410C1A
:1056D000032707FA0CF7BE430660CF0800F1200647
:1056E00056F827604F074FEAD76C0F2707FA0CF7D9
:1056F000BE434FEAD10C00F1200747F82C608668C2
:105700004FEA410C032707FA0CF7BE438660466850
:1057100001278F40BE434660C6684FEA410C03270D
:1057200007FA0CF7BE43C660491C1029FFF47BAF93
:10573000F0BD0000083801400000024000040240B3
:1057400000080240000C024000100240003C0140F2
:105750007047000010B5044604480068204020B19E
:10576000024804602046FFF7F3FF10BD143C0140DF
:10577000F8B503460A460025002400200021CDE0AC
:10578000012606FA01F5166806EA0504AC4273D153
:105790005668022E02D05668122E13D1CF0803F19C
:1057A000200656F827004E07F70E0F26BE40B043DE
:1057B0004F07FF0E1669BE403043CF0803F12006A5
:1057C00046F8270018684F000326BE40B0431679FC
:1057D00006F003064F00BE40304318605668012EA5
:1057E00008D05668022E05D05668112E02D0566891
:1057F000122E13D198684F000326BE40B0434F00CD
:10580000D668BE4030439860586801268E40B04349
:105810001679C6F300168E4030435860D8684F00A2
:105820000326BE40B0434F009668BE403043D86068
:10583000566806F08056B6F1805F6ED100BF002634
:105840000096384E366846F48046364F3E603E46F7
:10585000366806F48046009600BF00BF324E8F08BF
:1058600056F827008E07370F0F26BE40B0432F4E45
:10587000B34202D1002615E04FE02D4EB34201D1D4
:1058800001260FE02B4EB34201D102260AE02A4E38
:10589000B34201D1032605E0284EB34201D10426CC
:1058A00000E007268F073F0FBE4030431E4E8F0893
:1058B00046F82700224E3068A043566806F480362A
:1058C000B6F5803F00D120431D4E3060361D306854
:1058D000A043566806F40036B6F5003F00D12043D9
:1058E000174E361D3060361D3068A043566806F4EA
:1058F0008016B6F5801F00D12043114E0836306067
:10590000361D3068A043566806F40016B6F5001F31
:1059100000D120430A4E0C363060491C1029FFF498
:105920002FAFF8BD44380240083801400000024063
:105930000004024000080240000C02400010024037
:10594000003C0140024613690B400BB1012000E00E
:10595000002070470AB1816101E00B048361704748
:1059600001480068704700000003002010B504469D
:105970000CB9012010BD242084F83D002068006887
:1059800020F0010021680860204600F0E1FD0020C1
:10599000206484F83D00206384F83E0000BF84F852
:1059A0003C0000BF00BFE5E770B504460CB901201C
:1059B00070BD94F83D0028B9002084F83C002046D2
:1059C00000F0DEFD242084F83D002068006820F00F
:1059D0000100216808602068006840F400402168E8
:1059E00008602068006820F400402168086000F02A
:1059F000A7FF05465C496068884206D85B48854237
:105A000001D2012007E0002005E05948854201D27B
:105A1000012000E00020012800D1C9E75548B5FB6E
:105A2000F0F62068406820F03F003043216848606D
:105A30004D496068884201D8701C07E04FF49670A9
:105A400070434FF47A71B0FBF1F0401C2168096A91
:105A500021F03F0108432168086243496068884299
:105A600014D8681E61684900B0FBF1F0401CC0F317
:105A70000B00042801D204203DE0681E6168490043
:105A8000B0FBF1F0401CC0F30B0034E0A06838B963
:105A9000681E616801EB4101B0FBF1F0401C0AE0B7
:105AA000681E616801EBC10202EB0111B0FBF1F06D
:105AB000401C40F48040C0F30B0008B901201AE0FC
:105AC000A06848B9681E616801EB4101B0FBF1F0C4
:105AD000401CC0F30B000CE0681E616801EBC102C2
