:020000040800F2
:10000000A0870020AD0100081D6200088943000898
:10001000955E0008490F00086D7900080000000097
:100020000000000000000000000000003969000826
:100030009D1900080000000059630008A96C000821
:10004000C7010008C7010008C7010008C701000870
:10005000C7010008C7010008391A00084D1A000836
:10006000C7010008611A0008C7010008C70100089D
:10007000C7010008C7010008C7010008C701000840
:10008000C7010008C7010008410A0008000000007D
:10009000000000000000000000000000751A0008C9
:1000A000C7010008C7010008C7010008C701000810
:1000B000C7010008C7010008616E0008C7010008F9
:1000C000C7010008C7010008C7010008C7010008F0
:1000D000C701000855790008C701000800000000AA
:1000E000C7010008C7010008C701000800000000A0
:1000F000000000000000000000000000C701000830
:1001000000000000C7010008C7010008C70100087F
:1001100000000000000000000000000000000000DF
:1001200081180008C7010008C7010008C7010008BE
:10013000C7010008000000000000000000000000EF
:10014000000000000000000000000000C7010008DF
:10015000C70100088D180008991800086179000887
:10016000C7010008C70100080000000000000000EF
:10017000000000000000000000000000000000007F
:1001800000000000C701000800000000000000009F
:10019000C7010008C7010008DFF80CD000F096FB8B
:1001A00000480047298B0008A087002006488047A8
:1001B00006480047FEE7FEE7FEE7FEE7FEE7FEE74C
:1001C000FEE7FEE7FEE7FEE7A96D000899010008DB
:1001D0002DE9F05F0546002092469B46884606467C
:1001E000814640241BE0284641464746224600F00F
:1001F00020F853465A46C01A914110D3114618466A
:10020000224600F045FA2D1A67EB01084F462246B8
:100210000120002100F03CFA17EB00094E41201E9E
:10022000A4F10104DFDC484631462A464346BDE8D6
:10023000F09F202A04DB203A21FA02F000217047C7
:1002400021FA02F3D040C2F120029140084319463E
:100250007047D2B201E000F8012B491EFBD2704773
:100260000022F6E710B513460A4604461946FFF782
:10027000F0FF204610BD421C10F8011B0029FBD1E5
:10028000801A704710B5002200E0521C835C8C5C21
:10029000A34201D1002BF8D1D8B2E1B2401A10BD6F
:1002A00070B5064607F0B0FB046805460A22002137
:1002B000304600F00EFA2C6070BD2DE9FE4F8046EE
:1002C00081EA0300C00F0C46009021F0004123F0AA
:1002D0000045B8EB0200A94105D2404621469046B0
:1002E0001C460B46024623F00040104347D0270D22
:1002F000C7F30A00C3F30A510290401A0190402844
:100300006BDAC3F3130040F4801B0098924620B1CF
:100310000023D2EB030A63EB0B0B01985946C0F1A3
:100320004002504600F0B4F906460D465046594684
:10033000019A00F0BCF910EB08006141002487EA43
:10034000115284EAE7731A4340D0009A62B3019ACB
:10035000012A4FEA075215DC001B61EB02014FF046
:10036000004202EA0752CDE90042001C41F580112B
:1003700032462B4600F02BFA03B0BDE8F08F404622
:100380002146F9E7001B61EB0201001C41F58013D7
:1003900000185B412018A2F5001747EB030140EA63
:1003A000D570B6196D4111E06D084FEA360645EA81
:1003B000C0754FEA0752001B61EB0201001C41F5BA
:1003C000801149084FEA30000019514132462B464E
:1003D00003B0BDE8F04F00F0EBB9009801224000F7
:1003E0000023D0EB020263EBE073009821464FEA52
:1003F000E074B8EB000061EB0401E9E783F000432F
:100400005BE781F0004158E72DE9FE4F81EA0304E4
:1004100004F0004421F0004100944FF0000B23F061
:10042000004350EA01045ED052EA03045BD0C3F3F8
:100430000A54C1F30A552C44A4F2F3340194A0FBEE
:100440000254C1F3130141F48011C3F3130343F4C5
:10045000801301FB024400FB034E840A970A44EA1E
:10046000815447EA8357A4FB076802958D0A05FB70
:1004700007854FEA932C04FB0C542705029D4FEA95
:10048000065847EA1637B5EB08056EEB070C870EE2
:10049000920E47EA811742EA8312A7FB0201B6EBEC
:1004A0000B0164EB00042B0D43EA0C335E1844EBA4
:1004B0001C50DA465146E7FB0201C5F313044FEA2C
:1004C0000B3343EA14534FEA0432019C43EA060318
:1004D000A4F10C040294009CCDE900B400F077F97B
:1004E00003B0BDE8F08F00200146F9E72DE9F04D9B
:1004F00081EA030404F0004B21F0004514464FF05C
:10050000000A23F0004150EA050220D054EA01021B
:100510001DD0C5F30A570246C5F31303C1F31300F8
:10052000C1F30A5640F4801543F48013A7EB060884
:10053000101BD64608F2FD3873EB050002D308F114
:10054000010801E092185B41B8F1000F03DA0020C6
:100550000146BDE8F08D00204FF480110646844628
:100560000EE0171B73EB050705D3121B63EB0503A6
:1005700006434CEA010C49084FEA300092185B41EF
:1005800050EA0107EDD152EA030012D082EA0400DA
:1005900083EA0501084305D0101BAB4106D20122B6
:1005A000002306E000224FF0004302E06FF001025A
:1005B00053101AEB06004CEB085110EB0A0041EB0C
:1005C0000B01BDE8F04D00F0F3B80EB5C10F80EAA5
:1005D000E0700844CA07002140F233438DE80E0062
:1005E0000A460B4600F0F3F803B000BD0EB540F22A
:1005F000334102910021CDE900110A460B4600F07B
:10060000E6F803B000BD00F0004230F000400AD030
:10061000C10D01F56071C0F3160042EA0151C20834
:1006200040071143704700200146704701F0004326
:1006300030B421F0004150EA010206D00A0DA2F5C3
:100640006072C1F31301002A02DC30BC0020704745
:10065000440F44EAC104C100E01830BC00EBC250B2
:1006600000F06FB830B50B4601460020202201246F
:1006700009E021FA02F59D4205D303FA02F5491B70
:1006800004FA02F52844151EA2F10102F1DC30BD86
:10069000202A04DB203A00FA02F100207047914042
:1006A000C2F1200320FA03F3194390407047202A37
:1006B00006DBCB17203A41FA02F043EAE07306E08A
:1006C00041FA02F3D040C2F120029140084319469A
:1006D00070472DE9F04791460F46804604460026B4
:1006E00014F8015B2DB100F003F90068405DC0070C
:1006F000F6D12B2D02D02D2D18D0641E4A46394636
:10070000204600F0F9F827B13968A14201D1C7F8B5
:10071000008071054FF002040BD54042002803DD34
:1007200007F072F90460A007BDE8F08746F4806620
:10073000E4E70028F8DA07F067F904606FF000409A
:10074000F2E70029A8BF7047401C490008BF20F00D
:100750000100704710B4B0FA80FC00FA0CF050EAC7
:10076000010404BF10BC704749B1CCF1200421FA48
:1007700004F411FA0CF118BF012121430843A3EB43
:100780000C01CB1D4FEA00614FEA102042BF002050
:1007900010BC704700EBC35010440029A4BF10BC2C
:1007A0007047401C490008BF20F0010010BC704792
:1007B00010B5141E73F1000408DA401C41F1000169
:1007C00092185B411A4301D120F0010010BD2DE9C0
:1007D000F04D92469B4611B1B1FA81F202E0B0FAB7
:1007E00080F220329046FFF753FF04460F4640EA5E
:1007F0000A0041EA0B0153465A46084313D01146FA
:1008000053EA010019D0C8F140025046FFF711FD2C
:1008100005460E46504659464246FFF739FF084303
:1008200005D0012004E020463946BDE8F08D0020C7
:10083000054346EAE0762C4337430A986305E40A09
:10084000A0EB08000022FD0A44EA47540A3002D512
:1008500000200146E9E7010510196941DDE9084575
:1008600000196941BDE8F04DA2E7C1F30A52C1F396
:10087000130140F2FF3341F480119A4202DA002062
:100880000146704740F233439A42A2F2334202DCFF
:100890005242FFF7CEBCFFF7FBBE000030B5041E8E
:1008A00071F1000404DB4FF00044404264EB0101AD
:1008B000141E73F1000405DB1C464FF00043524246
:1008C00063EB0403994208BF904230BD064C074DCC
:1008D00006E0E06840F0010394E807009847103410
:1008E000AC42F6D3FFF75CFCF097000810980008C4
:1008F00000487047A49700082DE9F05F8246007811
:10090000002715468B460AF10104B946302801D06C
:100910009DB113E014F8010B0127782803D0582863
:1009200001D045B10AE00DB1102D07D100271025E7
:1009300014F8010B02E0082500E00A250026B04665
:100940000EE005FB080005FB06F1012701EB104650
:100950001FFA80F8B6F5803F00D3B94614F8010BB2
:10096000294600F018F80028EBDABBF1000F05D09B
:100970000FB1641E00E05446CBF80040B9F1000FFF
:1009800006D007F041F802210160C81EBDE8F09FC3
:1009900048EA0640FAE73A2800D2303820F0200230
:1009A000412A01D3A2F13700884201D34FF0FF3032
:1009B000704710B50146806B026C12F0500F05D0E5
:1009C000026CD20626D501F056FA10BD016C41F436
:1009D0000071016401688A6812F0405F17D1027EDD
:1009E000AAB9CA6A12F4700F02D08A6852050ED4EE
:1009F0004A6822F020024A60016C21F4807101648F
:100A0000016CC90403D4016C41F00101016401F0DF
:100A100029FA10BD806BC26CBDE810400846104733
:100A200010B5806B40210164416C41F004014164C8
:100A300001F021FA10BD10B5806B01F01BFA10BD5A
:100A400010B5034801F018FA02490120087010BDE2
:100A50003C0100208B000020464910B54A6822F472
:100A600040324A604A6843681A434A6001684A68EB
:100A700022F480724A6001684A68036942EA0322EC
:100A80004A6001684A6822F040724A6001684A6818
:100A900083681A434A6001688A6822F400628A60A7
:100AA00001688A68C3681A438A60816A6FF070625D
:100AB000D14201688A6822F070628A6001688A689F
:100AC0000CD0836A1A438A6001688A6822F0405217
:100AD0008A6001688A68C36A1A4301E022F04052C2
:100AE0008A6001688A6822F002028A6001688A6866
:100AF000037E42EA43028A6090F8201000290168D0
:100B00004A680FD042F400624A6001684A6822F4E1
:100B100060424A6001684A68174C436A04EB4333F9
:100B20001A4301E022F400624A600168CA6A22F4B2
:100B30007002CA620168CA6A838B104C04EB0353CB
:100B40001A43CA6201688A6822F400728A600168E6
:100B50008A6890F8303042EA43228A6001688A68E5
:100B600022F480628A6001688A68406942EA8020D3
:100B7000886010BD0023014000E0FFFF0000F0FF8F
:100B80009FED0B1B10B553EC112B51EC100BFFF725
:100B900035FC9FED091B53EC112BFFF7A7FC9FEDD4
:100BA000081B53EC112BFFF788FB41EC100B10BD19
:100BB00052B81E85EB51E83F7B14AE47E17A643FA3
:100BC000000000000000394070B5544900202DEDB0
:100BD000068B4862524C2088FFF708FD9FED518B31
:100BE00053EC182BFFF710FC9FED509B53EC192B87
:100BF000FFF70AFC9FED4FAB53EC1A2BFFF704FCF9
:100C0000FFF714FD04F10C0528606088FFF7EEFC87
:100C100053EC182BFFF7F8FB53EC192BFFF7F4FB01
:100C200053EC1A2BFFF7F0FBFFF700FD6860A0887C
:100C3000FFF7DCFC53EC182BFFF7E6FB9FED3F1BA7
:100C400053EC112BFFF7E0FB53EC192BFFF7DCFB08
:100C5000FFF7ECFCA860E088FFF7C8FC53EC182B0A
:100C6000FFF7D2FB53EC192BFFF7CEFB53EC1A2BFB
:100C7000FFF7CAFBFFF7DAFCE8602089FFF7B6FC54
:100C800053EC182BFFF7C0FB53EC192BFFF7BCFB01
:100C9000FFF7CCFC28612BA006F0BEFB95ED000A07
:100CA0002CA007F081FE95ED010A2EA007F07CFE36
:100CB00095ED020A2FA007F077FE95ED030A31A00B
:100CC00007F072FE2869FFF79EFC41EC100BFFF75E
:100CD00057FF51EC100BFFF7A9FC00EE100A2DA0F6
:100CE00007F062FE2FA006F097FB218819A008F0FC
:100CF0008DFB61881BA008F089FBA1881DA008F06E
:100D000085FBE1881FA008F081FB218921A0BDECB3
:100D1000068BBDE8704008F079BB000000000020A1
:100D2000600300206666666666660A400000000092
:100D30000000303F00000000000000405DBF603751
:100D40006CDB16400D0A2D2D2D2D2D2D2D2D2D0D4D
:100D50000A000000616463305F352E305620202089
:100D600020203A00616463315F332E335620202007
:100D700020203A00616463325F3132562020202007
:100D800020203A00616463335F332E3356202020E5
:100D900020203A0074656D705F73656E7328D129E9
:100DA00020203A000D0D0D0070B50546136814465D
:100DB0000E46002004EBC001D1E902216A407140D7
:100DC0000A4302D0401C0228F4D302280CD1022B83
:100DD0000BD009A006F020FB206804EBC000C0E99E
:100DE00002562068411C216070BD07A006F014FB6C
:100DF000C4E90256002070BDCDEEE2FBE920E0E43C
:100E0000F0E5F1210D0A0000CFF0E5E2FBF8E5ED99
:100E1000EE20F7E8F1EBEE20CED2CFD0C0C2C8D2A0
:100E2000C5CBC5C9210D0A0070B5344D01282979FB
:100E300000D119B1042905D910B103E0012100E066
:100E400000212971C9B2084301D105F017FA2879A8
:100E50006424012808D10220EC62287128A006F041
:100E6000DBFA642005F00AFA287902280CD1E86A36
:100E7000002841D14FF47A7005F000FA0320EC62AB
:100E8000287121A006F0C8FA287903280CD1E86A55
:100E9000002831D140F6B83005F0F0F90420EC62BA
:100EA00028711BA006F0B8FA287904280CD1E86A4A
:100EB000002821D141F6583005F0E0F90520EC6218
:100EC000287115A006F0A8FA2879052814D1E86A37
:100ED000002811D142F2283005F0D0F90620EC624A
:100EE00028710FA006F098FA0FA003F0A3FCBDE84C
:100EF000704011A003F09EBC70BD000000000020F7
:100F000073746570310D0A0073746570320D0000E2
:100F100073746570330D000073746570340D0000D8
:100F200073746570350D00007E30207077725F300D
:100F300037323A303B0000007E3020656E61626CD3
:100F4000655F6C6D3A313B00FEE700002DE9F04F24
:100F500085B00F460646002506EBC5008346D0E95E
:100F6000201081F0010101437ED1FDA006F054FA6A
:100F7000FEA006F051FA56F82500002107F0B0FD5A
:100F8000019056F82500012107F0AAFD824656F887
:100F90002500022107F0A4FD814656F82500032113
:100FA00007F09EFD034656F82500042107F098FD42
:100FB000804656F82500052107F092FD024656F8B6
:100FC0002500062107F08CFD009056F8250007212A
:100FD00007F086FD01460198FB5C795C385C43EACA
:100FE000006017F80A301C0417F809304FF00009A8
:100FF00044EA0323184317F80830DFF890831C0AEB
:101000002043BC5C1B0643EA044340EA1440009CB6
:101010003C5D43EA042340EA14600B43C8E91E30F8
:10102000DBA003F007FCCEA006F0F6F90BF520706C
:10103000DA4A03C8FFF7B8FE04462146D8A008F0F4
:10104000E5F9D8F8780004EB4401CDE90090D948DF
:1010500001EBC41100EB011103232A46304600F0D6
:10106000AFFC2946304600E001E005F09FFADBE9DD
:10107000201081F0640101437DD10BF52070C74A37
:1010800003C8FFF791FEDFF8048304900021D8F82D
:1010900078004446CDE900100498032300EB40019A
:1010A00001EBC011C3482A4600EB0111304600F0A5
:1010B00087FCA07801287DD104F042F94FF0030AA3
:1010C000D8F8780008F18009CDF800A0CDE90190AA
:1010D0000498652300EB400101EBC011B5482A4696
:1010E00000EB01142146304605F028FC022004F0F4
:1010F00027F9D8F87800CDF800A0CDE90190662353
:101100002A462146304605F019FC032004F018F960
:10111000D8F87800CDF800A0CDE9019067232A46E1
:101120002146304605F00AFC042004F009F9D8F8FD
:101130007800CDF800A0CDE9019068232A46214629
:10114000304605F0FBFB052004F0FAF8D8F87800EB
:10115000CDF800A0CDE9019069232A46214630460A
:1011600005F0ECFB062004F0EBF8D8F878006A23D1
:101170002A46214600E070E2CDF800A0CDE90190BA
:10118000304605F0DBFB072004F0DAF8D8F87800E9
:10119000CDF800A0CDE901906B232A4621463046C8
:1011A00005F0CCFB082004F0CBF8D8F878006C23CD
:1011B0002A4600E086E0CDF800A0CDE90190214666
:1011C000304605F0BBFB98F8020001287AD104F004
:1011D0009BF94FF0040AD8F8780008F16C09CDF8B3
:1011E00000A0CDE9019021466F232A46304605F044
:1011F000A5FB022004F088F9D8F87800CDF800A00B
:10120000CDE90190214670232A46304605F096FB31
:10121000032004F079F9D8F87800CDF800A0CDE9E2
:101220000190214671232A46304605F087FB0420B1
:1012300004F06AF9D8F87800CDF800A0CDE9019063
:10124000214672232A46304605F078FB052004F03B
:101250005BF9D8F87800CDF800A0CDE901902146DF
:1012600073232A46304605F069FB062004F04CF94A
:10127000D8F87800CDF800A0CDE90190214674237C
:101280002A46304605F05AFB072004F03DF9D8F80D
:101290007800CDF800A0CDE90190214675232A46BB
:1012A000304605F04BFB082004F02EF9D8F8780002
:1012B000CDF800A0CDE90190214676232A4630469C
:1012C00005F03CFB012004F013FAC146D8F8780081
:1012D000DFF8B8804FF0040A08F16C08CDF800A0E0
:1012E000CDE9018004988D2300EB400101EBC01192
:1012F00030482A4600EB01142146304605F01EFB1B
:10130000022004F0F5F9D9F87800CDF800A0CDE975
:10131000018021468E232A46304605F00FFB03202C
:1013200004F0E6F9D9F87800CDF800A0CDE9018005
:1013300021468F232A46304605F000FB042004F0A6
:10134000D7F9D9F87800CDF800A0CDE90180214681
:1013500090232A46304605F0F1FA05202CE00000E3
:101360000D0A2D2D2D2D2D2D0D0A0000CAEEECE0BD
:10137000EDE4E03AF3F1F2E0EDEEE2EAE020E2F053
:10138000E5ECE5EDE8210D0A00000000000000207A
:101390007E302074696D653B0000000070400020C5
:1013A000CDEEECE5F020EEF2EFF0E0E2E8F2E5EB76
:1013B000FF3A00004027002004F09AF9D9F878009D
:1013C000CDF800A0CDE90180214691232A46304680
:1013D00005F0B4FA062004F08BF9D9F87800CDF8BE
:1013E00000A0CDE90180214692232A46304605F02F
:1013F000A5FA072004F07CF9D9F87800CDF800A010
:10140000CDE90180214693232A46304605F096FA1D
:10141000082004F06DF9D9F87800CDF800A0CDE9E6
:101420000180214694232A46304605F087FA0120A0
:1014300004F0E4F8D9F87800CDF800A0CDE90180F7
:10144000214683232A46304605F078FA022004F02C
:10145000D5F8D9F87800CDF800A0CDE90180214673
:1014600084232A46304605F069FA032004F0C6F8C2
:10147000D9F87800CDF800A0CDE901802146852378
:101480002A46304605F05AFA042004F0B7F8D9F895
:101490007800CDF800A0CDE90180214686232A46B8
:1014A000304605F04BFA052004F0A8F8D9F878008A
:1014B000CDF800A0CDE90180214687232A46304699
:1014C00005F03CFA062004F099F8D9F87800CDF838
:1014D00000A0CDE90180214688232A46304605F048
:1014E0002DFA072004F08AF8D9F87800CDF800A08A
:1014F000CDE90180214689232A46304605F01EFAAF
:10150000082004F07BF8D9F87800CDF800A0CDE9E8
:10151000018021468A232A46304605F00FFA012031
:1015200004F060F9D9F87800CDF800A0CDE9018089
:10153000214679232A46304605F000FA022004F0BD
:1015400051F9D9F87800CDF800A0CDE90180214605
:101550007A232A46304605F0F1F9032004F042F9D7
:10156000D9F87800CDF800A0CDE9018021467B2391
:101570002A46304605F0E2F9042004F033F9D9F8A0
:101580007800CDF800A0CDE9018021467C232A46D1
:10159000304605F0D3F9052004F024F9D9F8780095
:1015A000CDF800A0CDE9018021467D232A463046B2
:1015B00005F0C4F9062004F015F9D9F87800CDF843
:1015C00000A0CDE9018021467E232A46304605F061
:1015D000B5F9072004F006F9D9F87800CDF800A095
:1015E000CDE9018021467F232A46304605F0A6F941
:1015F000082004F0F7F8D9F87800CDF800A0CDE97C
:101600000180214680232A46304605F097F90020C4
:1016100088F8000088F8010088F8020099F80110A5
:1016200088F803107DA007F0F1FED9F87800CDF816
:1016300000A0CDE90180214696232A46304605F0D8
:101640007DF92946304604F0B1FF76A0D9F878102C
:1016500007F0F4FE74A005F0DFFEDBE9201081F056
:10166000C80101433FD156F8250007F039FA024678
:1016700056F82500012107F033FA034656F82500F5
:10168000022107F02DFA044656F82500032107F041
:1016900027FA385CB95C3A5D40EA0160F95C0904FC
:1016A00041EA0221084305F0A9FB0BF520705F4ACF
:1016B00003C8FFF779FB5E4A00210323926FCDE94F
:1016C000001200EB400101EBC0115A482A4600EB22
:1016D0000111304600F074F92946304604F066FFE7
:1016E00055A005F099FEDBE9201081F003010143CC
:1016F00042D156F8250007F0F3F9024656F82500C6
:10170000012107F0EDF9044656F82500022107F003
:10171000E7F9034656F82500032107F0E1F9385CA4
:10172000B95CFA5C40EA0160395D414C090441EA68
:1017300002210843A0700BF520703C4A03C8FFF754
:1017400033FBA26F0021CDE9001200EB400101EB59
:10175000C0113848032300EB01112A46304600F03F
:101760002FF92946304604F021FF37A005F054FE3A
:10177000A1783CA007F04AFEDBE9201081F00401CB
:10178000014343D156F8250007F0AAF9034656F85D
:101790002500012107F0A4F9804656F82500022112
:1017A00007F09EF9024656F82500032107F098F944
:1017B000385CF95C40EA016417F80800B95C000481
:1017C00040EA01200443E0B204F078FD174ADBF858
:1017D0008412DBF88002FFF7E7FA154A00210323A1
:1017E000926FCDE9001200EB400101EBC0111148EE
:1017F0002A4600EB0111304600F0E2F82946304657
:1018000004F0D4FE21461AA007F000FE6D1C202D26
:10181000FFF4A2AB05B0BDE8F08F00005057523A7C
:10182000000000005B0000005D0D0A007040002019
:101830000000002040270020D1E2E5F2EEE4E8EECF
:10184000E4FB210D0A000000D3EFF0E0E2EBE5ED50
:10185000E8E520EFE8F2E0EDE8E5EC202B31325648
:10186000210D0A0053544152545F42503A00000087
:10187000E2EAEBFEF7E0E5EC20EAE0EDE0EB3A002F
:10188000014800F0A9BC0000C4450020014800F058
:10189000A3BC0000C4460020024900200870024892
:1018A00000F09ABC0700002064460020016818235D
:1018B000CAB2103AB2FBF3F2054B6FF30901032AE7
:1018C0009B5CC36500D9091D81650846704700000F
:1018D000C095000810B5014600208B698A6A4FF058
:1018E000C07453B1B3F5005F15D072B1012A0CD0AA
:1018F000022A0AD0032A09D104E01AB1012A06D02B
:10190000022A03D1C96AC90100D5012010BDC96AE4
:10191000A142FAD010BD002AF7D0012AF2D0022A43
:10192000F3D0032AF3D010BD30B50468256825F440
:1019300080252560046863608368402B036803D0BA
:1019400099600068C26030BD9A600068C16030BDB7
:1019500000B585B0104800F02DFFF9208DF80C007F
:10196000A6214FF47A7301220B4800F0E7FF50B92B
:10197000012004A9CDE9001003460290A62103AA84
:10198000054801F081F9044800F0FAFE9DF81000C6
:1019900005B000F0010000BD840100207047000088
:1019A00002490863086B0028FCD170470000002042
:1019B000002101E0491C89B28142FBD3704700003D
:1019C0002DE9F04100EBC200DDE90656D0E9A02781
:1019D000C1E906278A6A0024402A18D2D1F82CC00F
:1019E000571C4CF1000CC1E90A7C01EB42120027A4
:1019F0005363C2E91067D0E96030C2E90E300120BC
:101A0000106382F84850086A2930086203E0012414
:101A100002A005F001FD2046BDE8F081EDE5F220D1
:101A2000ECE5F1F2E020E4EBFF20EAE2E8F2E0EDA1
:101A3000F6E8E9210D0A000010B5012000F0BEFD16
:101A400001490120087010BD8800002010B5022057
:101A500000F0B4FD01490120087010BD0000002015
:101A600010B5082000F0AAFD01490120087010BD42
:101A70008900002010B5402000F0A0FD01490120A0
:101A8000087010BD8A000020704700002DE9F04F5B
:101A900004468068627B00BA20F0FF01E07A1204FD
:101AA0000143207B0026000641EAE071104341EA31
:101AB000E271A27B87B01202104341EAE271E27B3D
:101AC000B146104341EAD271874AFFF76DF9218888
:101AD0004ABA00EB400101EBC0108449069001EBCB
:101AE000001080460280618849BA41806168E279CD
:101AF00009BA21F0FF0111438160A168627B09BA34
:101B000021F0FF03E17A12040B43217B090643EA2B
:101B1000E173114343EAE273A27B1202114343EAE9
:101B2000E273E27B114343EAD273C0E904132169F3
:101B3000627D09BA21F0FF03E17C12040B43217D91
:101B4000090643EAE173114343EAE273A27D1202FC
:101B5000114343EAE273E27D114343EAD273C0E9E1
:101B60000613A169E27E09BA21F0FF011143016267
:101B7000E169E27F09BA21F0FF0111434162216A64
:101B800009BA21F0FF0394F823100B4394F82410B2
:101B900094F82520090643EAE1731204114343EA4D
:101BA000E27394F82620DFF848B11202114343EAA9
:101BB000E27394F82720114343EAD2738162282507
:101BC000C8F82C3085E0601908EB46130168C2782C
:101BD00009BA21F0FF01114319634168C27909BABA
:101BE00021F0FF01114359638168C27A09BA21F0DB
:101BF000FF011143027B477B120641EAE2713F0479
:101C00003A4341EAE771877B3F023A4341EAE77191
:101C1000C77B3A4341EAD771C3E90E210169C27C0F
:101C200009BA21F0FF011143027D477D120641EA06
:101C3000E2713F043A4341EAE771877DC07D3F028C
:101C40003A4341EAE771024341EAD071C3E9102106
:101C5000DBF80004CBF804048246401E0027CBF8D2
:101C60002004E8192249205C04F078FD7F1C182F1D
:101C7000F7D300270AE0E8192044DA19017E82F838
:101C80004810007E1A4904F069FD7F1C186BB842A9
:101C9000F1D8DBF800143D44491CCBF82414D3E9F7
:101CA0000E01CDE90401D3E91001CDE90201D8F814
:101CB0001010586BCDE900010E490698534601EB10
:101CC00000100D4A0A49183504F09AFC761C49F1B7
:101CD0000009D8E90A12711A79EB0200FFF473AF18
:101CE00007B0BDE8F08F00007040002028470020BA
:101CF000A037002040270020C83B0020704700008C
:101D000078B50024009490F83C20012A19D00122D3
:101D100080F83C200A6807250368092A13D9DE6881
:101D20000A3A02EB42029540AE43DE600A788B68C5
:101D30000A3A02EB420293400268D5682B43D36013
:101D400010E0022078BD1E6902EB42029540AE43CE
:101D50001E610A788B6802EB4202934002681569A3
:101D60002B4313614A681F25072A13D203685E6B51
:101D7000521E02EB82029540AE435E630A8893B224
:101D80000A79521E02EB820293400268556B2B4384
:101D9000536327E003680D2A12D21E6BD21F02EB99
:101DA00082029540AE431E630A8893B20A79D21F1D
:101DB00002EB820293400268156B2B43136311E020
:101DC000DE6A0D3A02EB82029540AE43DE620A887B
:101DD00093B20A790D3A02EB820293400268D56A07
:101DE0002B43D3621B4B0568194A9D420AD10D68EB
:101DF000122D07D1556825F400055560556845F446
:101E00008005556005689D421DD1134D0B68AB429E
:101E100001D0112B17D1536823F48003536053680A
:101E200043F4000353600968A9420CD10B490C4AE2
:101E30000968B1FBF2F101EB8101490000E0491EA4
:101E400000910029FBD180F83C40002078BD0000C3
:101E50000023014000200140120000100801002072
:101E600040420F000248416A491C4162704700002D
:101E7000000000207047704770B504460068016894
:101E8000C1F340024168C1F3401152B349B3216C20
:101E9000C90603D4216C41F400712164816811F0FA
:101EA000405F17D1217EA9B9C16A11F4700F02D029
:101EB000816849050ED4416821F020014160206C01
:101EC00020F480702064206CC00403D4206C40F0A7
:101ED000010020642046FFF7C5FF21686FF0120063
:101EE0000860206801684268C1F38001C2F3C01233
:101EF00089B382B3216CC90603D4216C41F400512B
:101F00002164816811F4401F1ED1816B11F4401FC0
:101F100002D08168490517D44168490514D4816805
:101F200011F0405F10D1217E71B9416821F080012C
:101F30004160206C20F480502064206CC00503D4E4
:101F4000206C40F0010020642046FFF7D7FE216896
:101F50006FF00C000860206801684268C1F300015E
:101F6000C2F3801271B16AB10068C0070AD0206C58
:101F700040F480302064204600F046F821686FF07D
:101F800001000860206801684268C1F34011C2F393
:101F9000806200290DD0002A0BD0616C41F0020153
:101FA00061646FF0200505602046FFF764FF20683C
:101FB000056070BD70B504004FF0000603D0206CC2
:101FC000002510B107E0012070BD204600F01EF88A
:101FD000656484F83C50206CC00610D4206C20F45A
:101FE000885040F0020020642046FEF735FD65640D
:101FF000206C20F0020040F00100206400E0012687
:1020000084F83C50304670BD7047000070B586B013
:10201000064614216846FEF723F9204930688842B5
:102020003AD11F480025016841F4807101600068C1
:1020300000F4807005901A481438016841F00101DD
:1020400001600068694600F0010005900F200090D3
:102050000320CDE90105134800F0BCFA134C1248E7
:10206000C4E900050015A560C4E9035040006061A3
:102070008000A0614011E0610002206204206062E3
:102080000120C4E90A052046256300F075F908B16E
:10209000FFF7FAFCB463A66306B070BD00200140F0
:1020A000443802400000024010640240C445002051
:1020B000F8B500230446009390F83C00012807D0AF
:1020C000012084F83C0020688568ED0702D011E00B
:1020D0000220F8BD856845F0010585602E482F4D2A
:1020E0000068B0FBF5F000EB400000E0401E0090FF
:1020F0000028FBD120688568ED074AD0256C40F2A6
:102100000166B54345F4807525644068400505D5F2
:10211000206C20F4005040F480502064206CC004F7
:1021200004D5606C20F00600606400E0636484F80D
:102130003C30A36B1B481A4DD863A36B1A48186434
:10214000A36B1A48D86423686FF0220018602068D7
:10215000436843F0806343602068836843F480737E
:102160008360134620680A46A66B00F14C01304696
:1021700000F06CF96868C006206802D00C498842FB
:1021800007D1816811F0405F03D1816841F080413F
:1021900081600020F8BD00000801002040420F00CF
:1021A00000230140B3090008370A0008210A00088B
:1021B0000020014090F83510022903D080214165AC
:1021C00001207047052180F835100068016821F072
:1021D00001010160002070472DE9F84304464FF0EB
:1021E0000009CDF8009063484FF41651A56D0068C2
:1021F000B0FBF1F72E6894F85C20082101FA02F098
:1022000030420FD02068026852070BD5026822F0D6
:102210000402026094F85C008140A960606D40F0A7
:102220000100606594F85C104FF0010808FA01F0B5
:10223000304208D021684969090604D5A860606D5C
:1022400040F00200606594F85C1004208840304241
:1022500008D021680968890704D5A860606D40F03E
:102260000400606594F85C1010208840304218D05B
:1022700021680968090714D5A86020680168490326
:1022800004D50068000308D5A16C07E00168C90502
:1022900003D4016821F008010160216C09B12046D6
:1022A000884794F85C1020208840304231D0216863
:1022B0000968C9062DD5A86094F83500052820685E
:1022C000016806D0490347D5006800031DD4616C3E
:1022D0001CE021F0160101602068416921F08001B5
:1022E0004161206C08B9A06C20B12068016821F020
:1022F0000801016094F85C103F208840A86084F8D1
:10230000349084F83580216D1FE0E16B09B12046DF
:102310008847606D00282BD0606DC00714D0052061
:1023200084F835002068016821F0010101600098FF
:10233000401C0090B84203D820680068C007F6D15E
:1023400084F8349084F83580E16C002910D001B015
:102350002046BDE8F04308470168C905D5D40168A7
:1023600021F01001016084F8349084F83580CCE7C6
:10237000BDE8F883080100202DE9F041044600F093
:10238000F9F905465CB1002684F83460022084F82F
:1023900035002068016821F0010101600DE0012095
:1023A000BDE8F08100F0E6F9401B052805D92020A2
:1023B0006065032084F83500F2E720680068C007F4
:1023C000F0D121680A6820480240D4E9010318438B
:1023D000D4E903352B43184363691843A3691843B1
:1023E000E3691843236A18431043626A042A03D13D
:1023F000D4E90B231A431043086020684069656ADA
:1024000020F0070128460D43012704280CD1A06ABB
:102410000543E06A40B12046FFF75CFA20B1402056
:10242000606584F83570BAE7206845612046FFF79B
:102430003DFA94F85C203F2191408160666584F804
:1024400035700020ACE700003F8010F02DE9F0412E
:102450000446866D90F83400002501280DD0012037
:1024600084F8340094F835700020012F07D084F8E8
:10247000340002252846BDE8F0810220FBE7022750
:1024800084F8357060652046FFF74EFA94F85C10CA
:102490003F208840B0602068016841F0160101606B
:1024A0002068416941F080014161206C20B12068C1
:1024B000016841F0080101602068016841F00101F4
:1024C0000160D7E72DE9F04F8946DFF8D0A0002161
:1024D0004FF0010B4FF00F0C0BFA01F609EA06035F
:1024E000B34255D121F003045444D4F808288D0791
:1024F0002F0F0CFA07F505EA0208294A904201D18C
:10250000002214E0274A904201D101220FE0264A1E
:10251000904201D102220AE0244A904201D10322D2
:1025200005E0234A904201D1042200E00722BA408C
:10253000424514D1D4F80828AA43C4F808281D4AF3
:1025400014689C431460121D14689C431460121D8F
:1025500014689C431460121D14689C431460036843
:102560004C000322A24093430360CB0800EB83039B
:102570001D6A4C07E70E0CFA07F4A5431D62836839
:10258000934383604368B3434360C3689343C3602A
:10259000491C1029A0D3BDE8F08F00000030014095
:1025A000000002400004024000080240000C02400B
:1025B00000100240003C014070470000044910B583
:1025C0000A68024202D00860FFF7F6FF10BD000063
:1025D000143C01402DE9F84FDFF86C91002209F11D
:1025E000040A0AF1040B4FF00F080BF1040E012648
:1025F0000B6896403340B34271D14C68022C01D035
:10260000122C11D1D40800EB84073D6A5407E40E64
:1026100008FA04FC25EA0C05D1F810C00CFA04FCF9
:102620004CEA050CC7F820C007685400032591F850
:1026300004C0A5400CF0030CAF430CFA04FC4CEAB8
:10264000070CC0F800C04F68012F05D0022F03D03F
:10265000112F01D0122F11D18768D1F80CC0AF43D0
:102660000CFA04FC4CEA070CC0F808C04768B743F2
:102670000E79C6F3001696403E434660C668AE43E8
:102680008D68A5403543C5604C68E40056D52F4C95
:10269000256845F480452560246822F0030504F48C
:1026A000804400942A4C2E19D6F808789407250FF8
:1026B00008FA05F4A743274CA04201D1002415E0F5
:1026C000254CA04201D1012410E0244CA04201D1AC
:1026D00002240BE0224CA04202D1032406E02DE0AC
:1026E000204CA04201D1042400E00724AC403C432C
:1026F000C6F80848D9F800404D464E689C43F6039A
:1027000000D51C432C60DAF8004055464E689C43C7
:10271000B60300D51C432C60DBF800405D464E68D4
:102720009C43F60200D51C432C60DEF80040754641
:102730004E689C43B60200D51C432C60521C102AE4
:10274000FFF455AFBDE8F88F003C0140443802402B
:102750000030014000000240000402400008024036
:10276000000C0240001002400AB181617047090468
:10277000FBE700000148806870470000FC00002073
:1027800010B5040013D0242084F83D0020680168AF
:1027900021F001010160204600F050FC002020647F
:1027A00084F83D0044F8300FA073207310BD012061
:1027B00010BD000070B5040025D094F83D00002540
:1027C00020B984F83C50204600F04CFC242084F8CA
:1027D0003D002068016821F0010101602068016866
:1027E00041F4004101602068016821F4004101606A
:1027F00000F0A4FD4D4B6168994201D84C4900E0BE
:102800004C49884201D2012070BD4B492268B0FB7F
:10281000F1F1566826F03F060E43566062689A4210
:1028200006D94FF4967251434FF47A72B1FBF2F12C
:102830002268491C166A26F03F063143116261681E
:10284000994210D84900401EB0FBF1F2521CC2F36D
:102850000B02042A01D2042022E0B0FBF1F0401C5C
:10286000C0F30B001CE0A268F2B301EBC10303EB61
:102870000116431EB3FBF6F35B1C43F480431B05B8
:1028800049D092B301EBC10202EB0111401EB0FB33
:10289000F1F0401CC0F30B0040F4804040F40040D5
:1028A0002168CA694CF6FF739A431043C861D4E9A2
:1028B000071001432068026822F0C0021143016042
:1028C000D4E9030101432068826848F2FF339A4348
:1028D00011438160D4E9051001432068C26822F0E9
:1028E000FF021143C16001E00EE016E020680168BC
:1028F00041F0010101602564202084F83D0025633A
:1029000084F83E50002070BD01EB4106431EB3FB2E
:10291000F6F35B1CB3E70120C2E701EB4101401E67
:10292000B0FBF1F0401CC0F30B00B7E7A08601003C
:1029300080841E0000093D0040420F002DE9FF4F3A
:1029400081B01F4693460446FFF714FF054694F8EE
:102950003D00012620287DD119230122504920461F
:10296000009501F013FE002874D194F83C00012872
:1029700070D0012084F83C0020680168C90703D1A9
:10298000016841F0010101602068016821F40061E3
:102990000160242084F83D004FF0000AC4F840A0F4
:1029A0004048E0624FF020092068016841F48071DE
:1029B00001603B4600224FF001112046009501F0D6
:1029C000E5FD50B120680068C00502D54FF40070E5
:1029D0002064032005B0BDE8F08F0298216800F064
:1029E000FE000861FFF7C6FE0546206841694069A0
:1029F000C1F34001C0F380204FF0A0080EE0FFF7C4
:102A0000B9FE401BB84200D80FB984F83D80206859
:102A100041694069C1F34001C0F3802094F83D2032
:102A2000A02A02D009B90028E9D084F83D90206896
:102A30004169C943890717D4016841F400710160F5
:102A400020685646416980691923012214492046AD
:102A5000009500E022E001F099FDA8B984F83D90CE
:102A600084F83C600020B5E7016841F40071016022
:102A700021686FF4806048611923012208492046CB
:102A8000009501F083FD08B10120A3E7761C5E45A7
:102A90008AD384F83D9084F83CA0F5E7022099E7BA
:102AA000020010000000FFFF2DE9F84F984617467E
:102AB0008A460446DDF82890FFF75CFE054694F848
:102AC0003D00202875D1192301226C49204600952C
:102AD00001F05CFD0028F5D194F83C00012868D095
:102AE000012084F83C0020680168C90703D101680F
:102AF00041F0010101602068016821F4006101607A
:102B0000222084F83D00102084F83E000026266430
:102B10006762A4F82A80608D20855948E0622B46C0
:102B20004A465146204601F047FC002878D1208DC6
:102B3000544F68B1012814D002282068016816D0CB
:102B400041F480610160206841698069009087E0FC
:102B50002068416981690091016841F40071016058
:102B60007EE02068016821F480610160F0E721F4D3
:102B7000806101602068016841F40061E2E7032898
:102B800048D801280AD0022814D04B4600223946E2
:102B90002046009501F0FAFCD8BB27E02A464946BA
:102BA000204601F073FDA0BB20680069616A0870CF
:102BB0004DE061E04B46002239462046009501F089
:102BC000E5FC30BB2068016841F4007101602068B9
:102BD0000069616A0870606A401C6062218D491E4C
:102BE0002185618D491E618521682EE0206801687C
:102BF00021F48061016020680069616A0870606A80
:102C0000401C6062208D401E2085608D401E6085C6
:102C1000D0E705E02A464946204601F037FD10B1CD
:102C20000120BDE8F88F20680069616A0870606A59
:102C3000401C6062218D491E2185618D491E618580
:102C400021684A69D24352070AD409690170606A4F
:102C5000401C6062208D401E2085608D401E608576
:102C6000208D00288BD1202084F83D0084F83E6020
:102C700084F83C600020D4E70220D2E70200100074
:102C80000000FFFF040001002DE9FF4F81B01F4647
:102C9000DDE90EBA91460446FFF76CFD054694F84F
:102CA0003D0020287ED11923012296492046009517
:102CB00001F06CFC0028F5D194F83C00012871D09B
:102CC000012084F83C0020680168C90703D101682D
:102CD00041F0010101602068016821F40061016098
:102CE000212084F83D004FF0100884F83E80002633
:102CF0002664C4F824906785608D2085824FE76242
:102D00002B462046109A029901F0CCFB20684169BD
:102D10008069009034E02A462046109901F0EBFCCF
:102D200040B1206C042804D12068016841F400718E
:102D300001609EE0606A216800780861606A401C5A
:102D40006062618D491E6185218D491E89B2218590
:102D500022685369DB435B070BD451B100781061E3
:102D6000606A401C6062608D401E6085208D401E40
:102D700020852A462046109901F0E2FB0028D0D198
:102D8000208D0028C7D1222084F83D0084F83E80A1
:102D90002664C4F824B0A4F82AA0608D2085E762D8
:102DA0002B4600E0ABE02046109A029901F004FBAC
:102DB000F0BB208D554F68B1012814D0022820683F
:102DC000016816D041F48061016020684169806922
:102DD000009088E02068416981690091016841F4B0
:102DE000007101607FE02068016821F4806101606A
:102DF000F0E721F4806101602068016841F400611E
:102E0000E2E703284DD8012825D00228109B009521
:102E10004FF000023946204628D001F0B7FB206869
:102E2000016821F48061016020680069616A00E046
:102E30001FE00870606A401C6062208D401E208583
:102E4000608D401E60850095002239462046109B0B
:102E500001F09CFB11E02A462046109901F016FC77
:102E600038B920680069616A087033E001F08EFBB0
:102E700018B1012005B0BDE8F08F2068016841F469
:102E80000071016020680069616A0870606A401C16
:102E90006062218D491E2185618D491E61852168F1
:102EA00016E02A462046109901F0F0FB20680069E0
:102EB000616A0870606A401C6062218D491E21852C
:102EC000618D491E618521684A69D24352070AD43F
:102ED00009690170606A401C6062208D401E208577
:102EE000608D401E6085208D00288AD1202084F8C6
:102EF0003D0084F83E6084F83C600020BAE7022080
:102F0000B8E70000020010000000FFFF040001000D
:102F10002DE9F84F1F4690468A460446DDF8289072
:102F2000FFF728FC054694F83D0020287FD119239F
:102F3000012240492046009501F028FB002876D167
:102F400094F83C00012872D0012084F83C002068ED
:102F50000168C90703D1016841F0010101602068DF
:102F6000016821F400610160212084F83D001020F7
:102F700084F83E0000262664C4F824806785608DAE
:102F800020852D48E0622B464A465146204601F0F6
:102F900089FA90B9206841698069009036E02A4634
:102FA0004946204601F0A7FB50B1206C042804D10B
:102FB0002068016841F4007101600120BDE8F88FCC
:102FC000606A216800780861626A521C6262608DE2
:102FD000401E6085208D401E80B2208521684B698F
:102FE000DB435B070BD450B110780861606A401C6A
:102FF0006062608D401E6085208D401E20852A46BF
:103000004946204601F09CFA0028CED1208D0028A8
:10301000C5D154F83D0B016841F4007101602020D6
:1030200004F81E09E67766770020C7E7FFE702206D
:10303000C4E70000020010000000FFFF006806491E
:10304000884208D10548016821F400110160C021BF
:103050000348FFF737BA7047005400404038024039
:103060000004024010B586B0044614216846FDF7FE
:10307000F7F813492068884220D1124800210268DD
:1030800042F002020260006800F002000590C020D9
:103090000090122001900220CDE90201042004904A
:1030A00069460948FFF796FA06481030016841F46E
:1030B00000110160006800F40010059006B010BD1A
:1030C0000054004030380240000402400248816849
:1030D0000278114481607047FC0000200B4810B555
:1030E000016841F400710160016841F48061016090
:1030F000016841F480710160032000F06FF8002046
:1031000000F006F800F024F8002010BD003C02405A
:1031100070B50D4D04464FF47A712878B1FBF0F08C
:103120000A490968B1FBF0F000F0BBFC48B9102C6B
:1031300007D200222146501E00F030F800206C60BB
:1031400070BD012070BD0000FC00002008010020BF
:103150000A4808B5016841F480410160006800F444
:10316000804000900548001F016841F080510160D7
:10317000006800F08050009008BD00004438024014
:10318000002809DB00F01F02012191404009800066
:1031900000F1E020C0F8001170470000F0B40E4BC1
:1031A0001B68C3F30223C3F10704042C00D90424D1
:1031B0001D1D072D01D2002300E0DB1E012606FAAB
:1031C00004F56D1E0D409D409E40761E164045EA5A
:1031D0000601F0BC04F007BC0CED00E0064A00F06C
:1031E000070110684FF6FF03184040EA0120034929
:1031F00008431060704700000CED00E00000FA0585
:103200002DE9F0470D46040065D0DFF81491D9F898
:103210000000EFB200F00F00A84207D289F800705A
:10322000D9F8000000F00F00A84254D120683D4EAC
:10323000810712D5400703D5306840F4E050306074
:103240002078000703D5306840F460403060306873
:10325000A16820F0F000084330602078C0072DD02E
:10326000304960680839012812D0022813D0032899
:1032700011D00968890700292DDA316821F003018E
:1032800001433160FFF776FA804641F2883A0EE05A
:1032900009688903EFE709688901ECE7FFF76AFA33
:1032A000A0EB0801514502D90320BDE8F087306842
:1032B000616800F00C00B0EB810FEFD1D9F800107D
:1032C000484601F00F01A94207D90770006800F0D5
:1032D0000F00A84201D00120E7E72078400705D57C
:1032E0003068E16820F4E05008433060207800073F
:1032F00006D53068216920F4604040EAC1003060A2
:1033000000F03CF83168084AC1F30311515CC84031
:10331000064908600020FFF7FBFE0020C5E700001B
:10332000003C024008380240C8950008080100200F
:103330000148006870470000080100200448054962
:1033400000680968044AC1F38221515CC840704793
:103350000801002008380240D895000804480549B3
:1033600000680968044AC1F34231515CC8407047A3
:103370000801002008380240D8950008104810B510
:10338000006810F00C010F4818D0042916D0082945
:1033900014D10B4C241F216801F03F0221682168E1
:1033A0000023C1F38811A1FB0001FCF711FF216884
:1033B000C1F30141491C4900B0FBF1F010BD000010
:1033C000083802400024F4002DE9F84F040073D0BF
:1033D0002078BD4DC00748D0BB4808300168C1F314
:1033E0008101012908D00068C0F3810002280AD1B8
:1033F000281D0068400206D52868800335D560681E
:103400000028E4D031E06068B0F5803F10D0B0F51E
:10341000A02F286810D020F480302860286820F47D
:10342000802028606068A0B1FFF7A4F906460CE090
:10343000286840F48030F4E740F480202860F7E703
:10344000FFF798F9801B642872D828688003F7D5A5
:103450000BE0FFF78FF9064604E0FFF78BF9801BBE
:103460006428F1D828688003F7D42078DFF85C92CC
:1034700080074FF0000A3ED593480830016811F0EC
:103480000C0F09D00068C0F3810002280BD18E48D0
:10349000001D0068400206D42868800715D5E06842
:1034A000012809D111E0E068B8B10120C9F8000095
:1034B000FFF760F9064605E003E1FFF75BF9801BC3
:1034C0000228C1D828688007F7D52868216920F02C
:1034D000F80040EAC10028600DE0C9F800A0FFF73D
:1034E00049F9064604E0FFF745F9801B02281FD87A
:1034F00028688007F7D42078000722D5724F7449D6
:103500006069743770B101200860FFF733F906462F
:1035100004E0FFF72FF9801B022809D838688007DC
:10352000F7D50EE0C1F800A0FFF724F9064605E044
:1035300081E0FFF71FF9801B02287CD838688007DC
:10354000F7D42078400769D5DFF87CB14FF0000848
:103550000BF1400BDBF80000C0000CD4DBF80010CE
:1035600041F08051CBF80010DBF800004FF001086B
:1035700000F080500090574F3868C0050FD438686D
:1035800040F480703860FFF7F5F8064604E0FFF776
:10359000F1F8801B02284ED83868C005F7D54A4F8D
:1035A000A068703701280FD00528386810D020F0A7
:1035B00001003860386820F004003860A068B0B1BD
:1035C000FFF7D8F806460EE0386840F00100F4E74F
:1035D00040F004003860F7E7FFF7CCF8811B41F2B8
:1035E0008830814265D838688007F5D50DE0FFF74F
:1035F000C1F8064606E0FFF7BDF8811B41F28830AE
:10360000814256D838688007F5D4B8F1000F05D04C
:10361000DBF8001021F08051CBF80010A069C8B38E
:10362000294908310968C1F38101022949D00228DA
:10363000504607D000E03CE0C9F86000FFF79AF878
:10364000044639E04F46C9F86000FFF793F8064694
:1036500004E0FFF78FF8801B02282AD82868800131
:10366000F7D4D4E907010843A16A1B4A490802EBD1
:103670000141626A41EA8211084394F82C1040EA41
:1036800001611148001D016001203866FFF772F8E2
:10369000044605E013E0FFF76DF8001B022808D888
:1036A00028688001F7D50AE0FFF764F8001B0228BC
:1036B00002D90320BDE8F88F28688001F4D40020E7
:1036C000F8E70120F6E7000000380240000047421A
:1036D000800E4742007000400000FFFF70B50400FC
:1036E00005D00025A56294F8510010B106E0012034
:1036F00070BD84F85050204600F030F8022084F865
:1037000051002068016821F040010160D4E9010105
:103710000843D4E903121143084361690843218B2C
:1037200001F400710843E1690843216A0843A16A72
:10373000084321680860A069042101EA1040616A19
:103740000843216848602068C16921F40061C161B3
:103750006565012084F85100002070BD2DE9F04F0F
:1037600087B0044614216846FCF77AFD494D484A63
:10377000206848490026103D02274FF0050A4FF007
:10378000060B4FF00308904219D1086840F48040BE
:103790000860086800F480400590286840F0020046
:1037A0002860286802AA00F0020005904FF47040DB
:1037B000CDE9000782E84005694637481BE0374AF3
:1037C00090421AD1086840F400400860086800F48C
:1037D00000400590286840F004002860286802AA8C
:1037E00000F0040005904FF4E050CDE9000782E8B6
:1037F000400969462A48FEF7EDFE2A49DFF8949011
:10380000206809F1040988421CD1D9F8001041F45C
:103810000051C9F80010D9F8000000F400500590DC
:10382000286840F010002860286802AA00F0100004
:1038300005906420CDE9000782E8400569461A48F2
:10384000FEF7C8FE1949206888421DD1D9F800103A
:1038500041F48011C9F80010D9F8000000F480107C
:103860000590286840F010002860286802AA00F03F
:10387000100005904FF4E040CDE9000782E84009D0
:1038800069460948FEF7A6FE07B0BDE8F08F0000C4
:10389000003800404038024000040240003C004034
:1038A0000008024000340140001002400050014076
:1038B0002DE9F84F044690F8500001250A9E1F4656
:1038C00092468B464FF0000801280ED0012084F864
:1038D0005000FEF74FFF814694F8510061680128BF
:1038E0000CD0B1F5827F07D102E00220BDE8F88F4D
:1038F000A16809B9042801D00220B6E0BBF1000F8D
:1039000027D0BAF1000F24D01FB394F85100042837
:1039100002D0052084F8510000206065C4F838A06A
:10392000E787A787C4F830B0E786A786206460647D
:1039300020680168490603D4016841F04001016034
:10394000E068B0F5006F606805D0E8B3012F43D0A0
:1039500079E0012089E008B1012F34D1206B216882
:103960000088C860206B801C2063E08E401EE086CB
:1039700029E02068816889070DD5E18E59B1012DB4
:1039800009D1216B0988C160206B801C2063E08E07
:10399000401EE086002520688168C9070BD0E18FB2
:1039A00049B1C068A16B0880A06B801CA063E08F48
:1039B000401EE0870125FEF7DDFEA0EB0900B042C6
:1039C00001D3701C50D100E006E0E08E0028D0D179
:1039D000E08F0028CDD13CE0206B2168007808738F
:1039E000206B401C2063E08E401EE0862BE02068A8
:1039F000816889070DD5E18E59B1012D09D1216B5F
:103A000009780173206B401C2063E08E401EE08625
:103A1000002520688168C9070BD0E18F49B1C068D3
:103A2000A16B0870A06B401CA063E08F401EE08774
:103A30000125FEF79FFEA0EB0900B04202D3701CE7
:103A400001D011E086B1E08E0028D0D1E08F0028AF
:103A5000CDD14A463146204602F090FE38B12020B2
:103A60004FF00108606508E00320804605E0A0688B
:103A700018B92068C16880680090012084F851005E
:103A8000002084F85000404630E74FF0E021042841
:103A9000086903D020F004000861704740F004007A
:103AA000FAE710B5401EB0F1807F01D3012010BDB0
:103AB0004FF0E02460610F21601703F094FF0020B5
:103AC000A06107202061002010BD7047704770B5CD
:103AD00090F83C20012A19D0012500F83C5F022211
:103AE000427050F83C2C5368946823F070060B68C1
:103AF0004968334324F080042143536050F83C2C40
:103B00009160457000210170084670BD022070BDB3
:103B100010B504460068042203F001FA2068416CE5
:103B200041F4004141642068816801F007010629E1
:103B300003D0016841F001010160002010BD10B503
:103B4000040003D094F83D0010B107E0012010BD3F
:103B5000002084F83C00204600F00CF8022084F895
:103B60003D00211D206803F081F9012084F83D000B
:103B7000002010BD08B500680B49884212D10B48DF
:103B8000016841F0040101600068002200F00400B7
:103B9000009011461E20FFF701FBBDE808401E20E3
:103BA000FFF7EEBA08BD00000008004040380240B0
:103BB0000168CA6842F00102CA600068816801F0C9
:103BC0000701062903D0016841F0010101600020CE
:103BD000704770B5044690F83C00012817D00125C5
:103BE00084F83C50022084F83D002068826822F06E
:103BF000770222F47F4282600868502830D00DDCC2
:103C000020284DD005DC98B310283BD148E0022095
:103C100070BD302844D0402834D139E0602828D005
:103C2000702806D0B0F5805F2CD0B0F5005F29D1A8
:103C30000AE0CB68D1E90121206803F07DF9206812
:103C4000816841F0770109E0CB68D1E90121206862
:103C500003F072F92068816841F48041816011E0CD
:103C6000CA684968206803F021FA5021206807E0FB
:103C700016E0CA684968206803F029FA60212068C4
:103C800003F064F984F83D50002084F83C0070BDD6
:103C9000CA684968206803F009FA40212068EFE704
:103CA000226801461046EBE7704770B5044600688D
:103CB00001694FF00005C943890715D4C168C9439C
:103CC000890711D4E91E01610120207720688069ED
:103CD0008007204602D0FFF7E7FF04E000F0C2F8BB
:103CE000204600F044F9257720680169C943490757
:103CF00017D4C168C943490713D46FF004010161A7
:103D0000022020772068806910F4407F204602D08E
:103D1000FFF7CAFF04E000F0A5F8204600F027F9FD
:103D2000257720680169C943090716D4C168C943CA
:103D3000090712D46FF00801016104202077206880
:103D4000C0698007204602D0FFF7AEFF04E000F014
:103D500089F8204600F00BF9257720680169C943EE
:103D6000C90617D4C168C943C90613D46FF010013E
:103D70000161082020772068C06910F4407F204648
:103D800002D0FFF791FF04E000F06CF8204600F04D
:103D9000EEF8257720680169C943C90708D1C168D1
:103DA000C943C90704D1891E0161204600F0FCF80F
:103DB00020680169C943090609D4C168C9430906D5
:103DC00005D46FF0800101612046FFF77EFE206878
:103DD0000169C943490609D4C168C943490605D4E4
:103DE0006FF040010161204600F0DFF820680169B2
:103DF000C94389060BD4C168C943890607D46FF04B
:103E0000200101612046BDE87040FFF75FBE70BD34
:103E100010B586B0044614216846FCF721FA0E4915
:103E20002068884215D10D48016841F00801016001
:103E30000068012100F0080005904FF480500090C8
:103E40000220CDE901010390049069460448FEF781
:103E5000C1FB06B010BD0000000800403038024031
:103E6000000C0240704770B5044690F83C000D46C7
:103E700001280DD0012684F83C60022084F83D0022
:103E800042B1042A18D0082A2AD00C2A4DD139E090
:103E9000022070BD206803F061F82068816941F05C
:103EA000080181612068816921F004018161206835
:103EB00081692A69114311E0206803F07BF82068CA
:103EC000816941F4006181612068816921F4806128
:103ED0008161206881692A6941EA0221816124E0C7
:103EE000206803F095F82068C16941F00801C161BC
:103EF0002068C16921F00401C1612068C1692A6993
:103F0000114311E0206803F0AFF82068C16941F463
:103F10000061C1612068C16921F48061C1612068CC
:103F2000C1692A6941EA0221C16184F83D6000202B
:103F300084F83C0070BD10B5040003D094F83D0037
:103F400010B107E0012010BD002084F83C0020469D
:103F500000F00CF8022084F83D00211D206802F0DA
:103F600085FF012084F83D00002010BD7047704798
:103F700010B504460068012202F0C4FF0949206818
:103F8000884203D1416C41F400414164206881685A
:103F900001F00701062903D0016841F00101016029
:103FA000002010BD0000014070477047704710F8B6
:103FB000391F40780843704770B50268044610689E
:103FC000D168536910F00F0F51D003F0010501F4CF
:103FD000907635435DD0C20705D0CA0503D5E26BA4
:103FE00042F00102E263420705D5DA0703D0E26B33
:103FF00042F00202E263820705D5DA0703D0E26BE2
:1040000042F00402E263020705D5DA0703D0E26B4F
:1040100042F00802E263E26B002A34D0800604D545
:10402000880602D5204603F09CFA20684069E16BBF
:10403000C0F3801001F008010143204624D003F0B2
:1040400079FA2068416949061AD5416921F0400191
:104050004161606BA0B11B490165606BFEF7AAF876
:10406000002810D0606B016DBDE8704008478306E2
:104070000FD58B060DD52046BDE8704003F071BA10
:104080002046FFF793FF70BDFFF790FF0020E0632D
:1040900070BD030606D50B0604D52046BDE870406A
:1040A00003F000BC4006F3D54806F1D5D1682046A0
:1040B00021F04001D160202184F8391000F062F92C
:1040C00070BD00006174000870B5040004D094F85D
:1040D0003900002510B106E0012070BD84F8385089
:1040E000204600F023F8242084F839002068C168B5
:1040F00021F40051C160204603F07EFA2068016976
:1041000021F4904101612068416921F02A01416157
:104110002068C16841F40051C160E563202084F843
:10412000390084F83A00002070BD00002DE9F0430A
:1041300087B0044614216846FCF792F8444ADFF839
:104140000C81206800254249143A022301274026A9
:104150004FF0030C4FF48069404537D1086840F0B8
:1041600010000860086800F010000590106840F02A
:10417000010010601068694600F0010005904FF4DE
:10418000C0608DE88910072004903248FEF722FABB
:10419000324F3148386070057860C7E90265C7E979
:1041A0000495C012BD61C7E9075004207862384603
:1041B000FEF7E2F808B1FDF767FC2763002211461D
:1041C0002520BC63FEF7EAFF252039E0DFF8908068
:1041D000404537D1086840F020000860086800F0CA
:1041E00020000590106840F00400106010686946D7
:1041F00000F004000590C0208DE88910082004908C
:104200001848FEF7E7F91448174F183838604FF090
:1042100020607860C7E90265C7E90495BD61FD616A
:104220003D6238467D62FEF7A7F808B1FDF72CFC29
:104230002763002211464720BC63FEF7AFFF4720EB
:10424000FEF79EFF07B0BDE8F083000000100140BC
:104250004438024000000240B86402406446002036
:104260000014014000080240C446002090F83A3093
:10427000202B22D1F9B1F2B190F83830012B1CD0AB
:1042800081628285C2850021C163222280F83A20A2
:1042900080F838100168CA6842F48072CA60016808
:1042A0004A6942F001024A610068C16841F0200198
:1042B000C160002070470120704702207047000055
:1042C0000D48811F0278086C0C4B0344401C0864A5
:1042D0001A70086C0022402800D10A64886C401CC7
:1042E0008864402802D18A640120087201220249B0
:1042F0000348FFF7BBBF0000060000209C230020FE
:10430000E0020020F7B5044690F83900202831D1AA
:10431000019969B362B394F8380001282AD00120CA
:1043200084F838002162A284E2840025E56321201C
:1043300084F83900236B1048D863236B0F48186446
:10434000236B0F48D864206B134605652668206BE5
:10435000321DFEF77BF821686FF04000086084F89A
:1043600038502068416941F0800141610020FEBD64
:104370000120FEBD0220FEBDBB740008E9740008E8
:104380007174000870477047FEE701684A69D243BC
:1043900052050FD46FF480624A61002140F8301F4B
:1043A000202242738173026942F0040202610173A8
:1043B00001207047002070472DE9F84F0446C06A7D
:1043C0001D4693460F4621680A6842F480620A60DF
:1043D000082807D0012805D010F5803F02D0206BB7
:1043E000112804D12068016841F4807101604FF008
:1043F00001195B46002249462046009500F0C6F8A8
:104400004FF4007840B120680068C00501D5C4F8B9
:1044100040800320BDE8F88F2069DFF884A0B0F564
:10442000804F0FD00620216800EAD71646F0F00032
:1044300008612B465A460AF10601204600F0DAF8D8
:1044400058BB03E0F8B240F001001CE02168F8B26C
:1044500008612B465A465146204600F0CBF8E0B999
:104460002068416981690091016841F480710160AF
:104470005B46002249462046009500F087F8002858
:10448000C1D146F0F100216808612B465A465146D9
:10449000204600F0AFF80028BCD00120BAE70000A9
:1044A00002000100F8B50446C06A1E460D461746D4
:1044B000082807D0012805D010F5803F02D0206BD6
:1044C000122804D12068016841F48071016013460C
:1044D00000224FF001112046009600F057F840B13D
:1044E00020680068C00502D54FF4007020640320E6
:1044F000F8BD2069B0F5804F0ED00620216800EA93
:10450000D51040F0F000086133463A460B4920468A
:1045100000F070F878B902E005F0FE0000E0E8B2C3
:1045200021680861054933463A46891F204600F054
:1045300061F80028DCD00120F8BD0000080001006F
:1045400070B516460D4604460DE02046FFF71DFFE8
:1045500008B1012070BD681C05D0FEF70BF9801B67
:10456000A84207D835B120684069C0434007ECD461
:10457000002070BD002044F8300F20216173A0732B
:10458000216941F0200121612073E2E72DE9F04724
:104590001D4690460E460446C1F30747DDF82090BD
:1045A00008E0681C06D0FEF7E5F8A0EB0900A84279
:1045B0000FD875B12068012F18D0806926EA000055
:1045C0000004000C14D000204045EAD00020BDE8D3
:1045D000F087002044F8300F20216173A073216917
:1045E00041F02001216120730120F0E74069E5E7F7
:1045F0000120E9E72DE9F047984615460E460446A6
:104600004FF000094FF0200AC1F3074723E020686C
:104610004069C043400515D42068016841F4007129
:10462000016021686FF480604861C4F8309084F8BC
:104630003DA084F83E90216C41F00401216484F88F
:104640003C901EE0681C06D0FEF794F8A0EB080032
:10465000A8420AD84DB12068012F15D0806926EAFA
:1046600000000004000C0DD0D1E744F8309F84F81E
:104670000DA084F80E90216941F02001216184F899
:104680000C900120BDE8F0874069E8E72DE9F04192
:1046900016460D46044600274FF0200817E04069F3
:1046A000C043C0060DD454F8301B6FF010004861B1
:1046B00044F80D7B04F81D89A777206A20622777CC
:1046C00017E0FEF757F8801BA84208D83DB12068D4
:1046D0004169C9434906E2D40020BDE8F08144F8AD
:1046E000307F84F80D80A773206940F0200020619E
:1046F00027730120F1E770B516460D4604460DE01C
:104700002046FFF742FE08B1012070BD681C05D0AD
:10471000FEF730F8801BA84207D835B12068406901
:10472000C0430006ECD4002070BD002044F8300FD8
:1047300020216173A073216941F020012161207360
:10474000E2E70000002210210148FEF70DB800004A
:1047500000100240012210210148FEF705B80000B8
:104760000010024010B50446FFF7ECFF200A04F0E9
:104770004DFDE0B204F04AFD002004F047FD0120A9
:1047800004F044FD002000F005F80446FFF7E2FFC6
:10479000204610BD04F03ABD70B50D460446FFF743
:1047A000D1FF200A04F032FDE0B204F02FFD80209A
:1047B00004F02CFD012004F029FD284604F026FD1C
:1047C000FFF7C8FF012070BDF0B5002302EBC30462
:1047D00000264FF0FF35C4E902565B1C022BF5D3CF
:1047E00000241460224601EBC20341F822504FF02E
:1047F000FF36E3E92066C3E9C0668B18521C83F8D4
:104800008044202AEFD3C1F8A04400214FF48062F5
:104810004454491C9142FBD3C0F80044C0F80444FE
:1048200000F580600022C0E90222C0E90422C0E94C
:104830000622F0BD2DE9F04FFA4E00252DED028B3A
:1048400083B081468DF80450B48A14B904F060F93D
:104850000446B582F44935659FEDF48ADFF8D083CC
:10486000B06E01234FF0200B08F1C80AA8F1E90E41
:10487000884202DCF08A9D2814D9357386ED1A8AA5
:10488000F564B572F572C6E91553F3657573B573C2
:10489000F5733566756688F800B08AF800B07574EF
:1048A0003574F58299E0326D19F802007E2816D130
:1048B000307BA0B9337386ED1A8AF564B572F57250
:1048C000C6E91553F3657573B573F573356675668B
:1048D00088F800B08AF800B075743574F582F16C10
:1048E00019F802000EF80100F78A7F1CF7823B28B6
:1048F00004D03D280AD03A2808D00BE0377CBFB955
:10490000377B012F14D13573F3720DE0777B0FB92C
:10491000737373742E2802D0242807D008E0B77B65
:1049200037B9377C27B9B373737401E0F77B37B1BC
:10493000022939D99EF80270202F03D034E00227D3
:10494000F773F1E7777C77BBF77B022F2CD2777B6D
:10495000012F0BD0DFF8D8C2776DACF1200C202FDF
:104960000CF8070027D27F1C776524E0B77B27B1BE
:10497000012F0ED027B110D01DE0B76D08F8070049
:10498000B06DC82817D2401CB065706E401C7066B0
:1049900011E0D6F85CC00AF80C00F06DC8280AD205
:1049A000401CF06507E0FFE7F77B022F03D1777C1F
:1049B0000FB93066F373D6E91807874202D2F07B4D
:1049C000012811D03574C82901D2491CF164C82AC4
:1049D00001D2521C32657574641E002C7FF463AFE3
:1049E000F07A012802D04FE33374ECE79EF8001010
:1049F0007E2903D1B17A41F00101B1729EF8010024
:104A0000717AF146884203D1B07A40F00200B07268
:104A1000B07A03287ED1864886A12038FBF732FC85
:104A2000002878D0824885A12038FBF72BFC00288D
:104A300072D07F4883A12038FBF724FC00286CD07B
:104A40007B4881A12038FBF71DFC002866D0784800
:104A50007EA12038FBF716FC00287DD074487DA18C
:104A60002038FBF70FFC7D4F002876D070487CA1E2
:104A70002038FBF707FC002870D06D4879A120385A
:104A8000FBF700FC00286AD0694879A12038FBF7C1
:104A9000F9FB794F00287DD0654878A12038FBF7D5
:104AA000F1FB002877D0624877A12038FBF7EAFBBA
:104AB000002871D05E4876A12038FBF7E3FB002880
:104AC0006BD05B4875A12038FBF7DCFB00287AD05F
:104AD000574873A12038FBF7D5FB002874D0544801
:104AE00071A12038FBF7CEFB00286ED0504870A192
:104AF0002038FBF7C7FB002868D04D486EA120384E
:104B0000FBF7C0FB002876D049486DA12038FBF7A1
:104B1000B9FB04E008E25AE063E06EE01EE1002821
:104B20006AD0434868A12038FBF7ACFB00286FD05F
:104B30003F4867A12038FBF7A5FB002869D03C4817
:104B400064A12038FBF79EFB002863D0384863A19E
:104B50002038FBF797FB03E00BE116E12AE13BE18C
:104B6000002858D0324860A12038FBF78BFB002882
:104B700052D02F485EA12038FBF784FB00284CD090
:104B80002B485EA12038FBF77DFB0A27002845D083
:104B90005EA103E02BE136E140E14BE124482038FF
:104BA000FBF770FB00283AD021485BA12038FBF7C7
:104BB00069FB002834D01E4859A12038FBF762FB5E
:104BC00000282ED032E246E151E168E179E100218E
:104BD00055A004F01BFCFCF7BBFE0146306256A05A
:104BE000A0E11348FBF75CFB3062D6E91E2355A019
:104BF00004F0E8FB1AE276E182E10D48FBF750FB96
:104C00000146306252A004F001FC01F009FB0DE204
:104C10008BE196E1A2E1B5E1BFE1C0E1D1E1E7E1DD
:104C2000FAE1FDE100000020000048420000000021
:104C3000AE250020426174504700000074696D6524
:104C4000000000006D656D004D53470049445F53FF
:104C50004552560073706935000000000010024094
:104C60006E7373006574685F696E6974000000009C
:104C70007463615F72737400000C02407463615F5F
:104C800074657374000000007463615F7700000056
:104C9000656E61626C655F6C6D0000006C6D00009C
:104CA0006C6D5F49440000006C6D5F74656D700051
:104CB0006C6D5F76000000007077725F30373200F5
:104CC0006932635F61647200737461727400000022
:104CD00070776D00707772646E0000004144435F2E
:104CE000746573740000000068656C70000000005B
:104CF0006932635F73746174757300006932635F56
:104D00007472616E736D6974000000006932635FD4
:104D10007265636976650000696E666F0000000069
:104D20006D656E7500000000EFF0E8EDFFEB2042CE
:104D3000617450473A000000504F5745525F474F4B
:104D40004F443A0054494D455F5359533A000000CF
:104D5000EFF0E8EDFFEB206D656D3A00CD48FBF715
:104D60009FFA01463062CCA004F050FB00F0B4FD85
:104D70005CE1C848FBF794FA01463062C9A004F030
:104D800045FBCC4801F070FD50E1C248FBF788FAC2
:104D900001463062C8A004F039FB00224FF4806164
:104DA0003846FDF7E1FC96F8200004F041FA0122B4
:104DB00091020FE0B748FBF773FA01463062C2A0D8
:104DC00004F024FB306A012802D00022102101E007
:104DD0000122FBE73846D0E0AE48FBF761FA014616
:104DE0003062BCA004F012FB01F0F6FD1EE1A94800
:104DF000FBF756FA01463062BBA004F007FB4FF404
:104E00000041306A21E0A348FBF74AFA01463062CC
:104E1000B9A004F0FBFA306AB06107E19D48FBF7E6
:104E20003FFA01463062B9A004F0F0FA306A01F0AE
:104E3000E5FFFBE09748FBF733FA01463062B7A085
:104E400004F0E4FA306A4FF48041012801D00022D6
:104E5000C0E70122BEE78F48FBF722FA0146F06166
:104E6000B3A004F0D3FA307F00F0BCFADEE089484A
:104E7000FBF716FA01463062B0A004F0C7FA96F8C4
:104E8000200000F05DFAB14FB1A0397804F06EFB5C
:104E90007978B0A004F06AFBB978AFA0B9E07D489A
:104EA000FBF7FEF901463062ACA004F0AFFA307FA8
:104EB00000F02AFBBCEEC00AACA010EE101A316262
:104EC00030E07448FBF7ECF901463062A9A004F029
:104ED0009DFA307F00F086FCBCEEC00AA9A010EE5F
:104EE000101A31621EE06B48FBF7DAF901463062B6
:104EF000A5A004F08BFA96F8200001F0DFF995E008
:104F00006448FBF7CDF901463062A3A004F07EFAB5
:104F1000308C4FF47A7381B20122A348FDF70EFD65
:104F20000146A2A004F072FA80E05A48FBF7B8F9F3
:104F3000014630629FA004F069FA96F82000B07034
:104F400074E05448FBF7ACF9014630629DA004F0D0
:104F50005DFA308C80B201F091F967E04D48FBF7C3
:104F60009FF9014630629AA004F050FA306A9C4BD7
:104F7000012805D0002202211846FDF7F5FB55E077
:104F80000122F8E74348FBF78BF90146306295A010
:104F900004F03CFAFBF718FE48E097A041E09AA025
:104FA00002F03AFA3B48FBF77BF981B230620A2300
:104FB00001227D48FDF7C2FC08B198A02DE09AA01F
:104FC0002BE09CA002F028FA3248FBF769F9306226
:104FD0003048C830FBF764F9F0618DF804000097A1
:104FE000308C012381B201AA6F48FDF791FF1DE0CB
:104FF00096A002F011FA2748FBF752F9306281B20D
:10500000012301AA68480097FDF74EFD9DF80410A2
:1050100093A004F0ABFA09E093A002F0FDF905E0DB
:1050200095A002F0F9F9002000F036FF1948203869
:105030000555641C202CFBD3002008F80050401CB0
:10504000C828FAD3002051460D54401CC828FBD371
:1050500000204A461554401CC828FBD386ED1A8A06
:105060003573F564B572F5727565B5657573F5657B
:10507000B5733565F573356675667574357488F87E
:1050800000B08AF800B0F582F06903B0BDEC028B85
:10509000BDE8F08FAE250020EFF0E8EDFFEB204DEE
:1050A00053473A00EFF0E8EDFFEB2049445F5345EA
:1050B00052563A00C83B0020EFF0E8EDFFEB2073BA
:1050C0007069353A00000000EFF0E8EDFFEB206E6C
:1050D00073733A00EFF0E8EDFFEB206574685F69E9
:1050E0006E69743A00000000EFF0E8EDFFEB207409
:1050F00063615F7273743A00EFF0E8EDFFEB2074C8
:1051000063615F746573743A00000000EFF0E8EDCE
:10511000FFEB207463615F773A000000EFF0E8ED89
:10512000FFEB20656E61626C655F6C6D3A0000009C
:10513000EFF0E8EDFFEB206C6D3A0000EFF0E8EDEA
:10514000FFEB206C6D5F49443A00000080000020B6
:10515000303A0000313A0000323A0000EFF0E8ED5A
:10516000FFEB206C6D5F74656D703A0074656D7057
:105170003A000000EFF0E8EDFFEB206C6D5F763A4F
:1051800000000000763A0000EFF0E8EDFFEB207041
:1051900077725F3037323A00EFF0E8EDFFEB2069CD
:1051A00032635F6164723A00840100206932633ABD
:1051B00000000000EFF0E8EDFFEB20737461727403
:1051C0003A000000EFF0E8EDFFEB2070776D3A0059
:1051D000EFF0E8EDFFEB20707772646E3A000000AC
:1051E00000080240EFF0E8EDFFEB204144435F741C
:1051F0006573743A00000000EFF0E8EDFFEB206803
:10520000656C700D0A000000EFF0E8EDFFEB20691F
:1052100032635F7374617475730D0A006932635F82
:105220006572726F720D0A006932635F4F4B0D0A2F
:1052300000000000EFF0E8EDFFEB206932635F74DF
:1052400072616E736D69740D0A000000EFF0E8ED95
:10525000FFEB206932635F7265636976650D0A0052
:10526000646174613D000000EFF0E8EDFFEB206940
:105270006E666F0D0A000000EFF0E8EDFFEB206DA9
:10528000656E750D0A0000002DE9F0472A4C0126D5
:105290007703A06A294D4FF480484FF400496428F1
:1052A00018D2606BB0B9012239462846FDF75CFA86
:1052B000002241462846FDF757FA00224946284673
:1052C000FDF752FA6663A06908B101F097FDA06985
:1052D0004000A061A06AC82811D9A06B78B900224B
:1052E00039462846FDF740FA012241462846FDF797
:1052F0003BFA002249462846FDF736FAA663A06A23
:10530000B0F5C87F0ED9002239462846FDF72CFAA1
:10531000002241462846FDF727FA01224946284641
:10532000FDF722FAA06AB0F5FA7F03D90020A06247
:105330006063A063BDE8F087000000200008024021
:10534000F0B505468DB00024032701262348FDF75C
:1053500031FA99208DF82C00082D0ED0072D0ED093
:10536000062D0ED0052D0ED0042D0ED0032D0ED0FF
:10537000022D0ED0012D0ED00EE050240CE056244C
:105380000AE0512408E0572406E0592404E05A2496
:1053900002E0152400E0162403A90120CDE900173E
:1053A0000290034661000BAA0C48FDF76DFC014614
:1053B0000B4801290ED09DF80C1001709DF80D10BE
:1053C00041709DF80E1081700448FDF7D9F90DB0B9
:1053D0003046F0BDFF2101704170F4E784010020E8
:1053E0008000002070B58CB005469A208DF82C0006
:1053F000002408263348FDF7DDF9082D0ED0072DCF
:105400000ED0062D0ED0052D0ED0042D0ED0032D5E
:105410000ED0022D0ED0012D0ED00EE050240CE047
:1054200056240AE0512408E0572406E0592404E0F9
:105430005A2402E0152400E016244FF6FF7000EA1B
:1054400044014FF47A7301221E48FDF777FA0500F4
:1054500032D103A90120CDE9001602900346610074
:105460000BAA1848FDF710FC9DF80C1016A004F0CC
:105470007DF89DF80D1016A004F078F89DF80E1038
:1054800015A004F073F89DF80F1015A004F06EF845
:105490009DF8101014A004F069F89DF8111014A0E4
:1054A00004F064F89DF8121013A004F05FF89DF862
:1054B000131013A004F05AF80248FDF761F90CB07C
:1054C000284670BD84010020615B305D3D00000016
:1054D000615B315D3D000000615B325D3D000000BD
:1054E000615B335D3D000000615B345D3D000000A9
:1054F000615B355D3D000000615B365D3D00000095
:10550000615B375D3D00000070B505462DED048BF5
:105510008CB000240226B0EE009A9FED338A334807
:10552000FDF748F9082D0ED0072D0ED0062D0ED010
:10553000052D0ED0042D0ED0032D0ED0022D0ED031
:10554000012D0ED00EE050240CE056240AE0512428
:1055500008E0572406E0592404E05A2402E0152408
:1055600000E016248D208DF82C0003A90120CDE940
:1055700000160290034661000BAA1C48FDF784FB4D
:1055800004469DF80C009DF80D10DFED199A00EB14
:10559000012000EE100AF0EE490AF8EEC08AB2EEE1
:1055A000040A02F035FA18EE808A9FED120A012CE7
:1055B00029EE888A28EE000ABDEEC00A10EE101A05
:1055C00000D1A11E0C480A0E02700A0C42700A0A91
:1055D0008270C1700548FDF7D3F80CB0B0EE480AF0
:1055E000BDEC048B70BD0000009062C684010020F9
:1055F000F7E9253A0000C8426C00002070B5054666
:105600002DED048B8CB000240226B0EE009A9FEDA5
:10561000338A3348FDF7CEF8082D0ED0072D0ED073
:10562000062D0ED0052D0ED0042D0ED0032D0ED03C
:10563000022D0ED0012D0ED00EE050240CE0562489
:105640000AE0512408E0572406E0592404E05A24D3
:1056500002E0152400E01624D1208DF82C0003A9C7
:105660000120CDE900160290034661000BAA1C48F8
:10567000FDF70AFB04469DF80C009DF80D10DFEDC8
:10568000199A00EB012000EE100AF0EE490AF8EE3C
:10569000C08AB2EE040A02F0BBF918EE808A9FEDD0
:1056A000120A012C29EE888A28EE000ABDEEC00AF3
:1056B00010EE101A00D1A11E0C480A0E02700A0C3E
:1056C00042700A0A8270C1700548FDF759F80CB0A3
:1056D000B0EE480ABDEC048B70BD00000020E5C4AC
:1056E00084010020260098380000C8426C00002089
:1056F00070B505462DED048B8CB000240226B0EE6B
:10570000089A9FED338A3348FDF754F8082D0ED0E0
:10571000072D0ED0062D0ED0052D0ED0042D0ED047
:10572000032D0ED0022D0ED0012D0ED00EE05024F0
:105730000CE056240AE0512408E0572406E05924DE
:1057400004E05A2402E0152400E01624D2208DF84B
:105750002C0003A90120CDE9001602900346610048
:105760000BAA1C48FDF790FA04469DF80C009DF822
:105770000D10DFED199A00EB012000EE100AF0EE9B
:10578000490AF8EEC08AB2EE040A02F041F918EEB6
:10579000808A9FED120A012C29EE888A28EE000AE1
:1057A000BDEEC00A10EE101A00D1A11E0C480A0E60
:1057B00002700A0C42700A0A8270C1700548FCF738
:1057C000DFFF0CB0B0EE480ABDEC048B70BD0000EA
:1057D00000C035C584010020939D3E390000C842B9
:1057E0006C00002070B505462DED048B8CB00024B4
:1057F0000226B0EE009A9FED338A3348FCF7DAFFB9
:10580000082D0ED0072D0ED0062D0ED0052D0ED052
:10581000042D0ED0032D0ED0022D0ED0012D0ED052
:105820000EE050240CE056240AE0512408E05724EE
:1058300006E0592404E05A2402E0152400E016246E
:1058400088208DF82C0003A90120CDE900160290D4
:10585000034661000BAA1C48FDF716FA04469DF8A2
:105860000C009DF80D10DFED199A00EB012000EE01
:10587000100AF0EE490AF8EEC08AB2EE040A02F00D
:10588000C7F818EE808A9FED120A012C29EE888A4B
:1058900028EE000ABDEEC00A10EE101A00D1A11EBB
:1058A0000C480A0E02700A0C42700A0A8270C1701B
:1058B0000548FCF765FF0CB0B0EE480ABDEC048B60
:1058C00070BD000000E0A74484010020F3B08038E0
:1058D0000000C8426C0000202DE9F041002516A010
:1058E00001F09AFDDFF860800027294617A003F039
:1058F0008DFD05EB450000EBC51108EB011615A069
:10590000B16A03F083FD00240AE0214616A003F0EB
:105910007DFD06EB4410416B18A003F077FD641C7D
:10592000D6E90A12611A77EB0200EED36D1C022D44
:10593000DBD3BDE8F08100002D2D2D2D2D2D2D2D3B
:105940002D2D0D0A000000004027002053454E4435
:1059500045523A00D7E8F1EBEE20EAE2E8F2E0ED5A
:10596000F6E8E93A00000000EDEEECE5F020EAE2AE
:10597000E8F2E0EDF6E8E83A00000000434D443A72
:10598000000000007FB500241F4800940194029499
:105990001C490394C0E90014012505618460057663
:1059A00080F820401949C0E90A140526C661C46080
:1059B00080F830504561FCF7FDFACDE900456946B5
:1059C00011480294FCF79CF90224CDE90054694681
:1059D0000D48FCF795F90094032469460A480194A0
:1059E000FCF78EF90420CDE9004069460648FCF733
:1059F00087F90748CDE9000669460348FCF780F9B6
:105A00007FBD0000002001403C0100200100000F8C
:105A1000120000102DE9F04786B014216846FAF70D
:105A20001FFC43480024016841F004010160016843
:105A300001F004010591016841F002010160016873
:105A400001F002010591016841F010010160016857
:105A500001F010010591016841F008010160006842
:105A6000012500F0080005904EF202000090CDE9FB
:105A70000154304F694638460394FCF7ABFD40F6BD
:105A800011400090CDE90154DFF8ACA069465046C2
:105A90000394FCF79FFD4FF490500090CDE9015422
:105AA000DFF89880694640460394FCF793FD4CF27A
:105AB00093600090CDE90154DFF884906946484630
:105AC0000394FCF787FD1F4EC020CDE90006694610
:105AD00002943846FCF77EFD2802CDE900046946B1
