:020000040800F2
:1000000078D80020AD010008CD770008855300089E
:10001000E9730008B9130008C19B00080000000044
:10002000000000000000000000000000B582000891
:100030002D27000800000000C9780008698F00081B
:10004000C7010008C7010008C7010008C701000870
:10005000C7010008C7010008D1270008E5270008EC
:10006000C7010008F9270008C7010008C7010008F8
:10007000C7010008C7010008C7010008C701000840
:10008000C7010008FD250008E50C0008000000007D
:100090000000000000000000000000000D28000823
:1000A000C7010008C7010008C7010008C701000810
:1000B000C7010008C70100088D910008C7010008AA
:1000C000C7010008C7010008C7010008C7010008F0
:1000D000C7010008659B0008719B00080000000034
:1000E000C7010008C7010008C701000800000000A0
:1000F000000000000000000000000000C701000830
:1001000000000000C7010008C7010008C70100087F
:1001100000000000000000000000000000000000DF
:1001200011260008C7010008C7010008C701000820
:10013000C7010008000000000000000000000000EF
:10014000000000000000000000000000C7010008DF
:10015000C70100081D260008292600087D9B00080D
:10016000C7010008C70100080000000000000000EF
:10017000000000000000000000000000000000007F
:1001800000000000C701000800000000000000009F
:10019000C7010008C7010008DFF80CD000F06CFCB4
:1001A0000048004731C6000878D80020064880473C
:1001B00006480047FEE7FEE7FEE7FEE7FEE7FEE74C
:1001C000FEE7FEE7FEE7FEE7D5900008990100088C
:1001D0002DE9F05F0546002092469B46884606467C
:1001E000814640241BE0284641464746224600F00F
:1001F00020F853465A46C01A914110D3114618466A
:10020000224600F0A8FA2D1A67EB01084F46224655
:100210000120002100F09FFA17EB00094E41201E3B
:10022000A4F10104DFDC484631462A464346BDE8D6
:10023000F09F202A04DB203A21FA02F000217047C7
:1002400021FA02F3D040C2F120029140084319463E
:1002500070472DE9FE43994615468846074601AC8E
:10026000022942D3002D40D000200290A8F10100C5
:100270004FF0FF36009022E000FB057201FB057095
:1002800011464A469047002805DC54F826003044C1
:1002900044F8260013E060682A4600FB057154F814
:1002A000040C00FB057007E00B7890F800C001F823
:1002B00001CB00F8013B521E002AF5D1764254F8DA
:1002C000040C61688842D7DC4B462A463846FFF763
:1002D000C0FF54F8040C4B46A8EB0001401C00FB87
:1002E00005702A46491EFFF7B4FFBDE8FE83D2B26F
:1002F00001E000F8012B491EFBD270470022F6E70F
:1003000010B513460A4604461946FFF7F0FF20468B
:1003100010BD421E12F8013F002BFBD111F8013B2A
:1003200002F8013B002BF9D17047421C10F8011B69
:100330000029FBD1801A704710B5002200E0521C42
:10034000835C8C5CA34201D1002BF8D1D8B2E1B21E
:10035000401A10BD034611F8012B00F8012B002AAA
:10036000F9D11846704770B5064609F08FFC04684D
:1003700005460A220021304600F00EFA2C6070BDBE
:100380002DE9FE4F804681EA0300C00F0C46009025
:1003900021F0004123F00045B8EB0200A94105D24D
:1003A0004046214690461C460B46024623F000403C
:1003B000104347D0270DC7F30A00C3F30A51029038
:1003C000401A019040286BDAC3F3130040F4801BFD
:1003D0000098924620B10023D2EB030A63EB0B0B8B
:1003E00001985946C0F14002504600F0B4F9064663
:1003F0000D4650465946019A00F0BCF910EB080032
:100400006141002487EA115284EAE7731A4340D01D
:10041000009A62B3019A012A4FEA075215DC001BC9
:1004200061EB02014FF0004202EA0752CDE90042BF
:10043000001C41F5801132462B4600F02BFA03B028
:10044000BDE8F08F40462146F9E7001B61EB020151
:10045000001C41F5801300185B412018A2F500171D
:1004600047EB030140EAD570B6196D4111E06D0804
:100470004FEA360645EAC0754FEA0752001B61EBAA
:100480000201001C41F5801149084FEA30000019B3
:10049000514132462B4603B0BDE8F04F00F0EBB9B6
:1004A0000098012240000023D0EB020263EBE073CE
:1004B000009821464FEAE074B8EB000061EB0401BC
:1004C000E9E783F000435BE781F0004158E72DE95D
:1004D000FE4F81EA030404F0004421F0004100943F
:1004E0004FF0000B23F0004350EA01045ED052EAC3
:1004F00003045BD0C3F30A54C1F30A552C44A4F29D
:10050000F3340194A0FB0254C1F3130141F48011B0
:10051000C3F3130343F4801301FB024400FB034EB7
:10052000840A970A44EA815447EA8357A4FB076880
:1005300002958D0A05FB07854FEA932C04FB0C54AA
:100540002705029D4FEA065847EA1637B5EB08051E
:100550006EEB070C870E920E47EA811742EA831270
:10056000A7FB0201B6EB0B0164EB00042B0D43EA81
:100570000C335E1844EB1C50DA465146E7FB02018F
:10058000C5F313044FEA0B3343EA14534FEA043222
:10059000019C43EA0603A4F10C040294009CCDE9FB
:1005A00000B400F077F903B0BDE8F08F00200146F9
:1005B000F9E72DE9F04D81EA030404F0004B21F046
:1005C000004514464FF0000A23F0004150EA0502AE
:1005D00020D054EA01021DD0C5F30A570246C5F3E4
:1005E0001303C1F31300C1F30A5640F4801543F41A
:1005F0008013A7EB0608101BD64608F2FD3873EBF4
:10060000050002D308F1010801E092185B41B8F13E
:10061000000F03DA00200146BDE8F08D00204FF402
:100620008011064684460EE0171B73EB050705D3C1
:10063000121B63EB050306434CEA010C49084FEA21
:10064000300092185B4150EA0107EDD152EA0300F5
:1006500012D082EA040083EA0501084305D0101B8A
:10066000AB4106D20122002306E000224FF00043F6
:1006700002E06FF0010253101AEB06004CEB085138
:1006800010EB0A0041EB0B01BDE8F04D00F0F3B8B0
:100690000EB5C10F80EAE0700844CA07002140F29D
:1006A00033438DE80E000A460B4600F0F3F803B022
:1006B00000BD0EB540F2334102910021CDE9001199
:1006C0000A460B4600F0E6F803B000BD00F0004219
:1006D00030F000400AD0C10D01F56071C0F3160082
:1006E00042EA0151C2084007114370470020014609
:1006F000704701F0004330B421F0004150EA01029C
:1007000006D00A0DA2F56072C1F31301002A02DCC3
:1007100030BC00207047440F44EAC104C100E01817
:1007200030BC00EBC25000F06FB830B50B4601464C
:1007300000202022012409E021FA02F59D4205D380
:1007400003FA02F5491B04FA02F52844151EA2F12A
:100750000102F1DC30BD202A04DB203A00FA02F16C
:10076000002070479140C2F1200320FA03F319439F
:1007700090407047202A06DBCB17203A41FA02F05E
:1007800043EAE07306E041FA02F3D040C2F12002EE
:1007900091400843194670472DE9F04791460F46AE
:1007A00080460446002614F8015B2DB100F076F96E
:1007B0000068405DC007F6D12B2D02D02D2D18D03A
:1007C000641E4A463946204600F06CF927B1396864
:1007D000A14201D1C7F8008071054FF002040BD58A
:1007E0004042002803DD09F051FA0460A007BDE88B
:1007F000F08746F48066E4E70028F8DA09F046FA64
:1008000004606FF00040F2E70029A8BF7047401C69
:10081000490008BF20F00100704710B4B0FA80FC16
:1008200000FA0CF050EA010404BF10BC704749B153
:10083000CCF1200421FA04F411FA0CF118BF0121C3
:1008400021430843A3EB0C01CB1D4FEA00614FEAA3
:10085000102042BF002010BC704700EBC350104472
:100860000029A4BF10BC7047401C490008BF20F0FD
:10087000010010BC704710B5141E73F1000408DAB3
:10088000401C41F1000192185B411A4301D120F054
:10089000010010BD2DE9F04D92469B4611B1B1FA11
:1008A00081F202E0B0FA80F220329046FFF753FF67
:1008B00004460F4640EA0A0041EA0B0153465A46F5
:1008C000084313D0114653EA010019D0C8F1400281
:1008D0005046FFF7AEFC05460E4650465946424686
:1008E000FFF739FF084305D0012004E020463946D0
:1008F000BDE8F08D0020054346EAE0762C433743FF
:100900000A986305E40AA0EB08000022FD0A44EA05
:1009100047540A3002D500200146E9E701051019C5
:100920006941DDE9084500196941BDE8F04DA2E7DC
:1009300070B521F0004303430CD0C1F30A550024E5
:10094000D5EB040564EB0403D617AD1AB34102DB03
:100950000020014670BD201841EB025170BD00001F
:100960002DE9F041054621F000400C46284309D00E
:10097000C4F30A5040F23341884205DD284621463F
:10098000BDE8F0812846FBE740F2FE31884210DCEA
:100990000CDB4FEA043040EA155050EA053105D02F
:1009A000104804F0004101430020E9E7002001461F
:1009B000E6E7A0F233404642C6F14002284621460F
:1009C000FFF7C9FE07468846284621463246FFF70C
:1009D00030FC43463A46FFF74EFF3246BDE8F04151
:1009E000FFF7B9BE0000F03FC1F30A52C1F3130193
:1009F00040F2FF3341F480119A4202DA00200146AE
:100A0000704740F233439A42A2F2334202DC524230
:100A1000FFF70FBCFFF79FBE30B5041E71F1000455
:100A200004DB4FF00044404264EB0101141E73F1FB
:100A3000000405DB1C464FF00043524263EB040305
:100A40008B4208BF824230BD30B5041E71F10004F4
:100A500004DB4FF00044404264EB0101141E73F1CB
:100A6000000405DB1C464FF00043524263EB0403D5
:100A7000994208BF904230BD064C074D06E0E06841
:100A800040F0010394E8070098471034AC42F6D3D5
:100A9000FFF786FB94D90008B4D9000800487047D6
:100AA0000CD700082DE9F05F824600780027154634
:100AB0008B460AF10104B946302801D09DB113E0FC
:100AC00014F8010B0127782803D0582801D045B12C
:100AD0000AE00DB1102D07D10027102514F8010BE5
:100AE00002E0082500E00A250026B0460EE005FBDE
:100AF000080005FB06F1012701EB10461FFA80F8FC
:100B0000B6F5803F00D3B94614F8010B294600F032
:100B100069F80028EBDABBF1000F05D00FB1641EB5
:100B200000E05446CBF80040B9F1000F06D009F0C0
:100B3000ADF802210160C81EBDE8F09F48EA0640FA
:100B4000FAE72DE9F04D00231A461B1A8A4103DB10
:100B500000200146BDE8F08DC1F30A52C1F3130134
:100B600041F480154FF0000BD10702D100186D4100
:100B7000521E0027044640F2FF11384601EB620A7C
:100B80003E468046024600204FF48011FFF751FB9D
:100B9000C2197141BB1846EB0100B4EB030C75EBB5
:100BA000000C04D3E41A65EB000517460E46241921
:100BB00008F101006D4180463428E3DDF91946EB68
:100BC0000600091BA84103D24FF0FF32134601E093
:100BD000002213461BEB070046EB0A51BDE8F04D1F
:100BE000FFF749BE3A2800D2303820F02002412ACF
:100BF00001D3A2F13700884201D34FF0FF30704794
:100C000070B58C1810F8015B15F0070301D110F8CE
:100C1000013B2A1106D110F8012B03E010F8016BFB
:100C200001F8016B5B1EF9D12B0705D40023521E7E
:100C30000DD401F8013BFAE710F8013BCB1A921CE6
:100C400003E013F8015B01F8015B521EF9D5A142E4
:100C5000D8D3002070BD10B50146806B026C12F035
:100C6000500F05D0026CD20626D502F04AFA10BD0C
:100C7000016C41F40071016401688A6812F0405F00
:100C800017D1027EAAB9CA6A12F4700F02D08A681C
:100C900052050ED44A6822F020024A60016C21F409
:100CA00080710164016CC90403D4016C41F001013D
:100CB000016402F01DFA10BD806BC26CBDE81040EB
:100CC0000846104710B5806B40210164416C41F02B
:100CD0000401416402F015FA10BD10B5806B02F0FA
:100CE0000FFA10BD10B5034802F00CFA02490120BA
:100CF000087010BD340200208A010020464910B55A
:100D00004A6822F440324A604A6843681A434A609B
:100D100001684A6822F480724A6001684A6803697F
:100D200042EA03224A6001684A6822F040724A603F
:100D300001684A6883681A434A6001688A6822F435
:100D400000628A6001688A68C3681A438A60816A9F
:100D50006FF07062D14201688A6822F070628A6026
:100D600001688A680CD0836A1A438A6001688A68BD
:100D700022F040528A6001688A68C36A1A4301E01F
:100D800022F040528A6001688A6822F002028A607A
:100D900001688A68037E42EA43028A6090F8201064
:100DA000002901684A680FD042F400624A60016875
:100DB0004A6822F460424A6001684A68174C436AF4
:100DC00004EB43331A4301E022F400624A600168F5
:100DD000CA6A22F47002CA620168CA6A838B104C24
:100DE00004EB03531A43CA6201688A6822F4007252
:100DF0008A6001688A6890F8303042EA43228A604B
:100E000001688A6822F480628A6001688A684069A1
:100E100042EA8020886010BD0023014000E0FFFF0F
:100E20000000F0FF9FED0B1B10B553EC112B51ECA4
:100E3000100BFFF746FB9FED091B53EC112BFFF73F
:100E4000B8FB9FED081B53EC112BFFF799FA41EC0F
:100E5000100B10BD52B81E85EB51E83F7B14AE4716
:100E6000E17A643F000000000000394070B5544949
:100E700000202DED068B8867524C2088FFF719FC67
:100E80009FED518B53EC182BFFF721FB9FED509BEF
:100E900053EC192BFFF71BFB9FED4FAB53EC1A2BB9
:100EA000FFF715FBFFF725FC04F10C0528606088AF
:100EB000FFF7FFFB53EC182BFFF709FB53EC192B43
:100EC000FFF705FB53EC1A2BFFF701FBFFF711FCB3
:100ED0006860A088FFF7EDFB53EC182BFFF7F7FADB
:100EE0009FED3F1B53EC112BFFF7F1FA53EC192B3D
:100EF000FFF7EDFAFFF7FDFBA860E088FFF7D9FBED
:100F000053EC182BFFF7E3FA53EC192BFFF7DFFA3A
:100F100053EC1A2BFFF7DBFAFFF7EBFBE8602089B5
:100F2000FFF7C7FB53EC182BFFF7D1FA53EC192B43
:100F3000FFF7CDFAFFF7DDFB28612BA008F008FBD7
:100F400095ED000A2CA00AF001FE95ED010A2EA0F5
:100F50000AF0FCFD95ED020A2FA00AF0F7FD95EDD1
:100F6000030A31A00AF0F2FD2869FFF7AFFB41EC5C
:100F7000100BFFF757FF51EC100BFFF7BAFB00EE19
:100F8000100A2DA00AF0E2FD2FA008F0E1FA218856
:100F900019A00CF0B1F861881BA00CF0ADF8A18885
:100FA0001DA00CF0A9F8E1881FA00CF0A5F821897C
:100FB00021A0BDEC068BBDE870400CF09DB8000090
:100FC00000000020980400206666666666660A4097
:100FD000000000000000303F000000000000004062
:100FE0005DBF60376CDB16400D0A2D2D2D2D2D2D8C
:100FF0002D2D2D0D0A000000616463305F352E3009
:101000005620202020203A00616463315F332E3364
:101010005620202020203A00616463325F3132562E
:101020002020202020203A00616463335F332E3378
:101030005620202020203A0074656D705F73656E25
:101040007328D12920203A000D0D0D0070B50546FA
:10105000136814460E46002004EBC001D1E90221BA
:101060006A4071400A4302D0401C0228F4D302288F
:101070000CD1022B0BD009A008F06AFA206804EB0F
:10108000C000C0E902562068411C216070BD07A065
:1010900008F05EFAC4E90256002070BDCDEEE2FB16
:1010A000E920E0E4F0E5F1210D0A0000CFF0E5E2EF
:1010B000FBF8E5EDEE20F7E8F1EBEE20CED2CFD055
:1010C000C0C2C8D2C5CBC5C9210D0A001F49002026
:1010D0000A6889698A4200D901201D490A6889691C
:1010E0008A4201D940F002001A490A6889698A4295
:1010F00001D940F0040018490A6889698A4201D977
:1011000040F0080015490A6889698A4201D940F00F
:10111000100013490A6889698A4201D940F0200009
:1011200010490A6889698A4201D940F040000E4995
:101130000A6889698A4201D940F080000B4908B1E8
:10114000022000E00120887270470000B82C0020C7
:10115000C82D0020D82E0020E82F0020F8300020D5
:10116000083200201833002028340020000000201E
:101170000449020E0A70020C4A70020A8A70C87092
:1011800070470000D400002030B52E492E480A7860
:1011900002704A88130A437082704A68130EC37043
:1011A000130C0371130A437182718A68130EC371A1
:1011B000130C0372130A43728272CA68130EC3724D
:1011C000130C0373130A437382730A69130EC373F8
:1011D000130C0374130A437482740A7DC2748A69FF
:1011E000130E0375130C4375130A8375C2754A6A8F
:1011F000130E0376130C4376130A8376C2760B6ABA
:1012000091F824201C0E44EA022404771C0C44EAC2
:1012100002444477140644EA1322827791F820208E
:10122000C2778A6A130E80F82030130C80F82130C0
:10123000130A80F8223080F8232091F82C1080F8CF
:10124000241030BD38350020707700202DE9F041A2
:10125000204F00211D4A0125DFF874802E03A7F1DD
:101260008004E8B1B86800282DD1E07C01282AD19B
:101270001570E17400223146404602F0C0FB16A012
:1012800008F066F919A004F023FB1CA004F020FB71
:1012900004F59470BDE8F0414FF47A6101F00CBEA2
:1012A0001170FF2006F0C2FA01223146404602F0DA
:1012B000A6FB4FF47A70B860E07C002803D113A03D
:1012C00008F046F9E574BDE8F081000038350020EB
:1012D000000C024080000020C2EAEBFEF7E0E5ECE3
:1012E00020CFC8D2C0CDC8C5210D0A007E302070E5
:1012F00077725F3037323A303B0000007E30206535
:101300006E61626C655F6C6D3A313B00C2FBEAEB6B
:10131000FEF7E0E5EC20CFC8D2C0CDC8C5210D0A4C
:101320000000000000B585B020218DF800107E225D
:101330008DF8012030308DF802008DF803107220F6
:101340008DF8040073218DF8051034208DF8060007
:1013500038208DF8070035208DF808005F208DF8C3
:10136000090074208DF80A008DF80C108DF80D001E
:101370003B208DF80E008DF80F00002065228DF8BF
:1013800010008DF80B20684608F006F905A008F05B
:10139000DFF8684608F0DCF806A008F0D9F805B0D8
:1013A00000BD0000CFEEF1EBE0ED20EAEEE43A20E4
:1013B000000000000D0A0000FEE7000001A008F098
:1013C000EBB800007E30206574685F636F6E6669FD
:1013D000673B00002DE9FF5F0024DFF840A4DFF841
:1013E00040B40E460546A14605EBC407D7E92010D8
:1013F00081F00102024328D081F0640202437DD0D3
:1014000081F0C80202437AD081F00302024377D010
:1014100081F00402024374D081F00502024371D0CE
:1014200081F0060202436ED081F00A0202436BD0C3
:1014300081F00B02024368D081F00C0202437DD0A0
:1014400081F00D0101437AD0C5E2F6A008F080F8E2
:10145000F7A008F07DF855F8240000210AF090FC70
:10146000009055F8240001210AF08AFC039055F8F9
:10147000240002210AF084FC029055F82400032184
:101480000AF07EFC024655F8240004210AF078FC9C
:10149000019055F8240005210AF072FC034655F826
:1014A000240006210AF06CFC804655F82400072130
:1014B0000AF066FC00998446B05C715C40EA016009
:1014C0000399715C0A040299715C42EA01210843A4
:1014D0000199715C0A0A1043F25C090641EA024173
:1014E00040EA124016F8082041EA022140EA126060
:1014F00016F80C201143CAE9181007E025E03EE079
:101500007DE0C6E008E140E17FE12FE2D0A004F0F9
:10151000DFF9C4A008F01CF8D7E9A003CF4A1946A8
:10152000FFF794FD01460746CDA00BF0E5FDDAF884
:101530006000CDE9009040F2631001E01FE228E274
:1015400007FB00F10BEB01113CE2D7E9A001C34A14
:10155000FFF77CFDCAE91A09DAF860100323CDE928
:10156000009140F2631148430BEB001122462846DC
:1015700001F0EEF83146284607F04AF827E255F820
:10158000240000210AF0FCFB024655F8240001214A
:101590000AF0F6FB804655F8240002210AF0F0FB21
:1015A000034655F8240003210AF0EAFB305CB15CE5
:1015B000F25C40EA016016F80810090441EA0221D1
:1015C000084307F0B1FDD7E9A003A44A1946FFF785
:1015D0003DFDDAF860100323CDE9009140F263117C
:1015E00048430BEB00112246284601F0B1F8214692
:1015F000284606F047FB9FA007F0AAFFEBE155F84D
:10160000240000210AF0BCFB009055F824000121C1
:101610000AF0B6FB804655F8240002210AF0B0FB20
:10162000024655F8240003210AF0AAFB315C009819
:10163000B25C305C41EA006016F80810DFF8DC812B
:10164000090441EA0221A8F18008084388F8110042
:10165000D7E9A001814AFFF7F9FC012388F810308F
:10166000DAF860100323CDE9009140F2631148439A
:101670000BEB00112246284601F06AF82146284665
:1016800006F000FB7FA007F063FF98F8111084A01C
:101690003FE055F8240000210AF072FB804655F81F
:1016A000240001210AF06CFB034655F824000221B6
:1016B0000AF066FB024655F8240003210AF060FB9D
:1016C000315C16F80800B25C41EA0061F05C00048D
:1016D00040EA022041EA000808F0FF0006F0A6F800
:1016E000D7E9A0015D4AFFF7B1FCDAF860100323E7
:1016F000CDE9009140F2631148430BEB0011224603
:10170000284601F025F82146284606F0BBFA414656
:1017100066A00BF0F1FC5EE155F8240000210AF010
:101720002FFB009055F8240001210AF029FB804688
:1017300055F8240002210AF023FB024655F8240044
:1017400003210AF01DFB034655F8240004210AF08A
:1017500017FB315C16F8080041EA0061B05CF25CEE
:10176000000440EA0220014300988846305C009063
:101770005548007806F0EAFB54A007F0E9FE414620
:101780005AA00BF087FD009937E055F8240000219E
:101790000AF0F6FA009055F8240001210AF0F0FA58
:1017A000804655F8240002210AF0EAFA024655F86C
:1017B000240003210AF0E4FA034655F8240004212A
:1017C0000AF0DEFA315C16F8080041EA0061B05C0C
:1017D000F25C000440EA022001430098019116F8EF
:1017E00000803948007806F0FBFB46A007F0B0FE09
:1017F0003EA001990BF04EFD41464AA00BF07CFC47
:10180000D7E9A003154A1946D1E04AA007F0A0FE87
:101810002D484FF47A715838C4E000008000002051
:10182000E83500200D0A2D2D2D2D2D2D0D0A00003F
:10183000CAEEECE0EDE4E03AF3F1F2E0EDEEE2EADC
:10184000E020E2F0E5ECE5EDE8210D0A0000000003
:101850007E302074696D653B000000001877002021
:10186000CDEEECE5F020EEF2EFF0E0E2E8F2E5EBB1
:10187000FF3A0000D1E2E5F2EEE4E8EEE4FB210DF0
:101880000A000000D3EFF0E0E2EBE5EDE8E520EF41
:10189000E8F2E0EDE8E5EC202B313256210D0A00AC
:1018A00053544152545F42503A000000F3EFF0E0CD
:1018B000E2EBFFE5EC20EFE8F2E0EDE8E520EAE01E
:1018C000EDE0EBEEE23A000080010020CFF0E8F816
:1018D000B8EB2049503020E4EBFF20CCE0F1F2E5FA
:1018E000F0E020303732210D0A000000EEF2EFF078
:1018F000E0E2EBFFE5EC20495020E0E4F0E5F13ACE
:1019000000000000CFF0E8F8B8EB2049503120E4A7
:10191000EBFF20CCE0F1F2E5F0E020303732210D92
:101920000A000000C220E1EBEEEA2030373220B995
:1019300000000000C7E0EFF0E0F8E8E2E0E5EC20AE
:10194000EAE0F1F1E5F2FB2030373220E220C0D6A8
:1019500020EDE020EFF0E5E4ECE5F220E8F520E012
:10196000E4F0E5F1EEE2210D0A0000001DA007F011
:10197000EFFD2549254881F80C900A2112E024A0AA
:1019800007F0E6FD20480A2180F80E9000F58870E7
:1019900008E028A007F0DCFD1B491C4881F80D90E9
:1019A0000A21203001F088FAD7E9A0012A4AFFF77E
:1019B0004DFBDAF86010CDE9009140F26311484325
:1019C0000BEB001103232246284600F0C1FE2146FE
:1019D000284606F057F9641C202CFFF405ADBDE83D
:1019E000FF9F0000EDE0F7E8EDE0E5EC20F2E5F127
:1019F000F220EFF0EEE2E5F0EAF320F8E8EDFB206C
:101A0000343835210D0A00000000002000010020BC
:101A1000EDE0F7E8EDE0E5EC20F2E5F1F220EFF0A3
:101A2000EEE2E5F0EAF320F8E8EDFB20535049211F
:101A30000D0A0000EDE0F7E8EDE0E5EC20F2E5F15D
:101A4000F220EFF0EEE2E5F0EAF320F8E8EDFB201B
:101A50004A544147210D0A001877002070B50D4EF9
:101A60004FF400752946304601F0C4FF0A4C617DF1
:101A700088420ED02946304601F0BCFF60752946E9
:101A8000304601F0B7FFBDE87040014603A00BF0FF
:101A900033BB70BD000C024000000020504F4B5F74
:101AA0004844535F4F55543A000000002DE9F05F61
:101AB000FE49FF4D0024487C05F5887605F508773A
:101AC00005F54C7905F5886AA346012802D000285F
:101AD0007ED046E2F54880300268FA2AF9D9012220
:101AE0008A75C0F800B0104604F0F8FF022004F038
:101AF000F5FF032004F0F2FF042004F0EFFF0520BF
:101B000004F0ECFF062004F0E9FF072004F0E6FFF4
:101B1000082004F0E3FF012005F00CF92860022002
:101B200005F008F93060032005F004F9386004205E
:101B300005F000F9C9F80000052005F0FBF8CAF827
:101B40000000062005F0F6F8DFF86893C9F80000F9
:101B5000072005F0EFF809F588710860082005F006
:101B6000E9F809F5087210602968002900D90C46C7
:101B7000D1490968A14200D90C46D0490968A1425F
:101B800000D90C46CE490968A14200D90C46DAF8C2
:101B90000010D046A14200D90C46D9F800104F469B
:101BA000A14200D90C46C7490968A14200D90C4698
:101BB000A04200D90446C44E01207480002405F0E0
:101BC00027F90C22A6F5066100F048FEAA4600E0BF
:101BD00089E1A860022005F01BF90C22A6F5EA6154
:101BE00000F03CFEDFF8D092C9F80800032005F0B1
:101BF0000FF90C22A6F5C86100F030FEAF498860ED
:101C0000042005F005F90C22A6F5A66100F026FED9
:101C1000AB4DA860052005F0FBF80C2205F5987186
:101C200000F01CFEC8F80800062005F0F1F80C22B0
:101C300005F5107100F012FEB860072005F0E8F815
:101C40000C2205F5547100F009FE9E4988600820B9
:101C500005F0DEF80C2205F58C6100F0FFFD05F5BE
:101C600088629060DAF80810002900D90C46D9F88B
:101C70000810A14200D90C4690498968A14200D9B8
:101C80000C46A968A14200D90C46D8F80810A14218
:101C900000D90C46B968A14200D90C468949896827
:101CA000A14200D90C46A04200D9044686484460AF
:101CB0000024012005F036F97D490C22703100F036
:101CC000CDFDCAF80C005646022005F02BF97A49E2
:101CD0000C22703100F0C2FD7749C860032005F086
:101CE00021F976490C22703100F0B8FD7349C860C3
:101CF000042005F017F972490C22703100F0AEFD96
:101D0000E860052005F00EF96A490C22A03900F0C0
:101D1000A5FDC8F80C00062005F004F965490C2261
:101D2000703100F09BFD634FF860072005F0FAF872
:101D30000C2207F5C07100F091FDDFF88891C9F819
:101D40000C00082005F0EEF80C2207F5247100F0D5
:101D500085FD07F5087ACAF80C00D6E9020109F0FA
:101D6000D7FE0C22A7F5926100F078FD7060524812
:101D7000C168806809F0CCFE0C22A7F5607100F004
:101D80006DFD4D4948604D48C168806809F0C0FE4E
:101D90000C22A7F51C7100F061FD48494860D5E9A7
:101DA000020109F0B5FE0C22A7F5B07100F056FD56
:101DB0006860D8E9020109F0ABFE0C22A7F15001DE
:101DC00000F04CFDC8F80400D7E9020109F0A0FEBC
:101DD0000C2207F1C00100F041FD7860D9E9020151
:101DE00009F096FE0C2207F5E87100F037FDC9F8FE
:101DF0000400DAE9020109F08BFE0C2207F53871C4
:101E000000F02CFD2C4ACAF80400716852686B6817
:101E100011442A4A52681A441144D8F804200A444A
:101E200079680A44D9F80410114401442648016134
:101E3000D6F80CC0BCF1000F00D964461E48C76834
:101E4000A74200D93C461D48C668A64200D9344680
:101E5000ED68A54200D92C46D8F80C30A34200D931
:101E60001C461448C268A24200D91446D9F80C1086
:101E7000A14200D90C46DAF80C00A04200D9044671
:101E8000DFF84480C8F80C40104CA44500D26446EA
:101E9000A74200D23C46A64200D23446A54200D218
:101EA0002C46A34200D21C46A24211E000000020B2
:101EB000B82C002008320020C82D0020D82E002089
:101EC000E82F00201833002038350020A0860100BC
:101ED00000D21446A14200D20C46A04200D20446D1
:101EE000C8F808403DE0887D01283AD181F816B055
:101EF0004FF0FF3129603160304C3960C9F8001073
:101F0000CAF8001004F5887C216004F50878CCF844
:101F10000010C8F800105846C5F80CB0F060F86022
:101F2000C9F80C00CAF80C00E060CCF80C00C8F846
:101F30000C00A8604A46B0605346B8609060986054
:101F4000A060CCF80800C8F808006860706078608D
:101F5000C9F80400CAF804006060CCF80400C8F8AE
:101F600004001749002041F288324B88934200D97F
:101F700001204A6840F6C4139A4200D9401C8A687E
:101F800040F24C439A4200D2401CCA6840F2E243FD
:101F90009A4200D9401C0A6947F230539A4200D94C
:101FA000401C0A7D02B9401C18B181F82CB0BDE874
:101FB000F09F012081F82C00F9E700000832002092
:101FC0003835002010B5094C40F2DC50E16B8142FD
:101FD00007D9A06B012804D10020A06304A007F05A
:101FE000B7FA0A4994F83800087510BD00000020BF
:101FF000CFD0CECFC0CB20D1C8C3CDC0CB205431A1
:10200000485A5F4D4B2121210D0A00003835002030
:102010002DE9F0470024DA4800F048FC60B1D9A06F
:1020200003F056FCDAA007F093FA0AF0B7FDD448A3
:1020300040F6B8314830ACE0D148483000F036FCCA
:10204000D94D60B1CFA003F043FC06F013F895F82A
:102050002400002877D0C82105F5987099E0C84879
:10206000083000F023FCC64E583668B1C5A003F016
:102070002FFCCEA007F06CFA3078E96C05F066FF13
:102080006421A6F1480084E0BD48103000F00EFC49
:1020900068B1BCA003F01CFCCBA007F059FA707823
:1020A000E96D05F053FFB6486421183071E0B4487B
:1020B000183000F0FBFB68B1B2A003F009FCC9A026
:1020C00007F046FA3078296D05F08AFFAC486421A4
:1020D00020305EE0AA48203000F0E8FB68B1A9A0FB
:1020E00003F0F6FBC6A007F033FA7078296E05F00E
:1020F00077FFA348642128304BE0A148283000F046
:10210000D5FB68B19FA003F0E3FBC4A007F020FA61
:102110003078696D05F086FE99486421303038E0EA
:102120009748303000F0C2FB70B196A003F0D0FBAE
:10213000C3A007F00DFA7078696E05F073FE904841
:102140006421383025E019E18D48383000F0AEFBCD
:1021500068B18CA003F0BCFBC1A007F0F9F930789E
:10216000A96D05F0A9FE86486421403011E084483D
:10217000403000F09BFB80B182A003F0A9FBC1A01E
:1021800007F0E6F97078A96E05F096FE7C486421A8
:102190005030BDE8F04700F08FBE7948503000F075
:1021A00085FB48B177A003F093FBBEA007F0D0F900
:1021B000BDE8F047FFF702B97148283800F076FB18
:1021C0004FF4FA7278B16E481146303800F074FE60
:1021D0006CA003F07DFBBAA007F0BAF97078BDE8F7
:1021E000F047FFF79FB86648303800F05FFBD0B18A
:1021F00064A003F06DFBB9A007F0AAF9287B0128C1
:102200000AD0E87B032809D2401CE8735C480A2105
:10221000283800F051FE04E0BAA000E0BDA007F0AD
:1022200097F99722A4E05648183800F03FFBDFF8F2
:10223000F8820027C8B152480A21203800F03CFE3D
:1022400050A003F045FBB9A007F082F9AF73747892
:10225000BDA021460AF050FF082C00D100244146C1
:102260002046BDE8F04705F03EBF4548203800F065
:102270001DFB4FF00109E8B142A003F029FBB4A017
:1022800007F066F97078082800D1002005F022FFD9
:1022900004460146B8A00AF0FDFF444505D199A0C7
:1022A00007F056F985F80E9002E09AA007F050F971
:1022B00098225DE03248083800F0F8FAA8B13048BA
:1022C0001146103800F0F8FD2EA003F001FBACA081
:1022D00007F03EF900216F73084609F0DBFDBDE809
:1022E000F0470146ACA00AF007BF2548103800F0BF
:1022F000DDFA002842D023A003F0EAFAA8A007F0F4
:1023000027F9B14EB1A031680AF0F6FEB54FB046DC
:1023100018E021461DA00AF025FFB3A007F018F928
:1023200004EB840007EB800618A0B1680AF0CAFF2E
:10233000AEA007F00DF9F06807F00AF928A007F041
:1023400007F9641CD8F800008442E2DBD8F80000EA
:1023500002280CD1A649F869884205D169A007F086
:10236000F7F885F80D9002E06AA007F0F1F89922DD
:10237000BDE8F0479F49A04804F04CBEBDE8F08797
:10238000280100207E302074696D653B000000004C
:10239000C8E4B8F220F1E1EEF020E0E4F0E5F1EE7F
:1023A000E2210D0A0000000000000020D3F1F2E05D
:1023B000EDE0E2EBE8E2E0E5EC20ECE0F1F2E5F064
:1023C00020495030210D0A00D3F1F2E0EDE0E2EBBC
:1023D000E8E2E0E5EC20F1EBE5E9E22049503021CC
:1023E0000D0A0000D3F1F2E0EDE0E2EBE8E2E0E517
:1023F000EC20ECE0F1F2E5F020495031210D0A002B
:10240000D3F1F2E0EDE0E2EBE8E2E0E5EC20F1EB25
:10241000E5E9E220495031210D0A0000D3F1F2E054
:10242000EDE0E2EBE8E2E0E5EC20ECE0F1F2E5F0F3
:1024300020444553545F495030210D0A00000000EC
:10244000D3F1F2E0EDE0E2EBE8E2E0E5EC20F1EBE5
:10245000E5E9E220444553545F495030210D0A001C
:10246000D3F1F2E0EDE0E2EBE8E2E0E5EC20ECE0D5
:10247000F1F2E5F020444553545F495031210D0AF3
:1024800000000000D3F1F2E0EDE0E2EBE8E2E0E58D
:10249000EC20F1EBE5E9E220444553545F4950312B
:1024A000210D0A00D0E5F1F2E0F0F220CCC0CA2004
:1024B000FFF7E5E5EA20303732210D0A0000000081
:1024C000CFEEF1FBEBE0E5EC20EAEEE420EFEE20CE
:1024D000F8E8EDE520343835210D0A00CFF0EEE2C2
:1024E000E5F0FFE5EC20F0E5E7F3EBFCF2E0F220AD
:1024F000F2E5F1F2E020F8E8EDFB20343835210D6B
:102500000A000000D2E5F1F220EFF0EEE9E4E5ED9B
:10251000210D0A00D2E5F1F220EDE520EFF0EEE921
:10252000E4E5ED210D0A0000EFBEEDDECFEEF1FB9C
:10253000EBE0E5EC20EAEEE420EFEE20F8E8EDE554
:1025400020535049210D0A004164723A00000000F6
:10255000CFF0EEE2E5F0FFE5EC20F0E5E7F3EBFC91
:10256000F2E0F220F2E5F1F2E020F8E8EDFB205392
:102570005049210D0A000000416E637765723A00F0
:10258000CEEFF0E0F8E8E2E0E5EC20F8E8EDF3204B
:102590004A544147210D0A00746D70303A00000022
:1025A000CFF0EEE2E5F0FFE5EC20F0E5E7F3EBFC41
:1025B000F2E0F220F2E5F1F2E020F8E8EDFB204A4B
:1025C000544147210D0A0000FC010020CAEEEBE84F
:1025D000F7E5F1F2E2EE20F3F1F2F0EEE9F1F2E2EA
:1025E0003A000000D0B500205D200000202D200022
:1025F000DD20A00248620020707200200249002005
:102600000870024800F02EBF1A00002098780020C1
:10261000014800F027BF000098770020014800F033
:1026200021BF0000F878002002490020087002480D
:1026300000F018BF18000020387800200168182327
:10264000CAB2103AB2FBF3F2054B6FF30901032A49
:102650009B5CC36500D9091D816508467047000071
:1026600094D4000810B5014600208B698A6A4FF0A7
:10267000C07453B1B3F5005F15D072B1012A0CD00C
:10268000022A0AD0032A09D104E01AB1012A06D08D
:10269000022A03D1C96AC90100D5012010BDC96A47
:1026A000A142FAD010BD002AF7D0012AF2D0022AA6
:1026B000F3D0032AF3D010BD30B50468256825F4A3
:1026C00080252560046863608368402B036803D01D
:1026D00099600068C26030BD9A600068C16030BD1A
:1026E00000B585B0104801F0AFF9F9208DF80C0065
:1026F000A6214FF47A7301220B4801F069FA50B910
:10270000012004A9CDE9001003460290A62103AAE6
:10271000054801F003FC044801F07CF99DF8100025
:1027200005B000F0010000BD7C02002070470000F1
:102730000249C860C8680028FCD1704780000020AA
:10274000002101E0491C89B28142FBD3704700009F
:102750002DE9F04100EBC205DDE90676D5E9A002DE
:10276000C1E90602886A002440281CD2D1F82CC096
:10277000421C4CF1000CC1E90A2C00EB400202EBB8
:10278000C00001EBC002A4465363C2E9106CD5E956
:102790006003C2E90E030120106382F84870086AE2
:1027A0002930086203E0012402A006F0D1FE204691
:1027B000BDE8F081EDE5F220ECE5F1F2E020E4EB9C
:1027C000FF20EAE2E8F2E0EDF6E8E9210D0A000078
:1027D00010B5012001F038F801490120087010BD42
:1027E0008801002010B5022001F02EF801490120D7
:1027F000087010BD0000002010B5082001F024F87A
:1028000001490120087010BD0100002010B54020D2
:1028100001F01AF801490120087010BD890100205B
:102820007047000070B50C4C01221103204601F0E6
:10283000E6F8012255032946204601F0E0F8012080
:10284000FFF776FF00222946204601F0D8F8BDE8C0
:1028500070400120FFF76CBF00040240F0B5144641
:1028600000236508A1B00A46661E06E0E11A02EBE5
:1028700081015B1C51F8087D4F60B342F6DB1060AC
:1028800000206E4604E052F8201046F82010401C4C
:10289000A042F8DB044B042221463046FDF7D9FC68
:1028A00056F8250021B0F0BD45BB0008017801298C
:1028B00001D0002070470021017001207047000006
:1028C0002DE9F04F0F468046C6084FF4806B91B05B
:1028D00000225946804801F092F838460AF00AFB77
:1028E0000027B946EA4609E000200AF003FB01464A
:1028F0000AEBC7007F1CC0E90019FFB2B7EBD80F85
:10290000F2D301225946744801F079F8012E0ED015
:10291000022E0FD0032E17D0042E26D0052E3FD026
:10292000062E5AD0072E7BD0082E7AD07BE0DDE928
:10293000005478E0DDE900010C0244EA1064010271
:10294000DDE902020D186DE0DDE900010C0444EA46
:1029500010440204DDE90201090241EA10610002AB
:1029600010184C41DDE90412B3E0DDE9000109066D
:10297000DDE9063441EA102100061B184C41DDE96F
:102980000201090441EA10410504DDE904021202D2
:1029900042EA10620002281851411D184C4142E0E1
:1029A000DDE90201090641EA10210006009C19EB4D
:1029B00000024C41DDE90401090441EA1041000430
:1029C00012184C41DDE90601090241EA10610002DA
:1029D00010184C41DDE908127BE00299009819EBD0
:1029E000090241EB0024DDE904014FEA016141EAFB
:1029F00010214FEA006012184C41DDE9060109047C
:102A000041EA1041000412184C41DDE908010902B5
:102A100041EA1061000210184C41DDE90A1258E049
:102A200006E02CE0544111B028462146BDE8F08F65
:102A3000009802990404484619EB000244EB012473
:102A4000049912EB09024C41DDE90601090641EA4D
:102A50001021000612184C41DDE90801090441EA81
:102A60001041000412184C41DDE90A01090241EA53
:102A70001061000210184C41DDE90C1229E00098A9
:102A80000299040648460A0419EB00015441049ACD
:102A90000B1844EB0224069913EB09024C41DDE9C3
:102AA0000801090641EA1021000612184C41DDE92F
:102AB0000A01090441EA1041000412184C41DDE901
:102AC0000C01090241EA1061000210184C41DDE9D5
:102AD0000E124518A6E70000001002402DE9FC4741
:102AE0008946C4080646D1B2012C21D0100A40EA1A
:102AF0000360C5B2022C1ED0100C40EA0340C0B2E5
:102B0000032C1DD0120E42EA0322D2B24FEA136800
:102B1000042C1CD0DFB2052C22D0C3F3072C062CCA
:102B200029D0C3F30743072C32D0082C3FD04EE006
:102B30008DF803104BE08DF802108DF8035046E03D
:102B40008DF801108DF802508DF803003FE08DF8EC
:102B500000108DF801508DF802008DF8032036E04A
:102B60008DF800108DF801508DF802008DF80320CB
:102B70008DF804702BE08DF800108DF801508DF861
:102B800002008DF804708DF803208DF805C01EE05A
:102B90008DF800108DF801508DF804708DF802004A
:102BA0008DF805C08DF803208DF806300FE08DF804
:102BB00000108DF804708DF801508DF805C08DF867
:102BC00002008DF806308DF803208DF80780DFF8BD
:102BD00044A04FF4806800224146504600F00FFFA9
:102BE00049F080000AF086F9641EE5B200246F46C1
:102BF00005E0281B385C0AF07DF9641CE4B2B4EBF4
:102C0000D60FF6D301224146504600F0F8FE0020D0
:102C1000BDE8FC87001002402DE9F04F044600217A
:102C2000806889468B4600BA20F0FF01E07A627B1B
:102C30000143207B1204000641EAE071104341EA9F
:102C4000E271A27B89B01202104341EAE271E27B99
:102C5000104341EAD2718A4AFEF7F8F921884ABA4C
:102C600040F2631148438749069001EB0010824609
:102C70000280618849BA41806168E27909BA21F02D
:102C8000FF0111438160A168627B09BA21F0FF0353
:102C9000E17A12040B43217B090643EAE1731143F5
:102CA00043EAE273A27B1202114343EAE273E27B3E
:102CB000114343EAD273C0E904132169627D09BA62
:102CC00021F0FF03E17C12040B43217D090643EA56
:102CD000E173114343EAE273A27D1202114343EA16
:102CE000E273E27D114343EAD273C0E90613A1699E
:102CF000E27E09BA21F0FF0111430162E169E27F3E
:102D000009BA21F0FF0111434162216A09BA21F099
:102D1000FF0394F823100B4394F8241094F8252013
:102D2000090643EAE1731204114343EAE27394F89B
:102D30002620DFF854811202114343EAE27394F82B
:102D40002720114343EAD27381622826CAF82C3027
:102D50008AE0A01909EB4905016809BA21F0FF02D0
:102D6000C1780A4305EBC9010AEBC1052A63416832
:102D7000C27909BA21F0FF0111436963816809BA78
:102D800021F0FF02C17A0A43017B0B06417B42EA34
:102D9000E37209040B4342EAE172817B09020B43AF
:102DA00042EAE172C17B0B4342EAD172C5E90E32BD
:102DB000016909BA21F0FF02C17C0A43017D0B06BB
:102DC000417D42EAE37209040B4342EAE172817DEC
:102DD000C07D09020B4342EAE172034342EAD0722A
:102DE000C5E91032D8F800000790C8F80400401E6A
:102DF0000027C8F82000F0192449205C05F004F8E9
:102E00007F1C182FF7D300270AE0F0192044EA1995
:102E1000017E82F84810007E1C4904F0F5FF7F1CFB
:102E2000286BB842F1D8D8F800003E44401CC8F8DE
:102E30002400D5E90E01CDE90401D5E91001CDE961
:102E40000201DAF81010686BCDE90001104906980C
:102E5000104A01EB00100D491836079B04F028FFBB
:102E600019F101094BF1000BDAE90A23B9EB020170
:102E70007BEB0300FFF46DAF09B0BDE8F08F0000FD
:102E800018770020587900204872002048620020FE
:102E9000E8350020707200200648416CB1F5167FBD
:102EA00006D900214164816C491C81640121C172F1
:102EB000704700000000002010B5002202700C4690
:102EC0000A4B416000E0521C53F822100029FAD14D
:102ED00043F8220006A006F03BFB0FA002F0F8FC2E
:102EE0002146BDE810400FA00AF006B96835002061
:102EF000CFEEE4EDE8ECE0E5EC20F4EBE0E320EEEF
:102F0000F2EBEEE6E5EDEDEEE3EE20E7E0E4E0EDFA
:102F1000E8FF210D0A0000007E302074696D653BDA
:102F20000000000074696D656F75743A0000000060
:102F30002DE9F0470024804625464FF48049114E84
:102F40004FF4005718E04946304600F053FD690839
:102F500001EBC07501223946304600F050FD0120DA
:102F6000FFF7E6FB00223946304600F048FD01201D
:102F7000FFF7DEFB641CA4B24445E4D32846BDE859
:102F8000F0870000000402407047000078B500247C
:102F9000009490F83C20012A19D0012280F83C20AE
:102FA0000A6807250368092A13D9DE680A3A02EB82
:102FB00042029540AE43DE600A788B680A3A02EB23
:102FC000420293400268D5682B43D36010E0022090
:102FD00078BD1E6902EB42029540AE431E610A783D
:102FE0008B6802EB42029340026815692B43136120
:102FF0004A681F25072A13D203685E6B521E02EB34
:1030000082029540AE435E630A8893B20A79521EEB
:1030100002EB820293400268556B2B43536327E017
:1030200003680D2A12D21E6BD21F02EB820295405A
:10303000AE431E630A8893B20A79D21F02EB820262
:1030400093400268156B2B43136311E0DE6A0D3A5F
:1030500002EB82029540AE43DE620A8893B20A799F
:103060000D3A02EB820293400268D56A2B43D36289
:103070001B4B0568194A9D420AD10D68122D07D1D4
:10308000556825F400055560556845F48005556080
:1030900005689D421DD1134D0B68AB4201D0112B29
:1030A00017D1536823F480035360536843F400033B
:1030B00053600968A9420CD10B490C4A0968B1FB5D
:1030C000F2F101EB8101490000E0491E0091002965
:1030D000FBD180F83C40002078BD00000023014077
:1030E00000200140120000100C02002040420F009E
:1030F0000248816F491C8167704700000000002072
:103100007047704770B5044600680168C1F340021B
:103110004168C1F3401152B349B3216CC90603D4CD
:10312000216C41F400712164816811F0405F17D176
:10313000217EA9B9C16A11F4700F02D081684905D6
:103140000ED4416821F020014160206C20F4807091
:103150002064206CC00403D4206C40F00100206483
:103160002046FFF7C5FF21686FF012000860206855
:1031700001684268C1F38001C2F3C01289B382B30F
:10318000216CC90603D4216C41F40051216481688B
:1031900011F4401F1ED1816B11F4401F02D08168D1
:1031A000490517D44168490514D4816811F0405F7E
:1031B00010D1217E71B9416821F080014160206CFD
:1031C00020F480502064206CC00503D4206C40F0B3
:1031D000010020642046FFF7D7FE21686FF00C0045
:1031E0000860206801684268C1F30001C2F38012E0
:1031F00071B16AB10068C0070AD0206C40F4803019
:103200002064204600F046F821686FF00100086055
:10321000206801684268C1F34011C2F3806200294E
:103220000DD0002A0BD0616C41F0020161646FF097
:10323000200505602046FFF764FF2068056070BD2B
:1032400070B504004FF0000603D0206C002510B1CB
:1032500007E0012070BD204600F01EF8656484F888
:103260003C50206CC00610D4206C20F4885040F0F4
:10327000020020642046FDF741FD6564206C20F0CB
:10328000020040F00100206400E0012684F83C5078
:10329000304670BD7047000070B586B006461421F8
:1032A0006846FDF72BF82049306888423AD11F481C
:1032B0000025016841F480710160006800F48070AD
:1032C00005901A481438016841F001010160006856
:1032D000694600F0010005900F2000900320CDE921
:1032E0000105134800F0BCFA134C1248C4E900056C
:1032F0000015A560C4E90350400060618000A06132
:103300004011E06100022062042060620120C4E9F3
:103310000A052046256300F075F908B1FFF780FA29
:10332000B463A66306B070BD00200140443802407B
:10333000000002401064024098770020F8B5002396
:103340000446009390F83C00012807D0012084F83F
:103350003C0020688568ED0702D011E00220F8BD2E
:10336000856845F0010585602E482F4D0068B0FB4B
:10337000F5F000EB400000E0401E00900028FBD17B
:1033800020688568ED074AD0256C40F20166B54398
:1033900045F4807525644068400505D5206C20F40F
:1033A000005040F480502064206CC00404D5606C50
:1033B00020F00600606400E0636484F83C30A36B96
:1033C0001B481A4DD863A36B1A481864A36B1A489C
:1033D000D86423686FF0220018602068436843F0C7
:1033E000806343602068836843F48073836013467E
:1033F00020680A46A66B00F14C01304600F06CF9DB
:103400006868C006206802D00C49884207D18168EC
:1034100011F0405F03D1816841F08041816000205C
:10342000F8BD00000C02002040420F0000230140C4
:10343000570C0008DB0C0008C50C000800200140F8
:1034400090F83510022903D0802141650120704792
:10345000052180F835100068016821F00101016044
:10346000002070472DE9F84304464FF00009CDF8DD
:10347000009063484FF41651A56D0068B0FBF1F75A
:103480002E6894F85C20082101FA02F030420FD037
:103490002068026852070BD5026822F0040202601D
:1034A00094F85C008140A960606D40F001006065A7
:1034B00094F85C104FF0010808FA01F0304208D08F
:1034C00021684969090604D5A860606D40F00200D2
:1034D000606594F85C1004208840304208D0216870
:1034E0000968890704D5A860606D40F00400606534
:1034F00094F85C1010208840304218D02168096888
:10350000090714D5A86020680168490304D500683C
:10351000000308D5A16C07E00168C90503D4016860
:1035200021F008010160216C09B12046884794F818
:103530005C1020208840304231D021680968C906DB
:103540002DD5A86094F8350005282068016806D0BC
:10355000490347D5006800031DD4616C1CE021F0CD
:10356000160101602068416921F080014161206CF1
:1035700008B9A06C20B12068016821F00801016041
:1035800094F85C103F208840A86084F8349084F858
:103590003580216D1FE0E16B09B120468847606DE1
:1035A00000282BD0606DC00714D0052084F83500AA
:1035B0002068016821F0010101600098401C009022
:1035C000B84203D820680068C007F6D184F8349068
:1035D00084F83580E16C002910D001B02046BDE8A8
:1035E000F04308470168C905D5D4016821F01001EE
:1035F000016084F8349084F83580CCE7BDE8F88326
:103600000C0200202DE9F041044600F0FDF90546CA
:103610005CB1002684F83460022084F8350020680C
:10362000016821F0010101600DE00120BDE8F08199
:1036300000F0EAF9401B052805D920206065032029
:1036400084F83500F2E720680068C007F0D12168EF
:103650000A6820480240D4E901031843D4E903353D
:103660002B43184363691843A3691843E36918435C
:10367000236A18431043626A042A03D1D4E90B2356
:103680001A431043086020684069656A20F007010A
:1036900028460D43012704280CD1A06A0543E06A9F
:1036A00040B12046FEF7DEFF20B14020606584F87F
:1036B0003570BAE7206845612046FEF7BFFF94F8F1
:1036C0005C203F2191408160666584F83570002060
:1036D000ACE700003F8010F02DE9F0410446866D14
:1036E00090F83400002501280DD0012084F8340022
:1036F00094F835700020012F07D084F8340002259B
:103700002846BDE8F0810220FBE7022784F83570E7
:1037100060652046FEF7D0FF94F85C103F2088409B
:10372000B0602068016841F01601016020684169BD
:1037300041F080014161206C20B12068016841F0B6
:10374000080101602068016841F001010160D7E7CC
:103750002DE9F04F8946DFF8D0A000214FF0010B92
:103760004FF00F0C0BFA01F609EA0603B34255D1EC
:1037700021F003045444D4F808288D072F0F0CFAC5
:1037800007F505EA0208294A904201D1002214E017
:10379000274A904201D101220FE0264A904201D1EE
:1037A00002220AE0244A904201D1032205E0234A82
:1037B000904201D1042200E00722BA40424514D1D0
:1037C000D4F80828AA43C4F808281D4A14689C4362
:1037D0001460121D14689C431460121D14689C43ED
:1037E0001460121D14689C43146003684C0003228B
:1037F000A24093430360CB0800EB83031D6A4C0790
:10380000E70E0CFA07F4A5431D62836893438360B7
:103810004368B3434360C3689343C360491C1029A2
:10382000A0D3BDE8F08F000000300140000002404E
:103830000004024000080240000C02400010024058
:10384000003C014070470000044910B50A6802427C
:1038500002D00860FFF7F6FF10BD0000143C0140E5
:103860002DE9F84FDFF86C91002209F1040A0AF102
:10387000040B4FF00F080BF1040E01260B68964065
:103880003340B34271D14C68022C01D0122C11D1BB
:10389000D40800EB84073D6A5407E40E08FA04FCE0
:1038A00025EA0C05D1F810C00CFA04FC4CEA050C12
:1038B000C7F820C007685400032591F804C0A5404C
:1038C0000CF0030CAF430CFA04FC4CEA070CC0F8F4
:1038D00000C04F68012F05D0022F03D0112F01D057
:1038E000122F11D18768D1F80CC0AF430CFA04FC39
:1038F0004CEA070CC0F808C04768B7430E79C6F316
:10390000001696403E434660C668AE438D68A540AB
:103910003543C5604C68E40056D52F4C256845F406
:1039200080452560246822F0030504F48044009457
:103930002A4C2E19D6F808789407250F08FA05F4B2
:10394000A743274CA04201D1002415E0254CA042FA
:1039500001D1012410E0244CA04201D102240BE04B
:10396000224CA04202D1032406E02DE0204CA042CC
:1039700001D1042400E00724AC403C43C6F80848C9
:10398000D9F800404D464E689C43F60300D51C43D1
:103990002C60DAF8004055464E689C43B60300D5CB
:1039A0001C432C60DBF800405D464E689C43F602E9
:1039B00000D51C432C60DEF8004075464E689C43E1
:1039C000B60200D51C432C60521C102AFFF455AFE0
:1039D000BDE8F88F003C014044380240003001400F
:1039E000000002400004024000080240000C0240B7
:1039F000001002400069084000D0012070470AB161
:103A0000816170470904FBE7014880687047000046
:103A10000002002010B5040013D0242084F83D00DB
:103A20002068016821F001010160204600F050FC8F
:103A30000020206484F83D0044F8300FA073207308
:103A400010BD012010BD000070B5040025D094F811
:103A50003D00002520B984F83C50204600F04CFC85
:103A6000242084F83D002068016821F001010160F4
:103A70002068016841F4004101602068016821F478
:103A80000041016000F0A4FD4D4B6168994201D8EE
:103A90004C4900E04C49884201D2012070BD4B499D
:103AA0002268B0FBF1F1566826F03F060E435660DF
:103AB00062689A4206D94FF4967251434FF47A7273
:103AC000B1FBF2F12268491C166A26F03F06314329
:103AD00011626168994210D84900401EB0FBF1F2B2
:103AE000521CC2F30B02042A01D2042022E0B0FBD4
:103AF000F1F0401CC0F30B001CE0A268F2B301EB34
:103B0000C10303EB0116431EB3FBF6F35B1C43F446
:103B100080431B0549D092B301EBC10202EB0111B6
:103B2000401EB0FBF1F0401CC0F30B0040F480409D
:103B300040F400402168CA694CF6FF739A43104371
:103B4000C861D4E9071001432068026822F0C0026E
:103B500011430160D4E9030101432068826848F2FF
:103B6000FF339A4311438160D4E905100143206873
:103B7000C26822F0FF021143C16001E00EE016E0CE
:103B80002068016841F0010101602564202084F86B
:103B90003D00256384F83E50002070BD01EB4106D6
:103BA000431EB3FBF6F35B1CB3E70120C2E701EB56
:103BB0004101401EB0FBF1F0401CC0F30B00B7E721
:103BC000A086010080841E0000093D0040420F00D5
:103BD0002DE9FF4F81B01F4693460446FFF714FFBF
:103BE000054694F83D00012620287DD119230122A5
:103BF00050492046009501F0C7FC002874D194F884
:103C00003C00012870D0012084F83C002068016845
:103C1000C90703D1016841F0010101602068016812
:103C200021F400610160242084F83D004FF0000A77
:103C3000C4F840A04048E0624FF0200920680168C5
:103C400041F4807101603B4600224FF00111204693
:103C5000009501F099FC50B120680068C00502D5BC
:103C60004FF400702064032005B0BDE8F08F029887
:103C7000216800F0FE000861FFF7C6FE05462068D7
:103C800041694069C1F34001C0F380204FF0A008B2
:103C90000EE0FFF7B9FE401BB84200D80FB984F818
:103CA0003D80206841694069C1F34001C0F3802034
:103CB00094F83D20A02A02D009B90028E9D084F860
:103CC0003D9020684169C943890717D4016841F4D0
:103CD00000710160206856464169806919230122FC
:103CE00014492046009500E022E001F04DFCA8B9FF
:103CF00084F83D9084F83C600020B5E7016841F409
:103D00000071016021686FF480604861192301220D
:103D100008492046009501F037FC08B10120A3E7CF
:103D2000761C5E458AD384F83D9084F83CA0F5E784
:103D3000022099E7020010000000FFFF2DE9F84F74
:103D4000984617468A460446DDF82890FFF75CFE41
:103D5000054694F83D00202875D1192301226C49AD
:103D60002046009501F010FC0028F5D194F83C00A5
:103D7000012868D0012084F83C0020680168C90748
:103D800003D1016841F0010101602068016821F45C
:103D900000610160222084F83D00102084F83E007C
:103DA000002626646762A4F82A80608D2085594821
:103DB000E0622B464A465146204601F0FBFA0028B5
:103DC00078D1208D544F68B1012814D00228206882
:103DD000016816D041F48061016020684169806902
:103DE000009087E02068416981690091016841F491
:103DF000007101607EE02068016821F4806101604B
:103E0000F0E721F4806101602068016841F40061FD
:103E1000E2E7032848D801280AD0022814D04B46EC
:103E2000002239462046009501F0AEFBD8BB27E0C2
:103E30002A464946204601F027FCA0BB20680069BD
:103E4000616A08704DE061E04B4600223946204629
:103E5000009501F099FB30BB2068016841F40071C6
:103E6000016020680069616A0870606A401C6062D5
:103E7000218D491E2185618D491E618521682EE0B5
:103E80002068016821F48061016020680069616A2E
:103E90000870606A401C6062208D401E2085608D25
:103EA000401E6085D0E705E02A464946204601F0DD
:103EB000EBFB10B10120BDE8F88F20680069616A52
:103EC0000870606A401C6062218D491E2185618DE9
:103ED000491E618521684A69D24352070AD409699B
:103EE0000170606A401C6062208D401E2085608DDC
:103EF000401E6085208D00288BD1202084F83D0055
:103F000084F83E6084F83C600020D4E70220D2E7C9
:103F1000020010000000FFFF040001002DE9FF4F28
:103F200081B01F46DDE90EBA91460446FFF76CFDED
:103F3000054694F83D0020287ED119230122964998
:103F40002046009501F020FB0028F5D194F83C00B4
:103F5000012871D0012084F83C0020680168C9075D
:103F600003D1016841F0010101602068016821F47A
:103F700000610160212084F83D004FF0100884F8B2
:103F80003E8000262664C4F824906785608D2085D5
:103F9000824FE7622B462046109A029901F080FA80
:103FA000206841698069009034E02A4620461099D3
:103FB00001F09FFB40B1206C042804D12068016807
:103FC00041F4007101609EE0606A21680078086138
:103FD000606A401C6062618D491E6185218D491EA9
:103FE00089B2218522685369DB435B070BD451B149
:103FF00000781061606A401C6062608D401E6085C0
:10400000208D401E20852A462046109901F096FA00
:104010000028D0D1208D0028C7D1222084F83D006F
:1040200084F83E802664C4F824B0A4F82AA0608DE9
:104030002085E7622B4600E0ABE02046109A02990B
:1040400001F0B8F9F0BB208D554F68B1012814D0AC
:1040500002282068016816D041F480610160206860
:1040600041698069009088E0206841698169009118
:10407000016841F4007101607FE02068016821F46B
:1040800080610160F0E721F48061016020680168CF
:1040900041F40061E2E703284DD8012825D0022829
:1040A000109B00954FF000023946204628D001F0C1
:1040B0006BFA2068016821F4806101602068006962
:1040C000616A00E01FE00870606A401C6062208D39
:1040D000401E2085608D401E608500950022394677
:1040E0002046109B01F050FA11E02A462046109914
:1040F00001F0CAFA38B920680069616A087033E0D3
:1041000001F042FA18B1012005B0BDE8F08F206837
:10411000016841F40071016020680069616A0870FB
:10412000606A401C6062218D491E2185618D491E97
:104130006185216816E02A462046109901F0A4FA0C
:1041400020680069616A0870606A401C6062218DA5
:10415000491E2185618D491E618521684A69D243C6
:1041600052070AD409690170606A401C6062208DA0
:10417000401E2085608D401E6085208D00288AD1DC
:10418000202084F83D0084F83E6084F83C600020E4
:10419000BAE70220B8E70000020010000000FFFFAD
:1041A000040001002DE9F84F1F4690468A46044658
:1041B000DDF82890FFF728FC054694F83D002028FC
:1041C0007FD11923012240492046009501F0DCF9F6
:1041D000002876D194F83C00012872D0012084F8A0
:1041E0003C0020680168C90703D1016841F0010162
:1041F00001602068016821F400610160212084F8D9
:104200003D00102084F83E0000262664C4F8248077
:104210006785608D20852D48E0622B464A465146D1
:10422000204601F03DF990B920684169806900900D
:1042300036E02A464946204601F05BFA50B1206C30
:10424000042804D12068016841F400710160012054
:10425000BDE8F88F606A216800780861626A521CC4
:104260006262608D401E6085208D401E80B2208578
:1042700021684B69DB435B070BD450B110780861B0
:10428000606A401C6062608D401E6085208D401E0B
:1042900020852A464946204601F050F90028CED113
:1042A000208D0028C5D154F83D0B016841F4007100
:1042B0000160202004F81E09E67766770020C7E732
:1042C000FFE70220C4E70000020010000000FFFF2B
:1042D00000680649884208D10548016821F40011A8
:1042E0000160C0210348FFF733BA70470054004013
:1042F000403802400004024010B586B00446142144
:104300006846FBF7FBFF13492068884220D112481A
:104310000021026842F002020260006800F0020020
:104320000590C0200090122001900220CDE90201EA
:104330000420049069460948FFF792FA06481030B5
:10434000016841F400110160006800F4001005905C
:1043500006B010BD00540040303802400004024056
:104360000248816802781144816070470002002091
:104370000B4810B5016841F400710160016841F417
:1043800080610160016841F480710160032000F0E8
:104390006FF8002000F006F800F024F8002010BDAF
:1043A000003C024070B50D4D04464FF47A712878F8
:1043B000B1FBF0F00A490968B1FBF0F000F0BBFC7A
:1043C00048B9102C07D200222146501E00F030F8C8
:1043D00000206C6070BD012070BD00000002002054
:1043E0000C0200200A4808B5016841F480410160D0
:1043F000006800F4804000900548001F016841F00B
:1044000080510160006800F08050009008BD0000FD
:1044100044380240002809DB00F01F0201219140CE
:104420004009800000F1E020C0F800117047000052
:10443000F0B40E4B1B68C3F30223C3F10704042C32
:1044400000D904241D1D072D01D2002300E0DB1E2E
:10445000012606FA04F56D1E0D409D409E40761E15
:10446000164045EA0601F0BC05F0FFBB0CED00E08C
:10447000064A00F0070110684FF6FF03184040EAB3
:104480000120034908431060704700000CED00E074
:104490000000FA052DE9F0470D46040065D0DFF86D
:1044A0001491D9F80000EFB200F00F00A84207D233
:1044B00089F80070D9F8000000F00F00A84254D12C
:1044C00020683D4E810712D5400703D5306840F47F
:1044D000E05030602078000703D5306840F4604039
:1044E00030603068A16820F0F00008433060207828
:1044F000C0072DD0304960680839012812D0022841
:1045000013D0032811D00968890700292DDA3168F2
:1045100021F0030101433160FFF776FA804641F252
:10452000883A0EE009688903EFE709688901ECE73A
:10453000FFF76AFAA0EB0801514502D90320BDE854
:10454000F0873068616800F00C00B0EB810FEFD1AC
:10455000D9F80010484601F00F01A94207D90770A9
:10456000006800F00F00A84201D00120E7E72078A2
:10457000400705D53068E16820F4E050084330601A
:104580002078000706D53068216920F4604040EAB1
:10459000C100306000F03CF83168084AC1F30311F3
:1045A000515CC840064908600020FFF7FBFE002070
:1045B000C5E70000003C0240083802409CD40008D7
:1045C0000C02002001480068704700000C02002027
:1045D0000448054900680968044AC1F38221515C16
:1045E000C84070470C02002008380240ACD40008D4
:1045F0000448054900680968044AC1F34231515C26
:10460000C84070470C02002008380240ACD40008B3
:10461000104810B5006810F00C010F4818D004299C
:1046200016D0082914D10B4C241F216801F03F0239
:10463000216821680023C1F38811A1FB0001FBF769
:10464000C7FD2168C1F30141491C4900B0FBF1F0ED
:1046500010BD0000083802400024F4002DE9F84F96
:10466000040073D02078BD4DC00748D0BB48083047
:104670000168C1F38101012908D00068C0F38100FD
:1046800002280AD1281D0068400206D52868800348
:1046900035D560680028E4D031E06068B0F5803F2F
:1046A00010D0B0F5A02F286810D020F480302860FA
:1046B000286820F4802028606068A0B1FFF7A4F982
:1046C00006460CE0286840F48030F4E740F480208F
:1046D0002860F7E7FFF798F9801B642872D82868EC
:1046E0008003F7D50BE0FFF78FF9064604E0FFF7EC
:1046F0008BF9801B6428F1D828688003F7D42078D0
:10470000DFF85C9280074FF0000A3ED593480830EE
:10471000016811F00C0F09D00068C0F38100022875
:104720000BD18E48001D0068400206D4286880071F
:1047300015D5E068012809D111E0E068B8B1012081
:10474000C9F80000FFF760F9064605E003E1FFF74E
:104750005BF9801B0228C1D828688007F7D5286834
:10476000216920F0F80040EAC10028600DE0C9F896
:1047700000A0FFF749F9064604E0FFF745F9801B62
:1047800002281FD828688007F7D42078000722D590
:10479000724F74496069743770B101200860FFF787
:1047A00033F9064604E0FFF72FF9801B022809D8E9
:1047B00038688007F7D50EE0C1F800A0FFF724F9AC
:1047C000064605E081E0FFF71FF9801B02287CD830
:1047D00038688007F7D42078400769D5DFF87CB1C6
:1047E0004FF000080BF1400BDBF80000C0000CD4C8
:1047F000DBF8001041F08051CBF80010DBF800002E
:104800004FF0010800F080500090574F3868C00505
:104810000FD4386840F480703860FFF7F5F806462A
:1048200004E0FFF7F1F8801B02284ED83868C00575
:10483000F7D54A4FA068703701280FD0052838688F
:1048400010D020F001003860386820F00400386093
:10485000A068B0B1FFF7D8F806460EE0386840F01F
:104860000100F4E740F004003860F7E7FFF7CCF808
:10487000811B41F28830814265D838688007F5D5C0
:104880000DE0FFF7C1F8064606E0FFF7BDF8811B13
:1048900041F28830814256D838688007F5D4B8F1A3
:1048A000000F05D0DBF8001021F08051CBF800108C
:1048B000A069C8B3294908310968C1F381010229F7
:1048C00049D00228504607D000E03CE0C9F860001B
:1048D000FFF79AF8044639E04F46C9F86000FFF741
:1048E00093F8064604E0FFF78FF8801B02282AD8C9
:1048F00028688001F7D4D4E907010843A16A1B4A5C
:10490000490802EB0141626A41EA8211084394F8C6
:104910002C1040EA01611148001D01600120386639
:10492000FFF772F8044605E013E0FFF76DF8001B8F
:10493000022808D828688001F7D50AE0FFF764F854
:10494000001B022802D90320BDE8F88F28688001E7
:10495000F4D40020F8E70120F6E700000038024018
:1049600000004742800E4742007000400000FFFFF9
:1049700070B5040005D00025A56294F8510010B16F
:1049800006E0012070BD84F85050204600F030F859
:10499000022084F851002068016821F04001016084
:1049A000D4E901010843D4E90312114308436169C2
:1049B0000843218B01F400710843E1690843216A2F
:1049C0000843A16A084321680860A069042101EA3C
:1049D0001040616A0843216848602068C16921F479
:1049E0000061C1616565012084F85100002070BD3F
:1049F0002DE9F04F87B0044614216846FBF77EFC92
:104A0000494D484A206848490026103D02274FF08A
:104A1000050A4FF0060B4FF00308904219D10868C1
:104A200040F480400860086800F4804005902868E1
:104A300040F002002860286802AA00F002000590F9
:104A40004FF47040CDE9000782E8400569463748D9
:104A50001BE0374A90421AD1086840F400400860D1
:104A6000086800F400400590286840F004002860C1
:104A7000286802AA00F0040005904FF4E050CDE948
:104A8000000782E8400969462A48FEF7E9FE2A49FC
:104A9000DFF89490206809F1040988421CD1D9F804
:104AA000001041F40051C9F80010D9F8000000F4DA
:104AB00000500590286840F010002860286802AA7D
:104AC00000F0100005906420CDE9000782E8400561
:104AD00069461A48FEF7C4FE1949206888421DD16C
:104AE000D9F8001041F48011C9F80010D9F800007D
:104AF00000F480100590286840F0100028602868B5
:104B000002AA00F0100005904FF4E040CDE9000744
:104B100082E8400969460948FEF7A2FE07B0BDE8F1
:104B2000F08F00000038004040380240000402408E
:104B3000003C0040000802400034014000100240E8
:104B4000005001402DE9F84F044690F8500001252F
:104B50000A9E1F4692468B464FF0000801280ED051
:104B6000012084F85000FEF74FFF814694F8510071
:104B7000616801280CD0B1F5827F07D102E00220E4
:104B8000BDE8F88FA16809B9042801D00220B6E079
:104B9000BBF1000F27D0BAF1000F24D01FB394F857
:104BA0005100042802D0052084F8510000206065DF
:104BB000C4F838A0E787A787C4F830B0E786A7868F
:104BC0002064606420680168490603D4016841F0EC
:104BD00040010160E068B0F5006F606805D0E8B39F
:104BE000012F43D079E0012089E008B1012F34D1B1
:104BF000206B21680088C860206B801C2063E08ED9
:104C0000401EE08629E02068816889070DD5E18E85
:104C100059B1012D09D1216B0988C160206B801C1D
:104C20002063E08E401EE086002520688168C90769
:104C30000BD0E18F49B1C068A16B0880A06B801CCC
:104C4000A063E08F401EE0870125FEF7DDFEA0EBAC
:104C50000900B04201D3701C50D100E006E0E08EA4
:104C60000028D0D1E08F0028CDD13CE0206B216816
:104C700000780873206B401C2063E08E401EE086A5
:104C80002BE02068816889070DD5E18E59B1012D8F
:104C900009D1216B09780173206B401C2063E08EE1
:104CA000401EE086002520688168C9070BD0E18F8F
:104CB00049B1C068A16B0870A06B401CA063E08F75
:104CC000401EE0870125FEF79FFEA0EB0900B042E1
:104CD00002D3701C01D011E086B1E08E0028D0D143
:104CE000E08F0028CDD14A463146204603F004FA31
:104CF00038B120204FF00108606508E003208046AD
:104D000005E0A06818B92068C1688068009001209B
:104D100084F85100002084F85000404630E74FF0FE
:104D2000E0210428086903D020F0040008617047DE
:104D300040F00400FAE710B5401EB0F1807F01D3C7
:104D4000012010BD4FF0E02460610F21601704F0D6
:104D50008CFF0020A06107202061002010BD70475B
:104D60007047704770B50446006801694FF0000550
:104D7000C943890715D4C168C943890711D4E91EFD
:104D8000016101202077206880698007204602D0D9
:104D9000FFF7E7FF04E000F098F8204600F096F8EF
:104DA000257720680169C943490717D4C168C943F9
:104DB000490713D46FF004010161022020772068B5
:104DC000806910F4407F204602D0FFF7CAFF04E05C
:104DD00000F07BF8204600F079F82577206801691B
:104DE000C943090716D4C168C943090712D46FF033
:104DF00008010161042020772068C06980072046EF
:104E000002D0FFF7AEFF04E000F05FF8204600F0AC
:104E10005DF8257720680169C943C90617D4C168C0
:104E2000C943C90613D46FF010010161082020772F
:104E30002068C06910F4407F204602D0FFF791FF40
:104E400004E000F042F8204600F040F825772068A2
:104E50000169C943C90708D1C168C943C90704D159
:104E6000891E0161204600F032F820680169C943BB
:104E7000090609D4C168C943090605D46FF0800149
:104E800001612046FFF76BFF20680169C9434906AD
:104E900009D4C168C943490605D46FF040010161D6
:104EA000204600F015F820680169C94389060BD433
:104EB000C168C943890607D46FF02001016120460B
:104EC000BDE87040FFF74CBF70BD7047704770473A
:104ED0007047704710F8391F40780843704700004A
:104EE00070B5026804461068D168536910F00F0F5E
:104EF00051D003F0010501F4907635435DD0C2072F
:104F000005D0CA0503D5E26B42F00102E263420715
:104F100005D5DA0703D0E26B42F00202E2638207B2
:104F200005D5DA0703D0E26B42F00402E263020720
:104F300005D5DA0703D0E26B42F00802E263E26BC8
:104F4000002A34D0800604D5880602D5204604F015
:104F50000EFC20684069E16BC0F3801001F008018D
:104F60000143204624D004F0EBFB20684169490648
:104F70001AD5416921F040014161606BA0B11B4924
:104F80000165606BFEF75CFA002810D0606B016D64
:104F9000BDE87040084783060FD58B060DD5204627
:104FA000BDE8704004F0E3BB2046FFF792FF70BD00
:104FB000FFF78FFF0020E06370BD030606D50B06E8
:104FC00004D52046BDE8704004F072BD4006F3D51C
:104FD0004806F1D5D168204621F04001D16020215A
:104FE00084F8391000F0CCF970BD00000996000873
:104FF00070B5040004D094F83900002510B106E023
:10500000012070BD84F83850204600F023F8242099
:1050100084F839002068C16821F40051C16020463D
:1050200004F0F0FB2068016921F4904101612068DF
:10503000416921F02A0141612068C16841F40051B1
:10504000C160E563202084F8390084F83A0000202C
:1050500070BD00002DE9F04F87B00446142168466A
:10506000FBF74CF97448DFF8CC811438D4F800C051
:105070000025DFF8C49102210122032340260715F1
:105080004FF0070A4FF0006BC4453ED1D9F80080BD
:1050900048F01008C9F80080D9F800C00CF0100CD6
:1050A000CDF814C0D0F800C04CF0010CC0F800C01E
:1050B000006800F00100059058028DE80F04694671
:1050C0005E48FEF7CDFBDFF87C815D494046C0E9D4
:1050D0000265C0E90475C8F81850C0E9001BB102A8
:1050E000C8E907510421C8F82410FEF78BFA08B16B
:1050F000FDF796FBC4F83080002211462520C8F841
:105100003840FFF795F9252048E0DFF83C81C44599
:1051100049D1D9F8008048F02008C9F80080D9F8B2
:1051200000C00CF0200CCDF814C0D0F800C04CF03A
:10513000040CC0F800C0006800F004000590C02016
:105140008DE80F000820049069464048FEF788FB70
:105150003B49DFF8FC8018394046C8F800104FF092
:105160002061C8F80410C0E90265C0E90475C8F8F8
:105170001850C8F81C50C8F82050C8F82450FEF742
:1051800041FA08B1FDF74CFBC4F83080002211460B
:105190004720C8F83840FFF74BF94720FFF73AF9A6
:1051A00007B0BDE8F08FDFF8AC80C445F8D1DFF878
:1051B00088C0ACF1040CDCF8008048F40038CCF86E
:1051C0000080DCF800C00CF4003CCDF814C0D0F82E
:1051D00000C04CF0080CC0F800C0006800F00800E7
:1051E000059060208DE80F0469461B48FEF738FBE8
:1051F000DFF86C8019494046C0E90265C0E90475D2
:10520000C8F81850C8F81C50C8F82050C8E9001B4E
:10521000C8F82450FEF7F6F908B1FDF701FBC4F811
:105220003080002211462620C8F83840FFF700F9E8
:105230002620B3E70010014044380240000002403D
:10524000B864024038780020001401400008024091
:10525000F878002000440040000C0240A0600240AA
:105260009878002090F83A30202B22D1F9B1F2B191
:1052700090F83830012B1CD081628285C2850021D4
:10528000C163222280F83A2080F838100168CA6889
:1052900042F48072CA6001684A6942F001024A61C0
:1052A0000068C16841F02001C16000207047012002
:1052B00070470220704700000F4930B401F16902C5
:1052C0000B78D1690D4C0C44491CD1612370D16914
:1052D0000023402900D1D361516A491C5162402901
:1052E00004D15362044A0121173A517630BC01229D
:1052F0000149FFF7B7BF000017000020D4240020A9
:10530000F7B5044690F83900202831D1019969B3E6
:1053100062B394F8380001282AD0012084F83800BC
:105320002162A284E2840025E563212084F839000B
:10533000236B1048D863236B0F481864236B0F4806
:10534000D864206B134605652668206B321DFEF776
:10535000C3F921686FF04000086084F83850206875
:10536000416941F0800141610020FEBD0120FEBD88
:105370000220FEBD63960008919600081996000869
:1053800070477047FEE701684A69D24352050FD45F
:105390006FF480624A61002140F8301F202242737E
:1053A0008173026942F004020261017301207047B7
:1053B000002070472DE9F84F0446C06A1D46934609
:1053C0000F4621680A6842F480620A60082807D004
:1053D000012805D010F5803F02D0206B112804D1A0
:1053E0002068016841F4807101604FF001195B464B
:1053F000002249462046009500F0C6F84FF4007898
:1054000040B120680068C00501D5C4F84080032081
:10541000BDE8F88F2069DFF884A0B0F5804F0FD089
:105420000620216800EAD71646F0F00008612B46F6
:105430005A460AF10601204600F0DAF858BB03E0AC
:10544000F8B240F001001CE02168F8B208612B4678
:105450005A465146204600F0CBF8E0B92068416931
:1054600081690091016841F4807101605B4600220E
:1054700049462046009500F087F80028C1D146F043
:10548000F100216808612B465A465146204600F03B
:10549000AFF80028BCD00120BAE7000002000100EC
:1054A000F8B50446C06A1E460D461746082807D0C0
:1054B000012805D010F5803F02D0206B122804D1BE
:1054C0002068016841F480710160134600224FF0AA
:1054D00001112046009600F057F840B1206800689E
:1054E000C00502D54FF4007020640320F8BD206988
:1054F000B0F5804F0ED00620216800EAD51040F0AC
:10550000F000086133463A460B49204600F070F837
:1055100078B902E005F0FE0000E0E8B22168086119
:10552000054933463A46891F204600F061F80028B5
:10553000DCD00120F8BD00000800010070B516465F
:105540000D4604460DE02046FFF71DFF08B101207F
:1055500070BD681C05D0FEF757FA801BA84207D81B
:1055600035B120684069C0434007ECD4002070BDCD
:10557000002044F8300F20216173A073216941F0AD
:10558000200121612073E2E72DE9F0471D46904696
:105590000E460446C1F30747DDF8209008E0681C7A
:1055A00006D0FEF731FAA0EB0900A8420FD875B17A
:1055B0002068012F18D0806926EA00000004000C42
:1055C00014D000204045EAD00020BDE8F08700203C
:1055D00044F8300F20216173A073216941F020014C
:1055E000216120730120F0E74069E5E70120E9E748
:1055F0002DE9F047984615460E4604464FF000093F
:105600004FF0200AC1F3074723E020684069C043F8
:10561000400515D42068016841F4007101602168DB
:105620006FF480604861C4F8309084F83DA084F83D
:105630003E90216C41F00401216484F83C901EE00E
:10564000681C06D0FEF7E0F9A0EB0800A8420AD8D3
:105650004DB12068012F15D0806926EA00000004B2
:10566000000C0DD0D1E744F8309F84F80DA084F8E9
:105670000E90216941F02001216184F80C900120F5
:10568000BDE8F0874069E8E72DE9F04116460D4690
:10569000044600274FF0200817E04069C043C006C9
:1056A0000DD454F8301B6FF01000486144F80D7BA6
:1056B00004F81D89A777206A2062277717E0FEF794
:1056C000A3F9801BA84208D83DB120684169C943AD
:1056D0004906E2D40020BDE8F08144F8307F84F828
:1056E0000D80A773206940F02000206127730120FE
:1056F000F1E770B516460D4604460DE02046FFF76B
:1057000042FE08B1012070BD681C05D0FEF77CF98F
:10571000801BA84207D835B120684069C043000605
:10572000ECD4002070BD002044F8300F20216173BC
:10573000A073216941F0200121612073E2E700009C
:105740002DE9F0478046002403F026FD02F082F99F
:1057500003F0AEFB1D4F08F001004FF400494FF479
:105760000056C8F3400508B1012200E00022494676
:105770003846FEF744F9012231463846FEF73FF934
:105780000120FCF7D5FF002231463846FEF737F9F5
:105790000120FCF7CDFF641CA4B228460A2CE2D3FA
:1057A000002249463846FEF72AF9FDF73BF804F097
:1057B000EBF902F04FF903F02FFB2020FDF7B8FBC7
:1057C000BDE8F047014602A007F064BD00040240B6
:1057D0004A5441475F49443A00000000002210212A
:1057E0000148FEF70CB90000001002400122102110
:1057F0000148FEF704B900000010024010B504464D
:10580000FFF7ECFF200A07F063FBE0B207F060FB54
:10581000002007F05DFB012007F05AFB002000F09C
:1058200005F80446FFF7E2FF204610BD07F050BB25
:1058300070B50D460446FFF7D1FF200A07F048FB7C
:10584000E0B207F045FB802007F042FB012007F0A3
:105850003FFB284607F03CFBFFF7C8FF012070BD67
:10586000F0B5002302EBC30400264FF0FF35C4E976
:1058700002565B1C022BF5D300241460224601EB78
:10588000C20341F822504FF0FF36E3E92066C3E936
:10589000C0668B18521C83F88044202AEFD3C1F8CD
:1058A000A04400214FF480524454491C9142FBD340
:1058B00000F5805100F580530C604C600021C3E975
:1058C0000211C3E9041118469961C161F0BD0000DD
:1058D0002DE9F04FFE4B00262DED028B83B0814663
:1058E0008DF804609C8D14B906F097FE0446DFF82D
:1058F000E0A39E850AF1800AF649CAF838609FED58
:10590000F68ADAF850000125DFF8D0B3884202DCCD
:10591000D88D9D281FD99E778AED148ACAF83460E5
:1059200050461E775E77C0E90F65CAF84450DE77AF
:1059300083F8206083F82160E849CAF84860202095
:10594000CAF84C60C8318BF80000087083F82360F7
:1059500083F82260DE859E46002C7DD0DAF8383050
:10596000514619F803007E281CD19EF81E2070466F
:10597000C2B9857781ED148A4E6300F81C6FD74F4A
:105980004670C1E90F654D64C670067146718E643C
:105990002022CE64C8378BF800203A70C671867119
:1059A000AEF82E60DFF834834A6BA8F1E90819F8E5
:1059B00003C008F802C0BEF82E7070467F1CAEF817
:1059C0002E70BCF13B0F06D0BCF13D0F0CD0BCF1EA
:1059D0003A0F09D00DE090F82270FFB9877F012FB0
:1059E0001CD18677457713E0C77F17B9C57780F854
:1059F0002350BCF12E0F03D0BCF1240F0BD00DE0CF
:105A000090F8207057B990F822703FB980F8205074
:105A100080F8235002E090F8217037B1022A42D971
:105A200098F80270202F04D03DE0022780F8217002
:105A3000EEE790F82370AFBB90F82170022F32D2BE
:105A4000C77F012F0DD0DFF89482CF6BA8F120081B
:105A5000202F08F807C000E04AE02FD27F1CCF6358
:105A60002CE090F8207027B1012F0FD02FB113D068
:105A700024E0D1F840800BF808C00F6CC82F1DD26D
:105A80007F1C0F64CF6C7F1CCF6417E0934FD1F85D
:105A90004480C83707F808C04F6CC82F0ED27F1C4F
:105AA0004F640BE0FFE790F82170022F06D190F8C9
:105AB00023701FB9C1F848C080F82150D1E9127C89
:105AC000BC4503D290F82170012F0ED080F82260DF
:105AD000C82A01D2521C4A63C82B02D25B1CCAF8E6
