:020000040800F2
:10000000689F0020AD0100089D6D00080D490008A3
:10001000B9690008471000081991000800000000A5
:1000200000000000000000000000000069780008E7
:10003000551D000800000000996E0008ED840008BE
:10004000C7010008C7010008C7010008C701000870
:10005000C7010008C7010008F51D0008091E0008B7
:10006000C70100081D1E0008C7010008C7010008DD
:10007000C7010008C7010008C7010008C701000840
:10008000C7010008251C0008A10A000800000000A4
:10009000000000000000000000000000311E000809
:1000A000C7010008C7010008C7010008C701000810
:1000B000C7010008C7010008E1860008C701000861
:1000C000C7010008C7010008C7010008C7010008F0
:1000D000C7010008BD900008C9900008000000009A
:1000E000C7010008C7010008C701000800000000A0
:1000F000000000000000000000000000C701000830
:1001000000000000C7010008C7010008C70100087F
:1001100000000000000000000000000000000000DF
:10012000391C0008C7010008C7010008C701000802
:10013000C7010008000000000000000000000000EF
:10014000000000000000000000000000C7010008DF
:10015000C7010008451C0008511C0008D590000884
:10016000C7010008C70100080000000000000000EF
:10017000000000000000000000000000000000007F
:1001800000000000C701000800000000000000009F
:10019000C7010008C7010008DFF80CD000F09AFB87
:1001A0000048004741AC0008689F0020064880478F
:1001B00006480047FEE7FEE7FEE7FEE7FEE7FEE74C
:1001C000FEE7FEE7FEE7FEE7298600089901000842
:1001D0002DE9F05F0546002092469B46884606467C
:1001E000814640241BE0284641464746224600F00F
:1001F00020F853465A46C01A914110D3114618466A
:10020000224600F049FA2D1A67EB01084F462246B4
:100210000120002100F040FA17EB00094E41201E9A
:10022000A4F10104DFDC484631462A464346BDE8D6
:10023000F09F202A04DB203A21FA02F000217047C7
:1002400021FA02F3D040C2F120029140084319463E
:100250007047D2B201E000F8012B491EFBD2704773
:100260000022F6E710B513460A4604461946FFF782
:10027000F0FF204610BD421E12F8013F002BFBD1BB
:1002800011F8013B02F8013B002BF9D17047421CE9
:1002900010F8011B0029FBD1801A704710B500220D
:1002A00000E0521C835C8C5CA34201D1002BF8D18E
:1002B000D8B2E1B2401A10BD034611F8012B00F884
:1002C000012B002AF9D11846704770B5064608F090
:1002D00071FF046805460A220021304600F0FDF94E
:1002E0002C6070BD2DE9FE4F804681EA0300C00FEF
:1002F0000C46009021F0004123F00045B8EB0200CD
:10030000A94105D24046214690461C460B4602466E
:1003100023F00040104347D0270DC7F30A00C3F372
:100320000A510290401A019040286BDAC3F313007F
:1003300040F4801B0098924620B10023D2EB030AC0
:1003400063EB0B0B01985946C0F14002504600F098
:10035000A3F906460D4650465946019A00F0ABF9FE
:1003600010EB08006141002487EA115284EAE77328
:100370001A4340D0009A62B3019A012A4FEA075209
:1003800015DC001B61EB02014FF0004202EA07524C
:10039000CDE90042001C41F5801132462B4600F0A9
:1003A0001AFA03B0BDE8F08F40462146F9E7001B7A
:1003B00061EB0201001C41F5801300185B4120181D
:1003C000A2F5001747EB030140EAD570B6196D415D
:1003D00011E06D084FEA360645EAC0754FEA07524C
:1003E000001B61EB0201001C41F5801149084FEA36
:1003F00030000019514132462B4603B0BDE8F04FA2
:1004000000F0DAB90098012240000023D0EB02028C
:1004100063EBE073009821464FEAE074B8EB00000C
:1004200061EB0401E9E783F000435BE781F0004101
:1004300058E72DE9FE4F81EA030404F0004421F05F
:10044000004100944FF0000B23F0004350EA0104F8
:100450005ED052EA03045BD0C3F30A54C1F30A55D9
:100460002C44A4F2F3340194A0FB0254C1F3130111
:1004700041F48011C3F3130343F4801301FB0244DE
:1004800000FB034E840A970A44EA815447EA8357E3
:10049000A4FB076802958D0A05FB07854FEA932C9C
:1004A00004FB0C542705029D4FEA065847EA16370D
:1004B000B5EB08056EEB070C870E920E47EA811725
:1004C00042EA8312A7FB0201B6EB0B0164EB0004C6
:1004D0002B0D43EA0C335E1844EB1C50DA465146B0
:1004E000E7FB0201C5F313044FEA0B3343EA14534D
:1004F0004FEA0432019C43EA0603A4F10C0402947F
:10050000009CCDE900B400F066F903B0BDE8F08FBF
:1005100000200146F9E72DE9F04D81EA030404F0DB
:10052000004B21F0004514464FF0000A23F0004133
:1005300050EA050220D054EA01021DD0C5F30A5743
:100540000246C5F31303C1F31300C1F30A5640F486
:10055000801543F48013A7EB0608101BD64608F25B
:10056000FD3873EB050002D308F1010801E0921891
:100570005B41B8F1000F03DA00200146BDE8F08DC1
:1005800000204FF48011064684460EE0171B73EBE3
:10059000050705D3121B63EB050306434CEA010C68
:1005A00049084FEA300092185B4150EA0107EDD14B
:1005B00052EA030012D082EA040083EA05010843EC
:1005C00005D0101BAB4106D20122002306E0002219
:1005D0004FF0004302E06FF0010253101AEB0600E7
:1005E0004CEB085110EB0A0041EB0B01BDE8F04D5C
:1005F00000F0E2B80EB540F2334102910021CDE99E
:1006000000110A460B4600F0E6F803B000BD00F00A
:10061000004230F000400AD0C10D01F56071C0F316
:10062000160042EA0151C2084007114370470020FA
:100630000146704701F0004330B421F0004150EA18
:10064000010206D00A0DA2F56072C1F31301002A5F
:1006500002DC30BC00207047440F44EAC104C100F2
:10066000E01830BC00EBC25000F06FB830B50B465C
:10067000014600202022012409E021FA02F59D42D2
:1006800005D303FA02F5491B04FA02F52844151EA6
:10069000A2F10102F1DC30BD202A04DB203A00FA8D
:1006A00002F1002070479140C2F1200320FA03F3C9
:1006B000194390407047202A06DBCB17203A41FAB5
:1006C00002F043EAE07306E041FA02F3D040C2F1DF
:1006D000200291400843194670472DE9F0479146A2
:1006E0000F4680460446002614F8015B2DB100F049
:1006F00003F90068405DC007F6D12B2D02D02D2DE7
:1007000018D0641E4A463946204600F0F9F827B151
:100710003968A14201D1C7F8008071054FF0020489
:100720000BD54042002803DD08F044FD0460A0071B
:10073000BDE8F08746F48066E4E70028F8DA08F0C0
:1007400039FD04606FF00040F2E70029A8BF704750
:10075000401C490008BF20F00100704710B4B0FAF7
:1007600080FC00FA0CF050EA010404BF10BC704792
:1007700049B1CCF1200421FA04F411FA0CF118BFAC
:10078000012121430843A3EB0C01CB1D4FEA00617B
:100790004FEA102042BF002010BC704700EBC3504E
:1007A00010440029A4BF10BC7047401C490008BF7A
:1007B00020F0010010BC704710B5141E73F1000446
:1007C00008DA401C41F1000192185B411A4301D143
:1007D00020F0010010BD2DE9F04D92469B4611B16D
:1007E000B1FA81F202E0B0FA80F220329046FFF7CF
:1007F00053FF04460F4640EA0A0041EA0B01534604
:100800005A46084313D0114653EA010019D0C8F1E3
:1008100040025046FFF70DFD05460E46504659462C
:100820004246FFF739FF084305D0012004E0204687
:100830003946BDE8F08D0020054346EAE0762C43BA
:1008400037430A986305E40AA0EB08000022FD0A7A
:1008500044EA47540A3002D500200146E9E7010581
:1008600010196941DDE9084500196941BDE8F04DFD
:10087000A2E7C1F30A52C1F3130140F2FF3341F47E
:1008800080119A4202DA00200146704740F2334359
:100890009A42A2F2334202DC5242FFF7CABCFFF78F
:1008A000FBBE000030B5041E71F1000404DB4FF004
:1008B0000044404264EB0101141E73F1000405DBA7
:1008C0001C464FF00043524263EB0403994208BFB9
:1008D000904230BD064C074D06E0E06840F0010351
:1008E00094E8070098471034AC42F6D3FFF758FC61
:1008F0000CBE00082CBE00080048704740BB000832
:100900002DE9F05F82460078002715468B460AF1F4
:100910000104B946302801D09DB113E014F8010B51
:100920000127782803D0582801D045B10AE00DB13D
:10093000102D07D10027102514F8010B02E008251F
:1009400000E00A250026B0460EE005FB080005FB86
:1009500006F1012701EB10461FFA80F8B6F5803F3B
:1009600000D3B94614F8010B294600F018F8002806
:10097000EBDABBF1000F05D00FB1641E00E0544666
:10098000CBF80040B9F1000F06D008F013FC0221AB
:100990000160C81EBDE8F09F48EA0640FAE73A2821
:1009A00000D2303820F02002412A01D3A2F13700D2
:1009B000884201D34FF0FF30704770B58C1810F8A3
:1009C000015B15F0070301D110F8013B2A1106D194
:1009D00010F8012B03E010F8016B01F8016B5B1EAE
:1009E000F9D12B0705D40023521E0DD401F8013B89
:1009F000FAE710F8013BCB1A921C03E013F8015BF5
:100A000001F8015B521EF9D5A142D8D3002070BD78
:100A100010B50146806B026C12F0500F05D0026CCD
:100A2000D20626D501F031FE10BD016C41F40071F3
:100A3000016401688A6812F0405F17D1027EAAB98A
:100A4000CA6A12F4700F02D08A6852050ED44A683E
:100A500022F020024A60016C21F480710164016C73
:100A6000C90403D4016C41F00101016401F004FEEA
:100A700010BD806BC26CBDE810400846104710B531
:100A8000806B40210164416C41F00401416401F03C
:100A9000FCFD10BD10B5806B01F0F6FD10BD00002F
:100AA00010B5034801F0F2FD02490120087010BDA5
:100AB000AC01002002010020464910B54A6822F42A
:100AC00040324A604A6843681A434A6001684A688B
:100AD00022F480724A6001684A68036942EA03228C
:100AE0004A6001684A6822F040724A6001684A68B8
:100AF00083681A434A6001688A6822F400628A6047
:100B000001688A68C3681A438A60816A6FF07062FC
:100B1000D14201688A6822F070628A6001688A683E
:100B20000CD0836A1A438A6001688A6822F04052B6
:100B30008A6001688A68C36A1A4301E022F0405261
:100B40008A6001688A6822F002028A6001688A6805
:100B5000037E42EA43028A6090F82010002901686F
:100B60004A680FD042F400624A6001684A6822F481
:100B700060424A6001684A68174C436A04EB433399
:100B80001A4301E022F400624A600168CA6A22F452
:100B90007002CA620168CA6A838B104C04EB03536B
:100BA0001A43CA6201688A6822F400728A60016886
:100BB0008A6890F8303042EA43228A6001688A6885
:100BC00022F480628A6001688A68406942EA802073
:100BD000886010BD0023014000E0FFFF0000F0FF2F
:100BE0009FED0B1B10B553EC112B51EC100BFFF7C5
:100BF0001AFC9FED091B53EC112BFFF78CFC9FEDAA
:100C0000081B53EC112BFFF76DFB41EC100B10BDD3
:100C100052B81E85EB51E83F7B14AE47E17A643F42
:100C2000000000000000394070B5544900202DED4F
:100C3000068B4867524C2088FFF7DCFC9FED518BF8
:100C400053EC182BFFF7F5FB9FED509B53EC192B42
:100C5000FFF7EFFB9FED4FAB53EC1A2BFFF7E9FBD0
:100C6000FFF7E8FC04F10C0528606088FFF7C2FC80
:100C700053EC182BFFF7DDFB53EC192BFFF7D9FBD7
:100C800053EC1A2BFFF7D5FBFFF7D4FC6860A08864
:100C9000FFF7B0FC53EC182BFFF7CBFB9FED3F1B8E
:100CA00053EC112BFFF7C5FB53EC192BFFF7C1FBDE
:100CB000FFF7C0FCA860E088FFF79CFC53EC182B02
:100CC000FFF7B7FB53EC192BFFF7B3FB53EC1A2BD1
:100CD000FFF7AFFBFFF7AEFCE8602089FFF78AFC67
:100CE00053EC182BFFF7A5FB53EC192BFFF7A1FBD7
:100CF000FFF7A0FC28612BA007F0D2FE95ED000ABB
:100D00002CA009F037FA95ED010A2EA009F032FA6D
:100D100095ED020A2FA009F02DFA95ED030A31A0F6
:100D200009F028FA2869FFF772FC41EC100BFFF775
:100D300057FF51EC100BFFF77DFC00EE100A2DA0C1
:100D400009F018FA2FA007F0ABFE218819A00AF0CD
:100D500037FC61881BA00AF033FCA1881DA00AF0B3
:100D60002FFCE1881FA00AF02BFC218921A0BDECFB
:100D7000068BBDE870400AF023BC00000000002094
:100D8000100400206666666666660A400000000081
:100D90000000303F00000000000000405DBF6037F1
:100DA0006CDB16400D0A2D2D2D2D2D2D2D2D2D0DED
:100DB0000A000000616463305F352E305620202029
:100DC00020203A00616463315F332E3356202020A7
:100DD00020203A00616463325F31325620202020A7
:100DE00020203A00616463335F332E335620202085
:100DF00020203A0074656D705F73656E7328D12989
:100E000020203A000D0D0D0070B5054613681446FC
:100E10000E46002004EBC001D1E902216A40714076
:100E20000A4302D0401C0228F4D302280CD1022B22
:100E30000BD009A007F034FE206804EBC000C0E925
:100E400002562068411C216070BD07A007F028FEF3
:100E5000C4E90256002070BDCDEEE2FBE920E0E4DB
:100E6000F0E5F1210D0A0000CFF0E5E2FBF8E5ED39
:100E7000EE20F7E8F1EBEE20CED2CFD0C0C2C8D240
:100E8000C5CBC5C9210D0A00224900200A6889691D
:100E90008A4200D901201F4920310A6889698A42A3
:100EA00001D940F002001B4940310A6889698A4231
:100EB00001D940F00400174960310A6889698A4203
:100EC00001D940F00800134980310A6889698A42D3
:100ED00001D940F010000F49A0310A6889698A429F
:100EE00001D940F020000B49C0310A6889698A4263
:100EF00001D940F040000749E0310A6889698A4217
:100F000001D940F08000044908B1022000E001202E
:100F1000C8727047302C0020000000200449020EE7
:100F20000A70020C4A70020A8A70C870704700008A
:100F3000D00000202DE9F0411D4F1C4E4FF480558C
:100F4000A7F18004E8B1786800282DD1607E0128DF
:100F50002AD10020607602462946304602F013F876
:100F600014A007F09DFD18A003F076FF1AA003F06F
:100F700073FF04F10F00BDE8F04141F6583101F074
:100F800067BAFF2005F03AFF01222946304601F0FA
:100F9000FAFF4FF47A707860607E002804D112A0C6
:100FA00007F07EFD01206076BDE8F081000C024074
:100FB00080000020C2EAEBFEF7E0E5EC20CFC8D2CB
:100FC000C0CDC8C5210D0A007E30207077725F3019
:100FD00037323A303B0000007E3020656E61626C33
:100FE000655F6C6D3A313B00C2FBEAEBFEF7E0E572
:100FF000EC20CFC8D2C0CDC8C5210D0A000000002A
:101000000EB57E218DF8001030308DF80100722071
:101010008DF8020034208DF8040038208DF805008A
:1010200035208DF806005F208DF8070074208DF8BC
:101030000800732165228DF803108DF80920684699
:1010400007F052FD0EBDFEE701A007F04DBD000008
:101050007E30206574685F636F6E6669673B000071
:101060002DE9FF5F0024DFF84CA4DFF84CB40E46F6
:101070000546A14605EBC407D7E9201081F001021F
:10108000024320D081F0640202437CD081F0C80288
:10109000024379D081F00302024376D081F004024A
:1010A000024373D081F00502024370D081F0060242
:1010B00002436DD081F00A0202436AD081F00B0135
:1010C000014367D0B4E2FDA007F0EAFCFEA007F000
:1010D000E7FC55F82400002109F05AF9009055F872
:1010E0002400012109F054F9039055F8240002214D
:1010F00009F04EF9029055F82400032109F048F94F
:10110000024655F82400042109F042F9019055F8EF
:101110002400052109F03CF9034655F82400062176
:1011200009F036F9804655F82400072109F030F916
:1011300000998446B05C715C40EA01600399715C7F
:101140000A040299715C42EA012108430199715C29
:101150000A0A1043F25C090641EA024140EA1240E1
:1011600016F8082041EA022140EA126016F80C2025
:101170001143CAE91810DCA003F06EFECFA007F0FF
:101180008FFCDC4A07E018E030E06EE0B6E0F8E003
:101190002AE16AE171E1D7E9A001FFF735FE0746D0
:1011A0000146D5A00AF00CFADAF86000CDE900900B
:1011B000A32047430BEB071178E1D7E9A001CD4A03
:1011C000FFF722FECAE91A09DAF860100323CDE915
:1011D0000091A32148430BEB00112246284600F062
:1011E000CBFD3146284606F0EBFC1DE255F8240005
:1011F000002109F0CDF8024655F82400012109F03C
:10120000C7F8804655F82400022109F0C1F80346CA
:1012100055F82400032109F0BBF8305CB15CF25CA6
:1012200040EA016016F80810090441EA0221084367
:1012300007F024FAD7E9A003AE4A1946FFF7E4FD08
:10124000DAF860100323CDE90091A32148430BEBAA
:1012500000112246284600F08FFD2146284605F061
:10126000F9FFAAA007F01CFCE2E155F824000021D8
:1012700009F08EF8024655F82400012109F088F89B
:10128000804655F82400022109F082F8034655F8FB
:101290002400032109F07CF8305CB15CF25C40EA88
:1012A000016016F80810DFF80C82090441EA0221F7
:1012B000A8F18008084388F81700D7E9A0038D4AF1
:1012C0001946FFF7A1FD012388F81630DAF86010FF
:1012D0000323CDE90091A32148430BEB00112246E3
:1012E000284600F049FD2146284605F0B3FF8BA0B3
:1012F00007F0D6FB98F817108FA03FE055F82400B0
:10130000002109F045F8024655F82400012109F0B2
:101310003FF8804655F82400022109F039F80346C9
:1013200055F82400032109F033F8305CB15CF25C1D
:1013300040EA016116F80800000440EA022041EA90
:10134000000808F0FF0005F059FDD7E9A003694A3D
:101350001946FFF759FDDAF860100323CDE9009133
:10136000A32148430BEB00112246284600F004FD60
:101370002146284605F06EFF414672A00AF020F98A
:1013800056E155F82400002109F002F8009055F8C4
:101390002400012108F0FCFF804655F824000221BA
:1013A00008F0F6FF034655F82400032108F0F0FF8B
:1013B000024655F82400042108F0EAFF315C16F8D3
:1013C0000800B25C41EA0061F05C000440EA0220DF
:1013D000014300988846305C0090364878300078A9
:1013E00006F09CF85EA031E055F82400002108F0DA
:1013F000CFFF009055F82400012108F0C9FF804676
:1014000055F82400022108F0C3FF034655F82400D4
:10141000032108F0BDFF024655F82400042108F01E
:10142000B7FF315C16F80800B25C41EA0061F05C7D
:10143000000440EA0220014300988846305C009096
:101440001C487830007806F0B3F84DA007F028FB70
:10145000414653A00AF082F957A000990AF0B0F86B
:10146000D7E9A003234A194616E057A007F018FB56
:10147000104841F28831713809E061A007F010FB93
:101480000C490C488039723881F80C90002100F02A
:10149000DFFFD7E9A001174AFFF7B6FCDAF86010C2
:1014A000CDE90091A32148430BEB00110323224611
:1014B0002846B7E080000020302D00200D0A2D2D99
:1014C0002D2D2D2D0D0A0000CAEEECE0EDE4E03AE2
:1014D000F3F1F2E0EDEEE2EAE020E2F0E5ECE5ED3A
:1014E000E8210D0A000000007E302074696D653B24
:1014F0000000000060560020CDEEECE5F020EEF29A
:10150000EFF0E0E2E8F2E5EBFF3A0000D1E2E5F2CD
:10151000EEE4E8EEE4FB210D0A000000D3EFF0E07A
:10152000E2EBE5EDE8E520EFE8F2E0EDE8E5EC20C0
:101530002B313256210D0A0053544152545F425010
:101540003A000000F3EFF0E0E2EBFFE5EC20EFE81B
:10155000F2E0EDE8E520EAE0EDE0EBEEE23A000053
:10156000CFF0E8F8B8EB2049503020E4EBFF20CC76
:10157000E0F1F2E5F0E020303732210D0A00000002
:10158000CFF0E8F8B8EB2049503120E4EBFF20CC55
:10159000E0F1F2E5F0E020303732210D0A000000E2
:1015A000EEF2EFF0E0E2EBFFE5EC20495020E0E462
:1015B000F0E5F13A00000000C220E1EBEEEA203055
:1015C000373220B900000000C7E0EFF0E0F8E8E2B1
:1015D000E0E5EC20EAE0F1F1E5F2FB2030373220E3
:1015E000E220C0D620EDE020EFF0E5E4ECE5F220CB
:1015F000E8F520E0E4F0E5F1EEE2210D0A0000005C
:10160000EDE0F7E8EDE0E5EC20F2E5F1F220EFF0B7
:10161000EEE2E5F0EAF320F8E8EDFB20343835217E
:101620000D0A000000F0A8FB2146284605F012FE36
:10163000641C202CFFF41EADBDE8FF9F70B50D4E5D
:101640004FF400752946304601F098FC0A4CE17EC3
:1016500088420ED02946304601F090FCE0762946BB
:10166000304601F08BFCBDE87040014603A009F054
:10167000A7BF70BD000C024000000020504F4B5F20
:101680004844535F4F55543A000000002DE9F05F85
:10169000824C814A002004F12005D17D04F14006EE
:1016A00004F1600904F1800704F1A00804F1C00A04
:1016B000012939D0002935D1117F012932D1107784
:1016C000411E216029603160C9F80010396043462D
:1016D000C8F8001004F1E008CAF80010C8F80010BB
:1016E000E060E860F060C9F80C00F860D860CAF803
:1016F0000C00C8F80C00A0604A46A860B06090607A
:10170000D446B8609860CCF80800C8F8080060605B
:1017100068607060C9F8040078605860CAF8040016
:10172000C8F80400BDE8F09FD16FB1F5FA7FF9D990
:1017300001211177D067084604F068FC022004F00C
:1017400065FC032004F062FC042004F05FFC05202B
:1017500004F05CFC062004F059FC072004F056FC61
:10176000082004F053FC012004F074FD20600220E6
:1017700004F070FD2860032004F06CFD306004204C
:1017800004F068FDC9F80000052004F063FD38602E
:10179000BB46062004F05EFDC8F80000474607205F
:1017A00004F058FDCAF80000D046082004F052FDAD
:1017B000DFF8E8A00AF1E00ACAF80000012004F00E
:1017C0002FFE6060022004F02BFE6860032004F00E
:1017D00027FE7060042004F023FEC9F804000520F1
:1017E00004F01EFECBF80400062004F019FE786019
:1017F000072004F015FEC8F80400082004F010FECD
:10180000CAF80400012004F093FDA060022004F057
:101810008FFDA860032004F08BFDB060042004F06D
:1018200087FDC9F80800052004F082FDCBF8080008
:10183000062004F07DFDB860072004F079FDC8F8AB
:101840000800082004F074FDCAF80800012004F024
:101850005FFEE060022004F05BFEE860032004F01D
:1018600057FEF060042004F053FEC9F80C00052078
:1018700004F04EFECBF80C00062004F049FEF860A0
:10188000072004F045FEC8F80C00082004F040FED4
:10189000CAF80C0046E7000000000020302C0020B1
:1018A000074840F2DC52016C914207D9C16B012913
:1018B00004D10021C16303A007F0F2B87047000013
:1018C00000000020CFD0CECFC0CB20D1C8C3CDC028
:1018D000CB205431485A5F4D4B2121210D0A000085
:1018E0002DE9F041002813D15F4E00244FF47A77A0
:1018F000F07B78B15DA003F0AFFA5FA007F0D0F8FD
:1019000009F0F0FB394606F1140000F0A1FDF47374
:10191000BDE8F081307D70B154A003F09DFA62A063
:1019200007F0BEF805F08EFE4F486421103000F03D
:101930008FFD3475ECE74C4D307CF835A0B14BA0F1
:1019400003F08AFA66A007F0ABF82878B16C05F0CE
:10195000E5FD6878B16D05F0E1FD6421A5F1E700D2
:1019600000F076FD3474D3E7707CA0B13FA003F0A3
:1019700073FA67A007F094F82878F16C05F018FE68
:101980006878F16D05F014FE37486421123000F0DC
:101990005FFD7474BCE7B07CA0B134A003F05CFAC6
:1019A00067A007F07DF82878316D05F023FD687891
:1019B000316E05F01FFD2C486421133000F048FD06
:1019C000B474A5E7F07CA0B128A003F045FA6AA0A2
:1019D00007F066F82878716D05F056FD6878716E2D
:1019E00005F052FD20486421153000F031FDF474FB
:1019F0008EE7707D48B11DA003F02EFA6C4807F009
:101A00004FF8FFF721FB747582E7B07B90B1164861
:101A1000B47339460D3000F01BFD14A003F01CFA1E
:101A200064A007F03DF86878BDE8F0413030C0B2FE
:101A3000FFF7E6BA707B002895D074730BA003F013
:101A40000BFA63A007F02CF8307B012809D06AA0BC
:101A500007F026F8BDE8F0416F226C496C4804F0AD
:101A6000CFBD6CA0F4E70000000000207E302074A1
:101A7000696D653B00000000C2FBEFEEEBEDFFE59A
:101A8000EC20EEF2EBEEE6E5EDEDF3FE20E7E0E430
:101A9000E0F7F320EFEE20F1E1EEF0F320E0E4F0E8
:101AA000E5F1EEE2210D0A00C2FBEFEEEBEDFFE502
:101AB000EC20EEF2EBEEE6E5EDEDF3FE20E7E0E400
:101AC000E0F7F320EFEE20E2FBE2EEE4F320EAEEB3
:101AD000EBE8F7E5F1F2E2E020303732210D0A00C1
:101AE000C2FBEFEEEBEDFFE5EC20EEF2EBEEE6E510
:101AF000EDEDF3FE20E7E0E4E0F7F320EFEE20F376
:101B0000F1F2E0EDEEE2EAE520495030210D0A0065
:101B1000C2FBEFEEEBEDFFE5EC20EEF2EBEEE6E5DF
:101B2000EDEDF3FE20E7E0E4E0F7F320EFEE20F345
:101B3000F1F2E0EDEEE2EAE520495031210D0A0034
:101B4000C2FBEFEEEBEDFFE5EC20EEF2EBEEE6E5AF
:101B5000EDEDF3FE20E7E0E4E0F7F320EFEE20F315
:101B6000F1F2E0EDEEE2EAE520444553545F4950DE
:101B700030210D0A00000000C2FBEFEEEBEDFFE5A7
:101B8000EC20EEF2EBEEE6E5EDEDF3FE20E7E0E42F
:101B9000E0F7F320EFEE20F3F1F2E0EDEEE2EAE51C
:101BA00020444553545F495031210D0A0000000084
:101BB00044BB0008CFEEF1FBEBE0E5EC20EAEEE4FD
:101BC00020EFEE20F8E8EDE520343835210D0A004D
:101BD000CFF0EEE2E5F0FFE5EC20F0E5E7F3EBFC1B
:101BE000F2E0F220F2E5F1F2E020F8E8EDFB20343B
:101BF0003835210D0A000000D2E5F1F220EDE52094
:101C0000EFF0EEE9E4E5ED210D0A0000904100203F
:101C1000B8510020D2E5F1F220EFF0EEE9E4E5ED75
:101C2000210D0A00024900200870024800F0DEBEC3
:101C30002000002084570020014800F0D7BE00009B
:101C400084560020014800F0D1BE0000E457002077
:101C5000024900200870024800F0C8BE1E000020A3
:101C60002457002001681823CAB2103AB2FBF3F2DD
:101C7000054B6FF30901032A9B5CC36500D9091D5D
:101C800081650846704700005CB9000810B5014640
:101C900000208B698A6A4FF0C07453B1B3F5005FBE
:101CA00015D072B1012A0CD0022A0AD0032A09D118
:101CB00004E01AB1012A06D0022A03D1C96AC90177
:101CC00000D5012010BDC96AA142FAD010BD002A7A
:101CD000F7D0012AF2D0022AF3D0032AF3D010BDA4
:101CE00030B50468256825F48025256004686360A4
:101CF0008368402B036803D099600068C26030BDE0
:101D00009A600068C16030BD00B585B0104801F030
:101D10005FF9F9208DF80C00A6214FF47A730122A7
:101D20000B4801F019FA50B9012004A9CDE90010BF
:101D300003460290A62103AA054801F0B3FB04481C
:101D400001F02CF99DF8100005B000F0010000BD75
:101D5000F40100207047000002498860886800286C
:101D6000FCD1704780000020002101E0491C89B2AD
:101D70008142FBD3704700002DE9F04100EBC20027
:101D8000DDE90656D0E9A027C1E906278A6A0024C2
:101D9000402A1AD2571CD1F82CC002EB82024CF117
:101DA000000CC1E90A7C01EBC20200275363C2E9BF
:101DB0001067D0E96030C2E90E300120106382F86C
:101DC0004850086A2930086203E0012402A006F0A6
:101DD00067FE2046BDE8F081EDE5F220ECE5F1F28A
:101DE000E020E4EBFF20EAE2E8F2E0EDF6E8E921AA
:101DF0000D0A000010B5012000F0EAFF01490120A2
:101E0000087010BD0001002010B5022000F0E0FFB6
:101E100001490120087010BD0100002010B5082004
:101E200000F0D6FF01490120087010BD020000201B
:101E300010B5402000F0CCFF01490120087010BD12
:101E4000010100207047000070B50C4C0122110305
:101E5000204601F098F8012255032946204601F05A
:101E600092F80120FFF778FF00222946204601F072
:101E70008AF8BDE870400120FFF76EBF0004024001
:101E80002DE9F04F0F468046C6084FF4806B91B0A5
:101E900000225946804801F076F8384609F0C6FA23
:101EA0000027B946EA4609E0002009F0BFFA0146DA
:101EB0000AEBC7007F1CC0E90019FFB2B7EBD80FCF
:101EC000F2D301225946744801F05DF8012E0ED07C
:101ED000022E0FD0032E17D0042E26D0052E3FD071
:101EE000062E5AD0072E7BD0082E7AD07BE0DDE973
:101EF000005478E0DDE900010C0244EA10640102BC
:101F0000DDE902020D186DE0DDE900010C0444EA90
:101F100010440204DDE90201090241EA10610002F5
:101F200010184C41DDE90412B3E0DDE900010906B7
:101F3000DDE9063441EA102100061B184C41DDE9B9
:101F40000201090441EA10410504DDE9040212021C
:101F500042EA10620002281851411D184C4142E02B
:101F6000DDE90201090641EA10210006009C19EB97
:101F700000024C41DDE90401090441EA104100047A
:101F800012184C41DDE90601090241EA1061000224
:101F900010184C41DDE908127BE00299009819EB1A
:101FA000090241EB0024DDE904014FEA016141EA45
:101FB00010214FEA006012184C41DDE906010904C6
:101FC00041EA1041000412184C41DDE90801090200
:101FD00041EA1061000210184C41DDE90A1258E094
:101FE00006E02CE0544111B028462146BDE8F08FB0
:101FF000009802990404484619EB000244EB0124BE
:10200000049912EB09024C41DDE90601090641EA97
:102010001021000612184C41DDE90801090441EACB
:102020001041000412184C41DDE90A01090241EA9D
:102030001061000210184C41DDE90C1229E00098F3
:102040000299040648460A0419EB00015441049A17
:102050000B1844EB0224069913EB09024C41DDE90D
:102060000801090641EA1021000612184C41DDE979
:102070000A01090441EA1041000412184C41DDE94B
:102080000C01090241EA1061000210184C41DDE91F
:102090000E124518A6E70000001002402DE9FC478B
:1020A0008946C4080646D1B2012C21D0100A40EA64
:1020B0000360C5B2022C1ED0100C40EA0340C0B22F
:1020C000032C1DD0120E42EA0322D2B24FEA13684B
:1020D000042C1CD0DFB2052C22D0C3F3072C062C15
:1020E00029D0C3F30743072C32D0082C3FD04EE051
:1020F0008DF803104BE08DF802108DF8035046E088
:102100008DF801108DF802508DF803003FE08DF836
:1021100000108DF801508DF802008DF8032036E094
:102120008DF800108DF801508DF802008DF8032015
:102130008DF804702BE08DF800108DF801508DF8AB
:1021400002008DF804708DF803208DF805C01EE0A4
:102150008DF800108DF801508DF804708DF8020094
:102160008DF805C08DF803208DF806300FE08DF84E
:1021700000108DF804708DF801508DF805C08DF8B1
:1021800002008DF806308DF803208DF80780DFF807
:1021900044A04FF4806800224146504600F0F3FE10
:1021A00049F0800009F042F9641EE5B200246F4650
:1021B00005E0281B385C09F039F9641CE4B2B4EB83
:1021C000D60FF6D301224146504600F0DCFE002037
:1021D000BDE8FC87001002402DE9F04F04460021C5
:1021E000806889468B4600BA20F0FF01E07A627B66
:1021F0000143207B1204000641EAE071104341EAEA
:10220000E271A27B89B01202104341EAE271E27BE3
:10221000104341EAD271884AFEF7F6FD21884ABA96
:10222000A32148438549069001EB001082460280B5
:10223000618849BA41806168E27909BA21F0FF01F9
:1022400011438160A168627B09BA21F0FF03E17A42
:1022500012040B43217B090643EAE173114343EA6D
:10226000E273A27B1202114343EAE273E27B114361
:1022700043EAD273C0E904132169627D09BA21F0EF
:10228000FF03E17C12040B43217D090643EAE1735D
:10229000114343EAE273A27D1202114343EAE2735F
:1022A000E27D114343EAD273C0E90613A169E27EDD
:1022B00009BA21F0FF0111430162E169E27F09BA25
:1022C00021F0FF0111434162216A09BA21F0FF03A5
:1022D00094F823100B4394F8241094F82520090651
:1022E00043EAE1731204114343EAE27394F82620AF
:1022F000DFF84C811202114343EAE27394F827207D
:10230000114343EAD27381622826CAF82C3088E050
:10231000A019016809BA21F0FF02C1780A4309EB4C
:1023200089010AEBC1052A634168C27909BA21F023
:10233000FF0111436963816809BA21F0FF02C17A84
:102340000A43017B0B06417B42EAE37209040B431B
:1023500042EAE172817B09020B4342EAE172C17BEE
:102360000B4342EAD172C5E90E32016909BA21F084
:10237000FF02C17C0A43017D0B06417D42EAE37204
:1023800009040B4342EAE172817DC07D09020B43DF
:1023900042EAE172034342EAD072C5E91032D8F84A
:1023A00000000790C8F80400401E0027C8F820006D
:1023B000F0192449205C05F00FF87F1C182FF7D383
:1023C00000270AE0F0192044EA19017E82F848103B
:1023D000007E1C4905F000F87F1C286BB842F1D83C
:1023E000D8F800003E44401CC8F82400D5E90E018E
:1023F000CDE90401D5E91001CDE90201DAF81010A8
:10240000686BCDE9000110490698104A01EB0010F5
:102410000C491836079B04F033FF19F101094BF101
:10242000000BDAE90A23B9EB02017BEB0300FFF4AE
:102430006FAF09B0BDE8F08F60560020485800200B
:102440009051002090410020302D0020B8510020F4
:1024500010B50C46012101700648846606A006F0FE
:102460001FFB0FA002F0F8FC2146BDE810400FA0B2
:1024700009F0A6B800000020CFEEE4EDE8ECE0E5BE
:10248000EC20F4EBE0E320EEF2EBEEE6E5EDEDEE32
:10249000E3EE20E7E0E4E0EDE8FF210D0A000000B4
:1024A0007E302074696D653B0000000074696D65C5
:1024B0006F75743A000000002DE9F0470024804653
:1024C00025464FF48049114E4FF4005718E0494615
:1024D000304600F053FD690801EBC0750122394612
:1024E000304600F050FD0120FFF736FC002239464F
:1024F000304600F048FD0120FFF72EFC641CA4B21A
:102500004445E4D32846BDE8F087000000040240BB
:102510007047000078B50024009490F83C20012A10
:1025200019D0012280F83C200A6807250368092A8F
:1025300013D9DE680A3A02EB42029540AE43DE60F0
:102540000A788B680A3A02EB420293400268D56827
:102550002B43D36010E0022078BD1E6902EB4202DB
:102560009540AE431E610A788B6802EB42029340AD
:10257000026815692B4313614A681F25072A13D285
:1025800003685E6B521E02EB82029540AE435E63AF
:102590000A8893B20A79521E02EB820293400268C3
:1025A000556B2B43536327E003680D2A12D21E6B31
:1025B000D21F02EB82029540AE431E630A8893B29B
:1025C0000A79D21F02EB820293400268156B2B43FB
:1025D000136311E0DE6A0D3A02EB82029540AE43CE
:1025E000DE620A8893B20A790D3A02EB82029340C6
:1025F0000268D56A2B43D3621B4B0568194A9D427A
:102600000AD10D68122D07D1556825F400055560D3
:10261000556845F48005556005689D421DD1134DF0
:102620000B68AB4201D0112B17D1536823F4800300
:102630005360536843F4000353600968A9420CD106
:102640000B490C4A0968B1FBF2F101EB8101490029
:1026500000E0491E00910029FBD180F83C40002099
:1026600078BD00000023014000200140120000104E
:102670008401002040420F000248416F491C41671D
:1026800070470000000000207047704770B5044696
:1026900000680168C1F340024168C1F3401152B3C0
:1026A00049B3216CC90603D4216C41F40071216443
:1026B000816811F0405F17D1217EA9B9C16A11F478
:1026C000700F02D0816849050ED4416821F02001C5
:1026D0004160206C20F480702064206CC00403D41E
:1026E000206C40F0010020642046FFF7C5FF216800
:1026F0006FF012000860206801684268C1F3800131
:10270000C2F3C01289B382B3216CC90603D4216C11
:1027100041F400512164816811F4401F1ED1816B86
:1027200011F4401F02D08168490517D4416849055A
:1027300014D4816811F0405F10D1217E71B94168D5
:1027400021F080014160206C20F480502064206CD6
:10275000C00503D4206C40F0010020642046FFF740
:10276000D7FE21686FF00C0008602068016842689D
:10277000C1F30001C2F3801271B16AB10068C007F1
:102780000AD0206C40F480302064204600F046F8E7
:1027900021686FF001000860206801684268C1F399
:1027A0004011C2F3806200290DD0002A0BD0616C69
:1027B00041F0020161646FF0200505602046FFF7DB
:1027C00064FF2068056070BD70B504004FF000061E
:1027D00003D0206C002510B107E0012070BD204619
:1027E00000F01EF8656484F83C50206CC00610D4DC
:1027F000206C20F4885040F0020020642046FEF750
:102800005BF96564206C20F0020040F00100206458
:1028100000E0012684F83C50304670BD704700004F
:1028200070B586B0064614216846FDF719FD2049AB
:10283000306888423AD11F480025016841F4807110
:102840000160006800F4807005901A48143801682F
:1028500041F0010101600068694600F00100059047
:102860000F2000900320CDE90105134800F0BCFAC9
:10287000134C1248C4E900050015A560C4E90350D3
:10288000400060618000A0614011E06100022062B0
:10289000042060620120C4E90A052046256300F097
:1028A00075F908B1FFF7CEFAB463A66306B070BD40
:1028B0000020014044380240000002401064024001
:1028C00084560020F8B500230446009390F83C009D
:1028D000012807D0012084F83C0020688568ED07B6
:1028E00002D011E00220F8BD856845F00105856041
:1028F0002E482F4D0068B0FBF5F000EB400000E0E3
:10290000401E00900028FBD120688568ED074AD062
:10291000256C40F20166B54345F480752564406836
:10292000400505D5206C20F4005040F48050206410
:10293000206CC00404D5606C20F00600606400E0E8
:10294000636484F83C30A36B1B481A4DD863A36BB7
:102950001A481864A36B1A48D86423686FF02200E1
:1029600018602068436843F0806343602068836890
:1029700043F480738360134620680A46A66B00F117
:102980004C01304600F06CF96868C006206802D03F
:102990000C49884207D1816811F0405F03D18168FA
:1029A00041F0804181600020F8BD000084010020DA
:1029B00040420F0000230140110A0008950A000858
:1029C0007F0A00080020014090F83510022903D04A
:1029D0008021416501207047052180F8351000688D
:1029E000016821F001010160002070472DE9F843E2
:1029F00004464FF00009CDF8009063484FF416519B
:102A0000A56D0068B0FBF1F72E6894F85C200821F2
:102A100001FA02F030420FD02068026852070BD54D
:102A2000026822F00402026094F85C008140A96010
:102A3000606D40F00100606594F85C104FF0010893
:102A400008FA01F0304208D021684969090604D526
:102A5000A860606D40F00200606594F85C1004208E
:102A60008840304208D021680968890704D5A860E9
:102A7000606D40F00400606594F85C1010208840A0
:102A8000304218D021680968090714D5A860206869
:102A90000168490304D50068000308D5A16C07E06C
:102AA0000168C90503D4016821F008010160216CA7
:102AB00009B12046884794F85C10202088403042B5
:102AC00031D021680968C9062DD5A86094F8350071
:102AD00005282068016806D0490347D5006800032F
:102AE0001DD4616C1CE021F0160101602068416971
:102AF00021F080014161206C08B9A06C20B12068F0
:102B0000016821F00801016094F85C103F208840C2
:102B1000A86084F8349084F83580216D1FE0E16B63
:102B200009B120468847606D00282BD0606DC00732
:102B300014D0052084F835002068016821F00101D7
:102B400001600098401C0090B84203D820680068DB
:102B5000C007F6D184F8349084F83580E16C002900
:102B600010D001B02046BDE8F04308470168C90510
:102B7000D5D4016821F01001016084F8349084F804
:102B80003580CCE7BDE8F883840100202DE9F041D1
:102B9000044600F0FDF905465CB1002684F8346077
:102BA000022084F835002068016821F001010160ED
:102BB0000DE00120BDE8F08100F0EAF9401B052896
:102BC00005D920206065032084F83500F2E72068ED
:102BD0000068C007F0D121680A6820480240D4E9A3
:102BE00001031843D4E903352B43184363691843A1
:102BF000A3691843E3691843236A18431043626AC0
:102C0000042A03D1D4E90B231A4310430860206837
:102C10004069656A20F0070128460D430127042812
:102C20000CD1A06A0543E06A40B12046FFF72EF8B8
:102C300020B14020606584F83570BAE720684561AE
:102C40002046FFF70FF894F85C203F219140816007
:102C5000666584F835700020ACE700003F8010F016
:102C60002DE9F0410446866D90F8340000250128D6
:102C70000DD0012084F8340094F835700020012F25
:102C800007D084F8340002252846BDE8F0810220F0
:102C9000FBE7022784F8357060652046FFF720F8CF
:102CA00094F85C103F208840B0602068016841F0D3
:102CB000160101602068416941F080014161206C8A
:102CC00020B12068016841F00801016020680168B6
:102CD00041F001010160D7E72DE9F04F8946DFF8A7
:102CE000D0A000214FF0010B4FF00F0C0BFA01F6B2
:102CF00009EA0603B34255D121F003045444D4F841
:102D000008288D072F0F0CFA07F505EA0208294A53
:102D1000904201D1002214E0274A904201D10122C1
:102D20000FE0264A904201D102220AE0244A904252
:102D300001D1032205E0234A904201D1042200E0A0
:102D40000722BA40424514D1D4F80828AA43C4F84F
:102D500008281D4A14689C431460121D14689C4383
:102D60001460121D14689C431460121D14689C4367
:102D7000146003684C000322A24093430360CB0815
:102D800000EB83031D6A4C07E70E0CFA07F4A5431A
:102D90001D628368934383604368B3434360C368A1
:102DA0009343C360491C1029A0D3BDE8F08F0000F5
:102DB00000300140000002400004024000080240D0
:102DC000000C024000100240003C0140704700002F
:102DD000044910B50A68024202D00860FFF7F6FF06
:102DE00010BD0000143C01402DE9F84FDFF86C9154
:102DF000002209F1040A0AF1040B4FF00F080BF14D
:102E0000040E01260B6896403340B34271D14C68E2
:102E1000022C01D0122C11D1D40800EB84073D6A9A
:102E20005407E40E08FA04FC25EA0C05D1F810C09A
:102E30000CFA04FC4CEA050CC7F820C007685400E3
:102E4000032591F804C0A5400CF0030CAF430CFA25
:102E500004FC4CEA070CC0F800C04F68012F05D0F5
:102E6000022F03D0112F01D0122F11D18768D1F872
:102E70000CC0AF430CFA04FC4CEA070CC0F808C0C5
:102E80004768B7430E79C6F3001696403E43466046
:102E9000C668AE438D68A5403543C5604C68E40004
:102EA00056D52F4C256845F480452560246822F0CE
:102EB000030504F4804400942A4C2E19D6F80878AF
:102EC0009407250F08FA05F4A743274CA04201D127
:102ED000002415E0254CA04201D1012410E0244C2F
:102EE000A04201D102240BE0224CA04202D10324D3
:102EF00006E02DE0204CA04201D1042400E007248C
:102F0000AC403C43C6F80848D9F800404D464E68EE
:102F10009C43F60300D51C432C60DAF8004055466C
:102F20004E689C43B60300D51C432C60DBF8004080
:102F30005D464E689C43F60200D51C432C60DEF8CB
:102F4000004075464E689C43B60200D51C432C6079
:102F5000521C102AFFF455AFBDE8F88F003C014029
:102F600044380240003001400000024000040240AA
:102F700000080240000C02400010024000690840B6
:102F800000D0012070470AB1816170470904FBE756
:102F900001488068704700007801002010B50400E7
:102FA00013D0242084F83D002068016821F001013D
:102FB0000160204600F050FC0020206484F83D00B1
:102FC00044F8300FA073207310BD012010BD000025
:102FD00070B5040025D094F83D00002520B984F890
:102FE0003C50204600F04CFC242084F83D00206832
:102FF000016821F0010101602068016841F400418D
:1030000001602068016821F40041016000F0A4FD26
:103010004D4B6168994201D84C4900E04C498842C7
:1030200001D2012070BD4B492268B0FBF1F1566816
:1030300026F03F060E43566062689A4206D94FF466
:10304000967251434FF47A72B1FBF2F12268491C37
:10305000166A26F03F06314311626168994210D822
:103060004900401EB0FBF1F2521CC2F30B02042ACD
:1030700001D2042022E0B0FBF1F0401CC0F30B00B1
:103080001CE0A268F2B301EBC10303EB0116431E7F
:10309000B3FBF6F35B1C43F480431B0549D092B3AA
:1030A00001EBC10202EB0111401EB0FBF1F0401C2C
:1030B000C0F30B0040F4804040F400402168CA692E
:1030C0004CF6FF739A431043C861D4E907100143DB
:1030D0002068026822F0C00211430160D4E90301B4
:1030E00001432068826848F2FF339A4311438160AC
:1030F000D4E9051001432068C26822F0FF021143A1
:10310000C16001E00EE016E02068016841F00101B5
:1031100001602564202084F83D00256384F83E503A
:10312000002070BD01EB4106431EB3FBF6F35B1CB0
:10313000B3E70120C2E701EB4101401EB0FBF1F013
:10314000401CC0F30B00B7E7A086010080841E007E
:1031500000093D0040420F002DE9FF4F81B01F469E
:1031600093460446FFF714FF054694F83D000126F8
:1031700020287DD11923012250492046009501F0D5
:10318000C7FC002874D194F83C00012870D00120BD
:1031900084F83C0020680168C90703D1016841F048
:1031A000010101602068016821F4006101602420B0
:1031B00084F83D004FF0000AC4F840A04048E062A7
:1031C0004FF020092068016841F4807101603B469E
:1031D00000224FF001112046009501F099FC50B1FA
:1031E00020680068C00502D54FF4007020640320F9
:1031F00005B0BDE8F08F0298216800F0FE0008617C
:10320000FFF7C6FE0546206841694069C1F34001E9
:10321000C0F380204FF0A0080EE0FFF7B9FE401B7E
:10322000B84200D80FB984F83D80206841694069F0
:10323000C1F34001C0F3802094F83D20A02A02D0C1
:1032400009B90028E9D084F83D9020684169C94354
:10325000890717D4016841F400710160206856465F
:10326000416980691923012214492046009500E034
:1032700022E001F04DFCA8B984F83D9084F83C6050
:103280000020B5E7016841F40071016021686FF426
:10329000806048611923012208492046009501F009
:1032A00037FC08B10120A3E7761C5E458AD384F879
:1032B0003D9084F83CA0F5E7022099E70200100059
:1032C0000000FFFF2DE9F84F984617468A4604464E
:1032D000DDF82890FFF75CFE054694F83D002028B5
:1032E00075D1192301226C492046009501F010FC8C
:1032F0000028F5D194F83C00012868D0012084F81A
:103300003C0020680168C90703D1016841F0010150
:1033100001602068016821F400610160222084F8C6
:103320003D00102084F83E00002626646762A4F861
:103330002A80608D20855948E0622B464A465146D6
:10334000204601F0FBFA002878D1208D544F68B157
:10335000012814D002282068016816D041F4806149
:103360000160206841698069009087E020684169B8
:1033700081690091016841F4007101607EE020687C
:10338000016821F480610160F0E721F4806101604F
:103390002068016841F40061E2E7032848D8012869
:1033A0000AD0022814D04B46002239462046009508
:1033B00001F0AEFBD8BB27E02A464946204601F083
:1033C00027FCA0BB20680069616A08704DE061E0DD
:1033D0004B46002239462046009501F099FB30BB50
:1033E0002068016841F40071016020680069616A29
:1033F0000870606A401C6062218D491E2185618DC4
:10340000491E618521682EE02068016821F48061F1
:10341000016020680069616A0870606A401C60622F
:10342000208D401E2085608D401E6085D0E705E020
:103430002A464946204601F0EBFB10B10120BDE8C9
:10344000F88F20680069616A0870606A401C6062D9
:10345000218D491E2185618D491E618521684A693A
:10346000D24352070AD409690170606A401C606245
:10347000208D401E2085608D401E6085208D002897
:103480008BD1202084F83D0084F83E6084F83C60B5
:103490000020D4E70220D2E7020010000000FFFF66
:1034A000040001002DE9FF4F81B01F46DDE90EBA8F
:1034B00091460446FFF76CFD054694F83D00202830
:1034C0007ED11923012296492046009501F020FB68
:1034D0000028F5D194F83C00012871D0012084F82F
:1034E0003C0020680168C90703D1016841F001016F
:1034F00001602068016821F400610160212084F8E6
:103500003D004FF0100884F83E8000262664C4F881
:1035100024906785608D2085824FE7622B46204688
:10352000109A029901F080FA206841698069009040
:1035300034E02A462046109901F09FFB40B1206CF0
:10354000042804D12068016841F4007101609EE004
:10355000606A216800780861606A401C6062618D61
:10356000491E6185218D491E89B2218522685369D2
:10357000DB435B070BD451B100781061606A401CDB
:103580006062608D401E6085208D401E20852A4629
:103590002046109901F096FA0028D0D1208D0028FD
:1035A000C7D1222084F83D0084F83E802664C4F808
:1035B00024B0A4F82AA0608D2085E7622B4600E0A5
:1035C000ABE02046109A029901F0B8F9F0BB208DCB
:1035D000554F68B1012814D002282068016816D020
:1035E00041F480610160206841698069009088E051
:1035F0002068416981690091016841F400710160AE
:103600007FE02068016821F480610160F0E721F427
:10361000806101602068016841F40061E2E70328ED
:103620004DD8012825D00228109B00954FF00002AC
:103630003946204628D001F06BFA2068016821F451
:103640008061016020680069616A00E01FE0087025
:10365000606A401C6062208D401E2085608D401E87
:1036600060850095002239462046109B01F050FAF3
:1036700011E02A462046109901F0CAFA38B92068AC
:103680000069616A087033E001F042FA18B1012064
:1036900005B0BDE8F08F2068016841F40071016059
:1036A00020680069616A0870606A401C6062218D50
:1036B000491E2185618D491E6185216816E02A46D3
:1036C0002046109901F0A4FA20680069616A087028
:1036D000606A401C6062218D491E2185618D491EF2
:1036E000618521684A69D24352070AD40969017089
:1036F000606A401C6062208D401E2085608D401EE7
:103700006085208D00288AD1202084F83D0084F82F
:103710003E6084F83C600020BAE70220B8E7000071
:10372000020010000000FFFF040001002DE9F84F27
:103730001F4690468A460446DDF82890FFF728FC8D
:10374000054694F83D0020287FD1192301224049E5
:103750002046009501F0DCF9002876D194F83C0071
:10376000012872D0012084F83C0020680168C90754
:1037700003D1016841F0010101602068016821F472
:1037800000610160212084F83D00102084F83E0093
:1037900000262664C4F824806785608D20852D4826
:1037A000E0622B464A465146204601F03DF990B969
:1037B000206841698069009036E02A4649462046E3
:1037C00001F05BFA50B1206C042804D12068016834
:1037D00041F4007101600120BDE8F88F606A216842
:1037E00000780861626A521C6262608D401E6085CA
:1037F000208D401E80B2208521684B69DB435B072A
:103800000BD450B110780861606A401C6062608D12
:10381000401E6085208D401E20852A464946204650
:1038200001F050F90028CED1208D0028C5D154F8E0
:103830003D0B016841F400710160202004F81E096D
:10384000E67766770020C7E7FFE70220C4E70000BD
:10385000020010000000FFFF00680649884208D1FE
:103860000548016821F400110160C0210348FFF7F9
:1038700033BA704700540040403802400004024010
:1038800010B586B0044614216846FCF7E9FC1349DC
:103890002068884220D112480021026842F00202CA
:1038A0000260006800F002000590C0200090122025
:1038B00001900220CDE902010420049069460948E4
:1038C000FFF792FA06481030016841F400110160D8
:1038D000006800F40010059006B010BD00540040D0
:1038E00030380240000402400248816802781144E6
:1038F00081607047780100200B4810B5016841F4E1
:1039000000710160016841F480610160016841F467
:1039100080710160032000F06FF8002000F006F8CD
:1039200000F024F8002010BD003C024070B50D4DA1
:1039300004464FF47A712878B1FBF0F00A4909681F
:10394000B1FBF0F000F0BBFC48B9102C07D200220C
:103950002146501E00F030F800206C6070BD012040
:1039600070BD000078010020840100200A4808B5DD
:10397000016841F480410160006800F480400090DB
:103980000548001F016841F080510160006800F0A7
:103990008050009008BD000044380240002809DB38
:1039A00000F01F02012191404009800000F1E02059
:1039B000C0F8001170470000F0B40E4B1B68C3F351
:1039C0000223C3F10704042C00D904241D1D072D74
:1039D00001D2002300E0DB1E012606FA04F56D1E6D
:1039E0000D409D409E40761E164045EA0601F0BC03
:1039F00005F0CFBB0CED00E0064A00F007011068AF
:103A00004FF6FF03184040EA0120034908431060C5
:103A1000704700000CED00E00000FA052DE9F047CA
:103A20000D46040065D0DFF81491D9F80000EFB21C
:103A300000F00F00A84207D289F80070D9F8000002
:103A400000F00F00A84254D120683D4E810712D5E6
:103A5000400703D5306840F4E0503060207800071C
:103A600003D5306840F4604030603068A16820F0D1
:103A7000F000084330602078C0072DD030496068DE
:103A80000839012812D0022813D0032811D0096860
:103A9000890700292DDA316821F0030101433160E3
:103AA000FFF776FA804641F2883A0EE0096889030A
:103AB000EFE709688901ECE7FFF76AFAA0EB080174
:103AC000514502D90320BDE8F0873068616800F0F5
:103AD0000C00B0EB810FEFD1D9F80010484601F08F
:103AE0000F01A94207D90770006800F00F00A84233
:103AF00001D00120E7E72078400705D53068E1686C
:103B000020F4E050084330602078000706D5306884
:103B1000216920F4604040EAC100306000F03CF8C8
:103B20003168084AC1F30311515CC8400649086076
:103B30000020FFF7FBFE0020C5E70000003C02402C
:103B40000838024064B90008840100200148006878
:103B50007047000084010020044805490068096896
:103B6000044AC1F38221515CC8407047840100209F
:103B70000838024074B9000804480549006809681B
:103B8000044AC1F34231515CC840704784010020AF
:103B90000838024074B90008104810B5006810F0E9
:103BA0000C010F4818D0042916D0082914D10B4C49
:103BB000241F216801F03F02216821680023C1F31E
:103BC0008811A1FB0001FCF703FB2168C1F301414F
:103BD000491C4900B0FBF1F010BD0000083802405C
:103BE0000024F4002DE9F84F040073D02078BD4D77
:103BF000C00748D0BB4808300168C1F381010129E2
:103C000008D00068C0F3810002280AD1281D00688E
:103C1000400206D52868800335D560680028E4D0C6
:103C200031E06068B0F5803F10D0B0F5A02F286873
:103C300010D020F480302860286820F4802028608C
:103C40006068A0B1FFF7A4F906460CE0286840F4CC
:103C50008030F4E740F480202860F7E7FFF798F918
:103C6000801B642872D828688003F7D50BE0FFF723
:103C70008FF9064604E0FFF78BF9801B6428F1D822
:103C800028688003F7D42078DFF85C9280074FF033
:103C9000000A3ED593480830016811F00C0F09D096
:103CA0000068C0F3810002280BD18E48001D006817
:103CB000400206D42868800715D5E068012809D19C
:103CC00011E0E068B8B10120C9F80000FFF760F921
:103CD000064605E003E1FFF75BF9801B0228C1D827
:103CE00028688007F7D52868216920F0F80040EAA5
:103CF000C10028600DE0C9F800A0FFF749F90646A9
:103D000004E0FFF745F9801B02281FD828688007C8
:103D1000F7D42078000722D5724F74496069743750
:103D200070B101200860FFF733F9064604E0FFF7A1
:103D30002FF9801B022809D838688007F7D50EE0D4
:103D4000C1F800A0FFF724F9064605E081E0FFF77F
:103D50001FF9801B02287CD838688007F7D42078A8
:103D6000400769D5DFF87CB14FF000080BF1400B3C
:103D7000DBF80000C0000CD4DBF8001041F08051EB
:103D8000CBF80010DBF800004FF0010800F0805085
:103D90000090574F3868C0050FD4386840F48070E1
:103DA0003860FFF7F5F8064604E0FFF7F1F8801BEE
:103DB00002284ED83868C005F7D54A4FA06870373A
:103DC00001280FD00528386810D020F00100386095
:103DD000386820F004003860A068B0B1FFF7D8F868
:103DE00006460EE0386840F00100F4E740F00400B9
:103DF0003860F7E7FFF7CCF8811B41F28830814249
:103E000065D838688007F5D50DE0FFF7C1F806469C
:103E100006E0FFF7BDF8811B41F28830814256D899
:103E200038688007F5D4B8F1000F05D0DBF8001032
:103E300021F08051CBF80010A069C8B3294908319E
:103E40000968C1F38101022949D00228504607D0F0
:103E500000E03CE0C9F86000FFF79AF8044639E05A
:103E60004F46C9F86000FFF793F8064604E0FFF7F5
:103E70008FF8801B02282AD828688001F7D4D4E95B
:103E800007010843A16A1B4A490802EB0141626A23
:103E900041EA8211084394F82C1040EA016111486C
:103EA000001D016001203866FFF772F8044605E046
:103EB00013E0FFF76DF8001B022808D8286880017E
:103EC000F7D50AE0FFF764F8001B022802D90320A7
:103ED000BDE8F88F28688001F4D40020F8E70120BD
:103EE000F6E700000038024000004742800E4742DB
:103EF000007000400000FFFF70B5040005D00025F1
:103F0000A56294F8510010B106E0012070BD84F85C
:103F10005050204600F030F8022084F8510020680C
:103F2000016821F040010160D4E901010843D4E9AE
:103F300003121143084361690843218B01F40071A6
:103F40000843E1690843216A0843A16A08432168DC
:103F50000860A069042101EA1040616A08432168F1
:103F600048602068C16921F40061C1616565012074
:103F700084F85100002070BD2DE9F04F87B0044651
:103F800014216846FCF76CF9494D484A20684849B5
:103F90000026103D02274FF0050A4FF0060B4FF0A8
:103FA0000308904219D1086840F48040086008680E
:103FB00000F480400590286840F0020028602868DE
:103FC00002AA00F0020005904FF47040CDE900070E
:103FD00082E84005694637481BE0374A90421AD1CB
:103FE000086840F400400860086800F4004005904C
:103FF000286840F004002860286802AA00F0040045
:1040000005904FF4E050CDE9000782E84009694689
:104010002A48FEF7E9FE2A49DFF89490206809F162
:10402000040988421CD1D9F8001041F40051C9F8A4
:104030000010D9F8000000F400500590286840F006
:1040400010002860286802AA00F010000590642083
:10405000CDE9000782E8400569461A48FEF7C4FE2C
:104060001949206888421DD1D9F8001041F4801107
:10407000C9F80010D9F8000000F4801005902868F5
:1040800040F010002860286802AA00F01000059097
:104090004FF4E040CDE9000782E84009694609484D
:1040A000FEF7A2FE07B0BDE8F08F00000038004028
:1040B0004038024000040240003C0040000802403A
:1040C0000034014000100240005001402DE9F84F3B
:1040D000044690F8500001250A9E1F4692468B46E2
:1040E0004FF0000801280ED0012084F85000FEF7A0
:1040F0004FFF814694F85100616801280CD0B1F55A
:10410000827F07D102E00220BDE8F88FA16809B9DB
:10411000042801D00220B6E0BBF1000F27D0BAF18D
:10412000000F24D01FB394F85100042802D00520BA
:1041300084F8510000206065C4F838A0E787A7879D
:10414000C4F830B0E786A786206460642068016800
:10415000490603D4016841F040010160E068B0F510
:10416000006F606805D0E8B3012F43D079E00120EB
:1041700089E008B1012F34D1206B21680088C86024
:10418000206B801C2063E08E401EE08629E02068C2
:10419000816889070DD5E18E59B1012D09D1216BB7
:1041A0000988C160206B801C2063E08E401EE08681
:1041B000002520688168C9070BD0E18F49B1C0682C
:1041C000A16B0880A06B801CA063E08F401EE0877D
:1041D0000125FEF7DDFEA0EB0900B04201D3701C03
:1041E00050D100E006E0E08E0028D0D1E08F00281A
:1041F000CDD13CE0206B216800780873206B401C17
:104200002063E08E401EE0862BE0206881688907ED
:104210000DD5E18E59B1012D09D1216B09780173BA
:10422000206B401C2063E08E401EE0860025206845
:104230008168C9070BD0E18F49B1C068A16B0870D4
:10424000A06B401CA063E08F401EE0870125FEF7B5
:104250009FFEA0EB0900B04202D3701C01D011E018
:1042600086B1E08E0028D0D1E08F0028CDD14A461B
:104270003146204603F01AFA38B120204FF00108E9
:10428000606508E00320804605E0A06818B9206852
:10429000C16880680090012084F85100002084F8F3
:1042A0005000404630E74FF0E0210428086903D071
:1042B00020F004000861704740F00400FAE710B5F0
:1042C000401EB0F1807F01D3012010BD4FF0E024EB
:1042D00060610F21601704F05CFF0020A0610720DF
:1042E0002061002010BD70477047704770B50446CC
:1042F000006801694FF00005C943890715D4C168FA
:10430000C943890711D4E91E016101202077206883
:1043100080698007204602D0FFF7E7FF04E000F045
:1043200098F8204600F096F8257720680169C9437F
:10433000490717D4C168C943490713D46FF0040172
:104340000161022020772068806910F4407F2046B8
:1043500002D0FFF7CAFF04E000F07BF8204600F02F
:1043600079F8257720680169C943090716D4C1681F
:10437000C943090712D46FF00801016104202077B6
:104380002068C0698007204602D0FFF7AEFF04E036
:1043900000F05FF8204600F05DF82577206801699D
:1043A000C943C90617D4C168C943C90613D46FF0FD
:1043B00010010161082020772068C06910F4407F57
:1043C000204602D0FFF791FF04E000F042F82046BB
:1043D00000F040F8257720680169C943C90708D172
:1043E000C168C943C90704D1891E0161204600F094
:1043F00032F820680169C943090609D4C168C94374
:10440000090605D46FF0800101612046FFF76BFFBC
:1044100020680169C943490609D4C168C9434906EE
:1044200005D46FF040010161204600F015F82068C6
:104430000169C94389060BD4C168C943890607D4F9
:104440006FF0200101612046BDE87040FFF74CBFCE
:1044500070BD7047704770477047704710F8391F3C
:10446000407808437047000070B502680446106841
:10447000D168536910F00F0F51D003F0010501F41A
:10448000907635435DD0C20705D0CA0503D5E26BEF
:1044900042F00102E263420705D5DA0703D0E26B7E
:1044A00042F00202E263820705D5DA0703D0E26B2D
:1044B00042F00402E263020705D5DA0703D0E26B9B
:1044C00042F00802E263E26B002A34D0800604D591
:1044D000880602D5204604F0F6FB20684069E16BAF
:1044E000C0F3801001F008010143204624D004F0FD
:1044F000D3FB2068416949061AD5416921F0400182
:104500004161606BA0B11B490165606BFEF75CFA0D
:10451000002810D0606B016DBDE87040084783062D
:104520000FD58B060DD52046BDE8704004F0CBBBFF
:104530002046FFF792FF70BDFFF78FFF0020E0637A
:1045400070BD030606D50B0604D52046BDE87040B5
:1045500004F05ABD4006F3D54806F1D5D16820468F
:1045600021F04001D160202184F8391000F0CCF90D
:1045700070BD00005D8B000870B5040004D094F895
:104580003900002510B106E0012070BD84F83850D4
:10459000204600F023F8242084F839002068C16800
:1045A00021F40051C160204604F0D8FB2068016965
:1045B00021F4904101612068416921F02A014161A3
:1045C0002068C16841F40051C160E563202084F88F
:1045D000390084F83A00002070BD00002DE9F04F4A
:1045E00087B0044614216846FBF73AFE7448DFF8AA
:1045F000CC811438D4F800C00025DFF8C491022122
:1046000001220323402607154FF0070A4FF0006BE5
:10461000C4453ED1D9F8008048F01008C9F80080A0
:10462000D9F800C00CF0100CCDF814C0D0F800C0C0
:104630004CF0010CC0F800C0006800F001000590CB
:1046400058028DE80F0469465E48FEF7CDFBDFF89F
:104650007C815D494046C0E90265C0E90475C8F83F
:104660001850C0E9001BB102C8E907510421C8F87D
:104670002410FEF78BFA08B1FDF7E4FBC4F8308094
:10468000002211462520C8F83840FFF795F925206B
:1046900048E0DFF83C81C44549D1D9F8008048F0B2
:1046A0002008C9F80080D9F800C00CF0200CCDF823
:1046B00014C0D0F800C04CF0040CC0F800C0006872
:1046C00000F004000590C0208DE80F000820049041
:1046D00069464048FEF788FB3B49DFF8FC80183903
:1046E0004046C8F800104FF02061C8F80410C0E937
:1046F0000265C0E90475C8F81850C8F81C50C8F81D
:104700002050C8F82450FEF741FA08B1FDF79AFB93
:10471000C4F83080002211464720C8F83840FFF71F
:104720004BF94720FFF73AF907B0BDE8F08FDFF803
:10473000AC80C445F8D1DFF888C0ACF1040CDCF8DB
:10474000008048F40038CCF80080DCF800C00CF49D
:10475000003CCDF814C0D0F800C04CF0080CC0F8F4
:1047600000C0006800F00800059060208DE80F048C
:1047700069461B48FEF738FBDFF86C801949404654
:10478000C0E90265C0E90475C8F81850C8F81C50A3
:10479000C8F82050C8E9001BC8F82450FEF7F6F905
:1047A00008B1FDF74FFBC4F83080002211462620E7
:1047B000C8F83840FFF700F92620B3E700100140A1
:1047C0004438024000000240B864024024570020F0
:1047D0000014014000080240E4570020004400405B
:1047E000000C0240A06002408457002090F83A304C
:1047F000202B22D1F9B1F2B190F83830012B1CD026
:1048000081628285C2850021C163222280F83A201C
:1048100080F838100168CA6842F48072CA60016882
:104820004A6942F001024A610068C16841F0200112
:10483000C1600020704701207047022070470000CF
:104840000F4930B401F163020B7891690D4C0C44AF
:10485000491C9161237091690023402900D1936123
:10486000116A491C1162402904D11362044A0121D2
:104870001D3AD17730BC01220149FFF7B7BF0000D4
:104880001D0000204C240020F7B5044690F83900A4
:10489000202831D1019969B362B394F83800012816
:1048A0002AD0012084F838002162A284E284002505
:1048B000E563212084F83900236B1048D863236B0B
:1048C0000F481864236B0F48D864206B13460565A6
:1048D0002668206B321DFEF7C3F921686FF0400097
:1048E000086084F838502068416941F080014161D6
:1048F0000020FEBD0120FEBD0220FEBDB78B0008DA
:10490000E58B00086D8B000870477047FEE7016873
:104910004A69D24352050FD46FF480624A61002184
:1049200040F8301F202242738173026942F0040272
:104930000261017301207047002070472DE9F84F94
:104940000446C06A1D4693460F4621680A6842F431
:1049500080620A60082807D0012805D010F5803F42
:1049600002D0206B112804D12068016841F48071C5
:1049700001604FF001195B46002249462046009530
:1049800000F0C6F84FF4007840B120680068C00518
:1049900001D5C4F840800320BDE8F88F2069DFF816
:1049A00084A0B0F5804F0FD00620216800EAD7160A
:1049B00046F0F00008612B465A460AF106012046EF
:1049C00000F0DAF858BB03E0F8B240F001001CE058
:1049D0002168F8B208612B465A465146204600F03D
:1049E000CBF8E0B92068416981690091016841F420
:1049F000807101605B46002249462046009500F028
:104A000087F80028C1D146F0F100216808612B46E3
:104A10005A465146204600F0AFF80028BCD001208D
:104A2000BAE7000002000100F8B50446C06A1E465D
:104A30000D461746082807D0012805D010F5803FFD
:104A400002D0206B122804D12068016841F48071E3
:104A50000160134600224FF001112046009600F03D
:104A600057F840B120680068C00502D54FF40070C7
:104A700020640320F8BD2069B0F5804F0ED00620D9
:104A8000216800EAD51040F0F000086133463A464C
:104A90000B49204600F070F878B902E005F0FE00FE
:104AA00000E0E8B221680861054933463A46891FAB
:104AB000204600F061F80028DCD00120F8BD00009D
:104AC0000800010070B516460D4604460DE020466C
:104AD000FFF71DFF08B1012070BD681C05D0FEF76F
:104AE00057FA801BA84207D835B120684069C043F7
:104AF0004007ECD4002070BD002044F8300F202186
:104B00006173A073216941F0200121612073E2E704
:104B10002DE9F0471D4690460E460446C1F307476F
:104B2000DDF8209008E0681C06D0FEF731FAA0EB13
:104B30000900A8420FD875B12068012F18D08069EC
:104B400026EA00000004000C14D000204045EAD002
:104B50000020BDE8F087002044F8300F2021617369
:104B6000A073216941F02001216120730120F0E749
:104B70004069E5E70120E9E72DE9F0479846154649
:104B80000E4604464FF000094FF0200AC1F30747D4
:104B900023E020684069C043400515D420680168BF
:104BA00041F40071016021686FF480604861C4F8CD
:104BB000309084F83DA084F83E90216C41F00401CF
:104BC000216484F83C901EE0681C06D0FEF7E0F9F2
:104BD000A0EB0800A8420AD84DB12068012F15D0DB
:104BE000806926EA00000004000C0DD0D1E744F8EB
:104BF000309F84F80DA084F80E90216941F02001C7
:104C0000216184F80C900120BDE8F0874069E8E755
:104C10002DE9F04116460D46044600274FF02008C6
:104C200017E04069C043C0060DD454F8301B6FF044
:104C30001000486144F80D7B04F81D89A777206AAD
:104C40002062277717E0FEF7A3F9801BA84208D857
:104C50003DB120684169C9434906E2D40020BDE85E
:104C6000F08144F8307F84F80D80A773206940F00C
:104C70002000206127730120F1E770B516460D462C
:104C800004460DE02046FFF742FE08B1012070BD4A
:104C9000681C05D0FEF77CF9801BA84207D835B107
:104CA00020684069C0430006ECD4002070BD00209D
:104CB00044F8300F20216173A073216941F0200175
:104CC00021612073E2E700002DE9F04780460024CF
:104CD00003F00CFD02F0A6F903F0ACFB1D4F08F049
:104CE00001004FF400494FF40056C8F3400508B1E5
:104CF000012200E0002249463846FEF744F901222D
:104D000031463846FEF73FF90120FDF725F800222D
:104D100031463846FEF737F90120FDF71DF8641CCF
:104D2000A4B228460A2CE2D3002249463846FEF7B0
:104D30002AF9FDF789F804F0D3F902F073F903F0CA
:104D40002DFB2020FDF7B8FBBDE8F047014602A08F
:104D500006F004BD000402404A5441475F49443A0A
:104D600000000000002210210148FEF70CB90000ED
:104D700000100240012210210148FEF704B9000092
:104D80000010024010B50446FFF7ECFF200A06F0C1
:104D90003BFBE0B206F038FB002006F035FB0120BB
:104DA00006F032FB002000F005F80446FFF7E2FFB2
:104DB000204610BD06F028BB70B50D460446FFF72F
:104DC000D1FF200A06F020FBE0B206F01DFB802098
:104DD00006F01AFB012006F017FB284606F014FB2C
:104DE000FFF7C8FF012070BDF0B5002302EBC3043C
:104DF00000264FF0FF35C4E902565B1C022BF5D3A9
:104E000000241460224601EBC20341F822504FF007
:104E1000FF36E3E92066C3E9C0668B18521C83F8AD
:104E20008044202AEFD3C1F8A04400214FF48052DF
:104E30004454491C9142FBD300F5805100F5805346
:104E40000C604C600021C3E90211C3E9041118464B
:104E50009961C161F0BD00002DE9F04F00262DEDF4
:104E6000028B83B081468DF80460FD4B1C8E14B913
:104E700005F0DBFE0446DFF8E8A31E860AF1800A8F
:104E8000F849CAF834609FEDF88ADAF84C00012539
:104E9000DFF8D8B3884202DC588E9D2823D983F8E6
:104EA00024608AED138ACAF83060504683F8226085
:104EB00083F82360C0E90E65CAF8405083F8256086
:104EC00083F8266083F82760E849CAF84460202008
:104ED000CAF84860C8318BF80000087083F8296070
:104EE00083F828605E869E46002C70D0DAF8343055
:104EF000514619F803007E281DD19EF824207046E3
:104F0000CAB980F8245081ED138A0E6300F8226F2D
:104F1000D64F4670C1E90E650D64C67006714671C4
:104F20004E6420228E64C8378BF800203A70C67118
:104F30008671AEF83260DFF834830A6BA8F1E908B5
:104F400019F803C008F802C0BEF8327070467F1C22
:104F5000AEF83270BCF13B0F06D0BCF13D0F0FD064
:104F6000BCF13A0F0CD012E090F8287007BB90F813
:104F70002470012F20D180F8246080F8235015E0A0
:104F800090F825701FB980F8255080F82950BCF1A1
:104F90002E0F03D0BCF1240F0BD00DE090F826703B
:104FA00037B990F828701FB980F8265080F829503A
:104FB00002E090F8277037B1022A42D998F80270BF
:104FC000202F05D03DE0022780F82770EEE75DE056
:104FD00090F82970A7BB90F82770022F31D290F873
:104FE0002570012F0BD0DFF884828F6BA8F1200889
:104FF000202F08F807C02FD27F1C8F632CE090F879
:10500000267027B1012F0FD02FB113D024E0D1F893
:105010003C800BF808C0CF6BC82F1DD27F1CCF631C
:105020008F6C7F1C8F6417E0904FD1F84080C83799
:1050300007F808C00F6CC82F0ED27F1C0F640BE05E
:10504000FFE790F82770022F06D190F829701FB95A
:10505000C1F844C080F82750D1E9117CBC4503D287
:1050600090F82770012F0ED080F82860C82A01D24E
:10507000521C0A63C82B02D25B1CCAF834308EF86B
:105080002960641E30E780F82850EFE79EF823007F
:10509000774601287ED17548E93801787E2905D107
:1050A00097F8221041F0010187F8221080464078DD
:1050B00097F82110884205D197F8220040F00200AD
:1050C00087F8220097F8220003287DD1674868A15D
:1050D0002038FBF7E3F8002877D0644866A1203831
:1050E000FBF7DCF8002871D0604866A12038FBF798
:1050F000D5F800286BD05D4864A12038FBF7CEF8C6
:10510000002865D0594865A12038FBF7C7F800286A
:105110007ED0564864A12038FBF7C0F8002878D02C
:10512000524864A12038FBF7B9F8002872D04F48E4
:1051300061A12038FBF7B2F800286CD04B4861A180
:105140002038FBF7ABF8002866D0484860A120382B
:10515000FBF7A4F8002873D0444860A12038FBF77F
:105160009DF800286DD041485FA12038FBF796F8E4
:105170000A25002866D03D485EA12038FBF78EF84E
:10518000002860D039485EA12038FBF787F8002856
:105190005AD000E0CDE235485BA12038FBF77EF81D
:1051A000002852D031485AA12038FBF777F8002860
:1051B0004CD02E4858A12038FBF770F8002846D074
:1051C0002A4856A1203804E012E248E14DE190E17E
:1051D000A6E1FBF763F800283AD0244850A1203814
:1051E000FBF75CF8002834D020484FA12038FBF7AB
:1051F00055F8DFF83C9100282CD01C484DA12038F0
:10520000FBF74CF8002826D018484BA1203804E0C2
:1052100090E198E19FE1B0E1C6E1FBF73FF800289B
:105220001AD0124847A12038FBF738F8002814D0CC
:105230000E4846A12038FBF731F800280ED08BE04D
:10524000BAE1C8E1D5E1E5E1F2E101E20AE215E205
:1052500020E22BE237E24EE25FE295E3A4E30000B6
:105260000000002000004842000000009E2A0020AC
:10527000766572736979610073657475705F495002
:10528000300000007273745F30373200727334384C
:10529000355F746573745F4F4B0000007273343870
:1052A000355F74657374000072733438355F6865F8
:1052B0006C700000757072007370695F777269744A
:1052C000650000007370695F726561640000000032
:1052D0007370695F72645F74737400004A5441476D
:1052E0005F545354000000004A544147325F534317
:1052F000414E00004A544147315F5343414E000044
:105300004A5441475F4944004261745047000000DD
:1053100074696D65000000006D656D004D534700B8
:1053200049445F53455256007370693500000000D0
:10533000001002406E7373006574685F696E697473
:10534000000000007463615F727374007463615FD6
:105350007465737400000000F6A1F848FAF79EFF28
:10536000002878D0F6A1F548FAF798FF002873D006
:10537000F6A1F248FAF792FF00286ED0F4A1EF48A8
:10538000FAF78CFF002869D0F4A1EC48FAF786FF01
:1053900000287DD0F3A1E948FAF780FF002878D0F3
:1053A000F2A1E648FAF77AFF002873D0F1A1E348AA
:1053B000FAF774FF00286ED0F0A1E048FAF76EFF0C
:1053C000002869D0EFA1DD48FAF768FF00287DD0FA
:1053D000EEA1DA48FAF762FF002878D0EDA1D748AD
:1053E000FAF75CFF002873D0EDA1D448FAF756FF16
:1053F00000286ED0ECA1D148FAF750FF002869D000
:10540000ECA1CE48FAF74AFF002870D0EDA1CB48B6
:10541000FAF744FF00286BD0CEA1C848FAF73EFF48
:10542000002877D0EAA1C548FAF738FF002872D0E3
:10543000E8A1C248FAF732FF00286DD0E7A1BF48C3
:10544000FAF72CFF002868D0E6A1BC48FAF726FF3F
:1054500000286ED0D0E3B2E2B8E2C8E2D4E2E2A023
:1054600003F01EFB01F09AFDC6E3B4482030FAF7C2
:105470002CFF3867B148E830FAF727FF0146F86695
:10548000DE487E22027097F870203032427004E0CD
:10549000C7E2DEE2EDE2FCE208E373228270C27052
:1054A0006522027174224271752282717022C2716A
:1054B0005F22027249224272502282723022C272EC
:1054C0003A2202730A0E42730A0C04E004E30FE36B
:1054D0001FE329E32AE382730A0AC27301743B22A1
:1054E00042748674C6A006F06BF8C44830E02FE31F
:1054F00046E392482030FAF7E8FE01463867C5A037
:1055000006F05EF8386FC74B012807D00022012152
:10551000184646E248E34BE356E35CE30122F6E734
:10552000C1A0396F06F04CF8C5A003F0B9FA3D737D
:1055300062E356E3CBA0396F06F042F897F87000AB
:10554000FBF75EFD58E3CCA0396F06F039F8CFA029
:1055500003F0CAFA50E379482030FAF7B6FE4FF468
:1055600080513867012806D00022CB48FDF70BFD9B
:10557000CAA0396FADE20122F7E770482030FAF790
:10558000A4FE38676D48E830FAF79FFEF8663A6F78
:10559000022101EB021139670246C9B20023202023
:1055A000FCF77CFDC0A000E364482030FAF78DFED4
:1055B000032101EB001005E060482030FAF785FE7A
:1055C00005EB0010C1B238672020FCF759FC0146FA
:1055D0003867BBA0E5E259482030FAF776FE386715
:1055E000BAA003F05DFABEA003F05AFA03F09EF8E9
:1055F00002E352482030FAF768FE3867B9A003F09A
:105600004FFAB7A003F04CFA0020396F04F04AFFBC
:105610003867F1E249482030FAF757FE3867B1A001
:1056200003F03EFAAEA003F03BFA00F017FCE3E211
:1056300042482030FAF749FE3867AFA003F030FA4D
:10564000A7A003F02DFA97F87000FFF73DFBD3E217
:105650000021ADA005F0B4FFFCF756FB014638670A
:10566000ADA036E235482030FAF72FFE3867DAE988
:105670001823ACA005F0BCFFABA096E22F48203069
:10568000FAF723FE01463867A8A005F099FF01F05C
:1056900087FBB1E229482030FAF717FE0146386748
:1056A000A5A005F08DFF00F0CDFFA5E22348203036
:1056B000FAF70BFE01463867A2A005F081FFA54866
:1056C00002F06AF898E21D482030FAF7FEFD014624
:1056D0003867A1A005F074FF00224FF480614D46A9
:1056E0004846FDF750FC97F8700005F09FFE012238
:1056F0009102284655E111482030FAF7E6FD0146AF
:10570000386799A005F05CFF386F012803D00022AC
:105710001021484645E10122FAE708482030FAF70F
:10572000D4FD0146386793A005F04AFF02F0C6FC9D
:1057300062E29FE27463615F770000007E2A0020CE
:10574000656E61626C655F6C6D0000006C6D0000E1
:105750007379735F696E666F000000006C6D5F495E
:10576000440000006C6D5F74656D70006C6D5F7659
:10577000000000007077725F303732006932635F7B
:1057800061647200737461727400000070777264F7
:105790006E0000004144435F7465737400000000B4
:1057A00068656C70000000006932635F7374617437
:1057B000757300006932635F7472616E736D697432
:1057C000000000006932635F7265636976650000FE
:1057D0006C6564006D656E75000000005245515F98
:1057E000434F4C00414E5300EFF0E8EDFFEB2076C5
:1057F0006572736979610D0A000000007856002017
:10580000EFF0E8EDFFEB2073657475705F49503081
:105810003A000000EFF0E8EDFFEB207273745F30A8
:1058200037323A0000040240EFF0E8EDFFEB20725F
:10583000733438355F746573745F4F4B3A00000002
:10584000F2E5F1F22034383520F8E8EDFB20EFF0F6
:10585000EEE9E4E5ED20F3F1EFE5F8EDEE210D0AD8
:1058600000000000EFF0E8EDFFEB207273343835F4
:105870005F746573743A0000EFF0E8EDFFEB20729F
:10588000733438355F68656C703A00007E3020688C
:10589000656C703B00000000000C0240EFF0E8ED8A
:1058A000FFEB207570723A00EFF0E8EDFFEB204659
:1058B000504741207370695F77726974650D0A0003
:1058C000434F444520465047413A0000EFF0E8ED91
:1058D000FFEB204A5441475F5453540D0000000031
:1058E0000D000000EFF0E8EDFFEB204A5441475F68
:1058F0005343414E0D000000EFF0E8EDFFEB204A6E
:105900005441475F49440D00EFF0E8EDFFEB2042C2
:10591000617450473A000000504F5745525F474F5F
:105920004F443A005B0000005D0D0A00EFF0E8ED27
:10593000FFEB206D656D3A00EFF0E8EDFFEB204DD9
:1059400053473A00EFF0E8EDFFEB2049445F534541
:1059500052563A00B8510020EFF0E8EDFFEB20730B
:105960007069353A00000000EFF0E8EDFFEB206EC3
:1059700073733A00EFF0E8EDFFEB206574685F6940
:105980006E69743A00000000BD48FAF79EFC0146BB
:105990003867BCA005F014FE4FF40041386F20E0DA
:1059A000BC48FDF7F0FA27E1B548FAF78EFC01464E
:1059B0003867B9A005F004FE386FB8631CE1B04841
:1059C000FAF783FC01463867B8A0F7E0AC48FAF76D
:1059D0007CFC01463867B9A005F0F2FD386F4FF442
:1059E0008041012801D00022DAE70122D8E7A4484B
:1059F000FAF76BFC0146F866B5A005F0E1FD97F8F3
:105A00006C0000F095FBF7E09D48FAF75EFC01465C
:105A10003867B2A005F0D4FD97F8700001F076FF6A
:105A2000EAE09748FAF751FC01463867B0A005F064
:105A3000C7FD97F8700000F0E9FAB14DB1A02978E0
:105A400005F08CFE6978B0A005F088FEA978AFA0BB
:105A5000A7E08B48FAF739FC01463867ACA005F09F
:105A6000AFFD97F86C0000F0F5FB01463867ACA07D
:105A70002FE08348FAF729FC01463867AAA005F011
:105A80009FFD97F86C0000F043FD01463867AAA01F
:105A90001FE07B48FAF719FC01463867A7A005F01C
:105AA0008FFD97F8700001F0A9F9A5E07448FAF7A6
:105AB0000CFC01463867A5A005F082FDB7F8700020
:105AC0004FF47A7381B20122A448FDF745FB0146E9
:105AD000A3A005F075FD8FE06948FAF7F6FB0146D3
